:020000040800F2
:1000000000500020CD270008112800081128000802
:10001000112800081128000811280008000000001D
:10002000000000000000000000000000112800088F
:100030001128000800000000112800086539000898
:1000400011280008112800081128000811280008AC
:10005000112800081128000811280008112800089C
:10006000112800081128000811280008112800088C
:10007000112800081128000811280008112800087C
:10008000112800081128000811280008112800086C
:10009000112800081128000811280008112800085C
:1000A000112800081128000811280008112800084C
:1000B000112800081128000811280008112800083C
:1000C000112800081128000811280008112800082C
:1000D00011280008F1410008112800081128000823
:1000E000112800081128000811280008000000004D
:1000F0000000000000000000000000000000000000
:1001000000000000000000005FF808F183684279F9
:1001100000211A4403F8011B9342FBD1704700BF32
:1001200010B4C378914294BF002401248B4234BFA1
:1001300000210121807844EA010390428CBF002015
:1001400003F00100214008435DF8044B704700BFF5
:1001500043798B4204D2934234BF00200120704780
:100160000120704770B4CA784D78C4782A44013AA7
:1001700002F0FF02954294BF00230123AC4234BF3A
:1001800000240124867844EA030596428CBF0022AD
:1001900005F0010222B9234002D170BC1846704715
:1001A00040790B788A78834209D970BC1A44013AA5
:1001B00002F0FF0282428CBF002001207047012024
:1001C00070BC704700230B7083784B704379013B00
:1001D0008B70C378CB70704710B4CB784978012B03
:1001E0001FD0032B13D00C460023C27880788A429C
:1001F00034BF0022012242EA0301A0428CBF00204A
:1002000001F00100134018435DF8044B7047A1F161
:100210000802D2B291420C462CBF002301231146A2
:10022000E3E701F10804E4B2A14294BF00230123F3
:10023000DBE700BF10B404460846A36811466279A4
:100240005DF8044B00F09EBB01207047014B187015
:10025000704700BF0000002008B50C4B01461B781A
:10026000012B09D00A4804F0CDFD0948802104F093
:100270004BFE0128F9D108BD064804F0C3FD05482E
:10028000802104F041FE0028F9D008BD00000020C4
:10029000004400400038014001700120704700BF59
:1002A0000B7810B45BB1024602F8013B11F8013F34
:1002B000141A002BF8D120465DF8044B70471C46F9
:1002C000F9E700BF092B70B51E4602F1FF35044661
:1002D00013D8002D1BDD0B46411904F8013B8C425D
:1002E000FBD110460B4BA3FB0623DB0803EB830378
:1002F000A6EB430330330B7070BD064B2A46A3FBBD
:100300000653DB08FFF7DEFF21180130EAE701465C
:100310000120E7E7CDCCCCCCF8B5002B05460F4645
:1003200027DB092B1E4602F1FF3219DC002A3CDDD7
:1003300011462C46013904F8017BFBD1012AB8BFD4
:100340000122002B15442BDB501C194BA3FB062369
:10035000DB0803EB8303A6EB430330332B70F8BDBC
:10036000134BA3FB0643DB08FFF7D6FF0544013020
:10037000EBE75E42092E02F1FF3408DD0C4B22460A
:10038000A3FB0643DB085B42FFF7C6FFEEE7023A3A
:10039000002AD8BF0220CBDC2D2305F8013BD4E78F
:1003A0002D23901C05F8013BCFE70120CDE700BFCE
:1003B000CDCCCCCC2DE9F04182B0089E551E5FEA31
:1003C000161E044698461ED1002D24DD0F46431903
:1003D00004F8017B9C42FBD1104606F00F06092E63
:1003E0000CD9B8F1000F04D157361E7002B0BDE829
:1003F000F08137361E7002B0BDE8F08130361E70D5
:1004000002B0BDE8F081CDF800E02A46FFF7D2FF48
:1004100023180130E1E703460120DEE72DE9F04132
:100420000F4682B09E46064608B1002303700025A1
:1004300013785BB1BD4280F09F80252B0ED03370C6
:100440000132137801350136002BF3D1AF4240F26F
:1004500093802846337002B0BDE8F0815178252999
:1004600035D0302938D00B46541CA3F13002092A6C
:100470004FF0200136D8002202EB820203EB420249
:1004800014F8013F303AA3F13000092802F0FF02CE
:10049000F2D910462844874238BF7A1BA3F158038B
:1004A00038BFD2B2202B6ED8DFE803F05A6D6D6DE5
:1004B0006D6D6D6D6D6D6D52486D6D6D6D486D6DD1
:1004C0006D6D6D6D6D6D6D386D2E6D6D1F003170C4
:1004D000023201350136ABE79378941CA3F1300268
:1004E000092AC8D900200246D4E7DEF80030304699
:1004F000009300230EF10408FFF75CFFC646034695
:10050000621C1E44054493E7DEF8003030460EF1CD
:100510000408FFF7D7FEC6460346F1E7DEF80010F1
:100520000EF1040E0B789BB3324602F8013B11F832
:10053000013F901B002BF8D10346E1E7DEF80030C5
:1005400030460EF10408FFF7E7FEC6460346D7E73C
:10055000DEF80020012318460EF1040E3270CFE7BA
:10056000DEF800303046009301230EF10408FFF757
:1005700021FFC6460346C3E70023681E06F8013C78
:1005800002B0BDE8F0814FF0FF3002B0BDE8F0816D
:100590001846B5E70CB410B582B004AC54F8042B7F
:1005A00023460194FFF73AFF02B0BDE8104002B0C5
:1005B000704700BF10B40C461346642122465DF814
:1005C000044BFFF72BBF00BF0EB410B583B005ACD2
:1005D00054F8042B642123460194FFF71FFF03B056
:1005E000BDE8104003B07047084B10B55B68044687
:1005F0009A688A4202D0DB688B4204D1E0B2FFF7EE
:100600002BFE204610BD4FF0FF3010BD0000002033
:10061000F8B507460078A8B10D460B4E0024736864
:100620009A68954205D0DB689D4202D04FF0FF30BA
:10063000F8BDFFF711FE17F8010F01340028EED1C5
:100640002046F8BD0446FBE700000020F0B5A3B04B
:100650006C468E4617460E4D06460FCD0FC40FCD85
:100660000FC42D6872463B4609A864212560FFF738
:10067000D5FE632806DD074B68465B68D968FFF73F
:10068000C7FFFEE709A83146FFF7C2FF23B0F0BD60
:10069000C09A000800000020034B0A465B68014630
:1006A0009868FFF7D3BF00BF000000200FB400B56B
:1006B000074A83B004AB53F8041B50681A4680689D
:1006C0000193FFF7C3FF03B05DF804EB04B070477C
:1006D000000000200EB400B582B003AB53F8041B39
:1006E0001A460193FFF7B2FF02B05DF804EB03B0C6
:1006F000704700BF024B5B689968FFF789BF00BF76
:1007000000000020044A05491368002B08BF0B466F
:100710001844106018467047240900200811002072
:100720004FF0FF30704700BF4FF0FF30704700BF01
:100730004FF400534B600020704700BF012070470A
:10074000002070471046704710467047FEE700BF14
:100750000A2A2DE9F04790469A4605460C4652D0A3
:10076000152A48D14E68002200F0FCF828462146A0
:10077000012200F0DBF8B768B67807F1800918E0CD
:100780002146284600F0F6F828462146802200F04F
:10079000F1F828462146012200F0E4F83B462846BD
:1007A00021461022103700F0EDF801364F45F6B221
:1007B0001CD028462146002200F0D4F83E222846CC
:1007C000214600F0D7F8A6F120021F2E62F07F0329
:1007D00046F08002D4D9DAB22146284600F0CAF8A1
:1007E00028462146882200F0C5F8D2E7284621464F
:1007F000002200F09BF82846214642465346BDE8B9
:10080000F04703F097BC032200F07EF8214628460B
:10081000054A00F0C7F82846214642465346BDE83F
:10082000F04703F087BC00BFE49A00080A2A2DE9CC
:10083000F04791469A4606460D4652D0152A48D1B1
:100840004C68002200F08EF830462946012200F064
:100850006DF8A768A47807F5007818E029463046B7
:1008600000F088F830462946802200F083F83046B0
:100870002946012200F076F83B46304629461022F0
:10088000103700F07FF801344745E4B21CD0304601
:100890002946002200F066F83E223046294600F044
:1008A00069F8A4F120021F2C62F07F0344F080025B
:1008B000D4D9DAB22946304600F05CF830462946F1
:1008C000882200F057F8D2E730462946002200F08F
:1008D0002DF8304629464A465346BDE8F04703F016
:1008E00031BB032200F010F829463046054A00F0DB
:1008F00059F8304629464A465346BDE8F04703F0CA
:1009000021BB00BFE49A000810B48C680023A44601
:1009100001215DF8044B604710B48C680021A446A7
:100920000A460B465DF8044B604700BF10B48C6864
:100930000023A44603215DF8044B604710B48C6883
:100940000022A446134604215DF8044B604700BF13
:1009500010B48C680122A446042100235DF8044BE6
:10096000604700BF10B48C680023A44602215DF8E4
:10097000044B604710B48C680023A44605215DF841
:10098000044B604710B48C680621A4465DF8044B04
:10099000604700BF10B48C680721A4465DF8044B83
:1009A000604700BF2DE9F04106460D4602F1FF38D1
:1009B000002318F8014F5BB9FF2C1CD022463046AB
:1009C000AC680521A0470028F2D10020BDE8F081E5
:1009D000FF2C12D0FE2C45D0EF2CE9D8DF2C15D8F7
:1009E000CF2C1CD8BF2C23D82306E1D4204603F0FB
:1009F00013F80023DDE70123DBE722463046AC682D
:100A000005210023A0470028D2D1DEE704F00F0221
:100A10000023AC6830460221A0470023C9E704F058
:100A20000F020023AC6830460321A0470023C0E733
:100A300004F00F0424010022023413460421AF689D
:100A400004F0FE043046B847204602F0E5FF0023DC
:100A500004210122AF683046B847204602F0DCFF8F
:100A60000023A6E70120BDE8F08100BF0020704709
:100A7000704700BF4171704740797047817170477E
:100A800080797047C1717047C079704701727047B3
:100A9000007A704741727047407A7047012981722D
:100AA0000BD0022900D0704741F6B05142F63022F7
:100AB0000A23C18102824382704742F2FC11F5E7AA
:100AC00081817047704700BF704700BF807A7047D0
:100AD00080897047C0897047008A7047408A704794
:100AE000002070470B46002203F8012B01334A70A7
:100AF00003F8012B03F8012B03F8012B03F8012B5A
:100B00001A70C3794B7170470B46002210B403F87A
:100B1000012B01334A7003F8012B1A7043790B70D3
:100B2000047A427A83794C708A70CB705DF8044BFA
:100B3000704700BF03682DE9F041224F9E6B0546C8
:100B4000BE420C46904638D1867A1B6C1E498B42B9
:100B500030D1A88944B1B8F10A0F05D9013EF6B2E7
:100B60000023012E237001D9BDE8F081174E052323
:100B70002025013BDBB2042B00D0C8B1A6FB00123C
:100B8000D20802EB8201A0EB41003030E05490B279
:100B9000002BEED10E4B217918681D79E2782E23B7
:100BA000C4F80600A57261712271E370BDE8F0819E
:100BB000E554EDE728469847CCE7B0472B68064652
:100BC000C3E700BFCD0A0008D10A0008CDCCCCCCC9
:100BD0007C9B000810B4064C00220F2104600171B8
:100BE00042718271C271027242725DF8044B7047A9
:100BF000089B000870B40D4E05232025013BDBB295
:100C0000042B00D06AB1A6FB0240C00800EB8004B0
:100C1000A2EB44023032CA5482B2002BEED170BC37
:100C20007047CD54002BE9D1F9E700BFCDCCCCCC37
:100C300070B5102300F10C06C373054631464068B9
:100C400001F06CF87D2405E0013C4FF0010031D04B
:100C500002F0B8FE6868298901F0D0F80028F3D0C6
:100C600029896868002201F0D7F84FF4F07002F08B
:100C7000A9FE01222989686801F0CEF8462002F019
:100C8000A1FE0423EB736868314601F047F8298917
:100C9000686801F0A9F8044610233146EB736868D0
:100CA00001F03CF84FF4CD7002F08CFEB4FA84F001
:100CB000400970BD204670BD38B5044642600381CE
:100CC00001600846012101F061FA22891023032501
:100CD000E373A281606804F10C01A57301F01EF8B2
:100CE00021896068012201F097F8A5722046FFF77C
:100CF0009FFF2046FFF79CFF2046BDE83840FFF7E6
:100D000097BF00BF38B50446102300F10C05C3732C
:100D10002946406801F002F800222189606801F04C
:100D20007BF8032002F04EFE0423E373294660683B
:100D300000F0F4FF0F2002F045FE2189606801F009
:100D400053F804462D2002F03DFE201C18BF012060
:100D500038BD00BF70B50646082400253046FFF7B1
:100D6000D1FF6D08631E10B165F07F05EDB213F081
:100D7000FF04F3D1284670BD38B504460D46102354
:100D8000C37304F10C01406800F0C8FF8DB92A4616
:100D90002189606801F040F8412002F013FE60688C
:100DA0002189012201F038F8BDE83840052002F021
:100DB00009BE21896068002201F02EF8052002F0AA
:100DC00001FE60682189012201F026F8BDE8384063
:100DD0003C2002F0F7BD00BF70B506460D4600246A
:100DE00045FA04F101F0010101343046FFF7C4FF78
:100DF000082CF5D170BD00BF704700BF70B5054627
:100E00000024332646FA04F101F00101013428469A
:100E1000FFF7B2FF082CF5D105F10F0405F1170615
:100E20002846FFF797FF04F8010FB442F8D170BDD0
:100E30002DE9F04105460024552646FA04F101F05B
:100E4000010101342846FFF797FF082CF5D105F181
:100E50000F0705F1170817F8016F002446FA04F18F
:100E600001F0010101342846FFF786FF082CF5D177
:100E70004745F0D1BDE8F08170B506460024CC2589
:100E800045FA04F101F0010101343046FFF774FF27
:100E9000082CF5D170BD00BF70B50646002444256E
:100EA00045FA04F101F0010101343046FFF764FF17
:100EB000082CF5D170BD00BF70B50646002448254A
:100EC00045FA04F101F0010101343046FFF754FF07
:100ED000082CF5D1BDE870400A2002F073BD00BFB8
:100EE0002DE9F8430546884617461E4600244FF074
:100EF0004E0949FA04F101F0010101342846FFF7D7
:100F00003BFF082CF5D1002448FA04F101F001015F
:100F100001342846FFF730FF082CF5D1002447FAAA
:100F200004F101F0010101342846FFF725FF082CE8
:100F3000F5D1002446FA04F101F0010101342846FC
:100F4000FFF71AFF082CF5D1BDE8F88338B50C4639
:100F500005464B0143F01F03DBB24B214622FFF74E
:100F6000BFFFAC7238BD00BF2DE9F84305460E4601
:100F70000024BE2747FA04F101F00101013428469C
:100F8000FFF7FAFE082CF5D12846FFF7E3FE0446EA
:100F90002846FFF7DFFE40F6310344EA002084B222
:100FA0009C4218D8C4F3061006F01EFC804604F0DC
:100FB0000F00894606F018FC0022154B06F07AFC5B
:100FC00002460B464046494606F0C2FA06F0ACFE21
:100FD0003060BDE8F8836442A4B2C4F3061006F0A2
:100FE00003FC804604F00F00894606F0FDFB00225A
:100FF000074B06F05FFC02460B464046494606F0AA
:10100000A7FA06F091FE00F100403060BDE8F883D9
:101010000000B03FF8B505460E460024BE2747FA4B
:1010200004F101F0010101342846FFF7A5FE082C68
:10103000F5D12846FFF78EFE04462846FFF78AFEC4
:10104000AB7A44EA002080B2BBB1012B2AD0022B3C
:101050002AD040F631039842144D13D9404284B24D
:10106000C4F3061006F0C0FB01F10043194606F078
:1010700033FE308004F00F0009E00D4D40F63103DF
:101080009842EBD8C0F30613338000F00F0006F04F
:1010900055FF294606F0A6FF07F090F9012370607E
:1010A0003372F8BD034DE9E7034DE7E700401C4408
:1010B0000000203F0000C84000007A4270B505469D
:1010C0000024B82646FA04F101F001010134284653
:1010D000FFF752FE082CF5D168682989012200F03B
:1010E0009BFE052002F06EFC2846FFF70BFE002851
:1010F000FAD170BD70B505460024B42646FA04F155
:1011000001F0010101342846FFF736FE082CF5D125
:101110002846FFF7F7FD003018BF012070BD00BF63
:10112000F8B506460D460024BE2747FA04F101F043
:10113000010101343046FFF71FFE082CF5D105F1FF
:1011400008043046FFF706FE05F8010BA542F8D16A
:10115000F8BD00BF704700BF41630320084700BFD0
:10116000704700BF0A4602484FF4804100F054BE69
:10117000000C014070B5064600F1EB0400F1EF05EC
:1011800014F8013FEBB9237BABB9AC42F8D1304640
:101190000F4904F0B7FC06F188050C2422460C34F4
:1011A0002B4630460021E4B204F008FA482C05F141
:1011B0001405F3D170BD3046217C227D01F08EFEF6
:1011C000E3E730462179227A01F088FEDBE700BFB1
:1011D0002CAE000880F83C10704700BF70B5064682
:1011E000104615460C4608F017FB062801D8022CBD
:1011F00000D970BDC4EBC40430192A46BDE8704064
:101200003D300721FFF7C6B980F85210704700BF84
:1012100038B5054608460C4608F0FEFA092800D9FC
:1012200038BD05F153002246BDE838400A21FFF7DA
:10123000B1B900BF002380F8533080F8543080F8F3
:10124000553080F8563080F8573080F8583080F8A4
:10125000593080F85A3080F85B3080F85C30704745
:1012600038B5054608460C4608F0D6FA132800D9CA
:1012700038BD05F15D002246BDE838401421FFF776
:1012800089B900BF5D300021142208F025B900BFE4
:1012900080F87D10704700BF38B5054608460C46FB
:1012A00008F0BAFA092800D938BD05F17E002246B7
:1012B000BDE838400A21FFF76DB900BF80F8711012
:1012C000704700BF80F87210704700BF0B4B00B52D
:1012D000A3FB01E364225B0902FB1311084A89B2F4
:1012E000A2FB011283B0D20800920921054A733093
:1012F000FFF750F903B05DF804FB00BF1F85EB5109
:10130000CDCCCCCC849B000880F87C10704700BF0B
:1013100070B50646104615460C4608F07DFA1328AF
:1013200001D8042C00D970BD04EB840406EB8400C2
:101330002A46BDE8704088301421FFF72BB900BF62
:1013400010B403299DF8044006D8014481F8EC400C
:1013500081F8F02081F8F4305DF8044B704700BF4D
:1013600010B403299DF8044006D8014481F8F840E0
:1013700081F8FC2081F800315DF8044B704700BF14
:1013800070B5064600F1880400F50675204608F0A1
:1013900043FA002102462046143408F09DF8AC427E
:1013A000F4D1002386F8EC3086F8F83086F8ED307A
:1013B00086F8F93086F8EE3086F8FA3086F8EF30A5
:1013C00086F8FB3070BD00BFF0B50446214D83B0F8
:1013D000214A224900F0C2FA022610234FF4804726
:1013E000284601A98DF80730ADF804708DF8066025
:1013F00000F094FC28463946002200F00DFD01A9BA
:101400002846ADF8046000F089FC284631460122E8
:1014100000F002FD002184F8531084F8541084F881
:10142000551084F8561084F8571084F8581084F832
:10143000591084F85A1084F85B1084F85C10142258
:1014400004F15D0008F048F82046FFF799FF03B06B
:10145000F0BD00BF000C0140D13A00088404002018
:1014600070B5064682B0012117220C2301F036FD2B
:10147000304600210F22082301F046FD30460D21A1
:101480000F22082301F040FD02240025012D0CBF8E
:101490001023112304F1FF310093234604F10204C9
:1014A0000CBF11221022C9B23046E4B202F058FB40
:1014B0000E2C85F00105E9D102B070BD30B50446AF
:1014C00083B001210B22062301F008FD20460021F4
:1014D0000322082301F018FD2046072103220823D8
:1014E00001F012FD07221546204604210A2301F0CF
:1014F000F5FC204600950B2105220D2302F030FB60
:101500000923009320462A460D210B2302F028FBD5
:1015100003B030BD10B5044672210F22022301F042
:10152000DDFC204675210F22022301F0D7FC204666
:1015300078210F22022301F0D1FC20467B210F22CB
:10154000022301F0CBFC022320467E210F2201F072
:10155000C5FC94F87C300D2B00D810BD20467221BC
:101560000C22032301F0D0FC0323204673210C221C
:1015700001F0CAFC94F87C30172BEED92046752177
:101580000922062301F0C0FC062320467621092209
:1015900001F0BAFC94F87C30212BDED9204678216A
:1015A0000622092301F0B0FC0923204679210622F6
:1015B00001F0AAFC94F87C302B2BCED920467B215D
:1015C00003220C2301F0A0FC0C2320467C210322E3
:1015D00001F09AFC94F87C30352BBED920467E2150
:1015E00000220F2301F090FC2046BDE810407F212F
:1015F00000220F2301F088BC2DE9F0410446FFF7DB
:101600005DFF2046FFF72CFF20463B4904F07AFAA5
:1016100000212422394B204603F0D0FF20463849D0
:1016200004F070FA04F13D0604F152070C252A4635
:10163000334620461421073603F0C0FF0C35BE4266
:10164000EDB2F4D194F85310C9BB94F85230F3BB07
:101650000021402204F15D03204603F0AFFF204645
:1016600040210022342301F04FFC4023204600217A
:10167000332201F033FC94F8713063B194F8723086
:101680005BBB204649211A2204F1730303F096FF45
:101690002046FFF73FFF94F87D300BB9BDE8F0819D
:1016A000204651212622174B03F088FF204604F1E3
:1016B0007E0342213222BDE8F04103F07FBF204685
:1016C0000021302204F1530303F078FFC0E72046E5
:1016D00030220D4B03F072FFBAE72046064904F0B2
:1016E00011FA20466C210822084B03F067FF2046C0
:1016F000034904F007FAC4E778C50008909B000886
:101700002CAE0008A09B0008949B00089C9B00083E
:1017100010B5044600F04CF905E0FFF76DFF2046D8
:1017200000F04AF958B194F83C302046002BF4D030
:10173000FFF720FD204600F03FF90028F3D110BD4F
:1017400010B40C68A4465DF8044B604770B50446BD
:101750000D46436B0220984729460A222E682046F0
:101760000023B0470546636B03209847636B002056
:101770009847284670BD00BF70B504460D46436BC0
:1017800002209847636B012098472E68294620461F
:1017900014220023B04704F138032E68294620465E
:1017A0001722B047636B0020BDE87040184700BFA8
:1017B000F8B504460D46436B02209847636B012041
:1017C00098472E682046294615220023B047064632
:1017D00030B12F6829462046172204F13803B84754
:1017E000636B002098473046F8BD00BF10B582B04B
:1017F00002AB03F8012D0C680F22A04702B010BD08
:1018000010B480F82D2080F82E300C6800F12D03E4
:10181000A44632225DF8044B604700BF70B49DF8C7
:101820000C609DF8105080F82D2080F82E3080F844
:10183000306080F82F500C6800F12D03A44670BC76
:101840003B22604770B49DF80C609DF8105080F802
:101850002D2080F82E3080F8306080F82F500C68F2
:1018600000F12D03A44670BC2D22604710B582B054
:101870000C6846220DF10703A0479DF8070002B04F
:1018800010BD00BF10B582B00C6847220DF10703F0
:10189000A0479DF8070002B010BD00BF10B40C684F
:1018A0004822A44600235DF8044B604730B5044647
:1018B000416883B00D680DF107034622A8479DF8E3
:1018C0000730616823700D680DF107032046472239
:1018D000A8479DF80730616863700D68204648226C
:1018E0000023A8476168E0740D68204604F13803BE
:1018F0001722A84703B030BD10B541680446FFF772
:1019000025FF18B12046FFF7D1FF012010BD00BF11
:10191000F8B504460F46002501262223837485600E
:10192000C56045748561067480F8316003F0E2FF9C
:10193000094B402284F8286084F8295084F82A5002
:1019400084F82C5084F82B20676063632046BDE840
:10195000F840FFF7D1BF00BF551100082DE9F04155
:1019600004460F4690460025012622238374856095
:10197000C56045748561067480F8316003F0BAFF74
:101980000A4B402284F8286084F8295084F82A50B1
:1019900084F82C5084F82B20676063632046C7F8D6
:1019A0000880BDE8F041FFF7A7BF00BF5511000850
:1019B0004168FFF7E1BE00BF836910B5044603B17B
:1019C000984720466168BDE81040FFF7F1BE00BFB0
:1019D00010B582B0426802AB03F8011D14681146CD
:1019E0000F22A04702B010BD416810B40C6810224D
:1019F000A44600235DF8044B604700BF416810B463
:101A00000C681122A44600235DF8044B604700BF18
:101A1000034630B4446880F82D1080F82E202568E5
:101A20002146AC4630BC2D333222604770B49DF85D
:101A30000C60456880F82D1080F82E2080F830303A
:101A400080F82F602C682946A44670BC00F12D0355
:101A50003B22604770B49DF80C60456880F82D10FB
:101A600080F82E2080F8303080F82F602C682946CE
:101A7000A44670BC00F12D032D226047F0B44568E8
:101A80000027802680F82D1080F82E2080F8313035
:101A900080F8307080F82F602C682946A446F0BC8E
:101AA00000F12D033B22604730B583B09DF81850FC
:101AB00044688DF804108DF805208DF806308DF8F7
:101AC0000750256821463C2201ABA84703B030BD32
:101AD00080F83110704700BF0B0A80F8311080F891
:101AE000323070479208DB0801F0F80143EA4213F4
:101AF00041EAD20180F8313080F83210704700BFDF
:101B000010B4C47C282C0AD0302C15D080F83110A9
:101B100080F8322080F833305DF8044B704702F0D3
:101B2000E00221F01F0141EAD20141EA931380F85B
:101B300031305DF8044B70479208DB0821F0070153
:101B400043EA421341EAD20180F8313080F8321082
:101B50005DF8044B704700BF90F83100704700BF3C
:101B6000C37C282B04D0022B0CBF0320012070471C
:101B7000FF207047C37C302B0CD0282B06D0022BC3
:101B80000CBF0323012380F831307047FF2380F816
:101B900031307047FF2380F8313080F832307047A1
:101BA00000207047002380F831307047C37C282B19
:101BB0000CBF6D2001207047C37C282B0CBF6D2308
:101BC000012380F83130704703780022013BC37055
:101BD00082700271704700BF10B40024047101705C
:101BE00042705DF8044BFFF7EFBF00BF83780278C7
:101BF00041781344DBB28B42837012D210B4C478A4
:101C000003792244D2B2914298BF01F1FF3203F12D
:101C1000010398BFD2B20371C2705DF8044B01207A
:101C200070470020704700BF08B52F4B98421ED068
:101C30002E4B984225D02E4B98422CD02D4B9842BB
:101C400033D02D4B98423AD02C4B984241D02C4B5C
:101C5000984200D008BD4FF48070012100F0AEFA28
:101C6000BDE808404FF48070002100F0A7BA0420BE
:101C7000012100F0A3FABDE808400420002100F093
:101C80009DBA0820012100F099FABDE8084008201B
:101C9000002100F093BA1020012100F08FFABDE876
:101CA00008401020002100F089BA2020012100F016
:101CB00085FABDE808402020002100F07FBA4020CE
:101CC000012100F07BFABDE808404020002100F02F
:101CD00075BA8020012100F071FABDE8084080202B
:101CE000002100F06BBA00BF00080140000C014069
:101CF000001001400014014000180140001C014088
:101D00000020014008B50120014600F057FABDE867
:101D100008400120002100F051BA00BF2DE9F04138
:101D2000CD78EB0648BF8B78098805F00F0E48BFC9
:101D30004EEA030E11F0FF0F21D0066800230127A1
:101D40004FF00F0802E00133082B17D007FA03F217
:101D500002EA01049442F6D19A0008FA02FC26EA4B
:101D60000C060EFA02F2282D46EA020631D0482D62
:101D700003F1010308BF0461082BE7D10660FF29C6
:101D800023D94668002301274FF00F0C02E00133EE
:101D9000082B19D003F1080207FA02F202EA010443
:101DA0009442F4D19A000CFA02F826EA08060EFAD8
:101DB00002F2282D46EA020609D0482D03F101035C
:101DC00008BF0461082BE5D14660BDE8F08144619D
:101DD000DDE74461B7E700BF4FF6FF71022204233D
:101DE00001808270C37070478368194214BF01205C
:101DF00000207047806880B2704700BFC3681942F6
:101E000014BF012000207047C06880B2704700BF37
:101E100001617047416170470AB9416170470161D2
:101E2000704700BFC160704741F4803383618161B6
:101E300083618369836970474FF68073054A10B4E4
:101E400014682340194341EA001010605DF8044B08
:101E5000704700BF00000140014B1860704700BF91
:101E60001C0020420028194B00F44012B4BFDB696B
:101E70005B68B2F5401F30B484B21ED0C20213D5E5
:101E8000C0F303450322AA4023EA020343F0706330
:101E900019B1420D1201944023430C4A0028B4BFEB
:101EA000D361536030BC7047420D120104FA02F254
:101EB00023EA020343F07063EAE7044D23F0706302
:101EC0006A6822F070626A60E2E700BF00000140C9
:101ED00001F0FC0303F1804303F5803301F00301BB
:101EE00010B489009C680F228A4024EA02029A609A
:101EF0009A68884002439A605DF8044B704700BFBF
:101F0000014B1860704700BFDC0020420D4B0E4AA9
:101F100019684FF41F0041F00101196059680A4027
:101F20005A601A6822F0847222F480321A601A68A9
:101F300022F480221A605A6822F4FE025A609860E5
:101F4000704700BF001002400000FFF80C4BB0F5D6
:101F5000803F1A6822F480321A601A6822F48022C4
:101F60001A6008D0B0F5802F04D11A6842F4A0227C
:101F70001A60704770471A6842F480321A607047DE
:101F80000010024082B000230A4A019302E0B3F538
:101F9000A06F08D0136813F4003F019B03F1010305
:101FA0000193019BF3D0034B1868C0F3404002B08B
:101FB000704700BF00100240034A136823F0F80383
:101FC00043EAC0001060704700100240014B1860E7
:101FD000704700BF00004242034A536823F47C1359
:101FE000194308435060704700100240014B1860CD
:101FF000704700BF60004242034A536823F0030366
:1020000018435060704700BF00100240024B5868F0
:1020100000F00C00704700BF00100240034A5368F4
:1020200023F0F00318435060704700BF00100240D7
:10203000034A536823F4E06318435060704700BFBD
:1020400000100240034A536823F4605343EAC0007F
:102050005060704700100240044A137819B923EA0F
:10206000000010707047184310707047091002404C
:10207000014B1860704700BFD8004242034A5368C2
:1020800023F4404318435060704700BF00100240E3
:10209000064B002201281A701A7005D0042802D1BC
:1020A00005221A7070477047187070472010024060
:1020B000014B1860704700BF80044242024A136A15
:1020C00018431062704700BF00100240014B1860B7
:1020D000704700BF3C044242224A10B4536803F0E8
:1020E0000C03042B06D0082B26D01BB11E4A134626
:1020F000026001E01C4B03601A4A1C495468C4F397
:1021000003140C5DE34043605468C4F302240C5D87
:1021100023FA04F484605468C4F3C2240C5DE340E1
:10212000C36052685DF8044BC2F381320A44127CEA
:10213000B3FBF2F30361704753685168C3F3834301
:10214000C90303F1020307D55268920304D4064A77
:1021500002FB03F30360CFE7054A02FB03F30360CE
:10216000CAE700BF0010024000127A00CC04002031
:1021700000093D00044A536919B923EA000050617F
:10218000704718435061704700100240044A936939
:1021900019B923EA000090617047184390617047B5
:1021A00000100240044AD36919B923EA0000D06143
:1021B00070471843D061704700100240044AD3684A
:1021C00019B923EA0000D06070471843D060704707
:1021D00000100240044A136919B923EA0000106193
:1021E000704718431061704700100240014B18609F
:1021F000704700BF40044242014B1860704700BF67
:102200004C004242014B1870704700BF071002405B
:102210004309012B0BD0022B094B0CBF1A6A5A6AD7
:1022200000F01F0322FA03F000F001007047044B96
:102230001A6800F01F0322FA03F000F00100704753
:1022400000100240024A536A43F0807353627047A1
:1022500000100240034B9B68184214BF012000206D
:10226000704700BF00100240014B1870704700BF5C
:102270000A10024030B5082487B0009404460025B7
:1022800040218022422301910292039304951D4B29
:102290001D494FF4001200F0BBF920462946FF22E9
:1022A00000F0DEF920460121FF2200F0D9F9204696
:1022B0002946FF2200F0E2F92046FF22012100F02A
:1022C000DDF92046012100F011FA20462946FF22BF
:1022D00000F0FCF9FF222046012100F0F7F9294621
:1022E000204600F067FA2046012100F063FA4FF61D
:1022F000FF72012384F85E50A4F85C2084F85F30FC
:1023000007B030BD000C014000540040836D30B474
:10231000052B04460EDC03EB430300EB8303012291
:102320000025D9611D625A62A36D10461344A3654E
:1023300030BC7047002030BC704700BF38B5012169
:10234000054600F037FA00210446284600F032FA2C
:1023500044EA002080B238BD80F85F10704700BFAB
:102360002DE9F04190F85F60044616B93046BDE8AB
:10237000F081FFF7E3FF804638484146FEF796F9C3
:102380004FF6FF7290453CD094F85E300133DBB2DB
:10239000032B84F85E3009D0B4F85C30934255D0FA
:1023A0000026A4F85C803046BDE8F081A36D002BC8
:1023B0001ADD254600270EE05B10C1582A6A184432
:1023C00051F802C001224146E047A36D0137BB42EC
:1023D00005F10C0508DD6B6AE869D907ECD4D5F87E
:1023E00020C000EB6300EDE74FF6FF752046FFF7D6
:1023F000A5FFA842FAD1002384F85E304FF6FF789B
:10240000CFE7B4F85C100027414584F85E701DD01A
:10241000A36D002BEFDD25460FE05B10C25818447A
:102420002B6A52F803C00022E047A36D0137BB427C
:1024300005F10C05DFDDB4F85C106B6AE869DA07BA
:10244000EBD4D5F820C000EB6300ECE74FF6FF7645
:10245000C6EB0806B6FA86F67609A2E7A89B00083E
:1024600070B504464BF6FF7686B001210069FFF790
:102470008DFEA28AE38AE06813431C25032201A98A
:10248000ADF804308DF806208DF80750FFF746FCB4
:10249000A0680121FFF786FE01200146FFF776FEC6
:1024A000606804F0BBF8114B06A941F8103D606864
:1024B000002301254FF48042ADF80E60ADF80C30DA
:1024C000ADF81230ADF81050ADF8142004F0C4F897
:1024D0002946606804F044F960684FF4003104F064
:1024E00081FA0028F8D106B070BD00BF801A06003E
:1024F00038B504460D4601F07FFA6068012104F00A
:1025000059F960681F4904F057FA0028F9D060684B
:10251000217E002204F0AEF960681B4904F04CFAF9
:102520000028F9D02946606804F09EF960681749D0
:1025300004F042FA0028F9D06068012104F03AF969
:102540006068104904F038FA0028F9D06068217EEC
:10255000012204F08FF960680D4904F02DFA00287B
:10256000F9D060680B4904F027FA0028F9D06068B8
:1025700004F07CF905460121606804F029F9284639
:1025800038BD00BF0100030082000700840007007F
:10259000020003004000030070B504460E461546D5
:1025A00001F02AFA6068012104F004F96068154915
:1025B00004F002FA0028F9D06068217E002204F0BD
:1025C00059F96068104904F0F7F90028F9D031464C
:1025D000606804F049F960680C4904F0EDF90028DE
:1025E000F9D02946606804F03FF96068074904F0B3
:1025F000E3F90028F9D060680121BDE8704004F0DB
:10260000E7B800BF01000300820007008400070054
:102610002DE9F041069FBDF81CC0BDF820E0BDF8D3
:1026200024609DF828504FF0000804464160826005
:10263000C36080F800800761A0F814C0A0F816E01D
:10264000068315B1FFF70CFF2578044B204613F8DD
:1026500035102822BDE8F041FFF79EBFBC9B000863
:1026600010B40478044B01EB440103EB8103197CA3
:102670005DF8044BFFF790BFBC9B000810B40478D2
:10268000054B01EB440103EB810393F820105DF847
:10269000044BFFF781BF00BFBC9B000838B50D4657
:1026A0000446094B01783DB113F83110A822FFF719
:1026B00073FF0123237038BD282213F83110FFF770
:1026C0006BFF257038BD00BFBC9B000810B40478B8
:1026D000054B01EB440103EB810393F830105DF8E7
:1026E000044BFFF759BF00BFBC9B000870B50E46F6
:1026F00003780A4D044615F83310FFF7F9FE4EB97A
:1027000000F0BF022378204615F83310BDE8704072
:10271000FFF742BF40F04002D2B2F3E7BC9B000893
:1027200070B50E4603780A4D044615F83310FFF7CE
:10273000DFFE56B140F00202D2B22378204615F8EF
:102740003310BDE87040FFF727BF00F0FD02F4E74B
:10275000BC9B000810B40478054B01EB440103EB6B
:10276000810393F840105DF8044BFFF715BF00BFDD
:10277000BC9B000810B40478054B01EB440103EB4B
:10278000810393F850105DF8044BFFF705BF00BFBD
:10279000BC9B000810B40478054B01EB440103EB2B
:1027A000810393F860105DF8044BFFF7F5BE00BF9E
:1027B000BC9B00080278044B01EB420103EB810350
:1027C00093F87010FFF794BEBC9B0008002103E053
:1027D0000A4B5B584350043109480A4B42189A424D
:1027E000F6D3094A02E0002342F8043B074B9A4221
:1027F000F9D304F029F901F013FD7047C0D50008A2
:1028000000000020240900202409002008110020D5
:10281000034B1A68D2B2FEE7AFF30080AFF300803B
:1028200004ED00E010B50446FEF7D4F9024A0F2388
:1028300023752260204610BD789C000870B588B0D2
:10284000064601F0D9F801F09BF8012104462E4814
:1028500003F0CCFF2C48012103F0ACFF04E001F0B1
:102860008FF8001B642832D82748284904F0A4F8C0
:102870000028F4D024482021012203F0FBFF04E0CB
:1028800001F07EF8001B642821D81F48204904F07D
:1028900093F80028F4D0142504E001F071F8001B2F
:1028A000642814D818481B4904F086F80028F4D08E
:1028B000154803F0DBFF08AA2A446B1C132D02F80D
:1028C000200CDDB206D0202D08BF0025EAE700204D
:1028D00008B070BD0C48002103F088FF0A480121B0
:1028E00003F076FF1436002308AA02EB430111F827
:1028F000200C11F81F2C013342EA0022102B26F87D
:10290000022FF1D10120E3E7005400400100030051
:10291000020003004000030010B50446FFF78EFFDD
:10292000A08D638AE289C0F3090000FB032080B216
:10293000A08110BDF8B504460F4616461D46FFF7A8
:102940007DFF608D10F00F0009D0E38D069A3B806B
:10295000238E01203380638E2B80A38E1380F8BDDD
:1029600038B5054601F048F81E48012103F03EFF46
:102970001C48012103F01EFF1A481B4904F01CF8F3
:102980000028F9D017482021002203F073FF1548D2
:10299000164904F011F80028F9D005F1180424357F
:1029A00034F8021F0F48090A03F05EFF0D48104972
:1029B00004F002F80028F9D00A48217803F054FF07
:1029C00008480B4903F0F8FF0028F9D0AC42E7D1E2
:1029D0000448002103F00AFFBDE838400148012106
:1029E00003F0F6BE0054004001000300820007001F
:1029F000840007002DE9F0414BF6FF7786B00446CE
:102A0000884608200121FFF7C1FB4FF420750223FF
:102A1000102201A94D488DF80630ADF804508DF80C
:102A20000720FFF77BF949484FF400710022FFF7B8
:102A3000F3F9464880210022FFF7EEF900F0DCFFB1
:102A4000012242484FF40071FFF7E6F900F0D4FF8D
:102A500008200121FFF79AFBC0251C22032301A9AE
:102A60003A488DF807208DF80630ADF80450FFF78E
:102A700055F94FF400100121FFF794FB01200146A6
:102A8000FFF784FB324803F0C9FD324B012206AD4B
:102A900045F8103D114600232D484FF48046ADF80F
:102AA0000E70ADF81020ADF80C30ADF81230ADF866
:102AB000146003F055FE2946254803F0CDFD244857
:102AC0004FF4003103F08EFF0028F8D12046FFF7C5
:102AD000B5FE10B906B0BDE8F0814FF40143A38400
:102AE0002046FFF73DFF4FF4FA7000F089FF2046C3
:102AF000FFF7A4FE4FF480436383B8F1000F1DD1AC
:102B0000E18B238C628C23F08F0343F4805322F0FB
:102B1000FF0241F4006143F0110342F0330201254A
:102B2000E1832384628420466571FFF719FF6E20DC
:102B300000F066FF284606B0BDE8F08144F20103CC
:102B4000E18B638341F4805189B2DAE7000C0140E4
:102B500000540040801A060038B50D460446FFF7C1
:102B60006DFE65B9E28B638B22F4805243F0410322
:102B7000E28363832046BDE83840FFF7F1BE638BF4
:102B8000E28B23F0400343F0010342F4805263835D
:102B9000E2832046BDE83840FFF7E2BE10B50446A8
:102BA0002046FFF74BFE638D5A04F9D52046FFF708
:102BB00045FE628BA38B22F48072C3F30E03628303
:102BC000A3832046FFF7CCFE2046FFF737FE638D38
:102BD0005B04F9D410BD00BF38B5C589028AA9428B
:102BE00038BF2946914228BF114604460D46FFF7DB
:102BF00025FEE189638A6D1A95FBF3F5A28B2046C9
:102C000022F4FF7323F001032B436FEA43436FEA7F
:102C10005343A383FFF7A4FE322000F0F1FE2046C9
:102C2000BDE83840FFF7BABF38B504460D46FFF798
:102C300005FE638B23F4C0639BB20DB143F40073B4
:102C400043F4807320466383FFF78AFE2046BDE885
:102C50003840FFF7A3BF00BF69B9036810B5044649
:102C60001B6C9847618A2368014489B22046BDE8FD
:102C70001040DB6B18470121FFF7D6BF69B9036825
:102C800010B504461B6C9847618A2368411A89B2C3
:102C90002046BDE81040DB6B18470021FFF7C4BF9A
:102CA00038B504460F2928BF0F210D46FFF7C6FD92
:102CB000238C204623F00F032B432384FFF750FE81
:102CC00020462946BDE83840FDF7D4BE38B5044655
:102CD0000D46FDF7D7FE2046FFF7B0FD638B3DB9EB
:102CE00023F4005363832046BDE83840FFF738BE25
:102CF00043F4005363832046BDE83840FFF730BEFD
:102D000038B504460D46FDF7C1FE638B3DB943F46B
:102D1000804363832046BDE83840FFF721BE23F49B
:102D2000804363832046BDE83840FFF719BE00BFEB
:102D300038B504460D46FDF7ADFE638B4DB96FEA1D
:102D400043436FEA534320466383BDE83840FFF7AF
:102D500007BEC3F30E0363832046BDE83840FFF788
:102D6000FFBD00BF012900D0704710B50446FDF734
:102D700095FE42F22E220A23E281638210BD00BF3B
:102D800038B505460C46FDF7ADFE2846FFF756FD63
:102D90006B8D0122637019076B8D48BFA27113F010
:102DA0000B0F22701CBF0122E27013F00E0F1CBF2C
:102DB000012323716B8B9B0444BF0123637138BDD6
:102DC00038B505460C46FDF79FFE2846FFF736FD51
:102DD0006B8B5A045CBF012262701B045CBF012331
:102DE000A37095F82030002203F00F032370E270E7
:102DF00038BD00BF2DE9F047072B82B09946074642
:102E00008A4616461CD91D460C464FF0FF08083D61
:102E10002146CDF80080384632460023EDB2FEF759
:102E200005FE0834072DE4B2F1D8A9F1080303F038
:102E3000F8030AF1080A9A440AF0FF0A09F00703A6
:102E40007BB183F007030133FF2203F0070302FA8B
:102E500003F3DBB200933846514632460023FEF7B7
:102E6000E5FD02B0BDE8F0872DE9F047072B82B001
:102E7000994607460E4692461CD91D4614464FF009
:102E8000FF08083D2246CDF8008038463146012330
:102E9000EDB2FEF7CBFD0834072DE4B2F1D8A9F16D
:102EA000080303F0F8030AF1080A9A440AF0FF0A3B
:102EB00009F007037BB183F007030133FF2203F01E
:102EC000070302FA03F3DBB2009338463146524659
:102ED0000123FEF7ABFD02B0BDE8F087F0B5012499
:102EE00083B0009407460E4615461C4602F0B0FE1D
:102EF00008B903B0F0BD384631462A46234603B030
:102F0000BDE8F040FFF776BFF0B51C4683B0012363
:102F1000009407460E46154602F09AFE08B903B023
:102F2000F0BD384631462A46234603B0BDE8F0409E
:102F3000FFF79ABF2DE9F04182B09DF82040064688
:102F400000940D461746984602F082FE10B902B072
:102F5000BDE8F081304629463A464346FFF74AFF2E
:102F6000304629463A462346FFF77EFF08F1FF31F7
:102F7000294430463A462346C9B2FFF775FF30462A
:102F800029464346621E3A44D2B202B0BDE8F0413F
:102F9000FFF730BF2DE9F04180460F4615461E462B
:102FA0009DF818402A46334640463946FFF722FF2F
:102FB000631E013513F0FF04EDB2F3D1BDE8F081DB
:102FC0002DE9F04182B09DF82040804600940F46E4
:102FD00016461D4602F03CFE10B902B0BDE8F08175
:102FE0004046394632462B46089402B0BDE8F041CF
:102FF000FFF7D0BF2DE9F04F87B09DF8405006464F
:103000000095894692461F469DF8444002F020FEF6
:1030100010B907B0BDE8F08F2B1BDBB21A460AEBE4
:103020000403D9B26FEA0408084609EB040C5FFAFE
:103030008CFCB8440223614604920390009302F191
:10304000FF3B23460246C8443046CDF814C05FFA21
:1030500088F803F05FFE01234146039A009330464F
:10306000234603F057FED344DDF814C05FFA8BFB10
:10307000042361465A4600933046234603F04AFE35
:1030800008235A464146009330462346C4F1FE08C1
:1030900003F040FE5FFA88F8DDF814C0C4EB0804C2
:1030A0000398049A3C440CF1010C5FFA8CFCE4B2E6
:1030B0002346614600F1010B904430465246CDF85C
:1030C0000CC0FFF797FEDDF80CC06A1E5244614643
:1030D0005FFA8BFB5FFA88F823463046D2B2FFF7DF
:1030E00089FE304649465A464346FFF7BDFE5A46DA
:1030F00043463046791E4944C9B207B0BDE8F04F97
:10310000FFF7B2BE2DE9F04F85B09DF83850064666
:1031100000958B4617469A469DF83C4002F098FD74
:1031200010B905B0BDE8F08F6FEA04092D1BEBB2B2
:1031300007EB040C0BEB04055FFA8CFC0293EDB279
:1031400003F1FF38022329466246009330462346A6
:10315000D144CDF80CC0D94403F03AFEDDF80CC0E0
:103160005FFA89F9012362464946009330462346B7
:10317000B84403F02DFE5FFA88F80423424629463E
:1031800000933046234603F023FE08234946424677
:1031900000933046234603F01BFEC4F1FE03DBB26E
:1031A000C4EB03090299D14401350134EDB25FFA51
:1031B00089F9E4B23A463046CF1800944B46294686
:1031C000FFF7E8FE42464B46294630460094FFF79B
:1031D000E1FE304659465346DDF80CC0FFB20CF113
:1031E0000102D2B20E9705B0BDE8F04FFFF7D2BE94
:1031F00030B5044687B01748FDF77CFA0125402317
:10320000082180228DE80A00204603930292124B87
:10321000049512494FF40012FFF7FAF900212046F5
:103220000A46FFF71DFA204629460022FFF718FA42
:10323000002120460A46FFF7ADFA20462946002223
:10324000FFF7A8FA06480023A38307B0BDE8304083
:10325000FDF750BAF09C0008000C014000540040FB
:10326000109D000838B50D460446818B42B1124BC3
:1032700012482A46FDF71AFAA38B1D4208D038BD22
:103280000F4B0E482A46FDF711FAA38B1D4211D0B1
:103290000C48FDF72FFAA28B20466A40A28300213A
:1032A000120AFFF777FA2046227F0121BDE8384055
:1032B000FFF770BA38BD00BF949D0008509D00080C
:1032C0008C9D0008309D000810B50446828B0021BB
:1032D00022F4F05292B28283120AFFF75BFA204680
:1032E000227F0121BDE81040FFF754BA10B5044613
:1032F000828B002122F0FA0292B28283120AFFF737
:1033000049FA2046227F0121BDE81040FFF742BA6A
:1033100001207047704700BFA0F10400FFF7FABF1B
:103320000148FDF7C3B900BFB4CC0008A0F1040008
:10333000FFF7F6BF38B5044607480D46FDF7B6F966
:10334000B4F8FC30402B00D038BD60692946BDE898
:103350003840FDF785BF00BFC4CC0008A0F10400D1
:10336000FFF7E8BFB0F8FC3010B5202B04461ED0A4
:103370000DD8C3B1102B02D18023A0F8FC3000F08F
:10338000FFFA0123C4F8000184F8FE3010BD402B81
:1033900005D0802BF3D14023A0F8FC30EFE72023A9
:1033A000A0F8FC30EBE71023A0F8FC30E7E700239F
:1033B000A0F8FC30E3E700BF38B5194D194B2A6877
:1033C00003F118010360D307044641601FD5164975
:1033D000164A174B1748E16022616361A06004F14F
:1033E0001800FFF71FFA04F1500002F05FFF42F2ED
:1033F0001070022203234FF47A7184F80B2184F8B1
:103400000C31C4F8F800C4F80411204638BD284631
:1034100004F086F80028DAD0284604F08DF8D6E7C4
:10342000CC0E002060CC00084C0E00202C0E00209A
:10343000280D00206C0E002090F8083103B191E7B0
:10344000704700BF38B590F8F43004460D46B3B964
:10345000002D14BF4FF480414FF400512069012228
:10346000FFF700FF2A46E068202102F057FC00F039
:1034700087FA0123C4F8F00084F8F43038BD0069FD
:103480004FF400510022FFF7EDFE20694FF4804118
:103490000022FFF7E7FE4FF4FA7000F0B1FAD7E729
:1034A000F8B50446002504F1180621460127806876
:1034B000FEF72CFF2946304684F8EC5084F8F4508F
:1034C000A4F8FC5084F8FE5084F80A5184F808717E
:1034D000FFF790FA394684F809013046FFF742FCBD
:1034E00004F1E00604F15000211D02F013FF304604
:1034F00008214FF40053064A02F042FC304602F025
:10350000B9FE30462946BDE8F84002F071BC00BF64
:10351000000C0140B0F8FC30402B06D0802B00D0CE
:103520007047E03091B902F09FBC90F80931002B50
:10353000F6D00B4610B511460446183043B1FFF7DC
:103540008BFB6069BDE81040FDF79CBE02F09CBC9F
:10355000FFF794FBF5E700BF38B5B0F8FC30402B1F
:1035600008D0802B00D038BDE030B9B9BDE8384074
:1035700002F0AABC90F80931002BF4D000F1180435
:1035800020460D46FDF778FA01465DB908B1411EA7
:10359000C9B22046BDE83840FFF782BBBDE83840DD
:1035A00002F082BC0131C9B2F3E700BF70B50D462D
:1035B00004460069FFF79AFE402D59D094F80A316D
:1035C0006BB194F80931002B7ED160690021FDF7C1
:1035D00075FE6069FDF756FE002384F80A31802DE0
:1035E00025D104F1E00630460121A4F8FC5002F098
:1035F000FFFB304694F80C1102F076FC6069354907
:10360000FDF74AFE294620690122FFF72BFE2069BB
:1036100004210122FFF726FEE0682021012202F0AA
:103620007DFB60690121BDE87040FDF731BE04F10A
:10363000E000002102F0DCFBA4F8FC507DB92A4632
:1036400020690421FFF70EFE60692946FDF720FE80
:10365000E0682A46BDE87040202102F05FBB102DD3
:1036600028D0202DCED160691B49FDF715FEC9E792
:1036700004F1E000002102F0BBFB94F80931A4F84A
:10368000FC505BB960691549FDF7EAFD60691449B2
:10369000FDF702FE012384F80A31B3E704F11806AE
:1036A00030460121FFF758FA304694F80B11FFF726
:1036B000F7FAEBE7206908210122FFF7D3FD6069E3
:1036C0000849FDF7E9FD9DE704F118000021FFF727
:1036D00043FA7AE700CD0008DCCC0008E4CC00080F
:1036E000F4CC0008D4CC000830B590F8F43087B0A2
:1036F0000446002B48D194F8FE30002B32D1B4F8A8
:10370000FC30402B01D007B030BD94F80931002BBC
:10371000F9D00DF10E0304F118050093284602A913
:103720000DF10A0203ABFFF705F9002845D1284641
:10373000FFF7F2F801466069FDF7C8FD60690121F5
:10374000FDF7BCFD284604A9FFF71AFB60699DF848
:103750001610FDF7B7FD60699DF81110FDF7D4FD57
:1037600007B030BD00F00CF9D4F80031D4F80421D2
:10377000C01A9042C3D32046B4F8FC10FFF716FFDE
:10378000002384F8FE30BAE700F0FAF8D4F8F030FD
:10379000D4F8F820C01A9042ADD320694FF40051FC
:1037A0000022FFF75FFD20694FF480410022FFF700
:1037B00059FD002384F8F4309DE7BDF80E00BDF8F4
:1037C00008100090BDF80A20BDF80C3004F150003C
:1037D00002F0B2FDABE700BF10B5044690F8EC1064
:1037E00081F0010180F8EC10FFF72CFE94F8EC104A
:1037F000204619B9BDE81040FFF7D8BE1021BDE83A
:103800001040FFF7D3BE00BF90F8083103B97047EE
:10381000E2E700BF90F8083110B5044633B190F8E4
:10382000EC201AB1FFF7D8FF94F8083183F00103B8
:1038300084F8083110BD00BF30B44FF6DF7441F496
:103840007F4343F0DF03A34231D04FF6EF7441F4DE
:103850007F4343F0EF03A34238D04FF6F77441F4AF
:103860007F4343F0F703A34234D04FF6FB7241F499
:103870007F4343F0FB0393421FD04FF6FD7241F4A8
:103880007F4343F0FD03934228D04FF6FE7241F48C
:103890007F4343F0FE03934224D04EF6FF7341F47E
:1038A0006F4141F0FF0199420DD030BC704790F854
:1038B0000831002BF9D030BC54E590F80831002BCA
:1038C000F3D030BC88E730BCFFF7A4BF012130BC87
:1038D000FFF720BE002130BCFFF71CBE012130BC29
:1038E000FFF73ABE002130BCFFF736BE154B164934
:1038F0001B68164AA2FB0302A1FB03131449920C96
:103900009B090A60013BB3F1807FFCD270B4114A7D
:10391000114DF026002407201049536085F82360DC
:1039200094601060CB6813F0807309D1C8680C4AAA
:1039300040F08070C8605360136843F00103136067
:1039400070BC704710050020D34D621083DE1B430E
:10395000D00E002010E000E000ED00E0F0ED00E00F
:10396000001000E0024A536801335360704700BF03
:10397000D00E0020014B5860704700BFD00E0020D1
:10398000014B5868704700BFD00E0020024A5168B2
:1039900053689942FCD07047D00E002010F1FF30E0
:1039A000044A06D3516853689942FCD010F1FF30A5
:1039B000F8D27047D00E0020014B5868704700BF06
:1039C000001000E0094B10B41B68094C0949A4FB26
:1039D00003430A4649689B0C03FB001053681B1AFB
:1039E000002BFBDB5DF8044B704700BF1005002087
:1039F00083DE1B43001000E04FF47A70FFF7E2BF54
:103A000040B110B504464FF47A70FFF7DBFF013C7C
:103A1000F9D110BD704700BFFFF7F2BF0120FFF7DB
:103A2000D1BF00BF0A20FFF7CDBF00BF70B508208F
:103A300086B01E4D0121FEF7A9FB4FF48020012125
:103A4000FEF7B0FB1A4C284601A94FF4806203230D
:103A50001826ADF804208DF806308DF80760FEF7C3
:103A60005DF9284601A904224FF400638DF8072070
:103A7000ADF804304FF41645FEF750F900230C2240
:103A8000204602A9ADF81430ADF81030ADF80E3074
:103A9000ADF80C30ADF81220029501F0BBF82046CD
:103AA000012101F039F906B070BD00BF000C0140E2
:103AB00000480040014608B5044801F0A3F9034856
:103AC000802101F021FA0028F9D008BD004800400B
:103AD00070B5013982B01C4606290BD8DFE801F029
:103AE000041F0A0A0D2525004FF4FA70FFF788FF1E
:103AF000FFF79CFF012002B070BD184B01921878AF
:103B0000400000F0FE00FFF7D5FF019A1046FFF7D6
:103B1000D1FF0120FFF756FF012002B070BD0F4B0F
:103B2000CAB91A70012002B070BD002AE2D0551E39
:103B3000EDB20135094E25443078400000F0FE001A
:103B4000FFF7B8FF14F8010BFFF7B4FFAC42F3D155
:103B5000012002B070BD01221A70E3E7D80E0020E8
:103B60002DE9F04F83B09DF8309099428CBFCE1A6A
:103B70005E1A4A450C461D4607469346F6B20CD9D6
:103B8000C9EB020A5FFA8AFA564549D2AB464C465F
:103B9000154689464FF001080CE0C2EB090A5FFAAE
:103BA0008AFA56452CD21A464D465C4691468B46BB
:103BB0004FF00108CB4534BF0123FF23CAF3470967
:103BC0000193FF2D08BFFE25AC4210D947E02146E6
:103BD0005A46FDF71DFFC6EB0903DBB25FFA83F916
:103BE000013419F0800FE4B230D1A54237D3384602
:103BF000B8F1000FEBD059462246FDF709FFEAE77E
:103C000099421DD9224633462C461546FF22CB4603
:103C10004FF00008C6F34709019256469A46D0E78E
:103C200099420DD9224633462C4615460122CB46F1
:103C30004FF00008C6F34709019256469A46C0E77E
:103C400053464FF00008B2461E46B3E7019A53446C
:103C50009344A5425FFA8BFB5FFA83F9C7D203B0A6
:103C6000BDE8F08FF0B5074687B0294C012104204C
:103C7000FEF78CFA4FF480400121FEF787FA1825F1
:103C8000204669464FF4007203238DF80350ADF8C7
:103C900000208DF80230FEF741F8042269464FF407
:103CA000806320468DF80320ADF80030194EFEF7F2
:103CB00035F84FF4E06002F04DFC00240125252387
:103CC00001A88DF804308DF805408DF806408DF878
:103CD000075002F049FC0C23304602A9ADF812301F
:103CE0000297ADF81440ADF81040ADF80E40ADF8B5
:103CF0000C4000F08FFF30462A4640F2255101F07B
:103D000019F83046294601F007F807B0F0BD00BFAA
:103D10000008014000380140F0B5074687B01D4E4D
:103D200001210420FEF732FA04254FF4003001216E
:103D3000FEF738FA184C182230460DEB0501032324
:103D40008DF807208DF80630ADF80450FDF7E6FF3A
:103D500030460DEB05010823ADF804308DF807500F
:103D6000FDF7DCFF00230C22204602A9ADF8143039
:103D7000ADF81030ADF80E30ADF80C30ADF81220C3
:103D8000029700F047FF2046012100F0C5FF07B071
:103D9000F0BD00BF000801400044004010B50128FC
:103DA00082B04FF004020CBF1824042403230648F9
:103DB0000DEB02018DF80740ADF804208DF80630B8
:103DC000FDF7ACFF02B010BD00080140044A0549F0
:103DD000136810B45C1C1460C8545DF8044B704741
:103DE000E00E0020100F0020014B00221A607047E7
:103DF000E00E002000487047100F0020014B1868AB
:103E0000C0B27047E00E002083684279002103EBC6
:103E1000820203F8011B9342FBD17047427181601B
:103E200001EB8202002301F8013B9142FBD1704774
:103E3000F0B40E4685784479521B01F007078021C3
:103E4000D5B2E408F2083941806805FB0422C9B202
:103E50002BB9835C23EA01018154F0BC7047835C79
:103E600019438154F0BC704710B40C464A788178ED
:103E7000914206D8C178914203D3437921788B428D
:103E800002D85DF8044B704723795DF8044BFFF7C7
:103E9000CFBF00BF70B50D4606468C7823061AD4F6
:103EA000EB78032B06D8DFE803F0120A0E026B78DA
:103EB000013B6B70640014F0FF04EFD170BD6B78B0
:103EC00001336B70F6E72B78013B2B70F2E72B7810
:103ED00001332B70EEE730462946FFF7C5FFDFE7D9
:103EE0002DE9F041CB780D4606468C78032B26D879
:103EF000DFE803F01F1B1702FF274FF0000809E05F
:103F00002A786B78640042443B4414F0FF042A7022
:103F10006B7012D02306F3D530462946FFF7A4FF75
:103F2000EEE700274FF0FF08F4E701274FF0000805
:103F3000F0E700274FF00108ECE7BDE8F08100272B
:103F4000B846E7E710B5143A82B04C68332A23D854
:103F5000DFE802F02A3922482222222222222222CB
:103F60002222222222222222222222222222222231
:103F700022224F22222222222222221A22222222FC
:103F80002222222222225625194620460193FCF79E
:103F900023F9019B002838D1012002B010BD6278BE
:103FA00001201A7002B010BDA3686279002103EBF2
:103FB000820203F8011B9342FBD12046FDF704FE69
:103FC000012002B010BD2046FDF710FE0028E4D00D
:103FD000A3686279002103EB820203F8011B93427C
:103FE000FBD1D9E720461946FCF7ECF8012002B0D6
:103FF00010BD20461946FFF737FF012002B010BD63
:10400000627901201A7002B010BD20461946FFF7F0
:1040100067FF0120C1E700BF81604271FCF776B8FD
:1040200030B484784579121BED0802FB05F2802438
:1040300001F00705D2B22C4102EBD1018068E2B257
:104040002BB9435C23EA0202425430BC7047435C04
:104050001A43425430BC704710B40C464A788178F9
:10406000914206D8C178914203D3437921788B429B
:1040700002D85DF8044B704723795DF8044BFFF7D5
:10408000CFBF00BF70B50D4606468C7823061AD404
:10409000EB78032B06D8DFE803F0120A0E026B78E8
:1040A000013B6B70640014F0FF04EFD170BD6B78BE
:1040B00001336B70F6E72B78013B2B70F2E72B781E
:1040C00001332B70EEE730462946FFF7C5FFDFE7E7
:1040D0002DE9F041CB780D4606468C78032B26D887
:1040E000DFE803F01F1B1702FF274FF0000809E06D
:1040F0002A786B78640042443B4414F0FF042A7031
:104100006B7012D02306F3D530462946FFF7A4FF83
:10411000EEE700274FF0FF08F4E701274FF0000813
:10412000F0E700274FF00108ECE7BDE8F081002739
:10413000B846E7E710B5143A82B04C68332A22D863
:10414000DFE802F02932213C2121212121212121F6
:10415000212121212121212121212121212121214F
:1041600021214321212121212121211A2121212124
:104170002121212121214A24194620460193FCF7BF
:104180002BF8019B68BB012002B010BD62780120B2
:104190001A7002B010BD2046FBF7B8FF2046FDF7AD
:1041A00013FD012002B010BD2046FDF71FFD0028C1
:1041B000EAD02046FBF7AAFF0120E5E72046194692
:1041C000FCF700F8012002B010BD20461946FFF7A9
:1041D00043FF012002B010BD627901201A7002B0C5
:1041E00010BD20461946FFF773FF0120CCE700BF42
:1041F00008B5094840F2255100F090FE00B908BD0D
:10420000054800F003FEC0B27428F8D1BDE80840AC
:104210000248FCF76FBA00BF0038014084CD0008A7
:1042200070B54FF4E130DAB0FFF71CFDFFF75EFB2D
:104230004448FCF75FFA4448FDF7C6F842480121BC
:10424000FCF7C8FF414A00213F48FDF761F83E48AE
:10425000FDF75EFA3E4E3C480121FCF783FF3D48E6
:10426000FEF7C6FF3368DA0762D53B48FEF702F86F
:104270003A4801F019FD16A8FFF79EF816A8FFF7B7
:104280000FF9684600F078F8684600F037F92E48D4
:104290000021FCF79FFF3248FCF72CFA314D38E043
:1042A0002D48FEF75DF8FFF787FB001BA5FB0031EB
:1042B0002D48090CFCF7FAF9FFF77EFB0446684627
:1042C00000F09CFAFFF778FB001BA5FB00312748A4
:1042D000090CFCF7EBF9FFF76FFB044616A8FFF794
:1042E00003FAFFF769FB001BA5FB00312048090C0E
:1042F000FCF7DCF9FFF760FB04461348FDF708FA0A
:10430000FFF75AFB001BA5FB00311A48090CFCF70C
:10431000CDF9FFF751FB33680446DB07C0D40C48E6
:1043200003F0FEF80028BBD0094803F005F9B7E711
:10433000304603F0F5F8002897D0304603F0FCF83B
:1043400093E700BF0CCD0008280D002030CD0008F9
:10435000CC0E00202C0E00206C0E00204C0E0020F5
:104360003CCD0008D55204E950CD00085CCD0008D2
:1043700068CD000874CD000838B50D4D0D4A2B6886
:104380000446DB07026009D50B480C490C4A0D4B6B
:104390006060A160E2602361204638BD284603F0DA
:1043A000BFF80028F0D0284603F0C6F8ECE700BFBD
:1043B000CC0E002098CD00086C0E00204C0E002082
:1043C0002C0E0020280D002010B50446F9B990F8F5
:1043D00052300BB180F8521094F84E20A2B984F8F4
:1043E0005320E0684FF48061FEF73CFFE0684FF433
:1043F000007194F85220FEF735FF206994F85210AE
:10440000BDE81040FCF700BF94F85320E9E7012213
:1044100080F8532080F85220E3E700BF70B590F891
:104420004D401CB990F852301BBB70BD866C0446E1
:1044300030460D4603F092FF48B93046294603F056
:104440006FFF0028F1D094F852304BB970BD94F84A
:1044500052309BB13046294603F062FF0028E4D079
:104460000B48FCF747F92046BDE870400021FFF7F4
:10447000ABBF2146BDE87040FFF7A6BF0548FCF77B
:1044800039F92046BDE870400121FFF79DBF00BF0C
:10449000D0CD0008B8CD000808B510210348FDF7BD
:1044A000A3FCB0FA80F0400908BD00BF000801403D
:1044B000F0B5074683B008460D46164603F058FF90
:1044C000024614B203F03AFD0146284603F080FC90
:1044D000084903F087FD03F071FF224603460649B1
:1044E0006846FCF771F8386931466A46FCF776FE93
:1044F00003B0F0BD00002041E8CD00082DE9F041F7
:10450000044682B04448FCF7F5F821466068FDF7A0
:10451000FDFE4249002501274FF00408A164204612
:10452000022284F84C7084F84F7084F84E5084F85E
:104530004D5084F8505084F8515084F8525084F80B
:10454000535084F8545084F85550FFF7B1FF04F1EC
:1045500014061022022332480DEB0801ADF80420A6
:104560008DF806308DF80780FDF7D8FB41463B46B5
:1045700030462B4AFCF7A0FB84F84500E8B904F16B
:104580002C0528460421264A0223FCF795FB84F8D3
:10459000470048BB94F845301BB920692149FCF716
:1045A00037FEA0684FF48051012201F0B7FB1E488E
:1045B000FCF7A0F802B0BDE8F0813046FCF738FB0C
:1045C0003046FCF735FB3046FCF756FC29463046B2
:1045D000FCF7BCFC3046FCF72BFB3046FCF74CFCF0
:1045E0003046FCF759FCCAE72846FCF721FB284671
:1045F000FCF71EFB2846FCF73FFC00212846FCF791
:10460000A5FC2846FCF714FB2846FCF735FC284699
:10461000FCF742FCBEE700BFF0CD000800000C42F2
:104620000008014010CE00081CCE000838B5856C8B
:1046300004460949284603F087FE00B138BD2846E4
:104640004FF07C5103F0C6FB0222A06401462046D5
:10465000BDE83840FFF72CBF0000344238B5856C08
:1046600004460949284603F065FE00B138BD2846D6
:104670004FF07C5103F0ACFB0222A06401462046BF
:10468000BDE83840FFF714BF0000204110B51021ED
:1046900004460C48FDF7A8FB00B110BD94F850206B
:1046A000E06882F0010284F850204FF40061FEF7C8
:1046B000D9FDA06894F850204FF48071BDE81040F7
:1046C00001F02CBB0008014010B5102104460C4835
:1046D000FDF78AFB00B110BD94F85120E06882F02C
:1046E000010284F851204FF48051FEF7BBFDA06811
:1046F00094F851204FF40071BDE8104001F00EBB5A
:104700000008014010B5102104460948FDF76CFB74
:1047100000B110BD94F84D20A06882F0010284F829
:104720004D204FF48061BDE8104001F0F7BA00BFA2
:104730000008014010B5102104460C48FDF754FB59
:1047400000B110BD94F84E20E06882F0010284F8B8
:104750004E204FF48061FEF785FDA06894F84E204E
:104760004FF40061BDE8104001F0D8BA00080140E4
:1047700010B5044690F854204FF4004182F0010235
:10478000C06884F85420FEF76DFDA06894F85420AA
:104790004FF40051BDE8104001F0C0BA10B5044616
:1047A00090F855204FF4807182F00102C06884F8BF
:1047B0005520FEF757FDA06894F855204FF480412E
:1047C000BDE8104001F0AABA10B50446002380F8F5
:1047D0004D3080F84E3080F8503080F8513080F8FD
:1047E000523080F85330C068FEF76EFD206994F8AF
:1047F0005210BDE81040FCF707BD00BF2DE9F043A3
:1048000000F1140789B0002504463846ADF8085079
:1048100003958DF81050ADF8145006958DF81C5086
:10482000FCF706FA84F8450070B194F84430384635
:10483000012B00F0C180FCF7FBF93846FCF71CFBAC
:1048400038462946FCF782FB04F12C063046FCF77B
:10485000EFF984F8470070B194F846303046012BE8
:1048600000F0B180FCF7E4F93046FCF705FB304678
:104870000021FCF76BFB9DF81030002B61D06846DF
:104880005449BDF90820039B6D46FBF79DFE206946
:1048900001212A46FCF7A2FC9DF81C30002B48D0D1
:1048A00028464C49BDF91420069BFBF78DFE2A468D
:1048B00020690021FCF792FC47481021BDF80890C0
:1048C000DDF80C80FDF790FAB0FA80F594F84C30E2
:1048D0006D09AB4206D02069FCF7ACFC002D4DD031
:1048E00084F84C5094F8442094F845309A4207D00C
:1048F0002069FCF79FFC94F84530ABB384F8443052
:1049000094F8472084F846201DB19DF81020002A15
:104910003CD1FBB994F8473043B13046FCF788F9F5
:104920003046FCF7A9FA3046FCF7B6FA09B0BDE804
:10493000F0832A4B1B681A0CADF800308DF802206A
:10494000B5E7264B6D461B681A0CADF800308DF8A4
:1049500002209CE73846FCF76BF93846FCF78CFAE6
:104960003846FCF799FAD5E72046FFF72DFF206976
:104970001B49FCF74DFC94F84530BFE72046FFF794
:1049800023FF20691749FCF743FCA9E70FFA89F0D8
:1049900003F0D4FA0546404603F0CCFA124903F07E
:1049A000D5FB0146284603F015FA01462046FFF7DD
:1049B00035FD94F84530ACE7FCF75EFA384602A9BD
:1049C000FCF728FB40E7FCF757FA304605A9FCF74F
:1049D00021FB50E7E8CD0008000801403CCE00086C
:1049E00010CE000840CE00080000204138B590F8F5
:1049F0004F50044685F0010580F84F505DB1806846
:104A00004FF48051012201F089F920690121BDE8AC
:104A10003840FCF7A7BB80F8505080F8515080F820
:104A2000545080F855502A46C0684FF40061FEF794
:104A300019FCE06894F851204FF48051FEF712FC05
:104A4000E06894F854204FF40041FEF70BFCE06856
:104A500094F855204FF48071FEF704FCA06894F898
:104A600050204FF4807101F059F9A06894F851205A
:104A70004FF4007101F052F9A06894F854204FF4FB
:104A8000005101F04BF9A06894F855204FF4804193
:104A900001F044F9A0684FF480512A4601F03EF934
:104AA00020692946BDE83840FCF75CBB4FF6FF6241
:104AB00041F47E4343F0FF03934240D04FF6FF5250
:104AC00041F47D4343F0FF0393423CD04FF6FF3265
:104AD00041F47B4343F0FF03934236D04FF2FF7221
:104AE00041F4774343F0FF03934230D04DF6FF7219
:104AF00041F45F4343F0FF0393422AD04BF6FF7229
:104B000041F43F4343F0FF03934224D04FF67F72BA
:104B100041F47F4343F07F0393421ED04FF6BF72B0
:104B200041F47F4343F0BF03934218D04EF6FF7326
:104B300041F46F4141F0FF01994202D07047FFF705
:104B4000A5BDFFF753BFFFF7BFBDFFF7DBBDFFF705
:104B5000F1BDFFF70DBEFFF721BEFFF767BDFFF701
:104B60007DBD00BF08B5264B984218D0254B984212
:104B700021D0254B98422AD0244B984233D0244B45
:104B8000984200D008BD4FF480100121FDF722FBB0
:104B9000BDE808404FF480100021FDF71BBB4FF427
:104BA00080400121FDF70AFBBDE808404FF480403A
:104BB0000021FDF703BB4FF400300121FDF70AFB94
:104BC000BDE808404FF400300021FDF703BB4FF46F
:104BD00080200121FDF7FEFABDE808404FF4802057
:104BE0000021FDF7F7BA4FF400200121FDF7F2FA9A
:104BF000BDE808404FF400200021FDF7EBBA00BFEC
:104C0000003801400044004000480040004C004093
:104C10000050004070B504460D46038ACA889BB216
:104C200023F440531343038282898B88088992B20C
:104C30004989034322F4B0520B4322F00C02134380
:104C40009BB2A381A38AAA899BB223F4407386B046
:104C50001343A38201A8FDF73FFA1B48039B049965
:104C6000A289844208BF0B4612B2002A2A6803EBCD
:104C70008303B4BF5200920003EB8303B3FBF2F350
:104C8000124EA589A6FB03202DB240096422002DF7
:104C900000FB12334FEA00100ADB1A013232A6FB86
:104CA0000223C3F3431303439BB2238106B070BDB9
:104CB000D9003231A6FB0131C1F3421242EA0003AE
:104CC0009BB2238106B070BD003801401F85EB51B7
:104CD00000234FF416510C22016042818380C3806F
:104CE00003818381704700BF30B40B884D888C8866
:104CF000028A2B43C988234392B20B4322F4706289
:104D000013439BB2038230BC704700BF0023038073
:104D100043808380C3807047838929B923F400537B
:104D20001B041B0C838170479BB243F400538381A7
:104D3000704700BF10B401F01F04C1F342110123FA
:104D4000012903FA04F311D002290CBF10301430EA
:104D500032B902685DF8044B22EA0303036070472E
:104D600002685DF8044B1343036070470C30EFE7B3
:104D7000838A9BB21AB923EA0101818270471943E1
:104D800081827047038A23F00F031B041B0C0382EC
:104D9000038A9BB219430182704700BF838923F4C1
:104DA00000631B041B0C838183899BB2194381819F
:104DB000704700BF838929B923F002031B041B0C31
:104DC000838170479BB243F002038381704700BF29
:104DD000038A23F020031B041B0C0382038A9BB26B
:104DE00019430182704700BF038A29B923F4804325
:104DF0001B041B0C038270479BB243F48043038265
:104E0000704700BFC1F30801818070478088C0F3FC
:104E10000800704783899BB243F001038381704788
:104E2000038BDBB20383038B9BB243EA0121018333
:104E3000704700BF038B03F47F430383038B9BB254
:104E400019430183704700BF838A29B923F02003E7
:104E50001B041B0C838270479BB243F020038382A8
:104E6000704700BF838A29B923F010031B041B0C71
:104E7000838270479BB243F010038382704700BF68
:104E8000838A29B923F008031B041B0C8382704713
:104E90009BB243F008038382704700BF838919B92E
:104EA000C3F30E03838170476FEA43436FEA5343B2
:104EB0009BB28381704700BF838A29B923F40063C2
:104EC0001B041B0C838270479BB243F400638382F4
:104ED000704700BF838A23F004031B041B0C8382EA
:104EE000838A9BB219438182704700BF838A29B9A4
:104EF00023F002031B041B0C838270479BB243F018
:104F000002038382704700BF0388194214BF012047
:104F100000207047C94389B201807047C1F3421233
:104F200010B4012301F01F04012A03FA04F316D080
:104F3000022A0CBF028A828A92B21340028892B27D
:104F40004BB1090A01238B40134214BF01200020FA
:104F50005DF8044B704718465DF8044B7047828932
:104F600092B21340EAE700BF090A01238B40DB43FA
:104F70009BB20380704700BF43185B78405C03EB33
:104F8000002080B2704700BF0020704790F82A00D0
:104F9000704700BF90F829000130C0B2704700BFD1
:104FA00090F82A2090F829309B1A5BB203EBD37358
:104FB00002EB6300C0B2704700787047007870471A
:104FC000704700BF08B5FFF7FBFF18B1022801D0FA
:104FD000032008BD062008BD407970470621CBE7B5
:104FE0000821C9E7807A7047C07A704790F90C00B1
:104FF000704700BF90F90D00704700BF90F90E0098
:10500000704700BF90F90F00704700BF90F9100083
:10501000704700BFF8B5047806462046FFF7D0FF7A
:1050200007462046FFF7CEFF05463046FFF7DAFF7A
:1050300004463046FFF7D8FF012F14BFFF210F2190
:1050400006F1110209E09378844203EA01032B443C
:105050001A4404F1010409D0E4B21378FF2BF2D111
:10506000844202F1010204F10104F5D1901BF8BD64
:1050700083685878704700BF83689878704700BF8E
:10508000836893F903007047836893F904007047BD
:1050900083685879704700BF2DE9F84FD0F808A011
:1050A00081469AF800400E462046FFF789FF0746E2
:1050B0002046FFF787FF012F8346504614BF4FF06D
:1050C000FF084FF00F08FFF78DFF04465046FFF72B
:1050D0008BFF05465046FFF783FF602E30D940B363
:1050E00050446124B54217D3AC420CD914E0B44209
:1050F0002ED08378AC4208EA03035B44184404F1E1
:10510000010409D0E4B20378FF2BF0D1AC4200F1E6
:10511000010004F10104F5D1002089F81C0089F890
:105120001F0089F8200089F81D0089F81E00BDE8DD
:10513000F88F5046FFF752FF38B150444124D1E771
:105140005046FFF74BFF402EF6D80AF11100C9E791
:10515000BFB1022F15D003F00F02023A1B0989F8E4
:105160001E2089F81D30437803F00F021B0989F8CF
:10517000202089F81F3083781B0989F81C30BDE88E
:10518000F88F89F81F30437889F82030C37889F880
:105190001C30037989F81D30437989F81E30BDE849
:1051A000F88F00BF70B51446054680237F226370D8
:1051B00022700E460978FFF76FFF6B7F5B42D9B212
:1051C00021716B7FA370AB7FE37007E02B7F2846D4
:1051D0000B4423713178FFF75FFF2179AA7F94F99F
:1051E000000053B29842C8BF227095F8203094F95D
:1051F00001001344DBB25AB29042B8BF637016F894
:10520000013F002BE2D1EB7F0B44DBB22371697FBE
:105210000B44237170BD00BF08B5FFF73DFF0030A0
:1052200018BF012008BD00BF10B50446FFF734FFCA
:1052300000B1207F40B210BD2DE9F04F8A4685B005
:10524000194615460646FFF727FF0446002848D0B2
:10525000B3681878FFF7B6FE96F81E90737F96F83D
:105260002070C9EB05055FFA85F99A4496F81FB0DE
:10527000C7EB0905EDB25FFA8AFA804600972A4625
:1052800051465B46304600F0E3FC28B30BF1070BB8
:10529000CBF3C40319460293F7B1013BDBB20AEB2F
:1052A000C1070133A0440393FFB2029B83B154466C
:1052B000C3461BF8013B21460834009330462A467A
:1052C0000023E4B2FCF7B2FBBC42F2D1039B98444A
:1052D0000135EDB24D45E8D1307F40B205B0BDE8B3
:1052E000F08F40B205B0BDE8F08F00BF2DE9F0416E
:1052F000476A0546884614461E46B8470219414685
:1053000028463346BDE8F041D2B2FFF795BF00BF53
:105310002DE9F04F0C4685B0194691460646FFF739
:10532000BBFE074600284CD0B3681878FFF74AFE4A
:10533000B37F727F01331C44914496F820A0F57F1F
:10534000E4B25FFA89F9804621464A460095534601
:10535000304600F07DFC78B30AF1FF3305F1070B0E
:105360001C44CBF3C40319460293E5B2BAF1000F13
:1053700022D0013BDBB2CAEB050A09EBC1020133C3
:10538000B8445FFA8AFA0393D7B2029B83B14C46C2
:10539000C3461BF8013B2246083400933046294699
:1053A0000123E4B2FCF742FBBC42F2D1039B9844D8
:1053B000013DEDB25545E8D1307F40B205B0BDE8C2
:1053C000F08F40B205B0BDE8F08F00BF2DE9F0418D
:1053D000476A05460C4690461E46B847211A424683
:1053E00028463346BDE8F041C9B2FFF791BF00BF80
:1053F0002DE9F04F894685B0194614460646FFF759
:105400004BFE0746002852D0B3681878FFF7DAFD44
:1054100096F81DA0B37FF57F0133CAEB09091C4440
:105420005FFA89FAC5F1010196F820B05144E4B25F
:105430008046C9B222462B46CDF800B0304600F077
:1054400007FC78B30BF1FF3305F107091C44C9F3DE
:10545000C40319460293E5B2BBF1000F22D0013B11
:10546000DBB2CBEB050BAAEBC1020133B8445FFA08
:105470008BFB0393D7B2029B83B15446C14619F804
:10548000013B2146083C009330462A460223E4B201
:10549000FCF7CCFABC42F2D1039B9844013DEDB23B
:1054A0005D45E8D1307F40B205B0BDE8F08F40B235
:1054B00005B0BDE8F08F00BF2DE9F041476A054611
:1054C000884614461E46B847221A414628463346A7
:1054D000BDE8F041D2B2FFF78BBF00BF2DE9F04F1E
:1054E0000D4685B0194692460646FFF7D5FD04469F
:1054F00000284CD0B3681878FFF764FD96F8207048
:10550000727FB37F96F81F903B44C2EB0A0AED1AF4
:105510005FFA8AFAC9F10102EDB252448046294687
:10552000CDF80090D2B23B46304600F091FB48B334
:1055300009F10709C9F3C4031946029317B3013BE4
:10554000DBB205EB070B0133AAEBC1075FFA8BFB5C
:10555000A0440393FFB2029B83B15446C14619F89D
:10556000013B2246083C0093304629460323E4B21F
:10557000FCF75CFABC42F2D1039B98440135EDB2D2
:105580005D45E8D1307F40B205B0BDE8F08F40B254
:1055900005B0BDE8F08F00BF2DE9F041476A054630
:1055A0000C4690461E46B8470119424628463346E7
:1055B000BDE8F041C9B2FFF791BF00BF2DE9F0414E
:1055C0009846436A164607460C46984798F80030B6
:1055D0003044C6B28BB10025214638463246FFF72B
:1055E0002BFE18F8013FC0B204440544E4B2EDB20A
:1055F000002BF1D12846BDE8F0811D46FAE700BF37
:105600002DE9F0419846436A0E46074614469847EE
:1056100098F80030301AC6B28BB1002522463846C1
:105620003146FFF775FE18F8013FC0B20444054447
:10563000E4B2EDB2002BF1D12846BDE8F0811D4661
:10564000FAE700BF2DE9F0419846436A164607463F
:105650000C46984798F80030301AC6B28BB1002536
:10566000214638463246FFF7C3FE18F8013FC0B264
:10567000241A0544E4B2EDB2002BF1D12846BDE86E
:10568000F0811D46FAE700BF2DE9F0419846436AD4
:105690000E4607461446984798F800303044C6B284
:1056A0008BB10025224638463146FFF717FF18F820
:1056B000013FC0B2241A0544E4B2EDB2002BF1D18F
:1056C0002846BDE8F0811D46FAE700BF10B5029CF0
:1056D000032B17D8DFE803F0110C07022346BDE8BF
:1056E0001040FFF7D1BF2346BDE81040FFF7AABF27
:1056F0002346BDE81040FFF783BF2346BDE81040B6
:10570000FFF75CBF002010BD2DE9F0419846436AC9
:10571000164607460C46984798F800303044C6B203
:105720008BB10025214638463246FFF785FD18F833
:10573000013FC0B204440544E4B2EDB2002BF1D104
:105740002846BDE8F0811D46FAE700BF2DE9F0418B
:105750009846436A0E4607461446984798F8003024
:10576000301AC6B28BB10025224638463146FFF7C3
:105770002DFE18F8013FC0B204440544E4B2EDB276
:10578000002BF1D12846BDE8F0811D46FAE700BFA5
:105790002DE9F0419846436A164607460C4698475D
:1057A00098F80030301AC6B28BB100252146384631
:1057B0003246FFF781FE18F8013FC0B2241A0544B3
:1057C000E4B2EDB2002BF1D12846BDE8F0811D46D0
:1057D000FAE700BF2DE9F0419846436A0E460746B6
:1057E0001446984798F800303044C6B28BB1002573
:1057F000224638463146FFF7CFFE18F8013FC0B2C7
:10580000241A0544E4B2EDB2002BF1D12846BDE8DC
:10581000F0811D46FAE700BF2DE9F0410C46154620
:1058200098460746FFF72CFC241A3846FFF72CFC55
:10583000E4B22A18214638464346BDE8F041D2B2C8
:10584000FFF744BF70B50C4615460646FFF718FC37
:10585000241A3046FFF718FCE4B22A189DF81030DD
:10586000D2B221463046FFF7E7FC002070BD00BFF2
:105870008268CAB190F82830BBB1012B1CD0537B91
:1058800080F82930927B80F82A2090F82B105BB2A8
:1058900052B29B1A40299BB204D0DBB201FB03F346
:1058A000C3F38F1380F82C307047537980F8293078
:1058B000127B80F82A20E8E7D37B80F82930127C1D
:1058C00080F82A20E1E700BF002280F82820FFF7B7
:1058D000CFBF00BF012380F82830FFF7C9BF00BF4A
:1058E000022380F82830FFF7C3BF00BF80F82B10D9
:1058F000FFF7BEBF014B4362704700BF894F0008EE
:10590000014B4362704700BF8D4F0008014B43625B
:10591000704700BF954F0008014B4362704700BFBE
:10592000A14F00082DE9F041064608460C46904676
:105930009047054608B9BDE8F08130462946FFF793
:10594000ABFB707F4042C7B209E0337F20463B4447
:10595000DFB2C047054630462946FFF79DFB0134BC
:105960002046C0470028F0D1202D1BBF707FF37F59
:10597000307FC0183844C0B2BDE8F081014AFFF75B
:10598000D1BF00BFB94F0008014AFFF7CBBF00BF2E
:10599000BD4F000810B504460978FFF77DFB94F968
:1059A0001D0010BD10B504460978FFF775FB94F98A
:1059B0001D0010BD70B50D46097869B1064600247A
:1059C0003046FFF769FB337F15F8011F1C44E4B232
:1059D0000029F5D1204670BD0C46FBE770B50D4699
:1059E000097869B1064600243046FFF755FB337F3E
:1059F00015F8011F1C44E4B20029F5D1204670BD02
:105A00000C46FBE710B4002414710C7834B9147000
:105A100054709470D4705DF8044B70475DF8044B7B
:105A2000FFF7C0BB704700BF704700BF2DE9F043D0
:105A30000F7883B00C460A9E0B9D17B381469046A3
:105A40001F466A4600238DF80430FFF7ABFB217830
:105A50004846FFF721FB98F8001099F81D309DF893
:105A600004200B4488F8003032703A789DF80130F9
:105A70009DF80010D21A5B1A3A702B7003B0BDE883
:105A8000F08337702F7003B0BDE8F0832DE9F04745
:105A90000C7882B00D460A9F0B9E6CB3044691466B
:105AA000984683684FF0000E6A4693F805A08DF87B
:105AB00004E0FFF777FB9DF9013029785345204634
:105AC000B8BF8DF801A0FFF7E7FA99F80010637FDF
:105AD0009DF804200B4489F800303A7098F80020B3
