:020000040800F2
:100000000050002089260008D1260008D1260008CB
:10001000D1260008D1260008D126000800000000E3
:10002000000000000000000000000000D1260008D1
:10003000D126000800000000D1260008A1370008E2
:10004000D1260008D1260008D1260008D1260008B4
:10005000D1260008D1260008D1260008D1260008A4
:10006000D1260008D1260008D1260008D126000894
:10007000D1260008D1260008D1260008D126000884
:10008000D1260008D1260008D1260008D126000874
:10009000D1260008D1260008D1260008D126000864
:1000A000D1260008D1260008D1260008D126000854
:1000B000D1260008D1260008D1260008D126000844
:1000C000D1260008D1260008D1260008D126000834
:1000D000D1260008A5370008D1260008D12600083F
:1000E000D1260008D1260008D12600080000000013
:1000F0000000000000000000000000000000000000
:1001000000000000000000005FF808F183684279F9
:1001100000211A4403F8011B9342FBD1704700BF32
:1001200010B4C378914294BF002401248B4234BFA1
:1001300000210121807844EA010390428CBF002015
:1001400003F00100214008435DF8044B704700BFF5
:1001500043798B4204D2934234BF00200120704780
:100160000120704770B4CA784D78C4782A44013AA7
:1001700002F0FF02954294BF00230123AC4234BF3A
:1001800000240124867844EA030596428CBF0022AD
:1001900005F0010222B9234002D170BC1846704715
:1001A00040790B788A78834209D970BC1A44013AA5
:1001B00002F0FF0282428CBF002001207047012024
:1001C00070BC704700230B7083784B704379013B00
:1001D0008B70C378CB70704710B4CB784978012B03
:1001E0001FD0032B13D00C460023C27880788A429C
:1001F00034BF0022012242EA0301A0428CBF00204A
:1002000001F00100134018435DF8044B7047A1F161
:100210000802D2B291420C462CBF002301231146A2
:10022000E3E701F10804E4B2A14294BF00230123F3
:10023000DBE700BF10B404460846A36811466279A4
:100240005DF8044B00F0A6BB01207047014B18700D
:10025000704700BF00000020014608B5044803F0C5
:10026000C7FD0348802103F045FE0028F9D008BDF2
:100270000038014001700120704700BF0B7810B4B6
:100280005BB1024602F8013B11F8013F141A002B42
:10029000F8D120465DF8044B70471C46F9E700BFD3
:1002A000092B70B51E4602F1FF35044613D8002D08
:1002B0001BDD0B46411904F8013B8C42FBD1104673
:1002C0000B4BA3FB0623DB0803EB8303A6EB4303E3
:1002D00030330B7070BD064B2A46A3FB0653DB0878
:1002E000FFF7DEFF21180130EAE701460120E7E7CA
:1002F000CDCCCCCCF8B5002B05460F4627DB092B1F
:100300001E4602F1FF3219DC002A3CDD11462C4664
:10031000013904F8017BFBD1012AB8BF0122002B6F
:1003200015442BDB501C194BA3FB0623DB0803EB06
:100330008303A6EB430330332B70F8BD134BA3FBB1
:100340000643DB08FFF7D6FF05440130EBE75E42CA
:10035000092E02F1FF3408DD0C4B2246A3FB0643B5
:10036000DB085B42FFF7C6FFEEE7023A002AD8BF80
:100370000220CBDC2D2305F8013BD4E72D23901C74
:1003800005F8013BCFE70120CDE700BFCDCCCCCCB9
:100390002DE9F04182B0089E551E5FEA161E044604
:1003A00098461ED1002D24DD0F46431904F8017B29
:1003B0009C42FBD1104606F00F06092E0CD9B8F16D
:1003C000000F04D157361E7002B0BDE8F0813736F9
:1003D0001E7002B0BDE8F08130361E7002B0BDE87C
:1003E000F081CDF800E02A46FFF7D2FF2318013054
:1003F000E1E703460120DEE72DE9F0410F4682B038
:100400009E46064608B100230370002513785BB1B1
:10041000BD4280F09F80252B0ED0337001321378BF
:1004200001350136002BF3D1AF4240F293802846CC
:10043000337002B0BDE8F0815178252935D03029DC
:1004400038D00B46541CA3F13002092A4FF020018A
:1004500036D8002202EB820203EB420214F8013F7D
:10046000303AA3F13000092802F0FF02F2D9104619
:100470002844874238BF7A1BA3F1580338BFD2B251
:10048000202B6ED8DFE803F05A6D6D6D6D6D6D6DCC
:100490006D6D6D52486D6D6D6D486D6D6D6D6D6DF1
:1004A0006D6D6D386D2E6D6D1F003170023201352E
:1004B0000136ABE79378941CA3F13002092AC8D91E
:1004C00000200246D4E7DEF80030304600930023D7
:1004D0000EF10408FFF75CFFC6460346621C1E448B
:1004E000054493E7DEF8003030460EF10408FFF7CC
:1004F000D7FEC6460346F1E7DEF800100EF1040E03
:100500000B789BB3324602F8013B11F8013F901B78
:10051000002BF8D10346E1E7DEF8003030460EF15B
:100520000408FFF7E7FEC6460346D7E7DEF80020DB
:10053000012318460EF1040E3270CFE7DEF80030CA
:100540003046009301230EF10408FFF721FFC64651
:100550000346C3E70023681E06F8013C02B0BDE86D
:10056000F0814FF0FF3002B0BDE8F0811846B5E7EA
:100570000CB410B582B004AC54F8042B234601949B
:10058000FFF73AFF02B0BDE8104002B0704700BF6D
:1005900010B40C461346642122465DF8044BFFF765
:1005A0002BBF00BF0EB410B583B005AC54F8042BBC
:1005B000642123460194FFF71FFF03B0BDE81040FC
:1005C00003B07047084B10B55B6804469A688A42CE
:1005D00002D0DB688B4204D1E0B2FFF73DFE20463B
:1005E00010BD4FF0FF3010BD00000020F8B50746E9
:1005F0000078A8B10D460B4E002473689A689542A6
:1006000005D0DB689D4202D04FF0FF30F8BDFFF708
:1006100023FE17F8010F01340028EED12046F8BD63
:100620000446FBE700000020F0B5A3B06C468E4600
:1006300017460E4D06460FCD0FC40FCD0FC42D68C3
:1006400072463B4609A864212560FFF7D5FE632862
:1006500006DD074B68465B68D968FFF7C7FFFEE712
:1006600009A83146FFF7C2FF23B0F0BD5C7800084F
:1006700000000020034B0A465B6801469868FFF7BC
:10068000D3BF00BF000000200FB400B5074A83B0FD
:1006900004AB53F8041B50681A4680680193FFF7B7
:1006A000C3FF03B05DF804EB04B070470000002006
:1006B0000EB400B582B003AB53F8041B1A46019385
:1006C000FFF7B2FF02B05DF804EB03B0704700BF64
:1006D000024B5B689968FFF789BF00BF00000020EC
:1006E00010B50C460848FFF7F3FF4FF6FF5344F4EC
:1006F0007D4141F0FF01994200D010BD0348BDE8A3
:100700001040FFF7E5BF00BFCC780008047900086F
:10071000704700BF044A05491368002B08BF0B4609
:10072000184410601846704724090020B8100020B3
:100730004FF0FF30704700BF4FF0FF30704700BFF1
:100740004FF400534B600020704700BF01207047FA
:10075000002070471046704710467047FEE700BF04
:100760000A2A2DE9F04790469A4605460C4652D093
:10077000152A48D14E68002200F0FCF82846214690
:10078000012200F0DBF8B768B67807F1800918E0BD
:100790002146284600F0F6F828462146802200F03F
:1007A000F1F828462146012200F0E4F83B462846AD
:1007B00021461022103700F0EDF801364F45F6B211
:1007C0001CD028462146002200F0D4F83E222846BC
:1007D000214600F0D7F8A6F120021F2E62F07F0319
:1007E00046F08002D4D9DAB22146284600F0CAF891
:1007F00028462146882200F0C5F8D2E7284621463F
:10080000002200F09BF82846214642465346BDE8A8
:10081000F04702F00FBE032200F07EF82146284682
:10082000054A00F0C7F82846214642465346BDE82F
:10083000F04702F0FFBD00BF0C7900080A2A2DE93D
:10084000F04791469A4606460D4652D0152A48D1A1
:100850004C68002200F08EF830462946012200F054
:100860006DF8A768A47807F5007818E029463046A7
:1008700000F088F830462946802200F083F83046A0
:100880002946012200F076F83B46304629461022E0
:10089000103700F07FF801344745E4B21CD03046F1
:1008A0002946002200F066F83E223046294600F034
:1008B00069F8A4F120021F2C62F07F0344F080024B
:1008C000D4D9DAB22946304600F05CF830462946E1
:1008D000882200F057F8D2E730462946002200F07F
:1008E0002DF8304629464A465346BDE8F04702F007
:1008F000A9BC032200F010F829463046054A00F052
:1009000059F8304629464A465346BDE8F04702F0BA
:1009100099BC00BF0C79000810B48C680023A44671
:1009200001215DF8044B604710B48C680021A44697
:100930000A460B465DF8044B604700BF10B48C6854
:100940000023A44603215DF8044B604710B48C6873
:100950000022A446134604215DF8044B604700BF03
:1009600010B48C680122A446042100235DF8044BD6
:10097000604700BF10B48C680023A44602215DF8D4
:10098000044B604710B48C680023A44605215DF831
:10099000044B604710B48C680621A4465DF8044BF4
:1009A000604700BF10B48C680721A4465DF8044B73
:1009B000604700BF2DE9F04106460D4602F1FF38C1
:1009C000002318F8014F5BB9FF2C1CD0224630469B
:1009D000AC680521A0470028F2D10020BDE8F081D5
:1009E000FF2C12D0FE2C45D0EF2CE9D8DF2C15D8E7
:1009F000CF2C1CD8BF2C23D82306E1D4204602F0EC
:100A000061F90023DDE70123DBE722463046AC68CD
:100A100005210023A0470028D2D1DEE704F00F0211
:100A20000023AC6830460221A0470023C9E704F048
:100A30000F020023AC6830460321A0470023C0E723
:100A400004F00F0424010022023413460421AF688D
:100A500004F0FE043046B847204602F033F9002384
:100A600004210122AF683046B847204602F02AF937
:100A70000023A6E70120BDE8F08100BF30B589B0B2
:100A800002F09AF82448012104F050FA224801218A
:100A900004F030FA2048214904F02EFB0028F9D058
:100AA0001D482021012204F085FA1B481C4904F04E
:100AB00023FB0028F9D01424202C08BF002425464D
:100AC0001548184904F018FB0028F9D0124804F022
:100AD0006DFA08AB2B44132C03F8200C02D0013420
:100AE000E4B2E9E70C48002104F020FA0A480121A9
:100AF00004F00EFA0C48002308AA02EB430111F897
:100B0000204C11F81F2C013342EA0422102B20F84C
:100B1000022FF1D109B030BD0054004001000300A4
:100B200002000300400003005A0E002038B502F016
:100B300043F81F48012104F0F9F91D48012104F090
:100B4000D9F91B481B4904F0D7FA0028F9D01848F6
:100B50002021002204F02EFA1548174904F0CCFA9F
:100B60000028F9D0154C04F10C0534F8021F104888
:100B7000090A04F019FA0E48114904F0BDFA0028D8
:100B8000F9D00B48217804F00FFA09480C4904F019
:100B9000B3FA0028F9D0AC42E7D10548002104F0AF
:100BA000C5F9BDE838400248012104F0B1B900BFE1
:100BB0000054004001000300820007005E0E002088
:100BC0008400070070B54BF6FF7686B0082001213F
:100BD00001F030FB4FF420740223102201A9474892
:100BE0008DF80630ADF804408DF8072001F02EF89E
:100BF00042484FF40071002201F0A6F83F488021DE
:100C0000002201F0A1F801F0D7FF01223B484FF488
:100C1000007101F099F801F0CFFF0820012101F0E7
:100C200009FBC0241C22032301A934488DF80720A6
:100C30008DF80630ADF8044001F008F84FF40010CC
:100C4000012101F003FB0120014601F0F3FA2C48D9
:100C500004F084F82B4B012206AC44F8103D1146F9
:100C6000002327484FF48045ADF80E60ADF8102002
:100C7000ADF80C30ADF81230ADF8145004F010F9A6
:100C800021461F4804F088F81D484FF4003104F055
:100C900049FA04460028F7D11B4DFFF7EFFE4FF449
:100CA0000143EB81FFF742FF4FF4FA7001F090FF30
:100CB000FFF7E4FE44F201016B892A8923F08F03D8
:100CC00042F4C05243F01103A9802A816B81FFF7DF
:100CD0002DFF0E4D0E4B0F480F4922462C7003F18D
:100CE0000A0403F8012BA34200F8012B01F8012BA1
:100CF000F7D16E2001F06CFF06B070BD000C014012
:100D000000540040801A06005C0E0020920D002066
:100D1000880E00207C0E0020940D002070B5064641
:100D200042F22E25FFF7AAFE41F6B0501A4C06EB10
:100D300086066289194B02F0C002002A0CBF2946C0
:100D40000146C1EB460083FB0023E288C01722F472
:100D5000FF72C0EBA30322F0010213436FEA434387
:100D60006FEA5343E380FFF7E1FE322001F030FFEA
:100D7000FFF784FEA38A084D5A04F9D5FFF77EFEDB
:100D8000EB88C3F30E03EB80FFF7D0FEFFF776FE90
:100D9000A38A5B04FAD470BD5C0E002067666666A9
:100DA00008B5FFF76BFE40F26B30064B5A89DB8AC1
:100DB00002F0C002002A18BF4FF43E70C3F30903CB
:100DC000184408BD5C0E002008B5FFF757FE024B23
:100DD000988AC0F3002008BD5C0E002008B5FFF71C
:100DE0004DFE024B988A00F07F0008BD5C0E00208B
:100DF00070B50C460546FFF741FE002C34D01E4C62
:100E0000A38843F480639BB2A38055B323F400739B
:100E10009BB243F48073A380FFF788FE01E001F0EA
:100E2000D7FEFFF72BFEA38A134D13F4804F4FF02C
:100E30003200F4D0FFF722FEAB88AE8A23F4807331
:100E400006F40056AB80B6B2FFF770FE01F0B4FEB8
:100E5000FFF714FEA38A5B04FAD4301C18BF0120EC
:100E600070BD43F40073D4E7034CA38823F480637C
:100E70009BB2A380C9E700BF5C0E002010B50446FA
:100E8000FFF7FCFD002C0CDB0F2C0CDD0F20074ABC
:100E9000BDE81040538923F00F0318435081FFF73A
:100EA00045BE0020F3E7A0B2F1E700BF5C0E0020D2
:100EB00030B4094B094D002409480A4922462C70D8
:100EC00003F10A0403F8012BA34200F8012B01F8F7
:100ED000012BF7D130BC7047880E0020920D002006
:100EE0007C0E0020940D002003788BB10A78934289
:100EF00004D00AE011F8012F934206D110F8013F07
:100F0000002BF7D14878181A70471046181A704706
:100F10000878F8E70B7803702BB111F8013F00F85F
:100F2000013F002BF9D17047F8B5FFF7A7FD464BFD
:100F3000B3F91420002A00DBF8BD1C8BE4B1598BF7
:100F400001F47040C1F3C02242EA102242F00A02CA
:100F50000A3A012AF0D801F003013C4A4900DB8B30
:100F6000555C180A8542DBB201F1010415D0002559
:100F7000505413551572F8BD354D344B354836492C
:100F800022462C7003F10A0403F8012BA34200F857
:100F9000012B01F8012BF7D1F8BD165D9E42E6D179
:100FA0002C4B002006295D541E551872C4D11178AF
:100FB00000293ED01878884204D0BDE713F8010F0D
:100FC000884235D112F8011F0029F7D15B78002B38
:100FD000B2D1204B0122184619461C1D11F8015BA5
:100FE000002D08BF0022A142F8D1012AA4D1027825
:100FF00022B31948017891421DD1164E451C02E0DA
:1010000027788F4205D116F8011F2C46013500299B
:10101000F6D124788C428FD002700F4A13F8011F4A
:1010200002F8011F0029F9D1094B01221A70F8BDFD
:10103000F8BD1B78CBE711460446EAE7064B197862
:1010400009B11A70F0E7F8BD5C0E0020880E002090
:10105000920D00207C0E0020940D0020F0B500249D
:1010600083B00646084601F071FD1E4D8DF8044020
:101070008DF805408DF806408DF8074003E001F03B
:10108000A7FD032C23DC01F067FD00B3FFF7F6FC9E
:10109000B5F914301E20002BF1DA6B8B02AA03F095
:1010A00003031A4412F8041C282006EB4307002906
:1010B000E5D1E98B01344FEA112E06F813E0012344
:1010C000797002F8043C01F083FD032CDBDD01F0B4
:1010D00043FD18B10023337203B0F0BD307003B08C
:1010E000F0BD00BF5C0E0020034B186800FB01F050
:1010F000800801F053BD00BF280D0020F8B5102373
:1011000000F10C07C37305463946406800F09EFDA8
:101110007D24234E05E0013C3FD03068800801F07B
:101120003DFD6868298900F001FE0028F3D01C4EBF
:1011300029896868002200F007FE3068C0EB0010C3
:101140004001800801F02AFD01222989686800F029
:10115000FBFD3068462303FB00F0800801F01EFD14
:101160000423EB736868394600F070FD29896868CC
:1011700000F0D2FD044610233946EB73686800F096
:1011800065FD30684FF4CD7303FB00F0800801F07B
:1011900005FDB4FA84F04009F8BD2046F8BD00BF53
:1011A000280D002070B50446124D13482D68134ECB
:1011B000A0FB050584E8060008462381AD0C01214B
:1011C000356001F037F8228910230325A281E373EB
:1011D000606804F10C01A57300F038FD6068218996
:1011E000012200F0B1FDA5722046FFF787FF00281D
:1011F000FAD070BD0C05002083DE1B43280D0020B3
:1012000070B50446102300F10C06C373174D314628
:10121000406800F01BFD21896068002200F094FD09
:101220002868800801F0BAFC01222189606800F07A
:101230008BFD286800EB4000800801F0AFFC042320
:10124000E3733146606800F001FD2189606800F0B9
:1012500063FD04462868C0EB001020F0404001F018
:101260009DFC201C18BF012070BD00BF280D002070
:1012700070B50646082400253046FFF7C1FF6D080B
:10128000631E10B165F07F05EDB213F0FF04F3D1DA
:10129000284670BD70B504460D461023C37304F193
:1012A0000C01406800F0D2FCC5B9194E2A462189CC
:1012B000606800F049FD306800EB8010800801F0A4
:1012C0006DFC60682189012200F03EFD3068BDE8B8
:1012D000704000EB8000800801F060BC0C4D21895B
:1012E0006068002200F030FD286800EB8000800874
:1012F00001F054FC60682189012200F025FD286876
:10130000BDE87040C0EB001020F0404001F046BC4A
:10131000280D002070B506460D46002445FA04F15C
:1013200001F0010101343046FFF7B4FF082CF5D17C
:1013300070BD00BF704700BF70B50546002433265E
:1013400046FA04F101F0010101342846FFF7A2FF3B
:10135000082CF5D105F10F0405F117062846FFF713
:1013600087FF04F8010FB442F8D170BD2DE9F041B8
:1013700005460024552646FA04F101F00101013426
:101380002846FFF787FF082CF5D105F10F0705F177
:10139000170817F8016F002446FA04F101F0010163
:1013A00001342846FFF776FF082CF5D14745F0D1E8
:1013B000BDE8F08170B506460024CC2545FA04F15D
:1013C00001F0010101343046FFF764FF082CF5D12C
:1013D00070BD00BF70B506460024442545FA04F1EF
:1013E00001F0010101343046FFF754FF082CF5D11C
:1013F000BDE87040034A044B106803FB00F080080E
:1014000001F0CCBB280D0020B0710B0070B5064672
:101410000024482545FA04F101F001010134304669
:10142000FFF738FF082CF5D1BDE87040034B186872
:1014300000EB8000C0F35D0001F0B0BB280D002080
:101440002DE9F8430546884617461E4600244FF00E
:101450004E0949FA04F101F0010101342846FFF771
:1014600019FF082CF5D1002448FA04F101F001011C
:1014700001342846FFF70EFF082CF5D1002447FA67
:1014800004F101F0010101342846FFF703FF082CA5
:10149000F5D1002446FA04F101F001010134284697
:1014A000FFF7F8FE082CF5D1BDE8F88338B50C46F7
:1014B00005464B0143F01F03DBB24B214622FFF7E9
:1014C000BFFFAC7238BD00BF2DE9F84305460E469C
:1014D0000024BE2747FA04F101F001010134284637
:1014E000FFF7D8FE082CF5D12846FFF7C1FE0446C9
:1014F0002846FFF7BDFE40F6310344EA002084B2DF
:101500009C4218D8C4F3061004F0C2FA804604F0D6
:101510000F00894604F0BCFA0022154B04F01EFBB4
:1015200002460B464046494604F066F904F050FD79
:101530003060BDE8F8836442A4B2C4F3061004F03E
:10154000A7FA804604F00F00894604F0A1FA0022B1
:10155000074B04F003FB02460B464046494604F0A5
:101560004BF904F035FD00F100403060BDE8F88330
:101570000000B03FF8B505460E460024BE2747FAE6
:1015800004F101F0010101342846FFF783FE082C25
:10159000F5D12846FFF76CFE04462846FFF768FEA3
:1015A000AB7A44EA002080B2BBB1012B2AD0022BD7
:1015B0002AD040F631039842144D13D9404284B2E8
:1015C000C4F3061004F064FA01F10043194604F074
:1015D000D7FC308004F00F0009E00D4D40F63103D8
:1015E0009842EBD8C0F30613338000F00F0004F0EC
:1015F000F9FD294604F04AFE04F098FF01237060CB
:101600003372F8BD034DE9E7034DE7E700401C44A2
:101610000000203F0000C84000007A4270B5054637
:101620000024B82646FA04F101F0010101342846ED
:10163000FFF730FE082CF5D168682989012200F0F7
:1016400083FB064B186800EB8000800801F0A6FAC7
:101650002846FFF7D5FD0028FAD170BD280D0020DF
:1016600070B505460024B42646FA04F101F00101E4
:1016700001342846FFF70EFE082CF5D12846FFF767
:10168000BFFD003018BF012070BD00BFF8B5064691
:101690000D460024BE2747FA04F101F00101013490
:1016A0003046FFF7F7FD082CF5D105F10804304668
:1016B000FFF7DEFD05F8010BA542F8D1F8BD00BF2C
:1016C000704700BF41630320084700BF704700BF59
:1016D00010B40C68A4465DF8044B604770B504462E
:1016E0000D46436B0220984729460A222E68204661
:1016F0000023B0470546636B03209847636B0020C7
:101700009847284670BD00BF70B504460D46436B30
:1017100002209847636B012098472E68294620468F
:1017200014220023B04704F138032E6829462046CE
:101730001722B047636B0020BDE87040184700BF18
:10174000F8B504460D46436B02209847636B0120B1
:1017500098472E682046294615220023B0470646A2
:1017600030B12F6829462046172204F13803B847C4
:10177000636B002098473046F8BD00BF10B582B0BB
:1017800002AB03F8012D0C680F22A04702B010BD78
:1017900010B480F82D2080F82E300C6800F12D0355
:1017A000A44632225DF8044B604700BF70B49DF838
:1017B0000C609DF8105080F82D2080F82E3080F8B5
:1017C000306080F82F500C6800F12D03A44670BCE7
:1017D0003B22604770B49DF80C609DF8105080F873
:1017E0002D2080F82E3080F8306080F82F500C6863
:1017F00000F12D03A44670BC2D22604710B582B0C5
:101800000C6846220DF10703A0479DF8070002B0BF
:1018100010BD00BF10B582B00C6847220DF1070360
:10182000A0479DF8070002B010BD00BF10B40C68BF
:101830004822A44600235DF8044B604730B50446B7
:10184000416883B00D680DF107034622A8479DF853
:101850000730616823700D680DF1070320464722A9
:10186000A8479DF80730616863700D6820464822DC
:101870000023A8476168E0740D68204604F138032E
:101880001722A84703B030BD10B541680446FFF7E2
:1018900025FF18B12046FFF7D1FF012010BD00BF82
:1018A000F8B504460F46002501262223837485607F
:1018B000C56045748561067480F8316003F010F8E6
:1018C000094B402284F8286084F8295084F82A5073
:1018D00084F82C5084F82B20676063632046BDE8B1
:1018E000F840FFF7D1BF00BFC11600082DE9F04155
:1018F00004460F4690460025012622238374856006
:10190000C56045748561067480F8316002F0E8FFB7
:101910000A4B402284F8286084F8295084F82A5021
:1019200084F82C5084F82B20676063632046C7F846
:101930000880BDE8F041FFF7A7BF00BFC11600084F
:101940004168FFF7E1BE00BF836910B5044603B1EB
:10195000984720466168BDE81040FFF7F1BE00BF20
:1019600010B582B0426802AB03F8011D146811463D
:101970000F22A04702B010BD416810B40C681022BD
:10198000A44600235DF8044B604700BF416810B4D3
:101990000C681122A44600235DF8044B604700BF89
:1019A000034630B4446880F82D1080F82E20256856
:1019B0002146AC4630BC2D333222604770B49DF8CE
:1019C0000C60456880F82D1080F82E2080F83030AB
:1019D00080F82F602C682946A44670BC00F12D03C6
:1019E0003B22604770B49DF80C60456880F82D106C
:1019F00080F82E2080F8303080F82F602C6829463F
:101A0000A44670BC00F12D032D226047F0B4456858
:101A10000027802680F82D1080F82E2080F83130A5
:101A200080F8307080F82F602C682946A446F0BCFE
:101A300000F12D033B22604730B583B09DF818506C
:101A400044688DF804108DF805208DF806308DF867
:101A50000750256821463C2201ABA84703B030BDA2
:101A600080F83110704700BF0B0A80F8311080F801
:101A7000323070479208DB0801F0F80143EA421364
:101A800041EAD20180F8313080F83210704700BF4F
:101A900010B4C47C282C0AD0302C15D080F831101A
:101AA00080F8322080F833305DF8044B704702F044
:101AB000E00221F01F0141EAD20141EA931380F8CC
:101AC00031305DF8044B70479208DB0821F00701C4
:101AD00043EA421341EAD20180F8313080F83210F3
:101AE0005DF8044B704700BF90F83100704700BFAD
:101AF000C37C282B04D0022B0CBF0320012070478D
:101B0000FF207047C37C302B0CD0282B06D0022B33
:101B10000CBF0323012380F831307047FF2380F886
:101B200031307047FF2380F8313080F83230704711
:101B300000207047002380F831307047C37C282B89
:101B40000CBF6D2001207047C37C282B0CBF6D2378
:101B5000012380F83130704708B52F4B98421ED0D2
:101B60002E4B984225D02E4B98422CD02D4B98428C
:101B700033D02D4B98423AD02C4B984241D02C4B2D
:101B8000984200D008BD4FF48070012100F06AFB3C
:101B9000BDE808404FF48070002100F063BB0420D2
:101BA000012100F05FFBBDE808400420002100F0A7
:101BB00059BB0820012100F055FBBDE80840082072
:101BC000002100F04FBB1020012100F04BFBBDE8CD
:101BD00008401020002100F045BB2020012100F02A
:101BE00041FBBDE808402020002100F03BBB402025
:101BF000012100F037FBBDE808404020002100F043
:101C000031BB8020012100F02DFBBDE80840802081
:101C1000002100F027BB00BF00080140000C01407C
:101C2000001001400014014000180140001C014058
:101C30000020014008B50120014600F013FBBDE87B
:101C400008400120002100F00DBB00BF2DE9F0414C
:101C5000CD78EB0648BF8B78098805F00F0E48BF9A
:101C60004EEA030E11F0FF0F21D006680023012772
:101C70004FF00F0802E00133082B17D007FA03F2E8
:101C800002EA01049442F6D19A0008FA02FC26EA1C
:101C90000C060EFA02F2282D46EA020631D0482D33
:101CA00003F1010308BF0461082BE7D10660FF2997
:101CB00023D94668002301274FF00F0C02E00133BF
:101CC000082B19D003F1080207FA02F202EA010414
:101CD0009442F4D19A000CFA02F826EA08060EFAA9
:101CE00002F2282D46EA020609D0482D03F101032D
:101CF00008BF0461082BE5D14660BDE8F08144616E
:101D0000DDE74461B7E700BF4FF6FF71022204230D
:101D100001808270C37070478368194214BF01202C
:101D200000207047806880B2704700BFC3681942C6
:101D300014BF012000207047C06880B2704700BF08
:101D400001617047416170470AB9416170470161A3
:101D5000704700BFC160704741F480338361816187
:101D600083618369836970474FF68073054A10B4B5
:101D700014682340194341EA001010605DF8044BD9
:101D8000704700BF00000140014B1860704700BF62
:101D90001C0020420028194B00F44012B4BFDB693C
:101DA0005B68B2F5401F30B484B21ED0C20213D5B6
:101DB000C0F303450322AA4023EA020343F0706301
:101DC00019B1420D1201944023430C4A0028B4BFBC
:101DD000D361536030BC7047420D120104FA02F225
:101DE00023EA020343F07063EAE7044D23F07063D3
:101DF0006A6822F070626A60E2E700BF000001409A
:101E000001F0FC0303F1804303F5803301F003018B
:101E100010B489009C680F228A4024EA02029A606A
:101E20009A68884002439A605DF8044B704700BF8F
:101E3000014B1860704700BFDC002042037800228D
:101E4000013BC37082700271704700BF10B4002460
:101E50000471017042705DF8044BFFF7EFBF00BFE3
:101E60008378027841781344DBB28B42837012D2BC
:101E700010B4C47803792244D2B2914298BF01F1E0
:101E8000FF3203F1010398BFD2B20371C2705DF853
:101E9000044B012070470020704700BF30B5082474
:101EA00087B00094044600254021802242230191FE
:101EB000029203930495194B19494FF4001200F054
:101EC00005FB20462946FF2200F028FB2046012181
:101ED000FF2200F023FB20462946FF2200F02CFBC6
:101EE0002046FF22012100F027FB2046012100F0BF
:101EF0005BFB20462946FF2200F046FB2046FF22DE
:101F0000012100F041FB2946204600F0B1FB2046AC
:101F1000012107B0BDE8304000F0AABB000C014031
:101F200000540040836D30B4052B04460EDC03EBF7
:101F3000430300EB830301220025D9611D625A622D
:101F4000A36D10461344A36530BC7047002030BC1D
:101F5000704700BFF8B50121074600F089FB00215A
:101F60000646384600F084FB46EA002086B2314639
:101F70000F48FEF789FBBB6D002B17DD3C460025A3
:101F80000CE05B10C158226A18448A5831469047C9
:101F9000BB6D0135AB4204F10C0407DD636AE069F7
:101FA000DA07EED4226A00EB6300EFE7F8BD00BF6A
:101FB000247900080D4B0E4A19684FF41F0041F0B8
:101FC0000101196059680A405A601A6822F0847247
:101FD00022F480321A601A6822F480221A605A6849
:101FE00022F4FE025A609860704700BF0010024061
:101FF0000000FFF80C4BB0F5803F1A6822F48032E5
:102000001A601A6822F480221A6008D0B0F5802F76
:1020100004D11A6842F4A0221A60704770471A6807
:1020200042F480321A6070470010024082B00023F0
:102030000A4A019302E0B3F5A06F08D0136813F4C5
:10204000003F019B03F101030193019BF3D0034B7C
:102050001868C0F3404002B0704700BF0010024053
:10206000034A136823F0F80343EAC0001060704786
:1020700000100240014B1860704700BF0000424250
:10208000034A536823F47C13194308435060704794
:1020900000100240014B1860704700BF60004242D0
:1020A000034A536823F0030318435060704700BF8E
:1020B00000100240024B586800F00C00704700BF4F
:1020C00000100240034A536823F0F00318435060A5
:1020D000704700BF00100240034A536823F4E063D6
:1020E00018435060704700BF00100240034A536815
:1020F00023F4605343EAC000506070470010024070
:10210000044A137819B923EA000010707047184385
:102110001070704709100240014B1860704700BFF3
:10212000D8004242034A536823F4404318435060A6
:10213000704700BF00100240064B002201281A70B1
:102140001A7005D0042802D105221A707047704712
:102150001870704720100240014B1860704700BF94
:1021600080044242024A136A18431062704700BF5B
:1021700000100240014B1860704700BF3C0442420F
:10218000224A10B4536803F00C03042B06D0082B2A
:1021900026D01BB11E4A1346026001E01C4B0360AF
:1021A0001A4A1C495468C4F303140C5DE3404360AD
:1021B0005468C4F302240C5D23FA04F48460546868
:1021C000C4F3C2240C5DE340C36052685DF8044B65
:1021D000C2F381320A44127CB3FBF2F3036170470D
:1021E00053685168C3F38343C90303F1020307D55E
:1021F0005268920304D4064A02FB03F30360CFE75C
:10220000054A02FB03F30360CAE700BF0010024067
:1022100000127A00CC04002000093D00044A5369F2
:1022200019B923EA000050617047184350617047A4
:1022300000100240044A936919B923EA0000906132
:10224000704718439061704700100240044AD369F8
:1022500019B923EA0000D06170471843D061704774
:1022600000100240044AD36819B923EA0000D06084
:1022700070471843D060704700100240044A136949
:1022800019B923EA000010617047184310617047C4
:1022900000100240014B1860704700BF40044242EA
:1022A000014B1860704700BF4C004242014B187050
:1022B000704700BF071002404309012B0BD0022BCF
:1022C000094B0CBF1A6A5A6A00F01F0322FA03F086
:1022D00000F001007047044B1A6800F01F0322FA57
:1022E00003F000F00100704700100240024A536AF8
:1022F00043F080735362704700100240034B9B68A9
:10230000184214BF01200020704700BF0010024097
:10231000014B1870704700BF0A10024070B50446A8
:102320004BF6FF7686B001210069FFF783FFA28A92
:10233000E38AE06813431C25032201A9ADF80430A9
:102340008DF806208DF80750FFF780FCA06801216A
:10235000FFF77CFF01200146FFF76CFF606802F089
:10236000FDFC114B06A941F8103D606800230125D2
:102370004FF48042ADF80E60ADF80C30ADF812307D
:10238000ADF81050ADF8142002F006FD2946606843
:1023900002F086FD60684FF4003102F0C3FE0028B1
:1023A000F8D106B070BD00BF801A060038B50446EB
:1023B0000D4600F001FC6068012102F09BFD6068A1
:1023C0001F4902F099FE0028F9D06068217E0022A2
:1023D00002F0F0FD60681B4902F08EFE0028F9D083
:1023E0002946606802F0E0FD6068174902F084FE4B
:1023F0000028F9D06068012102F07CFD6068104976
:1024000002F07AFE0028F9D06068217E012202F0F5
:10241000D1FD60680D4902F06FFE0028F9D06068B8
:102420000B4902F069FE0028F9D0606802F0BEFD99
:1024300005460121606802F06BFD284638BD00BFEB
:10244000010003008200070084000700020003006F
:102450004000030070B504460E46154600F0ACFB84
:102460006068012102F046FD6068154902F044FEF3
:102470000028F9D06068217E002202F09BFD606890
:10248000104902F039FE0028F9D03146606802F0A8
:102490008BFD60680C4902F02FFE0028F9D0294618
:1024A000606802F081FD6068074902F025FE00289F
:1024B000F9D060680121BDE8704002F029BD00BF7D
:1024C0000100030082000700840007002DE9F041AD
:1024D000069FBDF81CC0BDF820E0BDF824609DF843
:1024E00028504FF00008044641608260C36080F8C5
:1024F00000800761A0F814C0A0F816E0068315B1AB
:10250000FFF70CFF2578044B204613F835102822DE
:10251000BDE8F041FFF79EBF2C79000810B40478A5
:10252000044B01EB440103EB8103197C5DF8044B80
:10253000FFF790BF2C79000810B40478054B01EB2D
:10254000440103EB810393F820105DF8044BFFF77F
:1025500081BF00BF2C79000838B50D460446094BF1
:1025600001783DB113F83110A822FFF773FF012362
:10257000237038BD282213F83110FFF76BFF257048
:1025800038BD00BF2C79000810B40478054B01EB6E
:10259000440103EB810393F830105DF8044BFFF71F
:1025A00059BF00BF2C79000870B50E4603780A4D5C
:1025B000044615F83310FFF7F9FE4EB900F0BF02DC
:1025C0002378204615F83310BDE87040FFF742BF6E
:1025D00040F04002D2B2F3E72C79000870B50E4605
:1025E00003780A4D044615F83310FFF7DFFE56B1A5
:1025F00040F00202D2B22378204615F83310BDE82D
:102600007040FFF727BF00F0FD02F4E72C790008C7
:1026100010B40478054B01EB440103EB810393F8FC
:1026200040105DF8044BFFF715BF00BF2C79000880
:1026300010B40478054B01EB440103EB810393F8DC
:1026400050105DF8044BFFF705BF00BF2C79000860
:1026500010B40478054B01EB440103EB810393F8BC
:1026600060105DF8044BFFF7F5BE00BF2C79000841
:102670000278044B01EB420103EB810393F87010E5
:10268000FFF794BE2C790008002103E00A4B5B5849
:102690004350043109480A4B42189A42F6D3094A7A
:1026A00002E0002342F8043B074B9A42F9D302F0C0
:1026B0006BFD01F08FF8704700AD000800000020AE
:1026C0002409002024090020B81000200000000088
:1026D000034B1A68D2B2FEE7AFF30080AFF300807D
:1026E00004ED00E02DE9F047072B82B0994607463C
:1026F0008A4616461CD91D460C464FF0FF08083D79
:102700002146CDF80080384632460023EDB2FFF76F
:1027100055F90834072DE4B2F1D8A9F1080303F004
:10272000F8030AF1080A9A440AF0FF0A09F00703BD
:102730007BB183F007030133FF2203F0070302FAA2
:1027400003F3DBB200933846514632460023FFF7CD
:1027500035F902B0BDE8F0872DE9F047072B82B0CC
:10276000994607460E4692461CD91D4614464FF020
:10277000FF08083D2246CDF8008038463146012347
:10278000EDB2FFF71BF90834072DE4B2F1D8A9F137
:10279000080303F0F8030AF1080A9A440AF0FF0A52
:1027A00009F007037BB183F007030133FF2203F035
:1027B000070302FA03F3DBB2009338463146524670
:1027C0000123FFF7FBF802B0BDE8F087F0B5012464
:1027D00083B0009407460E4615461C4602F02EFABA
:1027E00008B903B0F0BD384631462A46234603B047
:1027F000BDE8F040FFF776BFF0B51C4683B001237B
:10280000009407460E46154602F018FA08B903B0C0
:10281000F0BD384631462A46234603B0BDE8F040B5
:10282000FFF79ABF2DE9F04182B09DF8204006469F
:1028300000940D461746984602F000FA10B902B00F
:10284000BDE8F081304629463A464346FFF74AFF45
:10285000304629463A462346FFF77EFF08F1FF310E
:10286000294430463A462346C9B2FFF775FF304641
:1028700029464346621E3A44D2B202B0BDE8F04156
:10288000FFF730BF2DE9F04180460F4615461E4642
:102890009DF818402A46334640463946FFF722FF46
:1028A000631E013513F0FF04EDB2F3D1BDE8F081F2
:1028B0002DE9F04182B09DF82040804600940F46FB
:1028C00016461D4602F0BAF910B902B0BDE8F08113
:1028D0004046394632462B46089402B0BDE8F041E6
:1028E000FFF7D0BF2DE9F04F87B09DF84050064666
:1028F0000095894692461F469DF8444002F09EF995
:1029000010B907B0BDE8F08F2B1BDBB21A460AEBFB
:102910000403D9B26FEA0408084609EB040C5FFA15
:102920008CFCB8440223614604920390009302F1A8
:10293000FF3B23460246C8443046CDF814C05FFA38
:1029400088F802F087FD01234146039A0093304640
:10295000234602F07FFDD344DDF814C05FFA8BFB01
:10296000042361465A4600933046234602F072FD26
:1029700008235A464146009330462346C4F1FE08D8
:1029800002F068FD5FFA88F8DDF814C0C4EB0804B3
:102990000398049A3C440CF1010C5FFA8CFCE4B2FD
:1029A0002346614600F1010B904430465246CDF873
:1029B0000CC0FFF797FEDDF80CC06A1E524461465A
:1029C0005FFA8BFB5FFA88F823463046D2B2FFF7F6
:1029D00089FE304649465A464346FFF7BDFE5A46F1
:1029E00043463046791E4944C9B207B0BDE8F04FAE
:1029F000FFF7B2BE2DE9F04F85B09DF8385006467E
:102A000000958B4617469A469DF83C4002F016F911
:102A100010B905B0BDE8F08F6FEA04092D1BEBB2C9
:102A200007EB040C0BEB04055FFA8CFC0293EDB290
:102A300003F1FF38022329466246009330462346BD
:102A4000D144CDF80CC0D94402F062FDDDF80CC0D1
:102A50005FFA89F9012362464946009330462346CE
:102A6000B84402F055FD5FFA88F80423424629462F
:102A700000933046234602F04BFD08234946424668
:102A800000933046234602F043FDC4F1FE03DBB25F
:102A9000C4EB03090299D14401350134EDB25FFA68
:102AA00089F9E4B23A463046CF1800944B4629469D
:102AB000FFF7E8FE42464B46294630460094FFF7B2
:102AC000E1FE304659465346DDF80CC0FFB20CF12A
:102AD0000102D2B20E9705B0BDE8F04FFFF7D2BEAB
:102AE000012070470E4B0F491B680F4AA2FB0302DF
:102AF000A1FB03130D49920C9B090A60013BB3F142
:102B0000807FFCD230B40A4A0A4CF0255360002082
:102B100084F823500721906030BC1160704700BFDB
:102B20000C050020D34D621083DE1B432C0D0020CA
:102B300010E000E000ED00E0034B5A6812B15A6863
:102B4000013A5A60704700BF2C0D0020014B5860BD
:102B5000704700BF2C0D0020014B5868704700BF24
:102B60002C0D0020704700BF034A012353605368B7
:102B7000002BFCD1704700BF2C0D002010F1FF305E
:102B8000054A4FF0010106D351605368002BFCD178
:102B900010F1FF30F8D270472C0D002001387FF47F
:102BA000FDAF7047034B1B6803FB00F08008FFF785
:102BB000F5BF00BF2C0D0020044A4FF47A73106853
:102BC00003FB00F08008FFF7E9BF00BF2C0D0020D9
:102BD00080B170B50646084A4FF47A731568002430
:102BE00003FB05F5AD0801342846FFF7D7FFB442D3
:102BF000F9D170BD704700BF2C0D00204FF4E130BB
:102C000000F022BA08B50220FDF720FB044B18683B
:102C1000FDF73AFDBDE808400120FDF717BB00BFF6
:102C2000E004002008B50220FDF710FB044B5868B3
:102C3000FDF72AFDBDE808400120FDF707BB00BFF6
:102C4000E004002008B50220FDF700FB044B986863
:102C5000FDF71AFDBDE808400120FDF7F7BA00BFF7
:102C6000E004002008B50220FDF7F0FA044BD86814
:102C7000FDF70AFDBDE808400120FDF7E7BA00BFF7
:102C8000E004002008B50220FDF7E0FA044B1869C3
:102C9000FDF7FAFCBDE808400120FDF7D7BA00BFF8
:102CA000E004002008B50220FDF7D0FA044B586973
:102CB000FDF7EAFCBDE808400120FDF7C7BA00BFF8
:102CC000E0040020B0B12DE9F0410546DFF82C808A
:102CD000094F00244FF47A76D8F80030013406FB0F
:102CE00003F3A7FB03304008FFF758FFAC42F3D1D2
:102CF000BDE8F081704700BFABAAAAAA340D00203E
:102D0000034B04481B68A0FB03304008FFF746BF95
:102D1000340D0020ABAAAAAA054B06481B6803EB9A
:102D200083035B00A0FB03304008FFF737BF00BF01
:102D3000340D0020ABAAAAAA70B5082086B01E4D9B
:102D40000121FFF777FA4FF480200121FFF77EFA87
:102D50001A4C284601A94FF4806203231826ADF8C7
:102D600004208DF806308DF80760FEF76FFF2846C7
:102D700001A904224FF400638DF80720ADF8043058
:102D80004FF41645FEF762FF00230C22204602A9ED
:102D9000ADF81430ADF81030ADF80E30ADF80C30A1
:102DA000ADF81220029500F02BFF2046012100F023
:102DB000A9FF06B070BD00BF000C014000480040F4
:102DC000014608B5044801F013F80348802101F0DA
:102DD00091F80028F9D008BD0048004070B50139CD
:102DE00082B01C46062913D8DFE801F0042B12122A
:102DF00015313100224B23491B68234AA1FB0313E1
:102E00004FF4FA709B0C1360FFF75CFFFFF794FF21
:102E1000012002B070BD1C4C01922079400000F0EE
:102E2000FE00FFF7CDFF019A1046FFF7C9FF2368A8
:102E30001648A0FB03304008FFF7B0FE012002B0A7
:102E400070BD114BCAB91A71012002B070BD002AC1
:102E5000DED0551EEDB201350B4E254430794000D1
:102E600000F0FE00FFF7ACFF14F8010BFFF7A8FF1E
:102E7000AC42F3D1012002B070BD01221A71E3E728
:102E80000C05002083DE1B43340D0020ABAAAAAA48
:102E90002DE9F04F83B09DF8309099428CBFCE1A47
:102EA0005E1A4A450C461D4607469346F6B20CD9B3
:102EB000C9EB020A5FFA8AFA564549D2AB464C463C
:102EC000154689464FF001080CE0C2EB090A5FFA8B
:102ED0008AFA56452CD21A464D465C4691468B4698
:102EE0004FF00108CB4534BF0123FF23CAF3470944
:102EF0000193FF2D08BFFE25AC4210D947E02146C3
:102F00005A46FEF74DFDC6EB0903DBB25FFA83F9C3
:102F1000013419F0800FE4B230D1A54237D33846DE
:102F2000B8F1000FEBD059462246FEF739FDEAE72B
:102F300099421DD9224633462C461546FF22CB46E0
:102F40004FF00008C6F34709019256469A46D0E76B
:102F500099420DD9224633462C4615460122CB46CE
:102F60004FF00008C6F34709019256469A46C0E75B
:102F700053464FF00008B2461E46B3E7019A534449
:102F80009344A5425FFA8BFB5FFA83F9C7D203B083
:102F9000BDE8F08FF0B5074687B0294C0121042029
:102FA000FFF748F94FF480400121FFF743F9182556
:102FB000204669464FF4007203238DF80350ADF8A4
:102FC00000208DF80230FEF741FE042269464FF4DE
:102FD000806320468DF80320ADF80030194EFEF7CF
:102FE00035FE4FF4E06001F055FE00240125252355
:102FF00001A88DF804308DF805408DF806408DF855
:10300000075001F051FE0C23304602A9ADF81230F2
:103010000297ADF81440ADF81040ADF80E40ADF891
:103020000C4000F0EDFD30462A4640F2255100F0FC
:1030300077FE3046294600F065FE07B0F0BD00BFC0
:103040000008014000380140F0B5074687B01D4E2A
:1030500001210420FFF7EEF804254FF40030012190
:10306000FFF7F4F8184C182230460DEB0501032346
:103070008DF807208DF80630ADF80450FEF7E6FD18
:1030800030460DEB05010823ADF804308DF80750EC
:10309000FEF7DCFD00230C22204602A9ADF8143017
:1030A000ADF81030ADF80E30ADF80C30ADF81220A0
:1030B000029700F0A5FD2046012100F023FE07B095
:1030C000F0BD00BF0008014000440040044A05492B
:1030D000136810B45C1C1460C8545DF8044B70474E
:1030E0003C0D0020C00E0020014B00221A607047EA
:1030F0003C0D002000487047C00E0020014B1868AE
:10310000C0B270473C0D002083684279002103EB78
:10311000820203F8011B9342FBD170474271816028
:1031200001EB8202002301F8013B9142FBD1704781
:10313000F0B40E4685784479521B01F007078021D0
:10314000D5B2E408F2083941806805FB0422C9B20F
:103150002BB9835C23EA01018154F0BC7047835C86
:1031600019438154F0BC704710B40C464A788178FA
:10317000914206D8C178914203D3437921788B429A
:1031800002D85DF8044B704723795DF8044BFFF7D4
:10319000CFBF00BF70B50D4606468C7823061AD403
:1031A000EB78032B06D8DFE803F0120A0E026B78E7
:1031B000013B6B70640014F0FF04EFD170BD6B78BD
:1031C00001336B70F6E72B78013B2B70F2E72B781D
:1031D00001332B70EEE730462946FFF7C5FFDFE7E6
:1031E0002DE9F041CB780D4606468C78032B26D886
:1031F000DFE803F01F1B1702FF274FF0000809E06C
:103200002A786B78640042443B4414F0FF042A702F
:103210006B7012D02306F3D530462946FFF7A4FF82
:10322000EEE700274FF0FF08F4E701274FF0000812
:10323000F0E700274FF00108ECE7BDE8F081002738
:10324000B846E7E710B5143A82B04C68332A23D861
:10325000DFE802F02A3922482222222222222222D8
:10326000222222222222222222222222222222223E
:1032700022224F22222222222222221A2222222209
:103280002222222222225625194620460193FCF7AB
:10329000A3FF019B002838D1012002B010BD627845
:1032A00001201A7002B010BDA3686279002103EBFF
:1032B000820203F8011B9342FBD12046FEF7BEFDBC
:1032C000012002B010BD2046FEF7CAFD0028E4D060
:1032D000A3686279002103EB820203F8011B934289
:1032E000FBD1D9E720461946FCF76CFF012002B05C
:1032F00010BD20461946FFF737FF012002B010BD70
:10330000627901201A7002B010BD20461946FFF7FD
:1033100067FF0120C1E700BF81604271FCF7F6BE84
:1033200030B484784579121BED0802FB05F2802445
:1033300001F00705D2B22C4102EBD1018068E2B264
:103340002BB9435C23EA0202425430BC7047435C11
:103350001A43425430BC704710B40C464A78817806
:10336000914206D8C178914203D3437921788B42A8
:1033700002D85DF8044B704723795DF8044BFFF7E2
:10338000CFBF00BF70B50D4606468C7823061AD411
:10339000EB78032B06D8DFE803F0120A0E026B78F5
:1033A000013B6B70640014F0FF04EFD170BD6B78CB
:1033B00001336B70F6E72B78013B2B70F2E72B782B
:1033C00001332B70EEE730462946FFF7C5FFDFE7F4
:1033D0002DE9F041CB780D4606468C78032B26D894
:1033E000DFE803F01F1B1702FF274FF0000809E07A
:1033F0002A786B78640042443B4414F0FF042A703E
:103400006B7012D02306F3D530462946FFF7A4FF90
:10341000EEE700274FF0FF08F4E701274FF0000820
:10342000F0E700274FF00108ECE7BDE8F081002746
:10343000B846E7E710B5143A82B04C68332A22D870
:10344000DFE802F02932213C212121212121212103
:10345000212121212121212121212121212121215C
:1034600021214321212121212121211A2121212131
:103470002121212121214A24194620460193FCF7CC
:10348000ABFE019B68BB012002B010BD6278012039
:103490001A7002B010BD2046FCF738FE2046FEF739
:1034A000CDFC012002B010BD2046FEF7D9FC00285B
:1034B000EAD02046FCF72AFE0120E5E7204619461F
:1034C000FCF780FE012002B010BD20461946FFF730
:1034D00043FF012002B010BD627901201A7002B0D2
:1034E00010BD20461946FFF773FF0120CCE700BF4F
:1034F00030B5164883B0012117220C23FFF766F977
:10350000124800210F220823FFF776F90F480D21FA
:103510000F220823FFF770F902240025012D0CBFAC
:103520001023112304F1FF310093234604F1020418
:103530000CBF11221022C9B20448E4B2FFF7A8FC64
:103540000E2C85F00105E9D103B030BD400D0020FF
:1035500030B5164C83B0204601210B220623FFF71D
:1035600035F92046002103220823FFF745F92046BC
:10357000072103220823FFF73FF9072215462046BB
:1035800004210A23FFF722F9204600950B2105228A
:103590000D23FFF77DFC0923009320462A460D21C9
:1035A0000B23FFF775FC03B030BD00BF400D0020BA
:1035B00010B50446722133480F220223FFF706F9A3
:1035C000304875210F220223FFF700F92D4878219A
:1035D0000F220223FFF7FAF82A487B210F22022349
:1035E000FFF7F4F827487E210F220223FFF7EEF8B9
:1035F0000D2C00DC10BD234872210C220323FFF7A1
:10360000FBF8204873210C220323FFF7F5F8172C51
:10361000F0DD1C48752109220623FFF7EDF8194853
:10362000762109220623FFF7E7F8212CE2DD154871
:10363000782106220923FFF7DFF8124879210622B4
:103640000923FFF7D9F82B2CD4DD0E487B21032268
:103650000C23FFF7D1F80B487C2103220C23FFF742
:10366000CBF8352CC6DD07487E2100220F23FFF75B
:10367000C3F8BDE8104003487F2100220F23FFF765
:10368000BBB800BF400D002010B53C4C3C49204663
:1036900001F02EFAFFF75CFF04F13C0314210C2229
:1036A000204600F081FFFFF723FF04F144031822B6
:1036B0001421204600F078FF2046324901F018FA24
:1036C0002422314B0021204600F06EFF20462C4979
:1036D00001F00EFA04F14C0314212422204600F0DC
:1036E00063FF002120463022284B00F05DFF94F854
:1036F0005210204600293BD00021402204F15403FF
:1037000000F052FF1D48402100223423FFF774F8D7
:1037100040231A4800213322FFF758F894F85E300E
:103720006BB11648174901F0E3F96C2113480822E0
:10373000174B00F039FF1148114901F0D9F90F4832
:10374000492100F160031A2200F02EFF51212622A8
:10375000104B0A4800F028FF422132220E4B074846
:1037600000F022FFFDF73AFBBDE81040FFF720BF55
:1037700040220A4B00F018FFC4E700BF400D0020B4
:103780006C8A0008B8A1000888A800088CA8000866
:10379000A4A80008A8A80008B0A8000894A80008D9
:1037A000FFF7CAB908B5094840F2255100F0ACFB53
:1037B00000B908BD054800F01FFBC0B27428F8D15D
:1037C000BDE808400248FCF783BF00BF0038014055
:1037D00038AA000870B54FF4E1308AB0FFF7DAFB81
:1037E000FFF70CFAFFF77EF9B448FCF771FFFDF71D
:1037F000E9F940F2F230FDF791FA4FF44870FFF723
:10380000E7F9FDF7CDFA0346AD4C0146AD48A36696
:10381000FCF73AFF00200146FDF7EAFA0A20FDF71F
:103820002DFBA948FCF754FFA848FCF751FF0025E1
:1038300040230821802204F16C008DE80A000393E4
:103840000292A34B0495A3494FF40012FEF73EFEEB
:1038500004F16C0029462A46FEF760FE04F16C0074
:103860002A460121FEF75AFE04F16C002946FF2288
:10387000FEF7EEFE2A46012104F16C00FEF7E8FE99
:103880009548FCF725FF9548FCF722FF944A012351
:10389000042104F18800FDF785FC04F18800FDF7A0
:1038A0002DFC04F18800FDF729FC04F18800FDF7E8
:1038B00081FD294604F18800FDF7F8FD04F1880038
:1038C000FDF71CFC04F18800FDF736FD8548FCF788
:1038D000FFFE04F197059F3415F8011F8248FCF79D
:1038E000D3FEA542F8D18148FCF7F2FE8048FCF7F0
:1038F000EFFE8048FCF7ECFE4FF4804406A910264A
:1039000002257348ADF818408DF81B608DF81A50E9
:10391000FEF79CF9214601226D48FEF715FA76481C
:10392000FCF7D6FE7548FCF7D3FE4FF4005406A909
:103930006748ADF818408DF81B608DF81A50FEF7F7
:1039400085F9214601226248FEF7FEF96C48FCF732
:10395000BFFE6C496C4A5A48FDF7C8FFFFF752F9A1
:103960006A48FCF7B5FE0024082040218022442349
:103970008DE80F000494564B654856494FF40012E9
:10398000FEF7A4FD214622466148FEF7C7FD224608
:103990005F480121FEF7C2FD21465D480122FEF786
:1039A00057FE224601215A48FEF752FE5948FCF7BD
:1039B0008FFE5948FEF772FA5848FCF7A9FE5648A0
:1039C0005649FEF7AFFA5648FCF782FE3C48FDF731
:1039D000B7FF3B4C04F18800FDF790FB04F1880031
:1039E000FDF7E8FC04F1880007A9FDF7C3FD4D4988
:1039F000BDF91C20089B04F13C00FCF7D3FD4949AC
:103A0000BDF91C20089B04F14400FCF7CBFD45499F
:103A1000BDF91C20089B04F14C00FCF7C3FDFFF727
:103A200033FE2046FDF790FF0028D2D104F1BC0000
:103A3000FEF790FA04F18800FDF760FB04F18800BE
:103A4000FDF7B8FC04F18800FDF7C4FCFDF7A8F908
:103A50000546354AC31782FB0012C3EBA20202EBF4
:103A60008203A0EB4303314904F16000A566FCF733
:103A700099FDFDF7A9F984F85E00FDF7AFF9C4F8E8
:103A80001801FDF751FAD4F818112948FCF7FCFD8C
:103A900004F16000FCF7F8FD2648FCF719FE94F8E5
:103AA0005230002B92D02448FCF7EEFD04F1540074
:103AB000FCF7EAFD2148FCF70BFE87E7BCA80008ED
:103AC000400D0020D0A80008DCA80008F0A80008DD
:103AD000000C01400054004008A9000818A9000883
:103AE0000008014034A9000854A900085CA9000896
:103AF0006CA9000884A9000898A90008A8A90008D2
:103B0000BCA9000884040020DD2D0008CCA9000811
:103B1000E00D0020E0A90008FC0D0020F8040020C2
:103B2000F4A9000808AA00086766666610AA0008DB
:103B30001CAA000840AA000830AA000868A90008CA
:103B4000024B0022C3F81421704700BF400D002033
:103B500008B5264B984218D0254B984221D0254BCA
:103B600098422AD0244B984233D0244B984200D01C
:103B700008BD4FF480100121FEF780FBBDE808402E
:103B80004FF480100021FEF779BB4FF480400121F3
:103B9000FEF768FBBDE808404FF480400021FEF7C7
:103BA00061BB4FF400300121FEF768FBBDE808401F
:103BB0004FF400300021FEF761BB4FF4802001215B
:103BC000FEF75CFBBDE808404FF480200021FEF7C3
:103BD00055BB4FF400200121FEF750FBBDE8084023
:103BE0004FF400200021FEF749BB00BF0038014020
:103BF0000044004000480040004C0040005000409D
:103C000070B504460D46038ACA889BB223F440531C
:103C10001343038282898B88088992B249890343BE
:103C200022F4B0520B4322F00C0213439BB2A38147
:103C3000A38AAA899BB223F4407386B01343A3825C
:103C400001A8FEF79DFA1B48039B0499A2898442B0
:103C500008BF0B4612B2002A2A6803EB8303B4BFE5
:103C60005200920003EB8303B3FBF2F3124EA589DB
:103C7000A6FB03202DB240096422002D00FB123365
:103C80004FEA00100ADB1A013232A6FB0223C3F30B
:103C9000431303439BB2238106B070BDD900323178
:103CA000A6FB0131C1F3421242EA00039BB2238119
:103CB00006B070BD003801401F85EB5100234FF462
:103CC00016510C22016042818380C380038183816D
:103CD000704700BF30B40B884D888C88028A2B4314
:103CE000C988234392B20B4322F4706213439BB200
:103CF000038230BC704700BF002303804380838071
:103D0000C3807047838929B923F400531B041B0C1B
:103D1000838170479BB243F400538381704700BF97
:103D200010B401F01F04C1F342110123012903FA69
:103D300004F311D002290CBF1030143032B90268DC
:103D40005DF8044B22EA03030360704702685DF8E4
:103D5000044B1343036070470C30EFE7838A9BB238
:103D60001AB923EA010181827047194381827047A1
:103D7000038A23F00F031B041B0C0382038A9BB2EC
:103D800019430182704700BF838923F400631B0439
:103D90001B0C838183899BB219438181704700BFCB
:103DA000838929B923F002031B041B0C838170470C
:103DB0009BB243F002038381704700BF038A23F064
:103DC00020031B041B0C0382038A9BB2194301824C
:103DD000704700BF038A29B923F480431B041B0CDE
:103DE000038270479BB243F480430382704700BF55
:103DF000C1F30801818070478088C0F308007047D4
:103E000083899BB243F0010383817047038BDBB24C
:103E10000383038B9BB243EA01210183704700BFF8
:103E2000038B03F47F430383038B9BB2194301830A
:103E3000704700BF838A29B923F020031B041B0CA1
:103E4000838270479BB243F020038382704700BF98
:103E5000838A29B923F010031B041B0C838270474B
:103E60009BB243F010038382704700BF838A29B955
:103E700023F008031B041B0C838270479BB243F0A2
:103E800008038382704700BF838919B9C3F30E0307
:103E9000838170476FEA43436FEA53439BB2838148
:103EA000704700BF838A29B923F400631B041B0CED
:103EB000838270479BB243F400638382704700BFE4
:103EC000838A23F004031B041B0C8382838A9BB226
:103ED00019438182704700BF838A29B923F0020306
:103EE0001B041B0C838270479BB243F00203838246
:103EF000704700BF0388194214BF0120002070479B
:103F0000C94389B201807047C1F3421210B4012342
:103F100001F01F04012A03FA04F316D0022A0CBF91
:103F2000028A828A92B21340028892B24BB1090A85
:103F300001238B40134214BF012000205DF8044B85
:103F4000704718465DF8044B7047828992B213405F
:103F5000EAE700BF090A01238B40DB439BB20380E1
:103F6000704700BF43185B78405C03EB002080B2D1
:103F7000704700BF0020704790F82A00704700BFCC
:103F800090F829000130C0B2704700BF90F82A2095
:103F900090F829309B1A5BB203EBD37302EB6300FA
:103FA000C0B270470078704700787047704700BF14
:103FB00008B5FFF7FBFF18B1022801D0032008BDA8
:103FC000062008BD407970470621CBE70821C9E7E4
:103FD000807A7047C07A704790F90C00704700BF34
:103FE00090F90D00704700BF90F90E00704700BFB8
:103FF00090F90F00704700BF90F91000704700BFA4
:10400000F8B5047806462046FFF7D0FF074620465D
:10401000FFF7CEFF05463046FFF7DAFF044630468D
:10402000FFF7D8FF012F14BFFF210F2106F1110266
:1040300009E09378844203EA01032B441A4404F113
:10404000010409D0E4B21378FF2BF2D1844202F1CB
:10405000010204F10104F5D1901BF8BD8368587882
:10406000704700BF83689878704700BF836893F9F2
:1040700003007047836893F9040070478368587998
:10408000704700BF2DE9F84FD0F808A081469AF894
:1040900000400E462046FFF789FF07462046FFF7FF
:1040A00087FF012F8346504614BF4FF0FF084FF0A3
:1040B0000F08FFF78DFF04465046FFF78BFF0546BC
:1040C0005046FFF783FF602E30D940B3504461243F
:1040D000B54217D3AC420CD914E0B4422ED0837849
:1040E000AC4208EA03035B44184404F1010409D01C
:1040F000E4B20378FF2BF0D1AC4200F1010004F1EF
:104100000104F5D1002089F81C0089F81F0089F806
:10411000200089F81D0089F81E00BDE8F88F504680
:10412000FFF752FF38B150444124D1E75046FFF722
:104130004BFF402EF6D80AF11100C9E7BFB1022F9C
:1041400015D003F00F02023A1B0989F81E2089F8E6
:104150001D30437803F00F021B0989F8202089F8ED
:104160001F3083781B0989F81C30BDE8F88F89F867
:104170001F30437889F82030C37889F81C300379E0
:1041800089F81D30437989F81E30BDE8F88F00BFEB
:1041900070B51446054680237F22637022700E4658
:1041A0000978FFF76FFF6B7F5B42D9B221716B7F9C
:1041B000A370AB7FE37007E02B7F28460B4423718D
:1041C0003178FFF75FFF2179AA7F94F9000053B29D
:1041D0009842C8BF227095F8203094F9010013442A
:1041E000DBB25AB29042B8BF637016F8013F002BA1
:1041F000E2D1EB7F0B44DBB22371697F0B44237167
:1042000070BD00BF08B5FFF73DFF003018BF0120AB
:1042100008BD00BF10B50446FFF734FF00B1207F92
:1042200040B210BD2DE9F04F8A4685B019461546BB
:104230000646FFF727FF0446002848D0B3681878E1
:10424000FFF7B6FE96F81E90737F96F82070C9EBC4
:1042500005055FFA85F99A4496F81FB0C7EB090582
:10426000EDB25FFA8AFA804600972A4651465B46CD
:10427000304600F0E3FC28B30BF1070BCBF3C4038B
:1042800019460293F7B1013BDBB20AEBC1070133D8
:10429000A0440393FFB2029B83B15446C3461BF86C
:1042A000013B21460834009330462A460023E4B2FD
:1042B000FDF784FBBC42F2D1039B98440135EDB27B
:1042C0004D45E8D1307F40B205B0BDE8F08F40B237
:1042D00005B0BDE8F08F00BF2DE9F041476A054603
:1042E000884614461E46B8470219414628463346BA
:1042F000BDE8F041D2B2FFF795BF00BF2DE9F04F06
:104300000C4685B0194691460646FFF7BBFE0746A8
:1043100000284CD0B3681878FFF74AFEB37F727F4D
:1043200001331C44914496F820A0F57FE4B25FFA73
:1043300089F9804621464A4600955346304600F0AA
:104340007DFC78B30AF1FF3305F1070B1C44CBF376
:10435000C40319460293E5B2BAF1000F22D0013B23
:10436000DBB2CAEB050A09EBC1020133B8445FFABC
:104370008AFA0393D7B2029B83B14C46C3461BF81B
:10438000013B224608340093304629460123E4B21B
:10439000FDF714FBBC42F2D1039B9844013DEDB202
:1043A0005545E8D1307F40B205B0BDE8F08F40B24E
:1043B00005B0BDE8F08F00BF2DE9F041476A054622
:1043C0000C4690461E46B847211A424628463346B8
:1043D000BDE8F041C9B2FFF791BF00BF2DE9F04F32
:1043E000894685B0194614460646FFF74BFE074638
:1043F000002852D0B3681878FFF7DAFD96F81DA0B0
:10440000B37FF57F0133CAEB09091C445FFA89FACF
:10441000C5F1010196F820B05144E4B28046C9B21A
:1044200022462B46CDF800B0304600F007FC78B3AA
:104430000BF1FF3305F107091C44C9F3C403194606
:104440000293E5B2BBF1000F22D0013BDBB2CBEB14
:10445000050BAAEBC1020133B8445FFA8BFB03934F
:10446000D7B2029B83B15446C14619F8013B21469D
:10447000083C009330462A460223E4B2FDF79EFA38
:10448000BC42F2D1039B9844013DEDB25D45E8D1B9
:10449000307F40B205B0BDE8F08F40B205B0BDE856
:1044A000F08F00BF2DE9F041476A05468846144663
:1044B0001E46B847221A414628463346BDE8F04119
:1044C000D2B2FFF78BBF00BF2DE9F04F0D4685B08C
:1044D000194692460646FFF7D5FD044600284CD003
:1044E000B3681878FFF764FD96F82070727FB37F89
:1044F00096F81F903B44C2EB0A0AED1A5FFA8AFA5B
:10450000C9F10102EDB2524480462946CDF800902F
:10451000D2B23B46304600F091FB48B309F107099F
:10452000C9F3C4031946029317B3013BDBB205EB91
:10453000070B0133AAEBC1075FFA8BFBA04403937F
:10454000FFB2029B83B15446C14619F8013B224693
:10455000083C0093304629460323E4B2FDF72EFAC7
:10456000BC42F2D1039B98440135EDB25D45E8D1E0
:10457000307F40B205B0BDE8F08F40B205B0BDE875
:10458000F08F00BF2DE9F041476A05460C46904682
:104590001E46B8470119424628463346BDE8F04159
:1045A000C9B2FFF791BF00BF2DE9F0419846436AB9
:1045B000164607460C46984798F800303044C6B275
:1045C0008BB10025214638463246FFF72BFE18F8FE
:1045D000013FC0B204440544E4B2EDB2002BF1D176
:1045E0002846BDE8F0811D46FAE700BF2DE9F041FD
:1045F0009846436A0E4607461446984798F8003096
:10460000301AC6B28BB10025224638463146FFF734
:1046100075FE18F8013FC0B204440544E4B2EDB29F
:10462000002BF1D12846BDE8F0811D46FAE700BF16
:104630002DE9F0419846436A164607460C469847CE
:1046400098F80030301AC6B28BB1002521463846A2
:104650003246FFF7C3FE18F8013FC0B2241A0544E2
:10466000E4B2EDB2002BF1D12846BDE8F0811D4641
:10467000FAE700BF2DE9F0419846436A0E46074627
:104680001446984798F800303044C6B28BB10025E4
:10469000224638463146FFF717FF18F8013FC0B2EF
:1046A000241A0544E4B2EDB2002BF1D12846BDE84E
:1046B000F0811D46FAE700BF10B5029C032B17D806
:1046C000DFE803F0110C07022346BDE81040FFF7B6
:1046D000D1BF2346BDE81040FFF7AABF2346BDE87F
:1046E0001040FFF783BF2346BDE81040FFF75CBFD3
:1046F000002010BD2DE9F0419846436A1646074652
:104700000C46984798F800303044C6B28BB100256B
:10471000214638463246FFF785FD18F8013FC0B202
:1047200004440544E4B2EDB2002BF1D12846BDE8C3
:10473000F0811D46FAE700BF2DE9F0419846436A33
:104740000E4607461446984798F80030301AC6B20D
:104750008BB10025224638463146FFF72DFE18F86A
:10476000013FC0B204440544E4B2EDB2002BF1D1E4
:104770002846BDE8F0811D46FAE700BF2DE9F0416B
:104780009846436A164607460C46984798F8003004
:10479000301AC6B28BB10025214638463246FFF7A3
:1047A00081FE18F8013FC0B2241A0544E4B2EDB20C
:1047B000002BF1D12846BDE8F0811D46FAE700BF85
:1047C0002DE9F0419846436A0E460746144698473D
:1047D00098F800303044C6B28BB1002522463846E6
:1047E0003146FFF7CFFE18F8013FC0B2241A054446
:1047F000E4B2EDB2002BF1D12846BDE8F0811D46B0
:10480000FAE700BF2DE9F0410C46154698460746E9
:10481000FFF72CFC241A3846FFF72CFCE4B22A18C8
:10482000214638464346BDE8F041D2B2FFF744BFC7
:1048300070B50C4615460646FFF718FC241A30469C
:10484000FFF718FCE4B22A189DF81030D2B22146C6
:104850003046FFF7E7FC002070BD00BF8268CAB198
:1048600090F82830BBB1012B1CD0537B80F8293045
:10487000927B80F82A2090F82B105BB252B29B1AE0
:1048800040299BB204D0DBB201FB03F3C3F38F13C7
:1048900080F82C307047537980F82930127B80F8EB
:1048A0002A20E8E7D37B80F82930127C80F82A2080
:1048B000E1E700BF002280F82820FFF7CFBF00BF4C
:1048C000012380F82830FFF7C9BF00BF022380F81A
:1048D0002830FFF7C3BF00BF80F82B10FFF7BEBF23
:1048E000014B4362704700BF753F0008014B4362B4
:1048F000704700BF793F0008014B4362704700BF1B
:10490000813F0008014B4362704700BF8D3F0008A4
:104910002DE9F041064608460C469046904705466C
:1049200008B9BDE8F08130462946FFF7ABFB707F40
:104930004042C7B209E0337F20463B44DFB2C04764
:10494000054630462946FFF79DFB01342046C04707
:104950000028F0D1202D1BBF707FF37F307FC0185F
:104960003844C0B2BDE8F081014AFFF7D1BF00BFB3
:10497000A53F0008014AFFF7CBBF00BFA93F0008D1
:1049800010B504460978FFF77DFB94F91D0010BDB2
:1049900010B504460978FFF775FB94F91D0010BDAA
:1049A00070B50D46097869B1064600243046FFF718
:1049B00069FB337F15F8011F1C44E4B20029F5D1CF
:1049C000204670BD0C46FBE770B50D46097869B10D
:1049D000064600243046FFF755FB337F15F8011FCC
:1049E0001C44E4B20029F5D1204670BD0C46FBE71B
:1049F00010B4002414710C7834B91470547094708D
:104A0000D4705DF8044B70475DF8044BFFF7C0BBF2
:104A1000704700BF704700BF2DE9F0430F7883B0A7
:104A20000C460A9E0B9D17B3814690461F466A4668
:104A300000238DF80430FFF7ABFB21784846FFF7E1
:104A400021FB98F8001099F81D309DF804200B44C4
:104A500088F8003032703A789DF801309DF80010E7
:104A6000D21A5B1A3A702B7003B0BDE8F08337702E
:104A70002F7003B0BDE8F0832DE9F0470C7882B0C9
:104A80000D460A9F0B9E6CB3044691469846836878
:104A90004FF0000E6A4693F805A08DF804E0FFF78A
:104AA00077FB9DF90130297853452046B8BF8DF832
:104AB00001A0FFF7E7FA99F80010637F9DF8042042
:104AC0000B4489F800303A7098F800209DF80130C6
:104AD0009DF80010D21A5B1A88F80020337002B0DB
:104AE000BDE8F0873C70347002B0BDE8F08700BFCD
:104AF00082688A4207D010B504468160FFF7AEFE97
:104B0000014B636210BD7047753F00082DE9F04FFF
:104B10008A4685B0194615460646FFF7B3FA04469D
:104B2000002848D0B3681878FFF742FA96F81E902C
:104B3000737F96F82070C9EB05055FFA85F99A44F2
:104B400096F81FB0C7EB0905EDB25FFA8AFA804606
:104B500000972A4651465B46304600F06FF828B36E
:104B60000BF1030BCBF3850319460293F7B1013B1D
:104B7000DBB20AEB81070133A0440393FFB2029B2F
:104B800083B15446C3461BF8013B214604340093CD
:104B900030462A460023E4B2FCF724FFBC42F2D19F
:104BA000039B98440135EDB24D45E8D1307F40B2CA
:104BB00005B0BDE8F08F40B205B0BDE8F08F00BF92
:104BC0002DE9F041476A0546884614461E46B84717
:104BD0000219414628463346BDE8F041D2B2FFF7FC
:104BE00095BF00BF2DE9F041074680680C4600786C
:104BF00090461E46FFF7DAF9022802D00020BDE8F1
:104C0000F0817B6A38469847337840445FFA80F8F1
:104C10008BB10025214638464246FFF777FF16F84C
:104C2000013FC0B204440544E4B2EDB2002BF1D11F
:104C30002846BDE8F0811D46FAE700BF70B49DF834
:104C40000C4090F83B60013C14449642E4B290F86A
:104C500039500FD3AC420FD390F83A40013B0B448C
:104C60008C42DBB290F838200BD393420BD370BC4C
:104C700001207047AC4201D3A242EDD870BC0020A5
:104C800070479342FAD370BC994294BF0020012030
:104C9000704700BF40F0BF60024B40F40030D86066
:104CA000704700BF00ED00E0C3785BB903780121D5
:104CB0005A09174803F01F03203201FA03F340F8A2
:104CC00022307047134A30B4D2684378D243817897
:104CD000C2F302220F24D440C2F1040503FA05F204
:104CE00004EA0103017813431B0101F16042DBB2C6
:104CF00002F5614282F800330378012203F01F00BD
:104D000003495B09824041F8232030BC704700BF53
:104D100000E100E000ED00E021F0604121F07F01C2
:104D2000014B08439860704700ED00E0044A1369A6
:104D300019B923EA000010617047184310617047E9
:104D400000ED00E0044A042813680CBF43F004039C
:104D500023F004031360704710E000E008B50D4B2A
:104D600098420BD04FF480000121FDF787FABDE88F
:104D700008404FF480000021FDF780BA4FF4001086
:104D80000121FDF77BFABDE808404FF40010002137
:104D9000FDF774BA00540040F0B504460D4687B0E4
:104DA000868801A8FDF7ECF9314F039B26F03F06FA
:104DB000A7FB03273604BF0C360CB8B20643A68007
:104DC00021882A6821F001012A4E0904090CB24207
:104DD000218024D85200B3FBF2F39BB2032B00F1E5
:104DE000010098BF04232084A38321886E8989B29F
:104DF00041F0010121802388AA8823F4816323F0F4
:104E000002032889A9891B0432431B0C134340EA7F
:104E100001029BB292B22380228107B0F0BD4BF613
:104E2000FF71E88888421DD002EB820202EB820209
:104E3000B3FBF2F39BB243F48043C3F30B020AB912
:104E400043F001034FF4967202FB07F70A4AF91781
:104E500082FB0702C1EBA212013292B243F400437B
:104E60002284C1E702EB4200B3FBF0F39BB2E4E71C
:104E700083DE1B43A0860100D34D621010B44BF6B5
:104E8000FF7141F2883400234FF480420460C180F6
:104E900082818380038143815DF8044B704700BFAA
:104EA000038829B923F001031B041B0C03807047FE
:104EB0009BB243F001030380704700BF838829B988
:104EC00023F400631B041B0C838070479BB243F4E4
:104ED00000638380704700BF838829B923F480531F
:104EE0001B041B0C838070479BB243F48053838068
:104EF000704700BF038829B923F480731B041B0C7F
:104F0000038070479BB243F480730380704700BFF7
:104F1000038829B923F400731B041B0C038070471A
:104F20009BB243F400730380704700BF038829B924
:104F300023F480631B041B0C038070479BB243F473
:104F400080630380704700BF838901F0FE019BB23C
:104F500023F0FE0319438181704700BF838929B97B
:104F600023F001031B041B0C838170479BB243F0A9
:104F700001038381704700BF038829B923F04003F0
:104F80001B041B0C038070479BB243F0400303805B
:104F9000704700BF83889BB21AB923EA0101818060
:104FA000704719438180704701827047008AC0B200
:104FB000704700BF22B901F0FE0189B2018270473B
:104FC00041F0010189B20182704700BF82B0002325
:104FD00001930190019B19440191019B188880B2B3
:104FE00002B07047038819B9C3F30E0303807047FA
:104FF0006FEA43436FEA53439BB20380704700BF9D
:10500000B1F5006F038805D023F400631B041B0C6B
:10501000038070479BB243F400630380704700BF76
:10502000B1F5005F038805D023F400531B041B0C6B
:10503000038070479BB243F400530380704700BF66
:10504000038829B923F480531B041B0C0380704789
:105050009BB243F480530380704700BFB1F5006FEB
:10506000038805D023F400631B041B0C03807047E6
:105070009BB243F400630380704700BF038829B9E3
:1050800023F020031B041B0C038070479BB243F0EA
:1050900020030380704700BF008BC0F307207047D8
:1050A000038829B923F010031B041B0C03807047ED
:1050B0009BB243F010030380704700BF038829B1FF
:1050C00023F080031B041B0C038070479BB243F04A
:1050D00080030380704700BFB1F5804F838B05D0FC
:1050E00023F480431B041B0C838370479BB243F45F
:1050F00080438383704700BF838A008B9BB243EA5F
:10510000004321F07F401840081AB0FA80F04009AF
:10511000704700BF838A028B98B240EA024020F0B9
:105120007F40704782B000230A0F009301930190E3
:105130000092009B21F07F4153B1019B14330193F6
:10514000019B1B68194214BF0120002002B0704768
:10515000019B090C18330193F2E700BFC94389B2E0
:10516000818270478388808A9BB280B2084006D0D3
:1051700001F0E06113EA114314BF012000207047E1
:10518000C94389B2818270473C4B30B418683C49AE
:1051900040F0010018605D6882B0294059601968CC
:1051A000002021F0847121F48031196019684FF4D6
:1051B0001F0421F48021196059681A4621F4FE0168
:1051C00059609C6000900190196841F48031196029
:1051D00003E0009BB3F5A06F09D0136803F400331C
:1051E0000193009B01330093019B002BF1D0234BD3
:1051F0001B6813F4003318BF01230193019B012B9B
:1052000006D0204B4FF000629A6002B030BC70476D
:105210001D4A1A4B1068194640F0100010601068C3
:1052200020F003001060106840F0020010605A681F
:105230005A605A685A605A6842F480625A605A68E2
:1052400022F47C125A605A6842F4E8125A601A68D2
:1052500042F080721A600B68084A9B01FBD5114628
:10526000536823F003035360536843F00203536011
:105270004B6803F00C03082BFAD1C2E70010024080
:105280000000FFF800ED00E000200240114A5368E2
:1052900003F00C03082B0ED153685168C3F383430A
:1052A000C90303F1020310D5526892030DD40A4AD0
:1052B00002FB03F300E0084B064A08495268C2F3B8
:1052C00003128A5CD3400B617047054A02FB03F36B
:1052D000F2E700BF0010024000127A00FC04002038
:1052E00000093D002DE9F8439DF824401E46E307E0
:1052F0000F46904681469DF820503BD4A10728D404
:10530000220715D4630701D4BDE8F883F11B05EB30
:1053100008024846C9B2D2B2FCF742FBC8EB06010C
:105320007A194846BDE8F843C9B2D2B2FCF738BB97
:10533000F11905EB08024846C9B2D2B2FCF730FBBE
:1053400006EB08017A19C9B2D2B24846FCF728FB2D
:10535000D8E7F11BC8EB05024846C9B2D2B2FCF748
:105360001FFBC8EB0601EA1BC9B2D2B24846FCF7E4
:1053700017FBC5E77118AA1AC9B2D2B2FCF710FB25
:1053800006EB0801EA1BC9B2D2B24846FCF708FB9B
:10539000B4E700BF2DE9F0479DF824401E46E3071F
:1053A0000D46174681469DF820803FD4A10728D49A
:1053B000220715D4630701D4BDE8F087711B7B1C5D
:1053C00048464246C9B2DBB2FDF716FAF11B6B1C28
:1053D00048464246BDE8F047C9B2DBB2FDF70CBA19
:1053E00071197B1C48464246C9B2DBB2FDF704FA8C
:1053F000F1196B1CC9B2DBB248464246FDF7FCF915
:10540000D8E7711BC7EB08027B1C4846C9B2D2B271
:10541000DBB2FDF7F1F9F11BC5EB08026B1CC9B259
:10542000D2B2DBB24846FDF7E7F9C1E77118C2EB2B
:1054300008027B1CC9B2D2B2DBB2FDF7DDF9F1196B
:10544000C5EB08026B1CC9B2D2B2DBB24846FDF70D
:10545000D3F9ABE72DE9F04F9B4683B09DF8309030
:105460005E42C3F101040F469046009276001A4650
:10547000CDF804900B460021F6B2E4B28246FFF765
:1054800031FFBBF1000F1BD000250135EDB2220624
:10549000504629463B4608D40236F6B234440BF156
:1054A000FF3BE4B2F6B25FFA8BFB04EB45048DE8F8
:1054B00000035A460134FFF715FFAB45E4B2E4D8C8
:1054C00003B0BDE8F08F00BF2DE9F04115465A1C2E
:1054D000D2B21C46530082B00E46DBB2891AAA1A19
:1054E0000093C9B2D2B207469DF82080FFF7A6FB11
:1054F00010B902B0BDE8F081384631462A4623464D
:10550000CDF8208002B0BDE8F041FFF7A3BF00BF97
:105510002DE9F04F9B4683B09DF830905E42C3F179
:1055200001040F469046009276001A46CDF804908A
:105530000B460021F6B2E4B28246FFF72BFFBBF127
:10554000000F1BD000250135EDB22206504629463A
:105550003B4608D40236F6B234440BF1FF3BE4B2CA
:10556000F6B25FFA8BFB04EB45048DE800035A4664
:105570000134FFF70FFFAB45E4B2E4D803B0BDE858
:10558000F08F00BF2DE9F04115465A1CD2B21C46DF
:10559000530082B00E46DBB2891AAA1A0093C9B230
:1055A000D2B207469DF82080FFF748FB10B902B041
:1055B000BDE8F081384631462A462346CDF82080A2
:1055C00002B0BDE8F041FFF7A3BF00BF10B504462D
:1055D000024B036000F0B8F8204610BD50AA000846
:1055E00010B50446FFF7F2FF204600F0FDF8204614
:1055F00010BD2DE9F041069E804696420F461546A5
:105600001C4603D1194600F068F858B9D8F80800CC
:105610003946036806961E6A2A462346B446BDE804
:10562000F04160470620BDE8F0812DE9F14F0E46BC
:1056300019468346174699460A9CDDF82CA0DDF8EA
:1056400030800D9D00F049F878B1002E2C602F714C
:1056500006DB3444A0450CBF06240124AC711EE0D7
:1056600002361CD10123AB7119E0444504D15846E0
:10567000514600F032F888B9DBF80800314603687B
:105680000A94CDF82CA0CDF830800D95DC693A460F
:105690004B46A44601B0BDE8F04F60476F71002053
:1056A00001B0BDE8F08F2DE9F04104460F461646E3
:1056B0001D4600F05CF848B9A068394603683246D8
:1056C0009C692B46A446BDE8F0416047BDE8F081E7
:1056D00070470020704700207047814208B50ED007
:1056E000406803782A2B0CD049680B782A2B08BF16
:1056F0000131FBF7F9FBB0FA80F0400908BD012049
:1057000008BD002008BD7FB5102302930368002464
:1057100015469E6900946B468DF804400394126808
:10572000B0479DF8043003F00603062B11BF204656
:10573000009B01202B6004B070BD009890420CBF0C
:10574000062001207047000010B50446024B03609C
:10575000FFF7BEFF204610BDC8AA000810B50446DA
:10576000FFF7F2FF204600F03FF8204610BD38B5A5
:1057700015461C46FFF7B1FF20B10823E36006235E
:105780002560237138BD2DE9F04106460C461546CB
:105790001F46FFF7A2FF48B9032F07D8236820460A
:1057A00031462A46BDE8F0415B691847BDE8F08103
:1057B0002DE9F041069E1F46089B80469E421546F5
:1057C000099C03D10799FFF788FF48B9404639463D
:1057D000FFF783FF28B1012326602571A37100E044
:1057E00065710020BDE8F08101F07EBE81F00041CE
:1057F00002E000BF83F0004330B54FEA41044FEAB6
:10580000430594EA050F08BF90EA020F1FBF54EA50
:10581000000C55EA020C7FEA645C7FEA655C00F0EC
:10582000E2804FEA5454D4EB5555B8BF6D420CDDBD
:105830002C4480EA020281EA030382EA000083EA40
:10584000010180EA020281EA0303362D88BF30BDE0
:1058500011F0004F4FEA01314FF4801C4CEA113136
:1058600002D0404261EB410113F0004F4FEA033395
:105870004CEA133302D0524263EB430394EA050F20
:1058800000F0A780A4F10104D5F1200E0DDB02FA8F
:105890000EFC22FA05F2801841F1000103FA0EF223
:1058A000801843FA05F359410EE0A5F120050EF1E9
:1058B000200E012A03FA0EFC28BF4CF0020C43FA1A
:1058C00005F3C01851EBE37101F0004507D54FF027
:1058D000000EDCF1000C7EEB00006EEB0101B1F577
:1058E000801F1BD3B1F5001F0CD349085FEA3000BD
:1058F0004FEA3C0C04F101044FEA445212F5800FC8
:1059000080F09A80BCF1004F08BF5FEA500C50F164
:10591000000041EB045141EA050130BD5FEA4C0C47
:10592000404141EB010111F4801FA4F10104E9D1D0
:1059300091F0000F04BF01460020B1FA81F308BFC7
:105940002033A3F10B03B3F120020CDA0C3208DD93
:1059500002F1140CC2F10C0201FA0CF021FA02F16E
:105960000CE002F11402D8BFC2F1200C01FA02F1DE
:1059700020FA0CFCDCBF41EA0C019040E41AA2BF03
:1059800001EB0451294330BD6FEA04041F3C1CDACB
:105990000C340EDC04F11404C4F1200220FA04F0EB
:1059A00001FA02F340EA030021FA04F345EA030195
:1059B00030BDC4F10C04C4F1200220FA02F001FA57
:1059C00004F340EA0300294630BD21FA04F02946D9
:1059D00030BD94F0000F83F4801306BF81F4801172
:1059E0000134013D4EE77FEA645C18BF7FEA655CE5
:1059F00029D094EA050F08BF90EA020F05D054EAB7
:105A0000000C04BF1946104630BD91EA030F1EBFBB
:105A10000021002030BD5FEA545C05D140004941BF
:105A200028BF41F0004130BD14F580043CBF01F5B2
:105A3000801130BD01F0004545F0FE4141F4700198
:105A40004FF0000030BD7FEA645C1ABF1946104673
:105A50007FEA655C1CBF0B46024650EA013406BF74
:105A600052EA033591EA030F41F4002130BD00BF33
:105A700090F0000F04BF0021704730B54FF48064F0
:105A800004F132044FF000054FF0000150E700BF71
:105A900090F0000F04BF0021704730B54FF48064D0
:105AA00004F1320410F0004548BF40424FF00001BD
:105AB0003EE700BF42004FEAE2014FEA31014FEA00
:105AC00002701FBF12F07F4393F07F4F81F060514F
:105AD000704792F0000F14BF93F07F4F704730B5BE
