:020000040800F2
:10000000005000206D1D0008B11D0008B11D000842
:10001000B11D0008B11D0008B11D0008000000005E
:10002000000000000000000000000000B11D0008FA
:10003000B11D000800000000B11D0008352C0008AB
:10004000B11D0008B11D0008B11D0008B11D000858
:10005000B11D0008B11D0008B11D0008B11D000848
:10006000B11D0008B11D0008B11D0008B11D000838
:10007000B11D0008B11D0008B11D0008B11D000828
:10008000B11D0008B11D0008B11D0008B11D000818
:10009000B11D0008B11D0008B11D0008B11D000808
:1000A000B11D0008B11D0008B11D0008B11D0008F8
:1000B000B11D0008B11D0008B11D0008B11D0008E8
:1000C000B11D0008B11D0008B11D0008B11D0008D8
:1000D000B11D0008DD010008B11D0008B11D0008B8
:1000E000B11D0008B11D0008B11D0008000000008E
:1000F0000000000000000000000000000000000000
:1001000000000000000000005FF808F1704700BF29
:10011000C36B052B0FDC024603EB43039B0030B49B
:10012000C41800250120D1506560A060D36B30BC9D
:100130000344D36370470020704700BF10B5054CDF
:1001400023782BB10449054800F098FA0023237066
:1001500010BD00BF8808002090090020DC71000855
:10016000F8B540F225510022154803F0D3FC154D97
:100170001549DFF860C0DFF860E00024FA270B685B
:100180000A681CF8030001328EFB0236D317C3EB5A
:10019000261307FB13230A2804F1010405F8010FB5
:1001A0000B60ECD1012240F22551054803F0B2FC6E
:1001B0000649074B0020012208551A70F8BD00BF00
:1001C000003801408F0900208C0900209009002090
:1001D000880800208C080020D34D621070B540F2D2
:1001E00025510F4803F0C0FC00B970BD0C4803F066
:1001F000B1FC0C490C4B0D680A68FA26013283FBEE
:100200000234D317C3EB241306FB1323C0B2074AEF
:100210000A2850550B60E8D1BDE87040FFF7A0BF39
:100220000038014088090020D34D62108C0800205E
:100230008368427900211A4403F8011B9A42FBD1DA
:10024000704700BF00230B7083784B704379013BEC
:100250008B70C378CB70704710B4CB784978012B82
:100260001ED0032B12D00C460023C27880788A421D
:1002700034BF0022012243EA0201A0428CBF0020C9
:1002800001F001001340184310BC7047A1F10802AF
:10029000D2B291420C462CBF002301231146E4E761
:1002A00001F10804E4B2A14294BF00230123DCE77A
:1002B000014B1870704700BF0400002008B50C4BBC
:1002C00001461B78012B09D00A4803F03FFC80212E
:1002D000084803F043FC0128F9D108BD064803F0A3
:1002E00035FC8021044803F039FC0028F9D008BD12
:1002F000040000200044004000380140092B70B584
:100300001E4602F1FF35044613D8002D1BDD0B46B7
:10031000411904F8013BA142FBD110460B4BA3FB52
:100320000623DB0803EB8303A6EB430330330B7098
:1003300070BD064B2A46A3FB0653DB08FFF7DEFF22
:1003400021180130EAE701460120E7E7CDCCCCCC0B
:10035000F8B5002B04460F4627DB092B1E4602F199
:10036000FF3219DC002A37DD11462546013905F830
:10037000017BFBD1012AB8BF0122002B144426DBEC
:10038000501C164BA3FB0623DB0803EB8303A6EBF1
:10039000430330332370F8BD104BA3FB0653DB0837
:1003A000FFF7D6FF04440130EBE75E42092E02F16D
:1003B000FF3508DD094B2A46A3FB0653DB085B42E9
:1003C000FFF7C6FFEEE7023A002ACDDC00222D231C
:1003D000901C04F8013BD4E70120D2E7CDCCCCCC73
:1003E0002DE9F04182B0089E551E5FEA161E0446B4
:1003F00098461ED1002D24DD0F46431904F8017BD9
:10040000A342FBD1104606F00F06092E0CD9B8F115
:10041000000F04D157361E7002B0BDE8F0813736A8
:100420001E7002B0BDE8F08130361E7002B0BDE82B
:10043000F081CDF800E02A46FFF7D2FF2318013003
:10044000E1E703460120DEE72DE9F0410F4682B0E7
:100450009E46064608B100230370002513785BB161
:10046000BD4280F09780252B0ED033700132137877
:1004700001350136002BF3D1AF4240F28B80284684
:10048000337002B0BDE8F0815178252935D030298C
:1004900038D00B46541CA3F13002092A4FF020013A
:1004A00036D8002202EB820203EB420214F8013F2D
:1004B000303AA3F13000092802F0FF02F2D91046C9
:1004C0002844874238BF7A1BA3F1580338BFD2B201
:1004D000202B66D8DFE803F05965656565656565BD
:1004E000656565514765656565476565656565650C
:1004F00065656538652E65651F003170023201350E
:100500000136ABE79378941CA3F13002092AC8D9CD
:1005100000200246D4E7DEF80030009300230EF1FD
:1005200004083046FFF75CFFC6460346621C1E44C3
:10053000054493E7DEF8003030460EF10408FFF77B
:10054000DDFEC6460346F1E7DEF800100EF1040EAC
:100550000B785BB3324602F8013B11F8013F901B68
:10056000002BF8D1E1E7DEF8003030460EF1040848
:10057000FFF7EEFEC6460346D8E7DEF8002001236B
:1005800032700EF1040E1846D0E7DEF8003000930A
:100590000123C4E70023681E06F8013C02B0BDE851
:1005A000F0814FF0FF3002B0BDE8F0811846BDE7A2
:1005B0000CB410B582B004AC54F8042B234601945B
:1005C000FFF742FF02B0BDE8104002B0704700BF25
:1005D0000EB410B583B005AC54F8042B4FF48271FF
:1005E00023460194FFF730FF03B0BDE8104003B08D
:1005F000704700BFF8B50546007858B10E460A4F5F
:1006000000243B689A68964205D0DB689E4202D07F
:100610004FF0FF30F8BDFFF751FE15F8010F013420
:100620000028EED12046F8BD00000020F0B5CBB088
:100630006C4696460F460F4D06460FCD0FC40FCDA4
:100640000FC42D6873463A4609A84FF4827125609D
:10065000FFF7FAFEB0F5827F06DB074B68461B68A2
:10066000D968FFF7C7FFFEE7314609A8FFF7C2FFC9
:100670004BB0F0BDE8710008000000200FB400B5D9
:10068000074A83B004AB53F8041B10681A4680680D
:100690000193FFF7CBFF03B05DF804EB04B07047A4
:1006A00000000020024B1B689968FFF7A3BF00BF42
:1006B00000000020044A05491368002B08BF0B46C0
:1006C00018441060184670478C0A00203C0D00202A
:1006D000FEE700BF0A2A2DE9F04790469A460546F4
:1006E0000C4652D0152A48D14E68002200F070F80E
:1006F00001222146284600F063F8B768B67807F172
:10070000800918E02146284600F06AF88022214638
:10071000284600F065F801222146284600F058F8E6
:1007200010223B4621461744284600F061F8013666
:10073000B945F6B21CD000222146284600F048F800
:100740003E222146284600F04BF8A6F120021F2E3B
:1007500062F07F0346F08002D4D9DAB221462846FF
:1007600000F03EF888222146284600F039F8D2E70A
:1007700000222146284600F023F8534642462146EF
:100780002846BDE8F04702F0FDBC032200F010F857
:100790002146064A284600F031F853464246214693
:1007A0002846BDE8F04702F0EDBC00BF0C7200081F
:1007B00010B48C680023A446012110BC604700BF20
:1007C00010B48C680023A446032110BC604700BF0E
:1007D00010B48C680023A446022110BC604700BFFF
:1007E00010B48C680023A446052110BC604700BFEC
:1007F00010B48C680621A44610BC60472DE9F04176
:1008000080460E46551E002315F8014F5BB9FF2C9C
:100810001CD022460521B4684046A0470028F2D1EA
:100820000020BDE8F081FF2C12D0FE2C43D0EF2C2D
:10083000E9D8DF2C15D8CF2C1CD8BF2C23D8230601
:10084000E1D4204602F064FA0023DDE70123DBE770
:1008500022460023B46805214046A0470028D2D193
:10086000DEE704F00F020023B46802214046A047EF
:100870000023C9E704F00F020023B46803214046B7
:10088000A0470023C0E72401002302341A460421B4
:10089000B76804F0FE044046B847204602F038FA34
:1008A000002301220421B7684046B847204602F0E1
:1008B0002FFA0023A8E70120BDE8F08110B5044617
:1008C00000F056F9207650B1204600F051F920464C
:1008D00000F016FA2046002100F068FA207E10BDD4
:1008E00038B5044600F044F90546207670B1637EC1
:1008F0007BB1204600F03CF9204600F001FA20468A
:1009000000F00EFA237E2846637638BD60762846CE
:1009100038BD2046FFF7D2FFEBE700BF10B5044615
:1009200000F070F92076607680B1204600F020F962
:10093000204600F01DF9204600F0E2F90021204693
:1009400000F034FA2046FFF7CBFF207E0023A3837C
:10095000236284F8243010BD38B5002383830362FA
:1009600080F82430044600F003F9207618B1657E43
:1009700045B9284638BD637E0546002BF9D0607620
:10098000284638BD204600F0F3F8204600F0B8F9BC
:10099000204604F11C0100F017FA284638BD00BFBC
:1009A00090F82400704700BF10B590F8244034B987
:1009B000084B20461A889B780A808B7010BD02462F
:1009C0000846136A0449B2F91C20FFF701FE2046CD
:1009D00010BD00BF2C7200082472000838B590F8D2
:1009E000243083B10446006A04F06EFE074904F027
:1009F00077FF0546B4F91C0004F06AFE014628465C
:100A000004F0B2FD38BD002038BD00BF0000204119
:100A100000207047704700BF4171704740797047B0
:100A20008171704780797047C1717047C079704794
:100A300001727047007A704741727047407A704780
:100A4000012981720BD0022900D0704741F6B051C4
:100A500042F630220A23C18102824382704742F269
:100A6000FC11F5E781817047704700BF807A7047BD
:100A700080897047C0897047008A7047408A7047F4
:100A80000020704700230B60C1F80330C3794B711D
:100A9000704700BF00230B60437910B40B70047AD9
:100AA000427A83794C708A70CB7010BC704700BF5B
:100AB00003682DE9F041224F9E6B0546BE420C466D
:100AC000904638D1867A1B6C1E498B4230D1A8895A
:100AD00044B1B8F10A0F05D9013EF6B20023012E48
:100AE000237001D9BDE8F081174E05232025013B75
:100AF000DBB2042B00D0C8B1A6FB0012D20802EB77
:100B00008201A0EB41003030E05490B2002BEED1D6
:100B10000E4B217918681D79E2782E23C4F806005F
:100B2000A57261712271E370BDE8F081E554EDE7D3
:100B300028469847CCE7B0472B680646C3E700BF76
:100B40006D0A0008710A0008CDCCCCCCAC7200084C
:100B500010B4064C00220F210460017142718271B1
:100B6000C2710272427210BC704700BF407200082E
:100B700070B50546102300F10C06C373314640687A
:100B800000F058FD29896868012200F0BBFD7D2432
:100B900005E0013C4FF0010031D002F067F82989EF
:100BA000686800F0A9FD0028F3D029890022686850
:100BB00000F0A8FD4FF4F07002F058F801222989E6
:100BC000686800F09FFD462002F050F80423EB73A4
:100BD0003146686800F02EFD2989686800F086FDBE
:100BE000044610233146EB73686800F023FD4FF490
:100BF000CD7002F03BF8B4FA84F0400970BD204695
:100C000070BD00BF38B504464260038101600846EC
:100C1000012100F0CBFD228910230325E373A2817B
:100C200004F10C016068A57300F004FD218960687F
:100C3000012200F067FDA5722046FFF799FF2046CC
:100C4000FFF796FF2046BDE83840FFF791BF00BF91
:100C500038B50446102300F10C05C37329464068DB
:100C600000F0E8FC00222189606800F04BFD0320C1
:100C700001F0FCFF0423E3732946606800F0DAFC0E
:100C80000F2001F0F3FF2189606800F02FFD04467A
:100C90002D2001F0EBFF201C18BF012038BD00BF44
:100CA00038B50D4610230446C37300F10C014068AB
:100CB00000F0C0FC8DB92A462189606800F022FD51
:100CC000412001F0D3FF60682189012200F01AFD64
:100CD000BDE83840052001F0C9BF218900226068C5
:100CE00000F010FD052001F0C1FF6068218901229C
:100CF00000F008FDBDE838403C2001F0B7BF00BF60
:100D000070B506460024CC2545FA04F101F0010136
:100D100001343046FFF7C4FF082CF5D170BD00BF89
:100D200070B506460024442545FA04F101F001019E
:100D300001343046FFF7B4FF082CF5D170BD00BF79
:100D40002DE9F8430546884617461E4600244FF015
:100D50004E0949FA04F101F0010101342846FFF778
:100D60009FFF082CF5D1002448FA04F101F001019D
:100D700001342846FFF794FF082CF5D1002447FAE8
:100D800004F101F0010101342846FFF789FF082C26
:100D9000F5D1002446FA04F101F00101013428469E
:100DA000FFF77EFF082CF5D1BDE8F88338B50C4677
:100DB00005464B0143F01F03DBB246224B21FFF7F0
:100DC000BFFFAC7238BD00BF2DE9F04105460E46AD
:100DD0000024BE2747FA04F101F00101013428463E
:100DE000FFF75EFF082CF5D100272846FFF730FFFC
:100DF0007F08013C10B167F07F07FFB214F0FF04D9
:100E0000F3D14FF008082846FFF722FF640808F1E5
:100E1000FF3310B164F07F04E4B213F0FF08F2D1A5
:100E2000AB7A47EA0420BBB1012B2BD0022B2BD08D
:100E300040F631039842154D13D94442A4B2C4F38D
:100E4000061004F0FDFA01F10043194604F05EFBC0
:100E5000308004F00F0009E00D4D40F63103984258
:100E6000EBD8C0F30613338000F00F0004F030FC21
:100E7000294604F081FC04F06BFE0123706033729C
:100E8000BDE8F081034DE8E7034DE6E700401C4470
:100E90000000203F0000C84000007A42704700BFB9
:100EA0000A4602484FF4804100F02CBC000C01407F
:100EB00070B5064600F1ED0400F1F10514F8013FAC
:100EC000EBB9237BABB9A542F8D11049304602F00B
:100ED000C7FF06F18A050C2422460C342B4600215C
:100EE0003046E4B202F066FF482C05F11405F3D158
:100EF00070BD227D217C304601F0BCFAE3E7227A06
:100F00002179304601F0B6FADBE700BF90740008A3
:100F100080F83C10704700BF70B506461046154675
:100F20000C4605F0F7FF062801D8022C00D970BD49
:100F3000C4EBC40430192A46BDE870403D30072197
:100F4000FFF736BB80F85210704700BF80F85D1085
:100F5000704700BF80F85E10704700BF38B5054687
:100F600008460C4605F0D6FF132800D938BD2246A6
:100F700005F15F001421BDE83840FFF719BB00BF41
:100F80000023C0F85F30C0F86330C0F86730C0F8A5
:100F90006B30C0F86F30704780F87F10704700BF2B
:100FA00038B5054608460C4605F0B4FF092800D9B7
:100FB00038BD224605F180000A21BDE83840FFF720
:100FC000F7BA00BF80F87310704700BF80F8741044
:100FD000704700BF0B4B00B5A3FB01E364225B0924
:100FE00002FB1311084A89B2A2FB011283B0D20896
:100FF00000920921054A7530FFF7DAFA03B05DF86F
:1010000004FB00BF1F85EB51CDCCCCCCB4720008E3
:1010100080F87E10704700BF70B506461046154632
:101020000C4605F077FF132801D8042C00D970BDB9
:1010300004EB840406EB84002A46BDE870408A3045
:101040001421FFF7B5BA00BF70B5064600F18A0457
:1010500000F21A25204605F05DFF002102462046D9
:10106000143405F0B7FDAC42F4D1002386F8EE301D
:1010700086F8FA3086F8EF3086F8FB3086F8F030E4
:1010800086F8FC3086F8F13086F8FD3070BD00BF80
:10109000F0B504461E4D83B01E4A1F4900F048FAC1
:1010A000022610234FF48047284601A98DF8073007
:1010B000ADF804708DF8066000F0BCFA3946284699
:1010C000002200F01FFB01A92846ADF8046000F0E3
:1010D000B1FA31462846012200F014FB0023C4F87F
:1010E00053302046C4F85730A4F85B3084F85D30A4
:1010F00084F85E30C4F85F30C4F86330C4F86730F9
:10110000C4F86B30C4F86F30FFF79EFF03B0F0BD3A
:10111000000C0140B92D00083004002070B50646CF
:1011200082B00C231722012101F0A4F930460823D4
:101130000F22002101F0B4F9304608230F220D21BF
:1011400001F0AEF902240025012D14BF1123102354
:1011500004F1FF310093234604F1020414BF10226E
:101160001122C9B23046E4B201F072FE0E2C85F0B5
:101170000105E9D102B070BD30B5044683B0062345
:101180000B22012101F076F92046082303220021D9
:1011900001F086F90725204608230322072101F0E4
:1011A0007FF920462A460A23042101F063F92046EC
:1011B00000950D2305220B2101F04AFE092300931F
:1011C0002A4620460B230D2101F042FE03B030BD1C
:1011D00010B5044602230F22722101F04BF920467C
:1011E00002230F22752101F045F9204602230F2228
:1011F000782101F03FF9204602230F227B2101F0E4
:1012000039F9022320460F227E2101F033F994F8A8
:101210007E300D2B00D810BD03230C2272212046F6
:1012200001F03EF903230C227321204601F038F926
:1012300094F87E30172BEED906230922752120461B
:1012400001F02EF9062309227621204601F028F923
:1012500094F87E30212BDED90923062278212046FE
:1012600001F01EF9092306227921204601F018F920
:1012700094F87E302B2BCED90C2303227B212046E1
:1012800001F00EF90C2303227C21204601F008F91D
:1012900094F87E30352BBED920460F2300227E21C4
:1012A00001F0FEF82046BDE810400F2300227F2108
:1012B00001F0F6B870B50446FFF75EFF2046FFF771
:1012C0002DFF2046454902F0CBFD454B242200214D
:1012D000204602F06FFD2046424902F0C1FD04F1B4
:1012E0003D060C252A460C35334614212046EDB226
:1012F00002F060FD302D06F10706F3D194F85D1081
:10130000002941D194F85E30002B44D194F8531059
:10131000002946D194F85230002B59D104F15F03D3
:101320003E220021204602F045FD342300224021C8
:10133000204601F0B5F8402333220021204601F079
:1013400099F894F8733063B194F874308BBB04F15E
:1013500075031A224921204602F02CFD2046FFF792
:1013600037FF94F87F3003B970BD1F4B26225121FF
:10137000204602F01FFD04F180032046BDE87040C6
:101380003222422102F016BD2A46184B0021204687
:1013900002F010FDC2E72A46154B204602F00AFD76
:1013A000BCE719462A4604F15303204602F002FD29
:1013B000B4E72046094902F053FD0E4B08226C2188
:1013C000204602F0F7FC0749204602F049FDBEE73F
:1013D0002A46094B204602F0EDFC9FE7007D0008FD
:1013E000C072000890740008E8720008C472000817
:1013F000D0720008E4720008DC72000810B50446E0
:1014000000F0C0F805E0FFF755FF204600F0BEF8F9
:1014100058B194F83C302046002BF4D0FFF748FD3B
:10142000204600F0B3F80028F3D110BD70B5044693
:101430000D46436B0220984729460A222E68204613
:101440000023B0470546636B03209847636B002079
:101450009847284670BD00BF70B504460D46436BE3
:1014600002209847636B012098472E682946204642
:1014700000231422B04704F138032E682946204681
:101480001722B047636B0020BDE87040184700BFCB
:10149000F8B504460D46436B02209847636B012064
:1014A00098472E682946204600231522B047064655
:1014B00030B12F68294604F1380317222046B84777
:1014C000636B002098473046F8BD00BF30B5044636
:1014D000416883B00D680DF107034622A8479DF8C7
:1014E0000730616823700D680DF10703204647221D
:1014F000A8479DF80730616863700D682046002397
:101500004822A8476168E0740D6804F1380320465A
:101510001722A84703B030BD10B541680446FFF755
:1015200085FF18B12046FFF7D1FF012010BD00BF95
:101530002DE9F04104460F4690460025012622235E
:1015400083748560C56045748561067480F8316078
:1015500002F080FC0A4B402284F8286084F829506D
:1015600084F82A5084F82C5084F82B206760636339
:101570002046C7F80880BDE8F041FFF7CDBF00BFA7
:101580009D0E00084168FFF767BF00BF836910B573
:10159000044603B1984761682046BDE81040FFF754
:1015A00077BF00BF034630B4446880F82D1080F840
:1015B0002E2025682146AC4630BC2D3332226047B0
:1015C00070B49DF80C60456880F82D1080F82E20CE
:1015D00080F8303080F82F602C682946A44670BC13
:1015E00000F12D033B22604703780022013BC370CA
:1015F00082700271704700BF30B4837804784178FC
:101600002344DBB28B42837010D2C2780579A318D1
:10161000DBB2994298BF01F1FF3305F1010298BF97
:10162000DBB20271C37030BC01207047002030BCB7
:10163000704700BF2DE9F041CC78E30648BF8B78B6
:10164000098804F00F0748BF1F4311F0FF0F21D096
:10165000066800234FF0010E4FF00F0802E001333F
:10166000082B16D00EFA03F232EA0105F7D19D00DD
:1016700008FA05FC26EA0C0607FA05F5282C46EAC6
:10168000050631D0482C03F1010308BF0261082B85
:10169000E8D10660FF2923D9466800234FF0010EE8
:1016A0004FF00F0802E00133082B18D003F10802B5
:1016B0000EFA02F232EA0105F5D19D0008FA05FCA6
:1016C00026EA0C0607FA05F5282C46EA050609D095
:1016D000482C03F1010308BF0261082BE6D14660E4
:1016E000BDE8F0814261DEE74261B8E783681942F4
:1016F00014BF012000207047C368194214BF0120A5
:10170000002070470AB9416170470161704700BF0E
:10171000214A30B4536803F00C03042B06D0082B85
:1017200025D01BB11D4A1346026001E01B4B03602C
:10173000194A1B4C51681B4DC1F30311615CCB402E
:1017400043605168C1F30221615C23FA01F18160B9
:101750005168C1F3C221615CCB40C3605268C2F3DF
:101760008132AA5C30BCB3FBF2F30361704753686B
:101770005168C3F38343C90303F1020307D55268D9
:10178000920304D4054A02FB03F30360D0E7064A40
:1017900002FB03F30360CBE70010024000127A0063
:1017A0004C0400204804002000093D0029B9054AE6
:1017B000936923EA000090617047024B9A691043D5
:1017C000986170470010024029B9054AD36923EA9D
:1017D0000000D0617047024BDA691043D86170474E
:1017E0000010024029B9054A136923EA000010617C
:1017F0007047024B1A69104318617047001002408D
:1018000070B580218AB00026422440220823039428
:101810000291019200934FF400122B4B2B49049636
:10182000054600F019FA04463146FF2228468DF895
:101830001C4000F03BFAFF228DF81D0001212846D4
:1018400000F034FA31468DF81E00FF22284600F0E1
:1018500039FAFF228DF81F000121284600F032FAE4
:1018600001218DF82000284600F044FA31468DF819
:101870002100FF22284600F031FAFF228DF82200D5
:101880000121284600F02AFA31468DF823000DF197
:101890001B02284600F05EFA0DF11B028DF82400B1
:1018A0000121284600F056FA01232B778DF82500F8
:1018B00007AB0DF1250204B92C77934202D013F83F
:1018C000014FF8E70AB070BD000C01400054004021
:1018D00010B50446FFF794FF4FF6FF710022012375
:1018E00084F86220A4F8601084F8633010BD00BF53
:1018F000007F7047C36D052B10DC024603EB4303EA
:101900009B00203330B4C41800250120D1506560FD
:10191000A060D36D30BC0344D3657047002070478E
:1019200010B5037F82B004463BB9FFF769FF237F00
:101930001BB94FF6FF7002B010BD0DF10602012178
:10194000204600F007FA10B900232377F1E70DF1E4
:1019500007020021204600F0FDF90028F4D09DF890
:1019600007009DF8063043EA0020E4E72DE9F8433C
:1019700090F8636016B93046BDE8F88304464FF628
:10198000FF75FFF7CDFFA842804629D001463748B2
:10199000FEF774FE94F862300133DBB2032B84F857
:1019A00062303DD1E36D002B2DDD254600270EE092
:1019B0005B10C1586A6A184451F8029001224146EE
:1019C000C847E36D0137BB4205F10C051BDDAB6A6F
:1019D000286AD907ECD4D5F8249000EB6300EDE732
:1019E000B4F860100027814284F862701FD14FF66E
:1019F000FF76C6EB0806B6FA86F67609A4F860808C
:101A00003046BDE8F8834FF6FF752046FFF788FFA4
:101A1000A842FAD1002384F862304FF6FF78EDE750
:101A2000B4F86030AB4218BF0026E7D1DFE7E36DC2
:101A3000002BEFDD25460FE05B10C25818446B6A9F
:101A400052F803800022C047E36D0137BB4205F125
:101A50000C05DFDDB4F86010AB6A286ADA07EBD456
:101A6000D5F8248000EB6300ECE700BFF0720008BB
:101A700070B504464BF6FF7686B001210069FFF78A
:101A800095FEE28AA38AE06813431C25032201A97C
:101A9000ADF804308DF806208DF80750FFF7CAFD29
:101AA000A0680121FFF790FE01210846FFF77EFEA6
:101AB000606802F091FE114B06A941F8103D606884
:101AC000002301254FF48042ADF80E60ADF80C30D4
:101AD000ADF81230ADF81050ADF8142002F09AFEB7
:101AE0002946606802F008FF4FF40031606802F098
:101AF0005BFF0028F8D106B070BD00BF801A060059
:101B0000F8B506460D4601F09DF8074604E001F0E1
:101B100099F8C01BC82808D82946706802F036FF1B
:101B200004460028F3D00120F8BD2046F8BD00BFD0
:101B300070B504460D46164601F0B0F86068012104
:101B400002F0E8FE20462049FFF7DAFF10B9002531
:101B5000284670BD217E6068002202F00BFF1B4901
:101B60002046FFF7CDFF0028F1D02946606802F03B
:101B7000FBFE17492046FFF7C3FF0028E7D00121ED
:101B8000606802F0C7FE10492046FFF7B9FF002841
:101B9000DDD0217E6068012202F0ECFE0D49204676
:101BA000FFF7AEFF0028D2D00B492046FFF7A8FF71
:101BB00005460028CBD0606802F0D8FE307060681F
:101BC000012102F0B5FEC3E7010003008200070017
:101BD00084000700020003004000030070B50446C3
:101BE0000D46164601F05AF86068012102F092FE97
:101BF00020461649FFF784FF10B90025284670BD1E
:101C0000217E6068002202F0B5FE11492046FFF7F0
:101C100077FF0028F1D02946606802F0A5FE0D4943
:101C20002046FFF76DFF0028E7D03146606802F0DC
:101C30009BFE08492046FFF763FF05460028DCD0DD
:101C40006068012102F074FED8E700BF01000300C4
:101C50008200070084000700F8B5069DBDF81C70DF
:101C6000BDF8206041608260BDF824109DF82820F6
:101C7000C36000230446037005618782C682018326
:101C800032B92046BDE8F8400A212822FFF7A6BF56
:101C9000FFF7EEFE2278044B204613F8321028227C
:101CA000BDE8F840FFF79ABF34730008037810B41A
:101CB000034C01EB430114F8211010BCFFF78EBF59
:101CC00054730008037810B4034C01EB430114F87B
:101CD000211010BCFFF782BF24730008037810B4F2
:101CE000034C01EB430114F8211010BCFFF776BF41
:101CF0004473000870B503780F4D82B00E460DF1A5
:101D0000070215F833100446FFF712FF60B19DF883
:101D100007205EB902F0BF028DF807202378204625
:101D200015F83310FFF75AFF02B070BD42F04002C1
:101D30008DF80720F2E700BF34730008037810B471
:101D4000034C01EB430114F8211010BCFFF746BF10
:101D500014730008037810B4034C01EB430114F82A
:101D6000211010BCFFF7E4BE04730008002103E05B
:101D70000A4B5B584350043109480A4B42189A42B7
:101D8000F6D3094A02E0002342F8043B074B9A428B
:101D9000F9D302F025FE01F053FA7047848C000855
:101DA0000000002088080020880800203C0D00204A
:101DB000034B1A68D2B2FEE7AFF30080AFF30080A6
:101DC00004ED00E010B50446FEF7C2FE024A0F2300
:101DD00023752260204610BD6C73000870B588B072
:101DE000064600F05BFF00F02DFF012104462E485F
:101DF00002F0ACFD01212C4802F08CFD04E000F063
:101E000021FF001B642832D82849274802F0BEFD74
:101E10000028F4D001222021234802F0ABFD04E089
:101E200000F010FF001B642821D821491E4802F051
:101E3000ADFD0028F4D0142504E000F003FF001BE2
:101E4000642814D81B49184802F0A0FD0028F4D0DB
:101E5000154802F08BFD08AA2A446B1C132D02F8CA
:101E6000200CDDB206D0202D08BF0025EAE70020B7
:101E700008B070BD00210C4802F068FD01210A483D
:101E800002F056FD1436002308AA02EB430111F8B4
:101E9000200C11F81F2C013342EA0022102B26F8E7
:101EA000022FF1D10120E3E70054004001000300BC
:101EB000020003004000030010B50446FFF78EFF48
:101EC000A08D638AE289C0F3090000FB032080B281
:101ED000A08110BDF8B504460F4616461D46FFF713
:101EE0007DFF608D10F00F0009D0E38D069A3B80D6
:101EF000238E01203380638E2B80A38E1380F8BD48
:101F000038B5054600F0CAFE01211E4802F01EFD4C
:101F100001211C4802F0FEFC1B491A4802F036FD64
:101F20000028F9D000222021164802F023FD17498D
:101F3000144802F02BFD0028F9D005F118042435CF
:101F400034F8021F0F48090A02F00EFD10490D482F
:101F500002F01CFD0028F9D021780A4802F004FDA7
:101F60000B49084802F012FD0028F9D0AC42E7D135
:101F70000021044802F0EAFCBDE838400121014894
:101F800002F0D6BC005400400100030082000700AC
:101F900084000700F0B5044687B008200F460121F1
:101FA000FFF704FC4FF420750223102201A94D48CD
:101FB0008DF80630ADF804508DF80720FFF73AFB96
:101FC00000224FF400714748FFF79CFB002280215C
:101FD0004448FFF797FB00F061FE01224FF40071C7
:101FE0004048FFF78FFB00F059FE01210820FFF762
:101FF000DDFBC0251C22032301A93A488DF80720E8
:102000008DF80630ADF80450FFF714FB01214FF4B2
:102010000010FFF7D9FB01210846FFF7C7FB324844
:1020200002F0DAFB4BF6FF70304B012206AD45F8AB
:10203000103D11460023ADF80E004FF480462A48AB
:10204000ADF81020ADF80C30ADF81230ADF81460DA
:1020500002F052FC2946244802F0DCFB4FF4003128
:10206000214802F0A1FC0028F8D12046FFF7B6FE77
:1020700008B907B0F0BD4FF40143A3842046FFF731
:102080003FFF4FF4FA7000F021FE2046FFF7A6FE56
:102090004FF480436383E7B9E18B238C628C23F098
:1020A0008F0343F4805322F0FF0241F4006143F0B8
:1020B000110342F033020125E18323846284204628
:1020C0006571FFF71DFF6E2000F000FE284607B087
:1020D000F0BD44F20103E18B638341F4805189B286
:1020E000DBE700BF000C014000540040801A0600EE
:1020F00038B50D460446FFF771FE65B9E28B638B78
:1021000022F4805243F04103E28363832046BDE81A
:102110003840FFF7F5BE638BE28B23F0400343F0BA
:10212000010342F480526383E2832046BDE83840D5
:10213000FFF7E6BE10B504462046FFF74FFE638D5D
:102140005A04F9D52046FFF749FE628BA38B22F48F
:102150008072C3F30E036283A3832046FFF7D0FE91
:102160002046FFF73BFE638D5B04F9D410BD00BF32
:10217000C28938B5914238BF1146048A05468C425F
:1021800028BF0C46FFF72AFEE9896B8A641A94FB84
:10219000F3F4AA8B284622F4FF7323F001032343B0
:1021A0006FEA43436FEA5343AB83FFF7A9FE322044
:1021B00000F08CFD2846BDE83840FFF7BBBF00BFEC
:1021C00038B504460D46FFF709FE638B23F4C06360
:1021D0009BB20DB143F4007343F4807320466383D4
:1021E000FFF78EFE2046BDE83840FFF7A3BF00BFD3
:1021F00069B9036810B504461B6C9847618A236867
:10220000014489B22046BDE81040DB6B184701212C
:10221000FFF7D6BF69B9036810B504461B6C984731
:10222000618A2368411A89B22046BDE81040DB6B01
:1022300018470021FFF7C4BF38B504460F2928BF4F
:102240000F210D46FFF7CAFD238C204623F00F0314
:102250002B432384FFF754FE29462046BDE838402F
:10226000FEF7DABB38B504460D46FEF7DDFB204627
:10227000FFF7B4FD638B3DB923F40053638320461D
:10228000BDE83840FFF73CBE43F40053638320466B
:10229000BDE83840FFF734BE38B504460D46FEF7BA
:1022A000C7FB638B3DB943F4804363832046BDE89D
:1022B0003840FFF725BE23F4804363832046BDE802
:1022C0003840FFF71DBE00BF38B504460D46FEF787
:1022D000B3FB638B4DB96FEA43436FEA5343204628
:1022E0006383BDE83840FFF70BBEC3F30E0363837F
:1022F0002046BDE83840FFF703BE00BF012900D0EB
:10230000704710B50446FEF79BFB42F22E220A23CB
:10231000E281638210BD00BF38B505460C46FEF76A
:10232000B1FB2846FFF75AFD6B8D01226370190738
:102330006B8D48BFA27113F00B0F22701CBF0122DE
:10234000E27013F00E0F1CBF012323716B8B9B04F3
:1023500044BF0123637138BD38B505460C46FEF70E
:1023600099FB2846FFF73AFD6B8B5A045CBF0122AC
:1023700062701B045CBF0123A37095F8203000221B
:1023800003F00F032370E27038BD00BF2DE9F04762
:10239000072B82B0994606468A4617461CD91D4629
:1023A0000C464FF0FF08083D2146CDF80080002381
:1023B0003A463046EDB2FFF703F90834072DE4B290
:1023C000F1D8A9F1080303F0F8030AF1080A9A44C6
:1023D0000AF0FF0A09F007037BB183F0070301331A
:1023E000FF2203F0070302FA03F3DBB200933A463D
:1023F000514630460023FFF7E3F802B0BDE8F0870E
:102400002DE9F047072B82B0994606460F469246C3
:102410001CD91D4614464FF0FF08083D2246CDF852
:102420000080012339463046EDB2FFF7C9F8083481
:10243000072DE4B2F1D8A9F1080303F0F8030AF17B
:10244000080A9A440AF0FF0A09F007037BB183F0F7
:1024500007030133FF2203F0070302FA03F3DBB2A1
:1024600000935246394630460123FFF7A9F802B0DF
:10247000BDE8F087F0B5012483B000940D46044612
:1024800016461F4601F0FAFC08B903B0F0BD3B4602
:1024900032462946204603B0BDE8F040FFF776BF3C
:1024A000F0B51C4683B00123009405460E4617463E
:1024B00001F0E4FC08B903B0F0BD23463A463146CA
:1024C000284603B0BDE8F040FFF79ABF70B5044658
:1024D00088B0284D2848FEF7E5F801210420FFF7D1
:1024E00065F94FF4807603232846102207A98DF85A
:1024F0001E308DF81F20ADF81C60FFF79BF83146A9
:1025000028460022FFF7FEF8C82000F0A1FB314664
:1025100028460122FFF7F6F8012000F099FB01257B
:10252000402380210822039301930291134B0092D0
:10253000204604954FF400121149FFF78DFB00224D
:1025400011462046FFF7B2FB294620460022FFF73E
:10255000ADFB002211462046FFF7F0FB2946002282
:102560002046FFF7EBFB0023A3830648FEF79AF80B
:1025700008B070BD00080140E4730008000C014081
:10258000005400400474000838B50D460446818BA1
:1025900042B1124B2A461248FEF770F8A38B1D4237
:1025A00008D038BD0F4B2A460D48FEF767F8A38BBD
:1025B0001D4211D00C48FEF775F8A28B00216A402D
:1025C000A2832046120AFFF7B9FB227F2046BDE80E
:1025D00038400121FFF7B2BB38BD00BF8874000846
:1025E0004C740008447400082474000810B50446B4
:1025F000828B002122F4F05292B28283120AFFF7FA
:102600009DFB227F2046BDE810400121FFF796BBCD
:1026100010B50446828B002122F0FA0292B2828326
:10262000120AFFF78BFB227F2046BDE810400121F4
:10263000FFF784BB01207047704700BFA0F1040082
:10264000FFF7FABF0148FEF719B800BF2C84000855
:10265000A0F10400FFF7F6BF38B5044607480D4661
:10266000FEF70CF8B4F8F830402B00D038BD2946FE
:102670002069BDE83840FEF771BC00BF3C8400080B
:10268000A0F10400FFF7E8BFB0F8F83010B5202B38
:1026900004461ED00DD8C3B1102B02D18023A0F860
:1026A000F83000F0CFFA0123C4F8FC0084F8FA30C7
:1026B00010BD402B05D0802BF3D14023A0F8F8307B
:1026C000EFE72023A0F8F830EBE71023A0F8F8306C
:1026D000E7E70023A0F8F830E3E700BF38B5044689
:1026E000114B1249124A134803F108052033636065
:1026F000E1602261A060256004F11400FFF762FB35
:1027000004F14C0001F0D0FE42F2107002220323CB
:102710004FF47A7184F8072184F80831C4F8F40082
:10272000C4F80011204638BDF0830008180C0020C2
:10273000100B0020380C002038B590F8F03004461B
:102740000D46B3B9002D14BF4FF480414FF4005132
:102750000122E068FFF718FF2A460421A06801F073
:10276000F3FB00F06FFA0123C4F8EC0084F8F030BA
:1027700038BD00224FF40051C068FFF705FFE06844
:1027800000224FF48041FFF7FFFE4FF4FA7000F093
:102790009DFAD7E7F8B50446002500F11406012795
:1027A0002946304684F8E85084F8F050A4F8F850F0
:1027B00084F8FA5084F8065184F80471FFF7EAFBB4
:1027C000394684F805013046FFF798FD04F1DC0630
:1027D000211D04F14C0001F097FE30464FF40053E8
:1027E0000821064A01F0E2FB304601F041FE29468D
:1027F0003046BDE8F84001F011BC00BF000C0140BC
:10280000B0F8F830402B06D0802B00D07047DC3079
:1028100091B901F01FBC90F80531002BF6D00B46A2
:1028200010B511460446143043B1FFF7E1FC2069AE
:10283000BDE81040FEF7A4BB01F01CBCFFF7EAFCAA
:10284000F5E700BF70B50D460446C068FFF7E0FE2F
:10285000402D50D094F806316BB194F80531002B1F
:102860006BD100212069FEF7ADFB2069FEF788FBE4
:10287000002384F80631802D25D104F1DC06304692
:102880000121A4F8F85001F0C9FB304694F8081172
:1028900001F020FC35492069FEF782FB2946E068FB
:1028A0000122FFF771FEE06801220421FFF76CFEB0
:1028B000A0682021012201F047FB20690121BDE829
:1028C0007040FEF769BB002104F1DC0001F0A6FBBB
:1028D000A4F8F850BDBB2A46E0680421FFF754FE77
:1028E00029462069FEF758FB2A46A0682021BDE84A
:1028F000704001F029BB002104F1DC0001F08EFBE7
:1029000094F80531A4F8F8505BB919492069FEF72D
:1029100025FB18492069FEF743FB012384F80631A3
:10292000BCE704F1140630460121FFF7E1FB304615
:1029300094F80711FFF780FCEBE7002104F1140085
:10294000FFF7D6FB8DE7102D06D0202DA6D10A4922
:102950002069FEF725FBA1E7E06801220821FFF7C7
:1029600013FE06492069FEF71BFB97E778840008F1
:102970005C8400086C840008548400084C840008BF
:1029800030B590F8F03087B00446002B48D194F869
:10299000FA30002B32D1B4F8F830402B01D007B018
:1029A00030BD94F80531002BF9D00DF10E0304F180
:1029B00014050093284603AB0DF10A0202A9FFF7A4
:1029C00089FA002845D12846FFF776FA01462069A2
:1029D000FEF700FB20690121FEF7F4FA284604A95E
:1029E000FFF79AFC9DF816102069FEF7EFFA2069B0
:1029F0009DF81110FEF70CFB07B030BD00F022F976
:102A0000D4F8FC30D4F80021C01A9042C3D3B4F8F3
:102A1000F8102046FFF716FF002384F8FA30BAE7D3
:102A200000F010F9D4F8EC30D4F8F420C01A904239
:102A3000ADD300224FF40051E068FFF7A5FD00225E
:102A40004FF48041E068FFF79FFD002384F8F030E9
:102A50009DE7BDF80E00BDF80C300090BDF80A20CF
:102A6000BDF8081004F14C0001F060FDABE700BFB9
:102A700010B5044690F8E81081F0010180F8E810E4
:102A8000FFF75AFE94F8E810204619B9BDE8104047
:102A9000FFF7D8BE1021BDE81040FFF7D3BE00BF3E
:102AA00090F8043110B5044633B190F8E8201AB11B
:102AB000FFF7DEFF94F8043183F0010384F804315A
:102AC00010BD00BF38B5B0F8F830402B08D0802BCF
:102AD00000D038BDDC30B9B9BDE8384001F0EABA01
:102AE00090F80531002BF4D000F1140420460D4677
:102AF000FDF794FF01465DB908B1411EC9B22046F9
:102B0000BDE83840FFF798BBBDE8384001F0C2BAD5
:102B10000131C9B2F3E700BF30B44FF6DF7441F4BE
:102B20007F4343F0DF03A34231D04FF6EF7441F40B
:102B30007F4343F0EF03A3423AD04FF6F77441F4DA
:102B40007F4343F0F703A34236D04FF6FB7241F4C4
:102B50007F4343F0FB03934220D04FF6FD7241F4D4
:102B60007F4343F0FD0393422AD04FF6FE7241F4B7
:102B70007F4343F0FE03934226D04EF6FF7341F4A9
:102B80006F4141F0FF0199420FD030BC704790F87F
:102B90000431002BF9D030BCFFF776BD90F804313A
:102BA000002BF2D030BCFFF763BF30BCFFF778BF1B
:102BB000012130BCFFF724BE002130BCFFF720BE4E
:102BC000012130BCFFF77EBF002130BCFFF77ABF88
:102BD000124B134A1B68A2FB03239B09013BB3F171
:102BE000807FFCD270B40F4A0F4DF02600240720DE
:102BF0000E49536085F8236094601060CB6813F031
:102C0000807309D1C8680A4A40F08070C860536078
:102C1000136843F00103136070BC70477404002014
:102C2000D34D621010E000E000ED00E0F0ED00E0B8
:102C3000001000E0024A136801331360704700BFC0
:102C4000580C0020014B1868704700BF580C00203A
:102C500010F1FF30044A06D3116813689942FCD082
:102C600010F1FF30F8D27047580C0020084B10B418
:102C70001B68084C0849A4FB03430A4649689B0C9F
:102C800000FB031053681B1A002BFBDB10BC7047C2
:102C90007404002083DE1B43001000E0084B094A47
:102CA0001B680948A2FB0323014640684FF47A726F
:102CB0009B0C02FB03024B689B1A002BFBDB70474B
:102CC0007404002083DE1B43001000E00D4B10B4A1
:102CD0001A680D4C4FF47A73A4FB022410F1FF30F4
:102CE0004FEA944403FB04F4084908D34A68224499
:102CF0004B689B1A002BFBDB10F1FF30F6D210BCA7
:102D0000704700BF7404002083DE1B43001000E006
:102D1000FFF7DCBF70B5012186B01E4D0820FEF71D
:102D200045FD01214FF48020FEF74EFD1A4C284648
:102D300001A94FF4806203231826ADF804208DF812
:102D400006308DF80760FEF775FC01A928460422BD
:102D50004FF400638DF80720ADF804304FF4E135EF
:102D6000FEF768FC00230C22204602A9ADF81430BF
:102D7000ADF81030ADF80E30ADF80C30ADF81220D3
:102D8000029500F05BFE2046012100F0B5FE06B082
:102D900070BD00BF000C014000480040014608B56E
:102DA000044800F0D3FE8021024800F0D7FE00283E
:102DB000F9D008BD0048004070B5013982B01C460A
:102DC00006290BD8DFE801F0041F0A0A0D252500AB
:102DD0004FF4FA70FFF77AFFFFF79CFF012002B073
:102DE00070BD1A4B01921878400000F0FE00FFF70A
:102DF000D5FF019A1046FFF7D1FF6E20FFF736FF8F
:102E0000012002B070BD114BE2B91A70012002B06E
:102E100070BD002AE2D0551EEDB201350B4E25449F
:102E20003078400000F0FE00FFF7B8FF14F8010B07
:102E3000FFF7B4FF6E20FFF719FFA542F0D1012084
:102E400002B070BD01221A70E0E700BF5C0C0020E8
:102E50002DE9F04F83B09DF830B099428CBFCF1A66
:102E60005F1A5A450C461E4681469246FFB23DD92E
:102E7000CBEB0203DBB29F42019345D211462246BF
:102E8000B2465C460E4693464FF00108DA4534BF21
:102E90004FF0010B4FF0FF3B019B43F34705FF2E23
:102EA00008BFFE26B44210D8B8F1000F10D1524628
:102EB00021464846FEF776FBED1BEAB255B20134D7
:102EC000002DE4B20ADBA642EED203B0BDE8F08FDB
:102ED000224651464846FEF765FBEDE701990AEBAD
:102EE0000B0355185FFA83FA6DB2ECE7C2EB0B03E4
:102EF000DBB29F42019325D3B14215D8019A4FF01E
:102F0000000801971746C1E7B142F7D921463A4672
:102F10003446DA4647F347050E46019F4FF0000856
:102F20004FF0010B0192BAE721463A463446DA46A1
:102F300047F347050E46019F4FF000084FF0FF3B57
:102F40000192ACE7314622465E4654468B46924695
:102F50004FF001089AE700BFF0B5074687B0294C4B
:102F600001210420FEF722FC01214FF48040FEF7EE
:102F70001DFC1825204669464FF4007203238DF886
:102F80000350ADF800208DF80230FEF753FB042209
:102F900069464FF4806320468DF80320ADF8003079
:102FA000194DFEF747FB4FF4E06001F0D5FB00241C
:102FB0000126252301A88DF804308DF805408DF8F1
:102FC00006408DF8076001F0D1FB0C23284602A9CA
:102FD000ADF812300297ADF81440ADF81040ADF8DE
:102FE0000E40ADF80C4000F029FD3246284640F274
:102FF000255100F08FFD3146284600F07DFD07B0D9
:10300000F0BD00BF0008014000380140F0B50746A0
:1030100087B01D4E01210420FEF7C8FB04250121C5
:103020004FF40030FEF7D0FB184C182230460DEB61
:10303000050103238DF807208DF80630ADF8045004
:10304000FEF7F8FA0DEB050130460823ADF8043021
:103050008DF80750FEF7EEFA00230C22204602A955
:10306000ADF81430ADF81030ADF80E30ADF80C30CE
:10307000ADF81220029700F0E1FC2046012100F09B
:103080003BFD07B0F0BD00BF000801400044004018
:1030900010B5012882B04FF004020CBF182404249C
:1030A00003230DEB020105488DF80740ADF804201D
:1030B0008DF80630FEF7BEFA02B010BD00080140E0
:1030C00030B484784579121BED0802FB05F28024A8
:1030D00001F00705D2B22C4102EBD1018068E2B2C7
:1030E0002BB9435C23EA0202425430BC7047435C74
:1030F0001A43425430BC704710B484784A789442E2
:1031000006D8C478944203D343790C78A34201D8FB
:1031100010BC70470B79214610BCFFF7D1BF00BF30
:103120002DE9F041CB780D4606468C78032B26D846
:10313000DFE803F01F1B1702FF274FF0000809E02C
:103140002A786B78640042443B4414F0FF042A70F0
:103150006B7012D02306F3D529463046FFF7CCFF1B
:10316000EEE700274FF0FF08F4E701274FF00008D3
:10317000F0E700274FF00108ECE7BDE8F0810027F9
:10318000B846E7E710B5143A82B04C68332A22D823
:10319000DFE802F02932213C2121212121212121B6
:1031A000212121212121212121212121212121210F
:1031B00021214321212121212121211A21212121E4
:1031C0002121212121214A24194620460193FDF77E
:1031D00043F8019B68BB012002B010BD627801205A
:1031E0001A7002B010BD2046FDF722F82046FEF707
:1031F000FBF9012002B010BD2046FEF7FDF90028C2
:10320000EAD02046FDF714F80120E5E720461946EC
:10321000FDF718F8012002B010BD20461946FFF74F
:103220006BFF012002B010BD627901201A7002B05C
:1032300010BD20461946FFF773FF0120CCE700BF01
:1032400070B54FF4E130E2B0FFF786FEFFF7C0FC47
:103250003C48FDF727FA3C48FFF738F93B4800F0B7
:1032600039FE3B48FDF714FF01213948FDF750FEB8
:10327000384A00213648FDF7CFFE374C3448FEF778
:10328000BDF801213248FDF70BFE2368DA0747D568
:10329000324C3348FEF71CFB2368DB0749D5314825
:1032A000FCF734FF1FA8FFF719FA1FA8FFF772FAFF
:1032B0001FA92B48FEF71EFB1FA92A48FCF728FF71
:1032C000684600F059F8684600F010F9694624484D
:1032D000FEF710FB69462348FCF71AFF00211C4843
:1032E000FDF716FE2048FDF7DDF9204E1C48FEF7DD
:1032F0003DFB1C48FCF722FF684600F025FA1C4CF9
:103300001FA8FFF73DFB12486568FEF777F8636872
:103310001848591BA6FB0131090CFDF7AFF9E5E789
:10332000204601F029FF0028B2D0204601F030FFEE
:10333000AEE7204601F020FF0028B0D0204601F083
:1033400027FFACE784840008180C0020380C00200C
:10335000100B0020A8840008A40C0020600C0020A2
:10336000A80C0020640C0020B4840008D55204E9A5
:10337000001000E0C884000838B50E4D0E4A2B68D6
:103380000446DB0702600CD50C4D0D480D490E4A72
:103390004FF47A73A0606560E1602261A366204605
:1033A00038BD284601F0E8FE0028EDD0284601F09F
:1033B000EFFEE9E7A40C002088850008A80C002097
:1033C000380C0020180C0020100B002010B504460B
:1033D000F9B990F875300BB180F8751094F8712038
:1033E000A2B984F87620E0684FF48061FFF7CCF84A
:1033F000E06894F875204FF40071FFF7C5F894F871
:1034000075102069BDE81040FDF79CBD94F876204A
:10341000E9E7012280F8762080F87520E3E700BF15
:1034200070B590F870401CB990F8753023BB70BD32
:10343000C66E044630460D4602F05AFB88B194F839
:103440007530F3B12946304602F034FB0028EED047
:103450001048FDF727F92046BDE870400021FFF72E
:10346000B5BF2946304602F025FB0028DFD094F88E
:103470007530002BECD170BD2146BDE87040FFF7E0
:10348000A5BF0548FDF70EF92046BDE870400121B3
:10349000FFF79CBFFC840008E4840008F0B50546F3
:1034A00083B0084616460C4602F02CFB02F010F9D9
:1034B0000146204602F056F80A4902F05DF902F092
:1034C00047FB0746204602F01DFB3B4602B2064979
:1034D0006846FDF77DF86A4631462869FDF71CFD10
:1034E00003B0F0BD000020412472000870B504460E
:1034F00082B02948FDF7D6F8284900230122E16669
:1035000084F8722084F8713084F8703084F8733055
:1035100084F8743084F8753084F8763084F8773025
:1035200084F878306068FEF7E3F984F8790018B918
:103530001B492069FDF712FD04250222E16E204699
:10354000FFF7ACFF022610230DEB05011548ADF87F
:1035500004308DF807508DF80660FEF76BF82946A9
:103560000123104A04F11400FDF7D8F93346294627
:103570000C4A04F13C00FDF7D1F9FFF763FB01228F
:1035800060664FF48051A06800F0DEFC0648FDF74D
:1035900089F802B070BD00BF1485000800000C421D
:1035A00034850008000801404885000810B5102146
:1035B00004460C48FEF79AF800B110BD94F8732049
:1035C000E06882F0010284F873204FF40061FEF796
:1035D000DBFF94F87320A0684FF48071BDE81040C1
:1035E00000F0B2BC0008014010B5102104460C48A0
:1035F000FEF77CF800B110BD94F87420E06882F00A
:10360000010284F874204FF48051FEF7BDFF94F856
:103610007420A0684FF40071BDE8104000F094BC25
:103620000008014010B5102104460948FEF75EF875
:1036300000B110BD94F87020A06882F0010284F8F7
:1036400070204FF48061BDE8104000F07DBC00BFE9
:103650000008014010B5102104460C48FEF746F85A
:1036600000B110BD94F87120E06882F0010284F886
:1036700071204FF48061FEF787FF94F87120A068F5
:103680004FF40061BDE8104000F05EBC000801404E
:1036900010B5044690F877204FF4004182F0010203
:1036A000C06884F87720FEF76FFF94F87720A06851
:1036B0004FF40051BDE8104000F046BC10B5044680
:1036C00090F878204FF4807182F00102C06884F88D
:1036D0007820FEF759FF94F87820A0684FF48041D5
:1036E000BDE8104000F030BC90F8703010B513B950
:1036F00090F87130BBB10446002380F8703080F838
:10370000713080F8733080F8743080F8753080F84C
:103710007630C068FEF76AFF94F875102069BDE83E
:103720001040FDF70FBC90F87330002BE3D190F8F8
:103730007430002BDFD190F87530002BDBD190F87E
:103740007630002BD7D110BD2DE9F043102104466F
:1037500083B04148FDF7CAFF0546FFF773FA636E71
:10376000A26EC01A904225D2291C18BF01212069DF
:10377000FDF7ECFBD5B96068FEF7BAF894F879303C
:1037800083420BD06068FEF7B3F850B12069FDF7B3
:10379000F7FB6068FEF7ACF884F8790003B0BDE889
:1037A000F0832E492069FDF7D9FBF2E72046FFF7A9
:1037B0009BFFE0E704F114062948FCF773FF30464D
:1037C000FDF7CAF804F13C0780463846FDF7C4F817
:1037D000694681463046FDF7E7F840BBB8F1000F77
:1037E00025D069463846FDF7DFF8D0B9B9F1000FAA
:1037F00017D088F00101C9B22069FDF7ABFBB8F121
:10380000000F24D03046FDF7E9F88046ADB13046D0
:10381000FDF766F83846FDF763F8FFF713FA6066C0
:10382000A2E76A4600212069FDF776FBE1E76A46D8
:1038300001212069FDF770FBD3E73046FDF7B0F8B2
:103840000028E4D041462046FFF7EAFDDFE72046A6
:10385000FFF74AFFD6E700BF0008014034850008A3
:103860006885000838B590F87250044685F0010567
:1038700080F872505DB14FF480518068012200F0F1
:1038800063FB20690121BDE83840FDF709BB80F8E2
:10389000735080F8745080F8775080F878502A463A
:1038A0004FF40061C068FEF76FFE94F87420E06882
:1038B0004FF48051FEF768FE94F87720E0684FF4EB
:1038C0000041FEF761FE94F87820E0684FF48071C3
:1038D000FEF75AFE94F87320A0684FF4807100F050
:1038E00033FB94F87420A0684FF4007100F02CFBB7
:1038F00094F87720A0684FF4005100F025FB94F86D
:103900007820A0684FF4804100F01EFBA0682A4692
:103910004FF4805100F018FB29462069BDE838407B
:10392000FDF7BEBA38B54FF6FF6441F47E4343F06D
:10393000FF03A34262D04FF6FF5441F47D4343F0AE
:10394000FF03A3425ED04FF6FF3441F47B4343F0C4
:10395000FF03A3425AD04FF2FF7441F4774343F080
:10396000FF03A34256D04DF6FF7441F45F4343F08A
:10397000FF03A34252D04BF6FF7441F43F4343F0A0
:10398000FF03A34252D04FF67F7241F47F4343F0CE
:103990007F039342044610D04FF6BF7241F47F4339
:1039A00043F0BF0393421CD04EF6FF7341F46F41C6
:1039B00041F0FF01994235D038BDC56E1D492846FA
:1039C00002F08CF80028F7D128464FF07C5101F026
:1039D000CBFDE066014602222046BDE83840FFF7F5
:1039E0005DBDC56E1449284602F06EF80028E3D18B
:1039F00028464FF07C5101F0B5FDEAE7BDE83840BC
:103A0000FFF7D4BDBDE83840FFF7EEBDBDE8384054
:103A1000FFF708BEBDE83840FFF71CBEBDE83840E0
:103A2000FFF736BEBDE83840FFF71CBFBDE83840A1
:103A3000FFF744BE000034420000204130B5044688
:103A40000D46038ACA889BB223F440531343038272
:103A500082890B89888892B24989034322F4B05243
:103A60000B4322F00C0213439BB2A381A38AAA89C1
:103A70009BB223F4407387B01343A38201A8FDF7E0
:103A800047FE04991A48039BA289844208BF0B464B
:103A900012F4004F2A6803EB830314BF5200920014
:103AA00003EB8303B3FBF2F3124DA189A5FB0320C3
:103AB0006422400900FB12330A044FEA00100AD4C2
:103AC0001A013232A5FB0223C3F3431303439BB213
:103AD000238107B030BDD9003231A5FB0131C1F3DC
:103AE000421242EA00039BB2238107B030BD00BFFF
:103AF000003801401F85EB51838929B923F4005315
:103B00001B041B0C838170479BB243F400538381D9
:103B1000704700BF10B401F01F04C1F3421101232C
:103B2000012903FA04F30FD002290CBF103014301E
:103B30002AB9026810BC22EA0303036070470268D6
:103B400010BC1343036070470C30F1E7C1F3080168
:103B5000818070478088C0F308007047038819424D
:103B600014BF012000207047C1F3421210B401239A
:103B700001F01F04012A03FA04F315D0022A0CBF36
:103B8000028A828A92B21340028892B24BB1012318
:103B9000090A03FA01F10A4214BF1846002010BCBA
:103BA0007047184610BC7047828992B21340EBE709
:103BB00043185B78405C03EB002080B2704700BF85
:103BC00000207047704700BF08B5FFF7FBFF18B132
:103BD000022801D0032008BD062008BD0621FFF7FA
:103BE000E7BF00BF0821FFF7E3BF00BF807A70473F
:103BF000C07A70472DE9F0478468814623780E46E5
:103C00001846FFF7DFFF80461846FFF7DDFFB8F1E3
:103C1000010F8246204614BFFF270F27FFF7E6FF5C
:103C200002462046FFF7E4FF05462046FFF7DAFF8D
:103C3000602E30D940B304446122B54217D3AA4262
:103C40000CD914E0B2422DD0A378AA4203EA0703AC
:103C500053441C4402F1010209D0D2B22378FF2B55
:103C6000F0D1AA4204F1010402F10102F5D10020D1
:103C700089F81C0089F81F0089F8200089F81D00C8
:103C800089F81E00BDE8F0872046FFF7A7FF38B18E
:103C900004444122D1E72046FFF7A0FF402EF6D88A
:103CA0001134CAE7B8F1000F19D0B8F1020F16D0DD
:103CB00003F00F02023A1B0989F81E2089F81D3013
:103CC0006378204603F00F021B0989F8202089F849
:103CD0001F30A3781B0989F81C30BDE8F08789F8EC
:103CE0001F306378204689F82030E37889F81C304B
:103CF000237989F81D30637989F81E30BDE8F08793
:103D00002DE9F04F884685B0194616460746FFF75D
:103D100071FF044600284AD0BB681878FFF754FFAB
:103D200097F81EA097F82050CAEB060697F81DB02A
:103D30005FFA86FAC344C5EB0A0697F81F80F6B20D
:103D40005FFA8BFB8146009532465946434638461A
:103D500000F094F830B308F10708C8F3C40319461B
:103D60000293FDB1013BDBB20BEBC1080133A1446F
:103D700003935FFA88F8029B83B15C464D4615F8C1
:103D8000012B214608340092002332463846E4B223
:103D9000FDF716FC4445F2D1039B99440136F6B277
:103DA0005645E8D197F91C0005B0BDE8F08F05B085
:103DB000BDE8F08F2DE9F0411E46436A1746804664
:103DC0000C4698473378384493B1C7B20025214652
:103DD0003A464046FFF794FF16F8013FC0B204444C
:103DE0000544E4B2EDB2002BF1D12846BDE8F081E4
:103DF0001D46FAE78368CBB190F82820BAB1012AB2
:103E00001ED093F90D2080F8292093F90E3080F808
:103E10002A3090F82B10D31A40299BB204D0DBB281
:103E200001FB03F3C3F38F1380F82C30704793F931
:103E3000052080F8292093F90C3080F82A30E8E733
:103E400093F90F2080F8292093F9103080F82A3058
:103E5000DFE700BF014B4362704700BFC13B000872
:103E600082688A4206D010B58160FFF7C3FF024B1B
:103E7000436210BD704700BFC13B000870B49DF89D
:103E80000C4090F83B60013C14449642E4B290F838
:103E900039500FD3AC420FD390F83A40013B0B445A
:103EA0008C42DBB290F838200BD393420BD370BC1A
:103EB00001207047AC4201D3A242EDD870BC002073
:103EC00070479342FAD370BC994294BF00200120FE
:103ED000704700BF70B5054686B01748FCF7E2FB97
:103EE000002444268021402208230291019200935D
:103EF0002846124B049403964FF400121049FDF724
:103F0000ABFE224621462846FDF7D0FE2246284633
:103F10000121FDF7CBFE224621462846FDF70EFF84
:103F2000224628460121FDF709FF0648AC8306B06A
:103F3000BDE87040FCF7B6BB9C850008000C014052
:103F400000540040B485000838B50D460446818B06
:103F500042B1124B2A461248FCF790FBA38B1D423C
:103F600008D038BD0F4B2A460D48FCF787FBA38BC2
:103F70001D4211D00C48FCF795FBA28B00216A4032
:103F8000A2832046120AFDF7D9FE227F2046BDE813
:103F900038400121FDF7D2BE38BD00BF887400084B
:103FA000CC850008447400082474000870B50446E9
:103FB000002582B04260038101600846A57201219C
:103FC000FDF7F4FB26890223102201A960688DF811
:103FD00007208DF80630ADF80460FDF72BFB4FF499
:103FE000E130FFF713F82846FFF752F82A462189F7
:103FF0006068FDF787FB02B070BD00BF08B5022006
:10400000FCF756F9044B1868FCF738FBBDE808408C
:104010000120FCF74DB900BF7004002038B50446FC
:104020000D46406821896DB10122FDF76BFB01202F
:10403000FFF72EF82046FFF7E1FFBDE83840642087
:10404000FEF744BE2A46FDF75DFB2846BDE8384032
:10405000FFF71EB808B50220FCF72AF9044B1868D0
:10406000FCF70CFBBDE808400120FCF721B900BFBC
:104070006004002008B50220FCF71AF9044B186808
:10408000FCF7FCFABDE808400120FCF711B900BFBD
:104090006C04002008B50220FCF70AF9044B1868EC
:1040A000FCF7ECFABDE808400120FCF701B900BFBD
:1040B0006404002008B50220FCF7FAF8044B1868E5
:1040C000FCF7DCFABDE808400120FCF7F1B800BFBE
:1040D0006804002070B502200E46FCF7E9F80E4D8A
:1040E0000E242868FCF7CAFA3220FEF7EFFD631EA3
:1040F00013F0FF04F5D156B1084D28680134FCF7E0
:10410000BDFAE4B23220FEF7E1FDA642F5D101206E
:10411000BDE87040FCF7CCB86804002064040020BF
:10412000F8B50F461646FEF78DFD054604E0FEF78E
:1041300089FD401BB0420BD820210648FFF70EFD39
:1041400004460028F3D00348FFF704FD012438702B
:104150002046F8BD004400402DE9F04F83B01646DC
:1041600000AF073222F00702994697F83030ADEBE6
:10417000020D002E8A466D467B601CDD80460024C1
:104180000AE034B92B789AF800401C1B18BF4FF096
:10419000FF340134A6420EDD4A4629194046FFF796
:1041A000BFFF83460028ECD17B685BB900200C3749
:1041B000BD46BDE8F08F7B6873B14FF0010B01E0A5
:1041C000FFF7C8FC20210A48FFF7C8FC012808486F
:1041D000F6D0BBF1000FE9D032465146284602F036
:1041E00051FCB0FA80F00C374009BD46BDE8F08FB5
:1041F00000440040F0B5064683B02448FCF752FA6C
:104200000020FEF745FF318900227068FDF77AFA39
:10421000C820FEF75BFD318901227068FDF772FA54
:104220000120FEF735FF01230093304642F2107360
:1042300004221749FFF790FFE0B1164DC52105F1A3
:1042400008071548FFF782FC80211348FFF786FC1A
:1042500001280446F8D1BD4202D015F8011FF0E74D
:1042600000904FF4FA6304220C493046FFF774FFC4
:10427000054618B90025284603B0F0BD0848FCF7EC
:1042800011FA2846B47203B0F0BD00BF2C860008B6
:10429000248600080C8600080044004000870008BF
:1042A0004486000870B5064682B01448FCF7FAF957
:1042B00001E0FFF74FFC20211148FFF74FFC0128D8
:1042C0000F48F6D00F4C5021E51C0D48FFF73EFC7F
:1042D00080210B48FFF742FC0128F9D1AC4202D003
:1042E00014F8011FF1E700904FF4FA6330460422FE
:1042F0000549FFF731FF02B070BD00BF64860008BA
:10430000004400402886000808860008F0B50746EB
:1043100083B02848FCF7C6F901E0FFF71BFC202119
:104320002548FFF71BFC01282348F6D0234C3121F8
:10433000E51C2148FFF70AFC80211F48FFF70EFC0F
:104340000128F9D1AC4202D014F8011FF1E71C4E4C
:1043500000243568284602F0DDFD844210D2295D34
:104360001548FFF7F3FB80211348FFF7F7FB0128FF
:10437000F9D135680134284602F0CCFD8442EED3F1
:104380000F2C0CD800210C48FFF7E0FB80210A48D5
:10439000FFF7E4FB0128F9D10134102CF2D10123FD
:1043A000009338464FF4FA6304220649FFF7D4FE1F
:1043B00003B0F0BD7C860008004400401886000869
:1043C0005C040020FC86000870B5054686B02248D3
:1043D000FCF768F901E0FFF7BDFB20211F48FFF75C
:1043E000BDFB01281D48F6D01D4C1121E61C1B48C1
:1043F000FFF7ACFB80211948FFF7B0FB0128F9D18A
:10440000B44202D014F8011FF1E700230093042204
:104410004FF4FA6313492846FFF79EFEC8B102AC79
:1044200006AE21464FF4FA622846FFF779FE0134C2
:1044300078B1A642F5D102A90B48FCF71FF90B4B46
:1044400002A8196802F02AFCB0FA80F0400906B010
:1044500070BD002006B070BD90860008004400408A
:104460001C86000820860008A48600085C04002042
:1044700038B5837A044663B12046FFF7A5FF70B9CB
:104480002046FFF743FF05462046FFF70BFF28466F
:1044900038BDFFF7AFFEA07A0028EDD138BD204629
:1044A000FFF700FF012038BD00220271C270827048
:1044B0004270027080F82420A0F84C20704700BFA2
:1044C0000346F0B50E4C0F4A03CCC3F80600C3F800
:1044D0000A10267803CAD3F806401778D3F80AE002
:1044E00000229E731C611E76C3F814E0C3F81A0004
:1044F00083F82270C3F81E1083F84E205A71F0BD65
:10450000048700081087000830B401230025042424
:104510000822C5628463816241630164426403636B
:10452000C363836480F8243030BC70472DE9F04FBA
:1045300083B00446BDF83060002963D01112C2F385
:10454000C02021F00F01014341F00A0149B20020CF
:104550002A2921706070A07078D03BDD4A294ED1A5
:104560001B0103F0100343EA1633C6F38512C3EBB5
:104570000313F6B216F0200F02EB830306F01F06BA
:104580009BB214BFA6EB0616C6EB061603EB460657
:1045900094F82430B6B293B3B4F84C30B3422ED072
:1045A0006B49A36CA1FB06214909C1EB0112A6EBE3
:1045B0008202DD07A4F84C60D2B2C9B2206C6BD580
:1045C0005B10C558646C18442C59234603B0BDE8F1
:1045D000F04F18470A39012911D802F0030252009E
:1045E00004EB020898F80630370A551CBB42F6B2B5
:1045F000254455D0002388F80670AE71A37303B02C
:10460000BDE8F08FFFF75CFF94F82430002BF6D064
:10461000236B04F11A01DD07A06A79D55B10C55838
:10462000E26A1844AA58904794F82430002BE6D048
:10463000E36B606BDA076FD55B10C158A26B18444F
:104640008A58444903B0BDE8F04F1047D2B202F097
:104650001001607902F00F029500C9B2A842E17022
:1046600003D994F82420002A5AD1227965718A420C
:1046700003D00022217184F84E2067194FEA232EBF
:10468000311287F84EE087F84F3087F8501087F8DE
:10469000516003B0BDE8F08F646C00EB630094E7F9
:1046A000AB79B342A6D1062A88F810702E74207612
:1046B000A5D104F1100B04F106095946484602F051
:1046C000EDFA00289BD104F11A0A5146584602F02F
:1046D000E5FA002893D05946504602F0BDFB94F805
:1046E0002430002B8BD0206BC3072DD5A26A40103D
:1046F0001158E36ACB5851461044984799F8063050
:10470000BB427FF477AFAB79B3427FF473AF76E708
:10471000E26A00EB630086E7A26B00EB630090E7C0
:10472000E26B04F14E01D707606B09D55210875830
:104730001044A26BBF580193B847E178019B94E7FE
:10474000A76B00EB6200F6E74010E36AA26AD2E7CB
:10475000898888880073000840F0BF60024B40F4ED
:104760000030D860704700BF00ED00E0C3785BB94F
:10477000037801215A09164803F01F03203201FA79
:1047800003F340F822307047124B30B4D968827876
:10479000C9434478C1F302210F23C1F10405CB4082
:1047A000AC401340027823431B0102F16042DBB2AC
:1047B00002F5614282F800330378012203F01F0002
:1047C00003495B09824041F8232030BC704700BF99
:1047D00000E100E000ED00E008B50D4B012198423A
:1047E0000AD04FF48000FCF7FDFFBDE8084000212F
:1047F0004FF48000FCF7F6BF4FF40010FCF7F2FF17
:10480000BDE8084000214FF40010FCF7EBBF00BFEB
:1048100000540040F0B504460D4687B0868801A8D4
:10482000FCF776FF314F039B26F03F06A7FB0327DB
:104830003604BF0C360CB8B20643A68021882A681D
:1048400021F001012A4E0904090CB242218024D82A
:104850005200B3FBF2F39BB2032B00F1010098BFAF
:1048600004232084A3832188AE8889B241F001010A
:10487000218023886A8923F4816323F00203A889B5
:1048800029891B0432431B0C134340EA01029BB2EB
:1048900092B22380228107B0F0BD4BF6FF71E88809
:1048A00088421DD002EB820202EB8202B3FBF2F3DC
:1048B0009BB243F48043C3F30B020AB943F00103F4
:1048C0004FF4967202FB07F70A4AF91782FB0702B8
:1048D000C1EBA212013292B243F400432284C1E739
:1048E00002EB4200B3FBF0F39BB2E4E783DE1B4331
:1048F000A0860100D34D6210038829B923F001037B
:104900001B041B0C038070479BB243F00103038020
:10491000704700BF038829B923F480731B041B0C64
:10492000038070479BB243F480730380704700BFDD
:10493000038829B923F400731B041B0C0380704700
:104940009BB243F400730380704700BF038829B90A
:1049500023F480631B041B0C038070479BB243F459
:1049600080630380704700BF01827047008AC0B235
:10497000704700BF22B901F0FE0189B20182704781
:1049800041F0010189B20182704700BF838A008B28
:104990009BB243EA004321F07F4203EA0200401A3F
:1049A000B0FA80F04009704782B000230A0F0093EC
:1049B000019301900092009B21F07F4153B1019B34
:1049C00014330193019B1B68194214BF012000207E
:1049D00002B07047019B090C18330193F2E700BF46
:1049E0003C4B30B418683C4940F0010018605D68E9
:1049F00082B0294059601968002021F0847121F4A7
:104A00008031196019684FF41F0421F48021196066
:104A100059681A4621F4FE0159609C60009001908B
:104A2000196841F48031196003E0009BB3F5A06F71
:104A300009D0136803F400330193009B0133009302
:104A4000019B002BF1D0234B1B6813F4003318BFDC
:104A500001230193019B012B06D0204B4FF00062F4
:104A60009A6002B030BC70471D4A1A4B1068194654
:104A700040F010001060106820F003001060106813
:104A800040F0020010605A685A605A685A605A68CA
:104A900042F480625A605A6822F47C125A605A6862
:104AA00042F4E8125A601A6842F080721A600B6889
:104AB000084A9B01FBD51146536823F0030353605A
:104AC000536843F0020353604B6803F00C03082B58
:104AD000FAD1C2E7001002400000FFF800ED00E04C
:104AE0000020024010B50446024B036000F0F4FAC7
:104AF000204610BD2487000810B50446FFF7F2FFDA
:104B0000204600F048FB204610BD2DE9F14F0E462F
:104B100019468346174699460A9CDDF82CA0DDF815
:104B200030800D9D00F0A2FA78B1002E2C602F711C
:104B300006DB3444A0450CBF06240124AC711EE002
:104B400002361CD10123AB7119E0444504D1514612
:104B5000584600F08BFA88B9DBF808003A4603683B
:104B60000D95CDF83080CDF82CA00A94DC69314643
:104B70004B46A44601B0BDE8F04F60476F7100207E
:104B800001B0BDE8F08F2DE9F041069E80469642C7
:104B90000F4614461D4603D1194600F067FA58B96E
:104BA000D8F808002246036806961E6A39462B4646
:104BB000B446BDE8F04160470620BDE8F0812DE92C
:104BC000F04104460D4616461F4600F098FA48B9D3
:104BD000A0683246036829469C693B46A446BDE866
:104BE000F0416047BDE8F08110B50446024B036018
:104BF00000F072FA204610BDB887000810B50446D0
:104C0000FFF7F2FF204600F0C6FA204610BD2DE95E
:104C1000F74FDDF8309004464A450F461646984651
:104C200005D1194600F022FA08B1062026E0E56811
:104C300004EBC5040DB3E3689A0702D4013D083CB8
:104C4000F8E713F0010A4FEA232203D0FB1CF5D04A
:104C500033689A58A06832440368CDF80090D3F8BE
:104C600020B039464346D8470328E7D9BAF1000FA8
:104C700004D040F00100C0B200E0012003B0BDE864
:104C8000F08FF0B40D1E049C05DB5019844214BF54
:104C90000120062008E0023505D0056804942C6A3E
:104CA000A446F0BC60470120F0BC70472DE9F04FEE
:104CB00091B01D9C0793A3688846D90648BF8368B6
:104CC000069248BFA3601C9A1A9B8246934208D161
:104CD0001B9900F0CBF920B19DF8183063710027C3
:104CE00027E10799504600F0C1F90746C8B11A9B61
:104CF000B8F1000F23609DF8183023710BDB1A9B6D
:104D000098441C9B43450CBF4FF006084FF0010828
:104D100084F80680E3E718F1020FE0D10123A371C4
:104D2000DDE74FF00009CB46B8F1000FA9BF1C9B8F
:104D30000897C8EB0303089301230993069BCDF85A
:104D4000289043F001030B93DAF80C300AEBC3020E
:104D500004920593059B002B00F0A380049BA5689B
:104D6000DB680F95DA0748BF1A984FEA232148BF3E
:104D70000068CDF834B048BF41581A988DF838B063
:104D8000014408988DF839B08DF83AB04CBF0B9AB1
:104D9000069A30B18842099E2CBF00200120B04203
:104DA00078D09B070DD418F1020F08D1AE0706D1B9
:104DB000059B013B0593049B083B0493CAE702F063
:104DC000FD02049B0DAD9868036803951C9D029538
:104DD0001B9D8DE822004146DD69079BA84761794C
:104DE0009DF839209DF83A501143062D0346617114
:104DF00001D0022D06D10D9BA57123609DF838309E
:104E000023714AE02268B9F1000F0ED16AB90D9AF8
:104E10009DF8385022602571002A36D0002934D000
:104E2000DAF80820D50730D437E052B10D9B9A420A
:104E300005D122799DF838301343237124E02BB932
:104E400020B90D9B03B3B9F1000F1DD00329A6793A
:104E500004D9C80753D5A368990750D556B395B35D
:104E600085EA0603DBB2032B3AD9032D07D92E4678
:104E70000D9B4FF0000923609DF838302371B20775
:104E8000A67156D4F30754D54B466279042A06D04E
:104E900099468DE701230A938AE7074649E01F46B2
:104EA00047E00A9B23B1099B13B1059B09934BE78C
:104EB0004F463EE0032D29D9EB070DD5DAF808302F
:104EC0009E0709D522E0032E29D9F00706D5DAF886
:104ED0000830990723D401E00126C1E70125BFE787
:104EE0003540EDB2032D05D9002323600223A371C1
:104EF00001271EE00123C4F800B0A371C5E7002E0E
:104F000008BF0126002D08BF0125A9E71C9B4146CB
:104F1000009307981B9BFFF7B4FE06469FE71C9B78
:104F20000D9A009341461B9B0798FFF7AAFE054682
:104F300096E7384611B0BDE8F08F2DE9F04F89B003
:104F40008046029192461C4600F0D9F8054600289A
:104F500040F08580D4F80890D8F80C6019F0100F54
:104F600018BFD8F8089008EBC60709F001034FF006
:104F7000000B0393002E5FD0FA68CDF810B002F05A
:104F80000103009312F002038DF814B0CDF81890CD
:104F9000CDF81CB0019304D1039B13B9013E083F27
:104FA000E8E7BAF1000F07D0009B121213B1DAF84C
:104FB00000309A58524400E05246B868029903689B
:104FC0009D6904ABA84705460028E7D0079B082B3E
:104FD00003D1009B0BB1BB6807939DF81430032BE2
:104FE00001D9019A6AB3E168A9B904AB0FCB84E88F
:104FF0000F002379032B32D99A0704D5D8F808304B
:1050000013F0010F05E0DB0729D5D8F8083013F0BD
:10501000020FC3D123E02368049A934202D00023F5
:10502000236013E0ABB9079808280FD008290DD0EA
:1050300000F01CF868B909E02579003518BF012592
:105040000DE023F002038DF81430CCE70223237126
:1050500005E022799DF81430134323719EE728461A
:1050600009B0BDE8F08F704700207047814208B555
:105070000ED0406803782A2B0CD049680B782A2B75
:1050800008BF013101F00AFEB0FA80F0400908BD06
:10509000012008BD002008BD7FB5102302930368DE
:1050A000002415469E6900946B468DF804400394D5
:1050B0001268B0479DF8043003F00603062B11BFB9
:1050C0002046009B01202B6004B070BD00989042E8
:1050D0000CBF06200120704710B50446024B036048
:1050E000FFF7C1FF204610BDFC87000810B504463D
:1050F000FFF7F2FF204600F04EF8204610BD38B50D
:1051000015461C46FFF7B2FF20B10823E3600623D3
:105110002560237138BD2DE9F041069E9846089B15
:1051200007469E421546099C03D10799FFF79EFF4B
:1051300048B941463846FFF799FF28B10123266058
:105140002571A37100E065710020BDE8F0812DE9B3
:10515000F04105460C4616461F46FFF787FF48B943
:10516000032F07D82368324629462046BDE8F04180
:105170005B691847BDE8F0810368DB0706D4437814
:1051800003B1FFDE012343701846704700207047CB
:1051900001230360704701F06DBC000081F0004105
:1051A00002E000BF83F0004330B54FEA41044FEA0C
:1051B000430594EA050F08BF90EA020F1FBF54EAA7
:1051C000000C55EA020C7FEA645C7FEA655C00F043
:1051D000E2804FEA5454D4EB5555B8BF6D420CDD14
:1051E0002C4480EA020281EA030382EA000083EA97
:1051F000010180EA020281EA0303362D88BF30BD37
:1052000011F0004F4FEA01314FF4801C4CEA11318C
:1052100002D0404261EB410113F0004F4FEA0333EB
:105220004CEA133302D0524263EB430394EA050F76
:1052300000F0A780A4F10104D5F1200E0DDB02FAE5
:105240000EFC22FA05F2801841F1000103FA0EF279
:10525000801843FA05F359410EE0A5F120050EF13F
:10526000200E012A03FA0EFC28BF4CF0020C43FA70
:1052700005F3C01851EBE37101F0004507D54FF07D
:10528000000EDCF1000C7EEB00006EEB0101B1F5CD
:10529000801F1BD3B1F5001F0CD349085FEA300013
:1052A0004FEA3C0C04F101044FEA445212F5800F1E
:1052B00080F09A80BCF1004F08BF5FEA500C50F1BB
:1052C000000041EB045141EA050130BD5FEA4C0C9E
:1052D000404141EB010111F4801FA4F10104E9D127
:1052E00091F0000F04BF01460020B1FA81F308BF1E
:1052F0002033A3F10B03B3F120020CDA0C3208DDEA
:1053000002F1140CC2F10C0201FA0CF021FA02F1C4
:105310000CE002F11402D8BFC2F1200C01FA02F134
:1053200020FA0CFCDCBF41EA0C019040E41AA2BF59
:1053300001EB0451294330BD6FEA04041F3C1CDA21
:105340000C340EDC04F11404C4F1200220FA04F041
:1053500001FA02F340EA030021FA04F345EA0301EB
:1053600030BDC4F10C04C4F1200220FA02F001FAAD
:1053700004F340EA0300294630BD21FA04F029462F
:1053800030BD94F0000F83F4801306BF81F48011C8
:105390000134013D4EE77FEA645C18BF7FEA655C3B
:1053A00029D094EA050F08BF90EA020F05D054EA0D
:1053B000000C04BF1946104630BD91EA030F1EBF12
:1053C0000021002030BD5FEA545C05D14000494116
:1053D00028BF41F0004130BD14F580043CBF01F509
:1053E000801130BD01F0004545F0FE4141F47001EF
:1053F0004FF0000030BD7FEA645C1ABF19461046CA
:105400007FEA655C1CBF0B46024650EA013406BFCA
:1054100052EA033591EA030F41F4002130BD00BF89
:1054200090F0000F04BF0021704730B54FF4806446
:1054300004F132044FF000054FF0000150E700BFC7
:1054400090F0000F04BF0021704730B54FF4806426
:1054500004F1320410F0004548BF40424FF0000113
:105460003EE700BF42004FEAE2014FEA31014FEA56
:1054700002701FBF12F07F4393F07F4F81F06051A5
:10548000704792F0000F14BF93F07F4F704730B514
:105490004FF4607401F0004521F0004120E700BFA7
:1054A00050EA010208BF704730B54FF000050AE02E
:1054B00050EA010208BF704730B511F0004502D52F
:1054C000404261EB41014FF4806404F132045FEA31
:1054D000915C3FF4DCAE4FF003025FEADC0C18BFD6
:1054E00003325FEADC0C18BF033202EBDC02C2F1CC
:1054F000200300FA03FC20FA02F001FA03FE40EA5E
:105500000E0021FA02F11444C1E600BF4FEA410245
:1055100012F5001215D211D56FF47873B3EB625205
:1055200012D94FEAC12343F0004343EA505311F02C
:10553000004F23FA02F018BF404270474FF00000BE
:10554000704750EA013005D111F0004008BF6FF0FC
:10555000004070474FF00000704700BF80F00040EF
:1055600002E000BF81F0004142001FBF5FEA41033B
:1055700092EA030F7FEA226C7FEA236C6AD04FEA3B
:105580001262D2EB1363C1BFD21841404840414080
:10559000B8BF5B42192B88BF704710F0004F40F432
:1055A000000020F07F4018BF404211F0004F41F44E
:1055B000000121F07F4118BF494292EA030F3FD01A
:1055C000A2F1010241FA03FC10EB0C00C3F120032D
:1055D00001FA03F100F0004302D5494260EB4000BC
:1055E000B0F5000F13D3B0F1807F06D340084FEA27
:1055F000310102F10102FE2A51D2B1F1004F40EB1C
:10560000C25008BF20F0010040EA03007047490083
:1056100040EB000010F4000FA2F10102EDD1B0FA4E
:1056200080FCACF1080CB2EB0C0200FA0CF0AABF43
:1056300000EBC25052421843BCBFD04018437047E1
:1056400092F0000F81F4000106BF80F400000132E7
:10565000013BB5E74FEA41037FEA226C18BF7FEABE
:10566000236C21D092EA030F04D092F0000F08BF00
:105670000846704790EA010F1CBF0020704712F0E7
:105680007F4F04D1400028BF40F00040704712F126
:1056900000723CBF00F50000704700F0004343F08B
:1056A000FE4040F4000070477FEA226216BF0846C1
:1056B0007FEA23630146420206BF5FEA412390EA84
:1056C000010F40F4800070474FF0000304E000BF7A
:1056D00010F0004348BF40425FEA000C08BF70472B
:1056E00043F0964301464FF000001CE050EA0102EF
:1056F00008BF70474FF000030AE000BF50EA010204
:1057000008BF704711F0004302D5404261EB4101F0
:105710005FEA010C02BF84460146002043F0B64315
:1057200008BFA3F18053A3F50003BCFA8CF2083A3A
:10573000A3EBC25310DB01FA02FC634400FA02FC43
:10574000C2F12002BCF1004F20FA02F243EB02004A
:1057500008BF20F00100704702F1200201FA02FCAC
:10576000C2F1200250EA4C0021FA02F243EB02009F
:1057700008BF20EADC7070474FF0FF0C1CEAD052E3
:105780001EBF1CEAD15392EA0C0F93EA0C0F6FD0A4
:105790001A4480EA010C400218BF5FEA41211ED082
:1057A0004FF0006343EA501043EA5111A0FB01316E
:1057B0000CF00040B1F5000F3EBF490041EAD37143
:1057C0005B0040EA010062F17F02FD2A1DD8B3F1BF
:1057D000004F40EBC25008BF20F00100704790F02E
:1057E000000F0CF0004C08BF49024CEA502040EA80
:1057F00051207F3AC2BFD2F1FF0340EAC250704746
:1058000040F400004FF00003013A5DDC12F1190F83
:10581000DCBF00F000407047C2F10002410021FAF5
:1058200002F1C2F1200200FA02FC5FEA310040F10D
:10583000000053EA4C0308BF20EADC70704792F086
:10584000000F00F0004C02BF400010F4000F013ABE
:10585000F9D040EA0C0093F0000F01F0004C02BFB9
:10586000490011F4000F013BF9D041EA0C018FE728
:105870000CEAD15392EA0C0F18BF93EA0C0F0AD02E
:1058800030F0004C18BF31F0004CD8D180EA010054
:1058900000F00040704790F0000F17BF90F0004FED
:1058A000084691F0000F91F0004F14D092EA0C0FCF
:1058B00001D142020FD193EA0C0F03D14B0218BF62
:1058C000084608D180EA010000F0004040F0FE40A8
:1058D00040F40000704740F0FE4040F44000704744
:1058E0004FF0FF0C1CEAD0521EBF1CEAD15392EAC3
:1058F0000C0F93EA0C0F69D0A2EB030280EA010CB3
:1059000049024FEA402037D04FF0805343EA11114B
:1059100043EA10130CF000408B4238BF5B0042F1A9
:105920007D024FF4000C8B4224BF5B1A40EA0C004E
:10593000B3EB510F24BFA3EB510340EA5C00B3EB80
:10594000910F24BFA3EB910340EA9C00B3EBD10F6E
:1059500024BFA3EBD10340EADC001B0118BF5FEAC0
:105960001C1CE0D1FD2A3FF650AF8B4240EBC250E9
:1059700008BF20F0010070470CF0004C4CEA5020AA
:105980007F32C2BFD2F1FF0340EAC250704740F4F9
:1059900000004FF00003013A37E792F0000F00F0EB
:1059A000004C02BF400010F4000F013AF9D040EA69
:1059B0000C0093F0000F01F0004C02BF490011F4FD
:1059C000000F013BF9D041EA0C0195E70CEAD153F5
:1059D00092EA0C0F08D142027FF47DAF93EA0C0FDC
:1059E0007FF470AF084676E793EA0C0F04D14B02C0
:1059F0003FF44CAF08466EE730F0004C18BF31F072
:105A0000004CCAD130F000427FF45CAF31F000436B
:105A10007FF43CAF5FE700BF4FF0FF3C06E000BF04
:105A20004FF0010C02E000BF4FF0010C4DF804CD27
:105A30004FEA40024FEA41037FEA226C18BF7FEA37
:105A4000236C11D001B052EA530C18BF90EA010F39
:105A500058BFB2EB030088BFC81738BF6FEAE170C8
:105A600018BF40F0010070477FEA226C02D15FEA64
:105A7000402C05D17FEA236CE4D15FEA412CE1D0D0
:105A80005DF8040B704700BF844608466146FFE797
:105A90000FB5FFF7C9FF002848BF10F1000F0FBD79
:105AA0004DF808EDFFF7F4FF0CBF012000205DF872
:105AB00008FB00BF4DF808EDFFF7EAFF34BF0120F7
:105AC00000205DF808FB00BF4DF808EDFFF7E0FF90
:105AD00094BF012000205DF808FB00BF4DF808EDE1
