:020000040800F2
:1000000000500020792C0008C12C0008C12C0008E9
:10001000C12C0008C12C0008C12C00080000000001
:10002000000000000000000000000000C12C0008DB
:10003000C12C000800000000C12C00081D3C000875
:10004000C12C0008C12C0008C12C0008C12C0008DC
:10005000C12C0008C12C0008C12C0008C12C0008CC
:10006000C12C0008C12C0008C12C0008C12C0008BC
:10007000C12C0008C12C0008C12C0008C12C0008AC
:10008000C12C0008C12C0008C12C0008C12C00089C
:10009000C12C0008C12C0008C12C0008C12C00088C
:1000A000C12C0008C12C0008C12C0008C12C00087C
:1000B000C12C0008C12C0008C12C0008C12C00086C
:1000C000C12C0008C12C0008C12C0008C12C00085C
:1000D000C12C0008213C0008C12C0008C12C0008DC
:1000E000C12C0008C12C0008C12C00080000000031
:1000F0000000000000000000000000000000000000
:1001000000000000000000005FF808F183684279F9
:1001100000211A4403F8011B9342FBD1704700BF32
:1001200010B4C378914294BF002401248B4234BFA1
:1001300000210121807844EA010390428CBF002015
:1001400003F00100214008435DF8044B704700BFF5
:1001500043798B4204D2934234BF00200120704780
:100160000120704770B4CA784D78C4782A44013AA7
:1001700002F0FF02954294BF00230123AC4234BF3A
:1001800000240124867844EA030596428CBF0022AD
:1001900005F0010222B9234002D170BC1846704715
:1001A00040790B788A78834209D970BC1A44013AA5
:1001B00002F0FF0282428CBF002001207047012024
:1001C00070BC704700230B7083784B704379013B00
:1001D0008B70C378CB70704710B4CB784978012B03
:1001E0001FD0032B13D00C460023C27880788A429C
:1001F00034BF0022012242EA0301A0428CBF00204A
:1002000001F00100134018435DF8044B7047A1F161
:100210000802D2B291420C462CBF002301231146A2
:10022000E3E701F10804E4B2A14294BF00230123F3
:10023000DBE700BF10B404460846A36811466279A4
:100240005DF8044B00F08CBB01207047014B187027
:10025000704700BF00000020014608B5044804F0C4
:10026000E3F80348802104F061F90028F9D008BDC3
:100270000038014001700120704700BF0B7810B4B6
:100280005BB1024602F8013B11F8013F141A002B42
:10029000F8D120465DF8044B70471C46F9E700BFD3
:1002A000092B70B51E4602F1FF35044613D8002D08
:1002B0001BDD0B46411904F8013B8C42FBD1104673
:1002C0000B4BA3FB0623DB0803EB8303A6EB4303E3
:1002D00030330B7070BD064B2A46A3FB0653DB0878
:1002E000FFF7DEFF21180130EAE701460120E7E7CA
:1002F000CDCCCCCCF8B5002B05460F4627DB092B1F
:100300001E4602F1FF3219DC002A3CDD11462C4664
:10031000013904F8017BFBD1012AB8BF0122002B6F
:1003200015442BDB501C194BA3FB0623DB0803EB06
:100330008303A6EB430330332B70F8BD134BA3FBB1
:100340000643DB08FFF7D6FF05440130EBE75E42CA
:10035000092E02F1FF3408DD0C4B2246A3FB0643B5
:10036000DB085B42FFF7C6FFEEE7023A002AD8BF80
:100370000220CBDC2D2305F8013BD4E72D23901C74
:1003800005F8013BCFE70120CDE700BFCDCCCCCCB9
:100390002DE9F04182B0089E551E5FEA161E044604
:1003A00098461ED1002D24DD0F46431904F8017B29
:1003B0009C42FBD1104606F00F06092E0CD9B8F16D
:1003C000000F04D157361E7002B0BDE8F0813736F9
:1003D0001E7002B0BDE8F08130361E7002B0BDE87C
:1003E000F081CDF800E02A46FFF7D2FF2318013054
:1003F000E1E703460120DEE72DE9F0410F4682B038
:100400009E46064608B100230370002513785BB1B1
:10041000BD4280F09F80252B0ED0337001321378BF
:1004200001350136002BF3D1AF4240F293802846CC
:10043000337002B0BDE8F0815178252935D03029DC
:1004400038D00B46541CA3F13002092A4FF020018A
:1004500036D8002202EB820203EB420214F8013F7D
:10046000303AA3F13000092802F0FF02F2D9104619
:100470002844874238BF7A1BA3F1580338BFD2B251
:10048000202B6ED8DFE803F05A6D6D6D6D6D6D6DCC
:100490006D6D6D52486D6D6D6D486D6D6D6D6D6DF1
:1004A0006D6D6D386D2E6D6D1F003170023201352E
:1004B0000136ABE79378941CA3F13002092AC8D91E
:1004C00000200246D4E7DEF80030304600930023D7
:1004D0000EF10408FFF75CFFC6460346621C1E448B
:1004E000054493E7DEF8003030460EF10408FFF7CC
:1004F000D7FEC6460346F1E7DEF800100EF1040E03
:100500000B789BB3324602F8013B11F8013F901B78
:10051000002BF8D10346E1E7DEF8003030460EF15B
:100520000408FFF7E7FEC6460346D7E7DEF80020DB
:10053000012318460EF1040E3270CFE7DEF80030CA
:100540003046009301230EF10408FFF721FFC64651
:100550000346C3E70023681E06F8013C02B0BDE86D
:10056000F0814FF0FF3002B0BDE8F0811846B5E7EA
:100570000CB410B582B004AC54F8042B234601949B
:10058000FFF73AFF02B0BDE8104002B0704700BF6D
:1005900010B40C461346642122465DF8044BFFF765
:1005A0002BBF00BF0EB410B583B005AC54F8042BBC
:1005B000642123460194FFF71FFF03B0BDE81040FC
:1005C00003B07047084B10B55B6804469A688A42CE
:1005D00002D0DB688B4204D1E0B2FFF73DFE20463B
:1005E00010BD4FF0FF3010BD00000020F8B50746E9
:1005F0000078A8B10D460B4E002473689A689542A6
:1006000005D0DB689D4202D04FF0FF30F8BDFFF708
:1006100023FE17F8010F01340028EED12046F8BD63
:100620000446FBE700000020F0B5A3B06C468E4600
:1006300017460E4D06460FCD0FC40FCD0FC42D68C3
:1006400072463B4609A864212560FFF7D5FE632862
:1006500006DD074B68465B68D968FFF7C7FFFEE712
:1006600009A83146FFF7C2FF23B0F0BD848000081F
:1006700000000020034B0A465B6801469868FFF7BC
:10068000D3BF00BF000000200FB400B5074A83B0FD
:1006900004AB53F8041B50681A4680680193FFF7B7
:1006A000C3FF03B05DF804EB04B070470000002006
:1006B0000EB400B582B003AB53F8041B1A46019385
:1006C000FFF7B2FF02B05DF804EB03B0704700BF64
:1006D000024B5B689968FFF789BF00BF00000020EC
:1006E000044A05491368002B08BF0B4618441060E4
:1006F000184670471C090020841100204FF0FF307D
:10070000704700BF4FF0FF30704700BF4FF40053F9
:100710004B600020704700BF0120704700207047E9
:100720001046704710467047FEE700BF0A2A2DE9C1
:10073000F04790469A4605460C4652D0152A48D1B5
:100740004E68002200F0FCF828462146012200F005
:10075000DBF8B768B67807F1800918E0214628462B
:1007600000F0F6F828462146802200F0F1F82846ED
:100770002146012200F0E4F83B462846214610229B
:10078000103700F0EDF801364F45F6B21CD0284680
:100790002146002200F0D4F83E222846214600F0EF
:1007A000D7F8A6F120021F2E62F07F0346F08002E8
:1007B000D4D9DAB22146284600F0CAF828462146A4
:1007C000882200F0C5F8D2E728462146002200F032
:1007D0009BF82846214642465346BDE8F04703F0C1
:1007E000BFB9032200F07EF821462846054A00F0F2
:1007F000C7F82846214642465346BDE8F04703F075
:10080000AFB900BFA88000080A2A2DE9F047914639
:100810009A4606460D4652D0152A48D14C68002209
:1008200000F08EF830462946012200F06DF8A768E6
:10083000A47807F5007818E02946304600F088F8DB
:1008400030462946802200F083F8304629460122AE
:1008500000F076F83B46304629461022103700F06B
:100860007FF801344745E4B21CD0304629460022C7
:1008700000F066F83E223046294600F069F8A4F1FF
:1008800020021F2C62F07F0344F08002D4D9DAB238
:100890002946304600F05CF830462946882200F0B0
:1008A00057F8D2E730462946002200F02DF83046AE
:1008B00029464A465346BDE8F04703F059B803229B
:1008C00000F010F829463046054A00F059F8304645
:1008D00029464A465346BDE8F04703F049B800BFF1
:1008E000A880000810B48C680023A44601215DF89C
:1008F000044B604710B48C680021A4460A460B469E
:100900005DF8044B604700BF10B48C680023A44618
:1009100003215DF8044B604710B48C680022A446A4
:10092000134604215DF8044B604700BF10B48C6887
:100930000122A446042100235DF8044B604700BF58
:1009400010B48C680023A44602215DF8044B604774
:1009500010B48C680023A44605215DF8044B604761
:1009600010B48C680621A4465DF8044B604700BFB4
:1009700010B48C680721A4465DF8044B604700BFA3
:100980002DE9F04106460D4602F1FF38002318F824
:10099000014F5BB9FF2C1CD022463046AC680521C4
:1009A000A0470028F2D10020BDE8F081FF2C12D032
:1009B000FE2C45D0EF2CE9D8DF2C15D8CF2C1CD835
:1009C000BF2C23D82306E1D4204602F011FD0023DA
:1009D000DDE70123DBE722463046AC680521002332
:1009E000A0470028D2D1DEE704F00F020023AC6854
:1009F00030460221A0470023C9E704F00F0200237C
:100A0000AC6830460321A0470023C0E704F00F0480
:100A100024010022023413460421AF6804F0FE04CE
:100A20003046B847204602F0E3FC002304210122AF
:100A3000AF683046B847204602F0DAFC0023A6E74C
:100A40000120BDE8F08100BF30B589B002F04AFC5A
:100A50002448012104F0F2FD2248012104F0D2FDD6
:100A60002048214904F0D0FE0028F9D01D4820215B
:100A7000012204F027FE1B481C4904F0C5FE002893
:100A8000F9D01424202C08BF002425461548184905
:100A900004F0BAFE0028F9D0124804F00FFE08ABAB
:100AA0002B44132C03F8200C02D00134E4B2E9E704
:100AB0000C48002104F0C2FD0A48012104F0B0FDF9
:100AC0000C48002308AA02EB430111F8204C11F84E
:100AD0001F2C013342EA0422102B20F8022FF1D1FF
:100AE00009B030BD005400400100030002000300C3
:100AF000400003000A0E002038B502F0F3FB1F4847
:100B0000012104F09BFD1D48012104F07BFD1B48E1
:100B10001B4904F079FE0028F9D018482021002252
:100B200004F0D0FD1548174904F06EFE0028F9D0F6
:100B3000154C04F10C0534F8021F1048090A04F0A2
:100B4000BBFD0E48114904F05FFE0028F9D00B48A8
:100B5000217804F0B1FD09480C4904F055FE002845
:100B6000F9D0AC42E7D10548002104F067FDBDE8AB
:100B700038400248012104F053BD00BF005400403A
:100B800001000300820007000E0E00208400070011
:100B900070B54BF6FF7686B00820012101F034FDD8
:100BA0004FF420740223102201A947488DF8063023
:100BB000ADF804408DF8072001F0EEFA42484FF4FA
:100BC0000071002201F066FB3F488021002201F005
:100BD00061FB02F087FB01223B484FF4007101F0FA
:100BE00059FB02F07FFB0820012101F00DFDC0241C
:100BF0001C22032301A934488DF807208DF8063004
:100C0000ADF8044001F0C8FA4FF40010012101F0E2
:100C100007FD0120014601F0F7FC2C4804F026FCFA
:100C20002B4B012206AC44F8103D11460023274807
:100C30004FF48045ADF80E60ADF81020ADF80C30E3
:100C4000ADF81230ADF8145004F0B2FC21461F4844
:100C500004F02AFC1D484FF4003104F0EBFD04467B
:100C60000028F7D11B4DFFF7EFFE4FF40143EB8156
:100C7000FFF742FF4FF4FA7002F040FBFFF7E4FE8B
:100C800044F201016B892A8923F08F0342F4C05298
:100C900043F01103A9802A816B81FFF72DFF0E4DD0
:100CA0000E4B0F480F4922462C7003F10A0403F83B
:100CB000012BA34200F8012B01F8012BF7D16E2084
:100CC00002F01CFB06B070BD000C01400054004057
:100CD000801A06000C0E0020FC0D0020380E0020AB
:100CE0002C0E0020000E002070B5064642F22E2584
:100CF000FFF7AAFE41F6B0501A4C06EB8606628951
:100D0000194B02F0C002002A0CBF29460146C1EB74
:100D1000460083FB0023E288C01722F4FF72C0EB79
:100D2000A30322F0010213436FEA43436FEA5343E4
:100D3000E380FFF7E1FE322002F0E0FAFFF784FEE5
:100D4000A38A084D5A04F9D5FFF77EFEEB88C3F35A
:100D50000E03EB80FFF7D0FEFFF776FEA38A5B045D
:100D6000FAD470BD0C0E00206766666608B5FFF702
:100D70006BFE40F26B30064B5A89DB8A02F0C002F0
:100D8000002A18BF4FF43E70C3F30903184408BD8E
:100D90000C0E002008B5FFF757FE024B988AC0F3EF
:100DA000002008BD0C0E002008B5FFF74DFE024BD9
:100DB000988A00F07F0008BD0C0E002070B50C462C
:100DC0000546FFF741FE002C34D01E4CA38843F4A7
:100DD00080639BB2A38055B323F400739BB243F4AA
:100DE0008073A380FFF788FE01E002F087FAFFF727
:100DF0002BFEA38A134D13F4804F4FF03200F4D032
:100E0000FFF722FEAB88AE8A23F4807306F4005607
:100E1000AB80B6B2FFF770FE02F064FAFFF714FE83
:100E2000A38A5B04FAD4301C18BF012070BD43F4C0
:100E30000073D4E7034CA38823F480639BB2A380A0
:100E4000C9E700BF0C0E002010B50446FFF7FCFDFB
:100E5000002C0CDB0F2C0CDD0F20074ABDE81040E6
:100E6000538923F00F0318435081FFF745BE00203C
:100E7000F3E7A0B2F1E700BF0C0E002030B4094B3D
:100E8000094D002409480A4922462C7003F10A043E
:100E900003F8012BA34200F8012B01F8012BF7D135
:100EA00030BC7047380E0020FC0D00202C0E0020B6
:100EB000000E002003788BB10A78934204D00AE038
:100EC00011F8012F934206D110F8013F002BF7D102
:100ED0004878181A70471046181A70470878F8E7CB
:100EE0000B7803702BB111F8013F00F8013F002B84
:100EF000F9D17047F8B5FFF7A7FD464BB3F91420B9
:100F0000002A00DBF8BD1C8BE4B1598B01F4704062
:100F1000C1F3C02242EA102242F00A020A3A012A30
:100F2000F0D801F003013C4A4900DB8B555C180AFC
:100F30008542DBB201F1010415D000255054135550
:100F40001572F8BD354D344B3548364922462C7064
:100F500003F10A0403F8012BA34200F8012B01F866
:100F6000012BF7D1F8BD165D9E42E6D12C4B002037
:100F700006295D541E551872C4D1117800293ED03F
:100F80001878884204D0BDE713F8010F884235D1A4
:100F900012F8011F0029F7D15B78002BB2D1204B4A
:100FA0000122184619461C1D11F8015B002D08BFCF
:100FB0000022A142F8D1012AA4D1027822B3194813
:100FC000017891421DD1164E451C02E027788F42D0
:100FD00005D116F8011F2C4601350029F6D12478D9
:100FE0008C428FD002700F4A13F8011F02F8011FC4
:100FF0000029F9D1094B01221A70F8BDF8BD1B7800
:10100000CBE711460446EAE7064B197809B11A7096
:10101000F0E7F8BD0C0E0020380E0020FC0D00207B
:101020002C0E0020000E0020F0B5002483B00646F0
:10103000084602F021F91E4D8DF804408DF8054058
:101040008DF806408DF8074003E002F057F9032CB5
:1010500023DC02F017F900B3FFF7F6FCB5F9143002
:101060001E20002BF1DA6B8B02AA03F003031A4453
:1010700012F8041C282006EB43070029E5D1E98B70
:1010800001344FEA112E06F813E00123797002F8BB
:10109000043C02F033F9032CDBDD02F0F3F818B165
:1010A0000023337203B0F0BD307003B0F0BD00BF59
:1010B0000C0E0020034B186800FB01F0800802F0C2
:1010C00003B900BF200D0020F8B5102300F10C0774
:1010D000C37305463946406801F05EF87D24234E0F
:1010E00005E0013C3FD03068800802F0EDF8686808
:1010F000298901F0C1F80028F3D01C4E29896868BD
:10110000002201F0C7F83068C0EB001040018008F1
:1011100002F0DAF801222989686801F0BBF830682A
:10112000462303FB00F0800802F0CEF80423EB73A3
:101130006868394601F030F82989686801F092F84A
:10114000044610233946EB73686801F025F83068CF
:101150004FF4CD7303FB00F0800802F0B5F8B4FA49
:1011600084F04009F8BD2046F8BD00BF200D0020E6
:1011700070B50446124D13482D68134EA0FB0505AB
:1011800084E8060008462381AD0C0121356001F09A
:101190003BFA228910230325A281E373606804F1DE
:1011A0000C01A57300F0F8FF60682189012201F0AD
:1011B00071F8A5722046FFF787FF0028FAD070BDAE
:1011C0000805002083DE1B43200D002070B5044677
:1011D000102300F10C06C373174D3146406800F030
:1011E000DBFF21896068002201F054F8286880083C
:1011F00002F06AF801222189606801F04BF8286842
:1012000000EB4000800802F05FF80423E3733146EE
:10121000606800F0C1FF2189606801F023F804468E
:101220002868C0EB001020F0404002F04DF8201C70
:1012300018BF012070BD00BF200D002070B506460C
:10124000082400253046FFF7C1FF6D08631E10B16A
:1012500065F07F05EDB213F0FF04F3D1284670BDB1
:1012600070B504460D461023C37304F10C014068A9
:1012700000F092FFC5B9194E2A462189606801F035
:1012800009F8306800EB8010800802F01DF86068F3
:101290002189012200F0FEFF3068BDE8704000EBBC
:1012A0008000800802F010B80C4D2189606800228F
:1012B00000F0F0FF286800EB8000800802F004F8DE
:1012C00060682189012200F0E5FF2868BDE87040D0
:1012D000C0EB001020F0404001F0F6BF200D0020D0
:1012E00070B506460D46002445FA04F101F00101EF
:1012F00001343046FFF7B4FF082CF5D170BD00BFB4
:10130000704700BF70B505460024332646FA04F145
:1013100001F0010101342846FFF7A2FF082CF5D1A6
:1013200005F10F0405F117062846FFF787FF04F8BB
:10133000010FB442F8D170BD2DE9F04105460024FB
:10134000552646FA04F101F0010101342846FFF761
:1013500087FF082CF5D105F10F0705F1170817F8DD
:10136000016F002446FA04F101F00101013428461E
:10137000FFF776FF082CF5D14745F0D1BDE8F081A5
:1013800070B506460024CC2545FA04F101F00101B0
:1013900001343046FFF764FF082CF5D170BD00BF63
:1013A00070B506460024442545FA04F101F0010118
:1013B00001343046FFF754FF082CF5D1BDE87040EA
:1013C000034A044B106803FB00F0800801F07CBF67
:1013D000200D0020B0710B0070B506460024482592
:1013E00045FA04F101F0010101343046FFF738FFFE
:1013F000082CF5D1BDE87040034B186800EB800065
:10140000C0F35D0001F060BF200D00202DE9F8431E
:101410000546884617461E4600244FF04E0949FAF5
:1014200004F101F0010101342846FFF719FF082CEF
:10143000F5D1002448FA04F101F0010101342846F5
:10144000FFF70EFF082CF5D1002447FA04F101F054
:10145000010101342846FFF703FF082CF5D10024D1
:1014600046FA04F101F0010101342846FFF7F8FEC5
:10147000082CF5D1BDE8F88338B50C4605464B017C
:1014800043F01F03DBB24B214622FFF7BFFFAC72D4
:1014900038BD00BF2DE9F84305460E460024BE279F
:1014A00047FA04F101F0010101342846FFF7D8FEA4
:1014B000082CF5D12846FFF7C1FE04462846FFF761
:1014C000BDFE40F6310344EA002084B29C4218D8A5
:1014D000C4F3061004F074FE804604F00F00894641
:1014E00004F06EFE0022154B04F0D0FE02460B46BF
:1014F0004046494604F018FD05F002F93060BDE8A9
:10150000F8836442A4B2C4F3061004F059FE804686
:1015100004F00F00894604F053FE0022074B04F04C
:10152000B5FE02460B464046494604F0FDFC05F078
:10153000E7F800F100403060BDE8F8830000B03FFC
:10154000F8B505460E460024BE2747FA04F101F01F
:10155000010101342846FFF783FE082CF5D1284607
:10156000FFF76CFE04462846FFF768FEAB7A44EAB4
:10157000002080B2BBB1012B2AD0022B2AD040F62A
:1015800031039842144D13D9404284B2C4F306107B
:1015900004F016FE01F10043194605F089F8308089
:1015A00004F00F0009E00D4D40F631039842EBD8EE
:1015B000C0F30613338000F00F0005F0ABF92946A5
:1015C00005F0FCF905F04AFB012370603372F8BDA9
:1015D000034DE9E7034DE7E700401C440000203FCE
:1015E0000000C84000007A4270B505460024B826C5
:1015F00046FA04F101F0010101342846FFF730FEFC
:10160000082CF5D168682989012200F043FE064BB9
:10161000186800EB8000800801F056FE2846FFF7AE
:10162000D5FD0028FAD170BD200D002070B505460B
:101630000024B42646FA04F101F0010101342846E1
:10164000FFF70EFE082CF5D12846FFF7BFFD00304E
:1016500018BF012070BD00BFF8B506460D46002436
:10166000BE2747FA04F101F0010101343046FFF7CB
:10167000F7FD082CF5D105F108043046FFF7DEFD33
:1016800005F8010BA542F8D1F8BD00BF704700BFB7
:1016900041630320084700BF704700BF0A46024865
:1016A0004FF4804100F0F6BD000C014070B50646D5
:1016B00000F1E10400F1E50514F8013FEBB9237BEB
:1016C000ABB9AC42F8D130460F4903F02DFD06F11D
:1016D0007E050C2422460C342B4630460021E4B211
:1016E00003F07EFA482C05F11405F3D170BD3046A5
:1016F000217C227D01F062FBE3E730462179227AEA
:1017000001F05CFBDBE700BF8093000880F83C1031
:10171000704700BF70B50646104615460C4606F0E9
:101720005DFB062801D8022C00D970BDC4EBC404AF
:1017300030192A46BDE870403D300721FEF718BF3A
:1017400080F85210704700BF38B5054608460C4671
:1017500006F044FB132800D938BD05F1530022469A
:10176000BDE838401421FEF703BF00BF533000210D
:10177000142206F0CFBA00BF80F87310704700BF84
:1017800038B5054608460C4606F028FB092800D95E
:1017900038BD05F174002246BDE838400A21FEF745
:1017A000E7BE00BF80F86710704700BF80F8681080
:1017B000704700BF38B5054608460C4606F00EFBDC
:1017C000082800D938BD05F169002246BDE8384037
:1017D0000921FEF7CDBE00BF80F87210704700BF30
:1017E00070B50646104615460C4606F0F7FA132863
:1017F00001D8042C00D970BD04EB840406EB8400EE
:101800002A46BDE870407E301421FEF7B1BE00BF0D
:1018100010B403299DF8044006D8014481F8E24041
:1018200081F8E62081F8EA305DF8044B704700BF8C
:1018300010B403299DF8044006D8014481F8EE4015
:1018400081F8F22081F8F6305DF8044B704700BF54
:1018500070B5064600F17E0400F20E25204606F023
:10186000BDFA002102462046143406F053FAAC4279
:10187000F4D1002386F8E23086F8EE3086F8E330C3
:1018800086F8EF3086F8E43086F8F03086F8E530F8
:1018900086F8F13070BD00BF70B50446114E82B0BD
:1018A0001149124A00F098FA4FF48045022330465D
:1018B000102201A98DF806308DF80720ADF80450EC
:1018C00000F06AFC30462946002200F0E3FC0021CB
:1018D000142204F1530006F01DFA2046FFF7B8FF6A
:1018E00002B070BD000C01408404002009350008DE
:1018F00070B5064682B0012117220C2301F05EFA72
:10190000304600210F22082301F06EFA30460D21E7
:101910000F22082301F068FA02240025012D0CBFD4
:101920001023112304F1FF310093234604F1020434
:101930000CBF11221022C9B23046E4B201F03EFEC3
:101940000E2C85F00105E9D102B070BD30B504461A
:1019500083B001210B22062301F030FA204600213A
:101960000322082301F040FA20460721032208231E
:1019700001F03AFA07221546204604210A2301F015
:101980001DFA204600950B2105220D2301F016FEBD
:101990000923009320462A460D210B2301F00EFE59
:1019A00003B030BD10B5044672210F22022301F0AE
:1019B00005FA204675210F22022301F0FFF9204687
:1019C00078210F22022301F0F9F920467B210F2212
:1019D000022301F0F3F9022320467E210F2201F0B9
:1019E000EDF994F872300D2B00D810BD204672210D
:1019F0000C22032301F0F8F90323204673210C2263
:101A000001F0F2F994F87230172BEED920467521C7
:101A10000922062301F0E8F906232046762109224F
:101A200001F0E2F994F87230212BDED920467821BA
:101A30000622092301F0D8F909232046792106223C
:101A400001F0D2F994F872302B2BCED920467B21AD
:101A500003220C2301F0C8F90C2320467C21032229
:101A600001F0C2F994F87230352BBED920467E21A0
:101A700000220F2301F0B8F92046BDE810407F2175
:101A800000220F2301F0B0B92DE9F0410446FFF721
:101A90005DFF2046FFF72CFF2046364903F044FB4C
:101AA00000212422344B204603F09AF82046334983
:101AB00003F03AFB04F13D0604F152070C252A46D7
:101AC000334620461421073603F08AF80C35BE420F
:101AD000EDB2F4D194F85230B3BB0021402204F1AE
:101AE0005303204603F07CF8204640210022342393
:101AF00001F07AF9402320460021332201F05EF9FB
:101B000094F8673063B194F8683023BB20464921CC
:101B10001A2204F1690303F063F82046FFF742FF3D
:101B200094F873300BB9BDE8F0812046512126228C
:101B3000134B03F055F8204604F17403422132227E
:101B4000BDE8F04103F04CB82046002130220D4B97
:101B500003F046F8C1E72046064903F0E5FA2046BF
:101B60006C210822084B03F03BF82046034903F0A0
:101B7000DBFACBE7CCAA0008C080000880930008FD
:101B8000D0800008C4800008CC80000810B504464E
:101B900000F04CF905E0FFF777FF204600F04AF926
:101BA00058B194F83C302046002BF4D0FFF77EFD6E
:101BB000204600F03FF90028F3D110BD10B40C68A6
:101BC000A4465DF8044B604770B504460D46436B70
:101BD0000220984729460A222E6820460023B04753
:101BE0000546636B03209847636B0020984728469F
:101BF00070BD00BF70B504460D46436B0220984788
:101C0000636B012098472E68294620461422002342
:101C1000B04704F138032E68294620461722B04702
:101C2000636B0020BDE87040184700BFF8B504465C
:101C30000D46436B02209847636B012098472E683E
:101C40002046294615220023B047064630B12F68AA
:101C500029462046172204F13803B847636B002059
:101C600098473046F8BD00BF10B582B002AB03F80C
:101C7000012D0C680F22A04702B010BD10B480F8EF
:101C80002D2080F82E300C6800F12D03A44632225E
:101C90005DF8044B604700BF70B49DF80C609DF880
:101CA000105080F82D2080F82E3080F8306080F8B9
:101CB0002F500C6800F12D03A44670BC3B226047F6
:101CC00070B49DF80C609DF8105080F82D2080F8BD
:101CD0002E3080F8306080F82F500C6800F12D0312
:101CE000A44670BC2D22604710B582B00C68462215
:101CF0000DF10703A0479DF8070002B010BD00BF1B
:101D000010B582B00C6847220DF10703A0479DF87B
:101D1000070002B010BD00BF10B40C684822A446F2
:101D200000235DF8044B604730B50446416883B03A
:101D30000D680DF107034622A8479DF8073061683A
:101D400023700D680DF1070320464722A8479DF830
:101D50000730616863700D68204648220023A84759
:101D60006168E0740D68204604F138031722A84723
:101D700003B030BD10B541680446FFF725FF18B128
:101D80002046FFF7D1FF012010BD00BFF8B5044683
:101D90000F4600250126222383748560C5604574A3
:101DA0008561067480F8316003F0B6F8094B402273
:101DB00084F8286084F8295084F82A5084F82C503C
:101DC00084F82B20676063632046BDE8F840FFF786
:101DD000D1BF00BF8D1600082DE9F04104460F4623
:101DE000904600250126222383748560C5604574D2
:101DF0008561067480F8316003F08EF80A4B40224A
:101E000084F8286084F8295084F82A5084F82C50EB
:101E100084F82B20676063632046C7F80880BDE81C
:101E2000F041FFF7A7BF00BF8D1600084168FFF71C
:101E3000E1BE00BF836910B5044603B19847204650
:101E40006168BDE81040FFF7F1BE00BF10B582B079
:101E5000426802AB03F8011D146811460F22A04727
:101E600002B010BD416810B40C681022A4460023D3
:101E70005DF8044B604700BF416810B40C68112244
:101E8000A44600235DF8044B604700BF034630B40E
:101E9000446880F82D1080F82E2025682146AC4635
:101EA00030BC2D333222604770B49DF80C60456819
:101EB00080F82D1080F82E2080F8303080F82F60C8
:101EC0002C682946A44670BC00F12D033B226047D4
:101ED00070B49DF80C60456880F82D1080F82E20B5
:101EE00080F8303080F82F602C682946A44670BCFA
:101EF00000F12D032D226047F0B4456800278026AD
:101F000080F82D1080F82E2080F8313080F8307065
:101F100080F82F602C682946A446F0BC00F12D0300
:101F20003B22604730B583B09DF8185044688DF867
:101F300004108DF805208DF806308DF807502568BF
:101F400021463C2201ABA84703B030BD80F83110D8
:101F5000704700BF0B0A80F8311080F832307047AC
:101F60009208DB0801F0F80143EA421341EAD2018A
:101F700080F8313080F83210704700BF10B4C47C54
:101F8000282C0AD0302C15D080F8311080F832205F
:101F900080F833305DF8044B704702F0E00221F026
:101FA0001F0141EAD20141EA931380F831305DF814
:101FB000044B70479208DB0821F0070143EA421303
:101FC00041EAD20180F8313080F832105DF8044BDC
:101FD000704700BF90F83100704700BFC37C282BCA
:101FE00004D0022B0CBF032001207047FF20704754
:101FF000C37C302B0CD0282B06D0022B0CBF032324
:10200000012380F831307047FF2380F8313070476A
:10201000FF2380F8313080F832307047002070475D
:10202000002380F831307047C37C282B0CBF6D2013
:1020300001207047C37C282B0CBF6D23012380F83F
:102040003130704703780022013BC3708270027107
:10205000704700BF10B400240471017042705DF835
:10206000044BFFF7EFBF00BF837802784178134439
:10207000DBB28B42837012D210B4C478037922444D
:10208000D2B2914298BF01F1FF3203F1010398BF30
:10209000D2B20371C2705DF8044B0120704700207A
:1020A000704700BF08B52F4B98421ED02E4B984268
:1020B00025D02E4B98422CD02D4B984233D02D4B0F
:1020C00098423AD02C4B984241D02C4B984200D0A9
:1020D00008BD4FF48070012100F0AEFABDE8084061
:1020E0004FF48070002100F0A7BA0420012100F015
:1020F000A3FABDE808400420002100F09DBA0820A2
:10210000012100F099FABDE808400820002100F004
:1021100093BA1020012100F08FFABDE8084010208A
:10212000002100F089BA2020012100F085FABDE8E5
:1021300008402020002100F07FBA4020012100F05B
:102140007BFABDE808404020002100F075BA8020ED
:10215000012100F071FABDE808408020002100F064
:102160006BBA00BF00080140000C014000100140A4
:102170000014014000180140001C014000200140F3
:1021800008B50120014600F057FABDE808400120DB
:10219000002100F051BA00BF2DE9F041CD78EB06E7
:1021A00048BF8B78098805F00F0E48BF4EEA030E32
:1021B00011F0FF0F21D00668002301274FF00F0810
:1021C00002E00133082B17D007FA03F202EA0104F8
:1021D0009442F6D19A0008FA02FC26EA0C060EFA9E
:1021E00002F2282D46EA020631D0482D03F1010300
:1021F00008BF0461082BE7D10660FF2923D9466890
:10220000002301274FF00F0C02E00133082B19D0F7
:1022100003F1080207FA02F202EA01049442F4D13F
:102220009A000CFA02F826EA08060EFA02F2282DA5
:1022300046EA020609D0482D03F1010308BF0461F4
:10224000082BE5D14660BDE8F0814461DDE74461DB
:10225000B7E700BF4FF6FF710222042301808270AE
:10226000C37070478368194214BF01200020704773
:10227000806880B2704700BFC368194214BF012054
:1022800000207047C06880B2704700BF016170478E
:10229000416170470AB9416170470161704700BFF1
:1022A000C160704741F480338361816183618369D8
:1022B000836970474FF68073054A10B41468234051
:1022C000194341EA001010605DF8044B704700BFED
:1022D00000000140014B1860704700BF1C00204205
:1022E0000028194B00F44012B4BFDB695B68B2F5FB
:1022F000401F30B484B21ED0C20213D5C0F30345D0
:102300000322AA4023EA020343F0706319B1420D8D
:102310001201944023430C4A0028B4BFD361536098
:1023200030BC7047420D120104FA02F223EA0203A4
:1023300043F07063EAE7044D23F070636A6822F0AB
:1023400070626A60E2E700BF0000014001F0FC0338
:1023500003F1804303F5803301F0030110B48900D9
:102360009C680F228A4024EA02029A609A68884098
:1023700002439A605DF8044B704700BF014B186040
:10238000704700BFDC0020420D4B0E4A19684FF425
:102390001F0041F00101196059680A405A601A682B
:1023A00022F0847222F480321A601A6822F48022A9
:1023B0001A605A6822F4FE025A609860704700BFA3
:1023C000001002400000FFF80C4BB0F5803F1A6887
:1023D00022F480321A601A6822F480221A6008D02F
:1023E000B0F5802F04D11A6842F4A0221A60704719
:1023F00070471A6842F480321A6070470010024039
:1024000082B000230A4A019302E0B3F5A06F08D01E
:10241000136813F4003F019B03F101030193019B37
:10242000F3D0034B1868C0F3404002B0704700BFC0
:1024300000100240034A136823F0F80343EAC00087
:102440001060704700100240014B1860704700BFD9
:1024500000004242034A536823F47C1319430843A3
:102460005060704700100240014B1860704700BF79
:1024700060004242034A536823F00303184350604C
:10248000704700BF00100240024B586800F00C007B
:10249000704700BF00100240034A536823F0F00366
:1024A00018435060704700BF00100240034A536851
:1024B00023F4E06318435060704700BF00100240EF
:1024C000034A536823F4605343EAC00050607047E6
:1024D00000100240044A137819B923EA0000107072
:1024E000704718431070704709100240014B186084
:1024F000704700BFD8004242034A536823F4404368
:1025000018435060704700BF00100240064B002285
:1025100001281A701A7005D0042802D105221A70F9
:10252000704770471870704720100240014B1860C8
:10253000704700BF80044242024A136A1843106287
:10254000704700BF00100240014B1860704700BF89
:102550003C044242224A10B4536803F00C03042B9B
:1025600006D0082B26D01BB11E4A1346026001E09C
:102570001C4B03601A4A1C495468C4F303140C5DD5
:10258000E34043605468C4F302240C5D23FA04F46E
:1025900084605468C4F3C2240C5DE340C360526895
:1025A0005DF8044BC2F381320A44127CB3FBF2F3B0
:1025B0000361704753685168C3F38343C90303F150
:1025C000020307D55268920304D4064A02FB03F3C0
:1025D0000360CFE7054A02FB03F30360CAE700BFCD
:1025E0000010024000127A00CC04002000093D00D7
:1025F000044A536919B923EA00005061704718432F
:102600005061704700100240044A936919B923EAE7
:1026100000009061704718439061704700100240BD
:10262000044AD36919B923EA0000D06170471843FE
:10263000D061704700100240044AD36819B923EAF8
:102640000000D06070471843D0607047001002400F
:10265000044A136919B923EA00001061704718434E
:102660001061704700100240014B1860704700BFB6
:1026700040044242014B1860704700BF4C00424288
:10268000014B1870704700BF071002404309012B2F
:102690000BD0022B094B0CBF1A6A5A6A00F01F03B9
:1026A00022FA03F000F001007047044B1A6800F0B2
:1026B0001F0322FA03F000F00100704700100240EF
:1026C000024A536A43F0807353627047001002401D
:1026D000034B9B68184214BF01200020704700BFC5
:1026E00000100240014B1870704700BF0A100240F2
:1026F00030B5082487B0009404460025402180228C
:10270000422301910292039304951D4B1D494FF4FE
:10271000001200F0D3F920462946FF2200F0F6F916
:1027200020460121FF2200F0F1F920462946FF2230
:1027300000F0FAF92046FF22012100F0F5F92046C9
:10274000012100F029FA20462946FF2200F014FA60
:10275000FF222046012100F00FFA2946204600F012
:102760007FFA2046012100F07BFA4FF6FF72012329
:1027700084F85E50A4F85C2084F85F3007B030BD68
:10278000000C014000540040836D30B4052B04461A
:102790000EDC03EB430300EB830301220025D96128
:1027A0001D625A62A36D10461344A36530BC704786
:1027B000002030BC704700BF38B50121054600F04D
:1027C0004FFA00210446284600F04AFA44EA002065
:1027D00080B238BD80F85F10704700BF2DE9F0412E
:1027E00090F85F70044617B93846BDE8F081FFF7EE
:1027F000E3FF804640484146FDF746FF4FF6FF7332
:1028000098456CD094F85E103C480131C9B284F808
:102810005E10FDF739FF94F85E30032B3DD04FF684
:10282000FF73B4F85C209A4260D0984505D0002729
:10283000A4F85C803846BDE8F081A36D002B26DD4E
:10284000254600260DE05B10C25818442B6A52F84A
:1028500003C00022E047A36D0136B34205F10C0529
:1028600015DD31462648FDF70FFF6B6AB4F85C10A2
:10287000DA07E869E7D4D5F820C000EB6300E8E7A1
:102880004FF6FF752046FFF797FFA842FAD10023C5
:1028900084F85E304FF6FF78CAE7A36D002BEFDDBA
:1028A000254600260EE05B10C1582A6A184451F8EC
:1028B00002C001224146E047A36D0136B34205F153
:1028C0000C05DDDD31460F48FDF7DEFE6B6AE86979
:1028D000D907E8D4D5F820C000EB6300E9E700236E
:1028E00084F85E300848FDF7F3FE94E7C2EB080772
:1028F000B7FA87F77F099BE7D8800008EC800008CB
:1029000064810008348100081481000870B5044611
:102910004BF6FF7686B001210069FFF775FEA28AAB
:10292000E38AE06813431C25032201A9ADF80430B3
:102930008DF806208DF80750FFF72EFCA0680121C6
:10294000FFF76EFE01200146FFF75EFE606802F0B1
:102950008DFD114B06A941F8103D6068002301254B
:102960004FF48042ADF80E60ADF80C30ADF8123087
:10297000ADF81050ADF8142002F096FD29466068BD
:1029800002F016FE60684FF4003102F053FF002899
:10299000F8D106B070BD00BF801A060038B50446F5
:1029A0000D4600F09FFC6068012102F02BFE60687C
:1029B0001F4902F029FF0028F9D06068217E00221B
:1029C00002F080FE60681B4902F01EFF0028F9D06B
:1029D0002946606802F070FE6068174902F014FF33
:1029E0000028F9D06068012102F00CFE60681049EF
:1029F00002F00AFF0028F9D06068217E012202F06F
:102A000061FE60680D4902F0FFFE0028F9D06068A1
:102A10000B4902F0F9FE0028F9D0606802F04EFE82
:102A200005460121606802F0FBFD284638BD00BF65
:102A30000100030082000700840007000200030079
:102A40004000030070B504460E46154600F04AFCEF
:102A50006068012102F0D6FD6068154902F0D4FEDD
:102A60000028F9D06068217E002202F02BFE606809
:102A7000104902F0C9FE0028F9D03146606802F022
:102A80001BFE60680C4902F0BFFE0028F9D0294601
:102A9000606802F011FE6068074902F0B5FE002888
:102AA000F9D060680121BDE8704002F0B9BD00BFF7
:102AB0000100030082000700840007002DE9F041B7
:102AC000069FBDF81CC0BDF820E0BDF824609DF84D
:102AD00028504FF00008044641608260C36080F8CF
:102AE00000800761A0F814C0A0F816E0068315B1B5
:102AF000FFF70CFF2578044B204613F835102822E9
:102B0000BDE8F041FFF79EBF9481000810B404783F
:102B1000044B01EB440103EB8103197C5DF8044B8A
:102B2000FFF790BF9481000810B40478054B01EBC7
:102B3000440103EB810393F820105DF8044BFFF789
:102B400081BF00BF9481000838B50D460446094B8B
:102B500001783DB113F83110A822FFF773FF01236C
:102B6000237038BD282213F83110FFF76BFF257052
:102B700038BD00BF9481000810B40478054B01EB08
:102B8000440103EB810393F830105DF8044BFFF729
:102B900059BF00BF9481000870B50E4603780A4DF6
:102BA000044615F83310FFF7F9FE4EB900F0BF02E6
:102BB0002378204615F83310BDE87040FFF742BF78
:102BC00040F04002D2B2F3E79481000870B50E469F
:102BD00003780A4D044615F83310FFF7DFFE56B1AF
:102BE00040F00202D2B22378204615F83310BDE837
:102BF0007040FFF727BF00F0FD02F4E79481000862
:102C000010B40478054B01EB440103EB810393F806
:102C100040105DF8044BFFF715BF00BF948100081A
:102C200010B40478054B01EB440103EB810393F8E6
:102C300050105DF8044BFFF705BF00BF94810008FA
:102C400010B40478054B01EB440103EB810393F8C6
:102C500060105DF8044BFFF7F5BE00BF94810008DB
:102C60000278044B01EB420103EB810393F87010EF
:102C7000FFF794BE94810008002103E00A4B5B58E3
:102C80004350043109480A4B42189A42F6D3094A84
:102C900002E0002342F8043B074B9A42F9D302F0CA
:102CA000FBFD00F0D5FF704778B70008000000205A
:102CB0001C0900201C0900208411002000000000D5
:102CC000034B1A68D2B2FEE7AFF30080AFF3008087
:102CD00004ED00E02DE9F047072B82B09946074646
:102CE0008A4616461CD91D460C464FF0FF08083D83
:102CF0002146CDF80080384632460023EDB2FFF77A
:102D0000D3F80834072DE4B2F1D8A9F1080303F091
:102D1000F8030AF1080A9A440AF0FF0A09F00703C7
:102D20007BB183F007030133FF2203F0070302FAAC
:102D300003F3DBB200933846514632460023FFF7D7
:102D4000B3F802B0BDE8F0872DE9F047072B82B059
:102D5000994607460E4692461CD91D4614464FF02A
:102D6000FF08083D2246CDF8008038463146012351
:102D7000EDB2FFF799F80834072DE4B2F1D8A9F1C4
:102D8000080303F0F8030AF1080A9A440AF0FF0A5C
:102D900009F007037BB183F007030133FF2203F03F
:102DA000070302FA03F3DBB200933846314652467A
:102DB0000123FFF779F802B0BDE8F087F0B50124F0
:102DC00083B0009407460E4615461C4602F052FAA0
:102DD00008B903B0F0BD384631462A46234603B051
:102DE000BDE8F040FFF776BFF0B51C4683B0012385
:102DF000009407460E46154602F03CFA08B903B0A7
:102E0000F0BD384631462A46234603B0BDE8F040BF
:102E1000FFF79ABF2DE9F04182B09DF820400646A9
:102E200000940D461746984602F024FA10B902B0F5
:102E3000BDE8F081304629463A464346FFF74AFF4F
:102E4000304629463A462346FFF77EFF08F1FF3118
:102E5000294430463A462346C9B2FFF775FF30464B
:102E600029464346621E3A44D2B202B0BDE8F04160
:102E7000FFF730BF2DE9F04180460F4615461E464C
:102E80009DF818402A46334640463946FFF722FF50
:102E9000631E013513F0FF04EDB2F3D1BDE8F081FC
:102EA0002DE9F04182B09DF82040804600940F4605
:102EB00016461D4602F0DEF910B902B0BDE8F081F9
:102EC0004046394632462B46089402B0BDE8F041F0
:102ED000FFF7D0BF2DE9F04F87B09DF84050064670
:102EE0000095894692461F469DF8444002F0C2F97B
:102EF00010B907B0BDE8F08F2B1BDBB21A460AEB06
:102F00000403D9B26FEA0408084609EB040C5FFA1F
:102F10008CFCB8440223614604920390009302F1B2
:102F2000FF3B23460246C8443046CDF814C05FFA42
:102F300088F802F017FE01234146039A00933046B9
:102F4000234602F00FFED344DDF814C05FFA8BFB7A
:102F5000042361465A4600933046234602F002FE9F
:102F600008235A464146009330462346C4F1FE08E2
:102F700002F0F8FD5FFA88F8DDF814C0C4EB08042D
:102F80000398049A3C440CF1010C5FFA8CFCE4B207
:102F90002346614600F1010B904430465246CDF87D
:102FA0000CC0FFF797FEDDF80CC06A1E5244614664
:102FB0005FFA8BFB5FFA88F823463046D2B2FFF700
:102FC00089FE304649465A464346FFF7BDFE5A46FB
:102FD00043463046791E4944C9B207B0BDE8F04FB8
:102FE000FFF7B2BE2DE9F04F85B09DF83850064688
:102FF00000958B4617469A469DF83C4002F03AF9F8
:1030000010B905B0BDE8F08F6FEA04092D1BEBB2D3
:1030100007EB040C0BEB04055FFA8CFC0293EDB29A
:1030200003F1FF38022329466246009330462346C7
:10303000D144CDF80CC0D94402F0F2FDDDF80CC04B
:103040005FFA89F9012362464946009330462346D8
:10305000B84402F0E5FD5FFA88F8042342462946A9
:1030600000933046234602F0DBFD082349464246E2
:1030700000933046234602F0D3FDC4F1FE03DBB2D9
:10308000C4EB03090299D14401350134EDB25FFA72
:1030900089F9E4B23A463046CF1800944B462946A7
:1030A000FFF7E8FE42464B46294630460094FFF7BC
:1030B000E1FE304659465346DDF80CC0FFB20CF134
:1030C0000102D2B20E9705B0BDE8F04FFFF7D2BEB5
:1030D00030B5054687B01748FDF7FAFA00244023BB
:1030E000082180228DE80A00284603930292124BA1
:1030F000049412494FF40012FFF7E0FC28462146E1
:103100002246FFF703FD284622460121FFF7FEFC79
:10311000284621462246FFF793FD284622460121F4
:10312000FFF78EFD0648AC8307B0BDE83040FDF7E1
:10313000CFBA00BF44820008000C01400054004098
:103140006482000838B50D460446818B42B1124BAB
:1031500012482A46FDF798FAA38B1D4208D038BDC5
:103160000F4B0E482A46FDF78FFAA38B1D4211D054
:103170000C48FDF7ADFAA28B20466A40A2830021DD
:10318000120AFFF75DFD2046227F0121BDE838408D
:10319000FFF756BD38BD00BFE8820008A4820008D2
:1031A000E082000884820008012070470349044B34
:1031B0000448002A08BF1946FDF766BAE8820008ED
:1031C000E0820008B0B1000838B50B4D0B4A2B68FF
:1031D0000446DB07026005D5094A0A4B6260A3601A
:1031E000204638BD284602F087FE0028F4D0284645
:1031F00002F08EFEF0E700BFA40D002090B10008A1
:10320000440D0020240D002001464068FFF7BCBAA1
:103210000E4B0F491B680F4AA2FB0302A1FB0313CD
:103220000D49920C9B090A60013BB3F1807FFCD2EF
:1032300030B40A4A0A4CF0255360002084F8235029
:103240000721906030BC1160704700BF0805002066
:10325000D34D621083DE1B43A80D002010E000E078
:1032600000ED00E0034B5A6812B15A68013A5A6007
:10327000704700BFA80D0020014B5860704700BF89
:10328000A80D0020014B5868704700BFA80D002012
:10329000704700BF034A012353605368002BFCD1E1
:1032A000704700BFA80D002010F1FF30054A4FF015
:1032B000010106D351605368002BFCD110F1FF309F
:1032C000F8D27047A80D002001387FF4FDAF704799
:1032D000034B1B6803FB00F08008FFF7F5BF00BF3E
:1032E000A80D0020044A4FF47A73106803FB00F025
:1032F0008008FFF7E9BF00BFA80D002080B170B5BE
:103300000646084A4FF47A731568002403FB05F556
:10331000AD0801342846FFF7D7FFB442F9D170BD9C
:10332000704700BFA80D00204FF4E13000F022BA32
:1033300008B50220FCF78AFF044B1868FDF7A4F9D2
:10334000BDE808400120FCF781BF00BFE004002079
:1033500008B50220FCF77AFF044B5868FDF794F992
:10336000BDE808400120FCF771BF00BFE004002069
:1033700008B50220FCF76AFF044B9868FDF784F952
:10338000BDE808400120FCF761BF00BFE004002059
:1033900008B50220FCF75AFF044BD868FDF774F912
:1033A000BDE808400120FCF751BF00BFE004002049
:1033B00008B50220FCF74AFF044B1869FDF764F9D1
:1033C000BDE808400120FCF741BF00BFE004002039
:1033D00008B50220FCF73AFF044B5869FDF754F991
:1033E000BDE808400120FCF731BF00BFE004002029
:1033F000B0B12DE9F0410546DFF82C80094F0024DB
:103400004FF47A76D8F80030013406FB03F3A7FBBB
:1034100003304008FFF758FFAC42F3D1BDE8F0811C
:10342000704700BFABAAAAAAB00D0020034B044806
:103430001B68A0FB03304008FFF746BFB00D00201B
:10344000ABAAAAAA054B06481B6803EB83035B00E3
:10345000A0FB03304008FFF737BF00BFB00D0020CE
:10346000ABAAAAAA70B5082086B01E4D0121FFF7AD
:10347000CBF84FF480200121FFF7D2F81A4C2846F0
:1034800001A94FF4806203231826ADF804208DF8BB
:1034900006308DF80760FEF77FFE284601A904225A
:1034A0004FF400638DF80720ADF804304FF4164553
:1034B000FEF772FE00230C22204602A9ADF814305C
:1034C000ADF81030ADF80E30ADF80C30ADF812207C
:1034D000029500F0B1FE2046012100F02FFF06B05A
:1034E00070BD00BF000C014000480040014608B517
:1034F000044800F099FF0348802101F017F80028E4
:10350000F9D008BD0048004070B5013982B01C46B2
:10351000062913D8DFE801F0042B1212153131000F
:10352000224B23491B68234AA1FB03134FF4FA7073
:103530009B0C1360FFF75CFFFFF794FF012002B0C4
:1035400070BD1C4C01922079400000F0FE00FFF796
:10355000CDFF019A1046FFF7C9FF23681648A0FB6C
:1035600003304008FFF7B0FE012002B070BD114BE0
:10357000CAB91A71012002B070BD002ADED0551EF2
:10358000EDB201350B4E25443079400000F0FE00CD
:10359000FFF7ACFF14F8010BFFF7A8FFAC42F3D123
:1035A000012002B070BD01221A71E3E70805002076
:1035B00083DE1B43B00D0020ABAAAAAA2DE9F04F71
:1035C00083B09DF8309099428CBFCE1A5E1A4A455E
:1035D0000C461D4607469346F6B20CD9C9EB020AC3
:1035E0005FFA8AFA564549D2AB464C46154689469B
:1035F0004FF001080CE0C2EB090A5FFA8AFA56455F
:103600002CD21A464D465C4691468B464FF0010837
:10361000CB4534BF0123FF23CAF347090193FF2D94
:1036200008BFFE25AC4210D947E021465A46FEF7B6
:103630002DFCC6EB0903DBB25FFA83F9013419F004
:10364000800FE4B230D1A54237D33846B8F1000F2D
:10365000EBD059462246FEF719FCEAE799421DD9FC
:10366000224633462C461546FF22CB464FF0000833
:10367000C6F34709019256469A46D0E799420DD9BA
:10368000224633462C4615460122CB464FF0000811
:10369000C6F34709019256469A46C0E753464FF093
:1036A0000008B2461E46B3E7019A53449344A5422C
:1036B0005FFA8BFB5FFA83F9C7D203B0BDE8F08FE6
:1036C000F0B5074687B0294C01210420FEF79CFF86
:1036D0004FF480400121FEF797FF182520466946E8
:1036E0004FF4007203238DF80350ADF800208DF8DD
:1036F0000230FEF751FD042269464FF480632046F4
:103700008DF80320ADF80030194EFEF745FD4FF45B
:10371000E06001F047FE00240125252301A88DF873
:1037200004308DF805408DF806408DF8075001F003
:1037300043FE0C23304602A9ADF812300297ADF8D3
:103740001440ADF81040ADF80E40ADF80C4000F05C
:1037500073FD30462A4640F2255100F0FDFD30460B
:10376000294600F0EBFD07B0F0BD00BF00080140A6
:1037700000380140F0B5074687B01D4E01210420F6
:10378000FEF742FF04254FF400300121FEF748FF09
:10379000184C182230460DEB050103238DF8072045
:1037A0008DF80630ADF80450FEF7F6FC30460DEB10
:1037B00005010823ADF804308DF80750FEF7ECFC46
:1037C00000230C22204602A9ADF81430ADF81030C9
:1037D000ADF80E30ADF80C30ADF81220029700F0C5
:1037E0002BFD2046012100F0A9FD07B0F0BD00BF70
:1037F0000008014000440040044A0549136810B421
:103800005C1C1460C8545DF8044B7047B80D002070
:103810008C0F0020014B00221A607047B80D002069
:10382000004870478C0F0020014B1868C0B27047E9
:10383000B80D002083684279002103EB820203F86F
:10384000011B9342FBD170474271816001EB820200
:10385000002301F8013B9142FBD17047F0B40E46C2
:1038600085784479521B01F007078021D5B2E4081E
:10387000F2083941806805FB0422C9B22BB9835C88
:1038800023EA01018154F0BC7047835C19438154E1
:10389000F0BC704710B40C464A788178914206D843
:1038A000C178914203D3437921788B4202D85DF8E5
:1038B000044B704723795DF8044BFFF7CFBF00BF7F
:1038C00070B50D4606468C7823061AD4EB78032B88
:1038D00006D8DFE803F0120A0E026B78013B6B702A
:1038E000640014F0FF04EFD170BD6B7801336B708E
:1038F000F6E72B78013B2B70F2E72B7801332B7026
:10390000EEE730462946FFF7C5FFDFE72DE9F04136
:10391000CB780D4606468C78032B26D8DFE803F0DB
:103920001F1B1702FF274FF0000809E02A786B7869
:10393000640042443B4414F0FF042A706B7012D0C0
:103940002306F3D530462946FFF7A4FFEEE700270C
:103950004FF0FF08F4E701274FF00008F0E70027D9
:103960004FF00108ECE7BDE8F0810027B846E7E733
:1039700010B5143A82B04C68332A23D8DFE802F03D
:103980002A392248222222222222222222222222D2
:1039900022222222222222222222222222224F22DA
:1039A000222222222222221A2222222222222222FF
:1039B00022225625194620460193FCF70DFC019B57
:1039C000002838D1012002B010BD627801201A70A1
:1039D00002B010BDA3686279002103EB820203F8F4
:1039E000011B9342FBD12046FEF72CFB012002B0C5
:1039F00010BD2046FEF738FB0028E4D0A3686279AA
:103A0000002103EB820203F8011B9342FBD1D9E7AB
:103A100020461946FCF7D6FB012002B010BD204617
:103A20001946FFF737FF012002B010BD627901206F
:103A30001A7002B010BD20461946FFF767FF01203B
:103A4000C1E700BF81604271FCF760BB30B484788D
:103A50004579121BED0802FB05F2802401F00705F1
:103A6000D2B22C4102EBD1018068E2B22BB9435CA7
:103A700023EA0202425430BC7047435C1A4342546A
:103A800030BC704710B40C464A788178914206D811
:103A9000C178914203D3437921788B4202D85DF8F3
:103AA000044B704723795DF8044BFFF7CFBF00BF8D
:103AB00070B50D4606468C7823061AD4EB78032B96
:103AC00006D8DFE803F0120A0E026B78013B6B7038
:103AD000640014F0FF04EFD170BD6B7801336B709C
:103AE000F6E72B78013B2B70F2E72B7801332B7034
:103AF000EEE730462946FFF7C5FFDFE72DE9F04145
:103B0000CB780D4606468C78032B26D8DFE803F0E9
:103B10001F1B1702FF274FF0000809E02A786B7877
:103B2000640042443B4414F0FF042A706B7012D0CE
:103B30002306F3D530462946FFF7A4FFEEE700271A
:103B40004FF0FF08F4E701274FF00008F0E70027E7
:103B50004FF00108ECE7BDE8F0810027B846E7E741
:103B600010B5143A82B04C68332A22D8DFE802F04C
:103B70002932213C21212121212121212121212101
:103B80002121212121212121212121212121432103
:103B9000212121212121211A21212121212121211C
:103BA00021214A24194620460193FCF715FB019B6D
:103BB00068BB012002B010BD627801201A7002B00B
:103BC00010BD2046FCF7A2FA2046FEF73BFA012082
:103BD00002B010BD2046FEF747FA0028EAD0204682
:103BE000FCF794FA0120E5E720461946FCF7EAFACB
:103BF000012002B010BD20461946FFF743FF012007
:103C000002B010BD627901201A7002B010BD2046CA
:103C10001946FFF773FF0120CCE700BFFFF722BB77
:103C200008B5094840F2255100F08AFC00B908BDEA
:103C3000054800F0FDFBC0B27428F8D1BDE808408B
:103C40000248FCF745BD00BF0038014038B300080A
:103C500070B54FF4E1308EB0FFF732FDFFF764FB33
:103C6000FFF7D6FA9E48FCF733FDFCF791FF40F2D0
:103C7000F230FDF739F84FF44870FFF73FFBFDF7DE
:103C800075F80346974D014697482B60FCF7FCFCFE
:103C900000200146FDF792F80A20FDF7D5F8934879
:103CA000FCF716FD9248FCF713FD924A012304210C
:103CB000281DFDF75DFA281DFDF706FA281DFDF702
:103CC00003FA281DFDF75CFB0021281DFDF7D4FB3E
:103CD000281DFDF7F9F9281DFDF714FB8648FCF7B0
:103CE000F7FC05F1130405F11B0614F8011F8348C6
:103CF000FCF7CAFCB442F8D18148FCF7E9FC8148E2
:103D0000FCF7E6FC4FF40054022310227E4801A980
:103D10008DF806308DF80720ADF80440FEF73CFA28
:103D2000012221467848FEF7B5FA7848FCF7D0FC26
:103D3000FFF7FEFA7648FCF7CBFC7648FDF7ACFDC2
:103D400074480121FDF7E2FC734A00217148FDF738
:103D500047FD7048FDF71AFF704E6E480121FDF7D0
:103D60009DFC6F48FFF7B4F93368DA0740F1AE8085
:103D70006C48FEF7BDFC6C4801F0A8FA02A8FFF7FA
:103D800023FA02A8FFF740FA08A800F0EDF808A807
:103D900000F00EF95F480021FDF7B8FC6348FCF71E
:103DA00097FC6348FDF790F96148FDF7E9FA604830
:103DB00005A9FDF7C5FB5F49BDF91420069B5E48C8
:103DC000FCF7F0FB5B49BDF91420069B5B48FCF750
:103DD000E9FB069B5749BDF914205948FCF7E2FB63
:103DE0004C480021544AFDF795FC4A480121544AA9
:103DF000FDF790FC514A47480221FDF78BFC4548EE
:103E00000121FDF7B9FC43484E49FDF7B9FC0121FA
:103E10004048FDF7C7FCFCF7A9FF04464A4AC31710
:103E200082FB0012C3EBA20202EB8203A0EB43036E
:103E3000464947482C60FCF7B5FB45493548FDF736
:103E4000B9FCFCF7A7FF01463248FDF7AFFCFCF7D1
:103E5000ABFFC1B22F48FDF7BFFC3368DB072CD5A1
:103E60003048FEF7BBFC2B48FDF790FE3048FDF7CD
:103E70002BF92F48FDF784FA2D48FDF791FAFDF74D
:103E800039F8E96B3348FCF7FFFB3148FCF7FCFBE2
:103E90003148FCF71DFC95F84030002B81D02F49AC
:103EA0001C48FDF751FC2E48FCF7EEFB2B48FCF7B5
:103EB000EBFB2C48FCF70CFC73E7184802F01CF8ED
:103EC0000028CDD0154802F023F8C9E7304602F0AB
:103ED00013F800283FF44CAF304602F019F847E7DA
:103EE0000CB20008BC0D002020B200082CB2000863
:103EF00040B20008000801405CB200087CB2000833
:103F000084B2000894B20008000C0140A8B2000876
:103F1000B8B20008440E0020DCB20008A40D002056
:103F2000240D0020440D0020400F0020E8B20008BE
:103F3000C00D0020FCB20008D80D0020E00D0020CC
:103F4000E80D002004B300086766666610B3000839
:103F5000F00D00201CB3000840B30008000E002044
:103F600030B3000890B2000838B50C4D0C4A2B68ED
:103F70000446DB07026007D50A490B4A0B4B616018
:103F8000A260E360204638BD284601F0B5FF002856
:103F9000F2D0284601F0BCFFEEE700BFA40D0020E0
:103FA00050B30008440D0020400F0020240D0020D5
:103FB00010B504460548FCF78BFB60682146FEF708
:103FC000E3FBBDE810400248FCF782BB70B3000879
:103FD00090B3000810B50446027C4FF4006182F0F3
:103FE0000102C0682274FFF7ADF8A068227C4FF48C
:103FF0008071BDE8104001F0A3B900BF10B50446C0
:10400000427C4FF4805182F00102C0686274FFF775
:1040100099F8A068227C4FF40071BDE8104001F0CF
:104020008FB900BF10B50446827C4FF4007182F056
:104030000102C068A274FFF785F8A068227C4FF4E3
:104040008061BDE8104001F07BB900BF10B50446A7
:10405000C27C4FF4806182F00102C068E274FFF715
:1040600071F8A068227C4FF40061BDE8104001F0B7
:1040700067B900BF10B50446027D4FF4004182F0DD
:104080000102C0682275FFF75DF8A068227C4FF43A
:104090000051BDE8104001F053B900BF10B504460F
:1040A000427D4FF4807182F00102C0686275FFF7B3
:1040B00049F8A068227C4FF48041BDE8104001F02F
:1040C0003FB900BF70B52D4B2D4E0C460546002A5A
:1040D00014BF314619462B48FCF7D6FA4FF6FF625B
:1040E00044F47E4343F0FF0393422DD04FF6FF523A
:1040F00044F47D4343F0FF0393422AD04FF6FF324E
:1041000044F47B4343F0FF03934227D04FF2FF7206
:1041100044F4774343F0FF03934224D04DF6FF72FB
:1041200044F45F4343F0FF03934221D04BF6FF7307
:1041300044F43F4444F0FF049C4200D070BD284644
:10414000BDE87040FFF7AABF2846BDE87040FFF702
:1041500041BF2846BDE87040FFF750BF2846BDE884
:104160007040FFF75FBF2846BDE87040FFF76EBFA5
:104170002846BDE87040FFF77DBF00BFE082000821
:10418000E8820008B0B3000808B5264B984218D062
:10419000254B984221D0254B98422AD0244B984257
:1041A00033D0244B984200D008BD4FF48010012139
:1041B000FEF74EFABDE808404FF480100021FEF7EC
:1041C00047BA4FF480400121FEF736FABDE80840B7
:1041D0004FF480400021FEF72FBA4FF40030012148
:1041E000FEF736FABDE808404FF400300021FEF734
:1041F0002FBA4FF480200121FEF72AFABDE80840CB
:104200004FF480200021FEF723BA4FF40020012153
:10421000FEF71EFABDE808404FF400200021FEF72B
:1042200017BA00BF00380140004400400048004079
:10423000004C00400050004070B504460D46038A13
:10424000CA889BB223F440531343038282898B882C
:10425000088992B24989034322F4B0520B4322F0F9
:104260000C0213439BB2A381A38AAA899BB223F4B5
:10427000407386B01343A38201A8FEF76BF91B4875
:10428000039B0499A289844208BF0B4612B2002AFC
:104290002A6803EB8303B4BF5200920003EB83034D
:1042A000B3FBF2F3124EA589A6FB03202DB2400901
:1042B0006422002D00FB12334FEA00100ADB1A01C2
:1042C0003232A6FB0223C3F3431303439BB2238181
:1042D00006B070BDD9003231A6FB0131C1F34212E4
:1042E00042EA00039BB2238106B070BD0038014052
:1042F0001F85EB5100234FF416510C2201604281BF
:104300008380C38003818381704700BF30B40B88F2
:104310004D888C88028A2B43C988234392B20B4371
:1043200022F4706213439BB2038230BC704700BF1B
:104330000023038043808380C3807047838929B929
:1043400023F400531B041B0C838170479BB243F47E
:1043500000538381704700BF10B401F01F04C1F304
:1043600042110123012903FA04F311D002290CBFE1
:104370001030143032B902685DF8044B22EA0303AE
:104380000360704702685DF8044B13430360704795
:104390000C30EFE7838A9BB21AB923EA01018182CC
:1043A0007047194381827047038A23F00F031B046F
:1043B0001B0C0382038A9BB219430182704700BF22
:1043C000838923F400631B041B0C838183899BB2C4
:1043D00019438181704700BF838929B923F0020303
:1043E0001B041B0C838170479BB243F00203838143
:1043F000704700BF038A23F020031B041B0C0382B9
:10440000038A9BB219430182704700BF038A29B90E
:1044100023F480431B041B0C038270479BB243F4BC
:1044200080430382704700BFC1F308018180704759
:104430008088C0F30800704783899BB243F0010372
:1044400083817047038BDBB20383038B9BB243EA08
:1044500001210183704700BF038B03F47F43038373
:10446000038B9BB219430183704700BF838A29B92C
:1044700023F020031B041B0C838270479BB243F084
:1044800020038382704700BF838A29B923F0100379
:104490001B041B0C838270479BB243F01003838282
:1044A000704700BF838A29B923F008031B041B0C43
:1044B000838270479BB243F008038382704700BF3A
:1044C000838919B9C3F30E03838170476FEA4343AD
:1044D0006FEA53439BB28381704700BF838A29B937
:1044E00023F400631B041B0C838270479BB243F4CC
:1044F00000638382704700BF838A23F004031B0498
:104500001B0C8382838A9BB219438182704700BF50
:10451000838A29B923F002031B041B0C8382704792
:104520009BB243F002038382704700BF03881942A5
:1045300014BF012000207047C94389B20180704731
:10454000C1F3421210B4012301F01F04012A03FA3F
:1045500004F316D0022A0CBF028A828A92B2134058
:10456000028892B24BB1090A01238B40134214BF57
:10457000012000205DF8044B704718465DF8044B9D
:104580007047828992B21340EAE700BF090A01230B
:104590008B40DB439BB20380704700BF43185B78BE
:1045A000405C03EB002080B2704700BF00207047E2
:1045B00090F82A00704700BF90F829000130C0B27F
:1045C000704700BF90F82A2090F829309B1A5BB200
:1045D00003EBD37302EB6300C0B2704700787047FF
:1045E00000787047704700BF08B5FFF7FBFF18B1B0
:1045F000022801D0032008BD062008BD407970477D
:104600000621CBE70821C9E7807A7047C07A704756
:1046100090F90C00704700BF90F90D00704700BF83
:1046200090F90E00704700BF90F90F00704700BF6F
:1046300090F91000704700BFF8B504780646204690
:10464000FFF7D0FF07462046FFF7CEFF054630466E
:10465000FFF7DAFF04463046FFF7D8FF012F14BFFB
:10466000FF210F2106F1110209E09378844203EA49
:1046700001032B441A4404F1010409D0E4B2137875
:10468000FF2BF2D1844202F1010204F10104F5D1C1
:10469000901BF8BD83685878704700BF836898788E
:1046A000704700BF836893F903007047836893F9EC
:1046B0000400704783685879704700BF2DE9F84FB0
:1046C000D0F808A081469AF800400E462046FFF731
:1046D00089FF07462046FFF787FF012F8346504694
:1046E00014BF4FF0FF084FF00F08FFF78DFF04468F
:1046F0005046FFF78BFF05465046FFF783FF602EBD
:1047000030D940B350446124B54217D3AC420CD9E0
:1047100014E0B4422ED08378AC4208EA03035B4431
:10472000184404F1010409D0E4B20378FF2BF0D15E
:10473000AC4200F1010004F10104F5D1002089F838
:104740001C0089F81F0089F8200089F81D0089F8ED
:104750001E00BDE8F88F5046FFF752FF38B15044B5
:104760004124D1E75046FFF74BFF402EF6D80AF11F
:104770001100C9E7BFB1022F15D003F00F02023AB2
:104780001B0989F81E2089F81D30437803F00F02B9
:104790001B0989F8202089F81F3083781B0989F8C4
:1047A0001C30BDE8F88F89F81F30437889F8203035
:1047B000C37889F81C30037989F81D30437989F86A
:1047C0001E30BDE8F88F00BF70B514460546802343
:1047D0007F22637022700E460978FFF76FFF6B7FB0
:1047E0005B42D9B221716B7FA370AB7FE37007E0AE
:1047F0002B7F28460B4423713178FFF75FFF217927
:10480000AA7F94F9000053B29842C8BF227095F86D
:10481000203094F901001344DBB25AB29042B8BF81
:10482000637016F8013F002BE2D1EB7F0B44DBB243
:104830002371697F0B44237170BD00BF08B5FFF77A
:104840003DFF003018BF012008BD00BF10B5044671
:10485000FFF734FF00B1207F40B210BD2DE9F04FCB
:104860008A4685B0194615460646FFF727FF0446D7
:10487000002848D0B3681878FFF7B6FE96F81E9067
:10488000737F96F82070C9EB05055FFA85F99A44A5
:1048900096F81FB0C7EB0905EDB25FFA8AFA8046B9
:1048A00000972A4651465B46304600F0E3FC28B3A9
:1048B0000BF1070BCBF3C40319460293F7B1013B8D
:1048C000DBB20AEBC1070133A0440393FFB2029BA2
:1048D00083B15446C3461BF8013B2146083400937C
:1048E00030462A460023E4B2FDF7DEFABC42F2D19C
:1048F000039B98440135EDB24D45E8D1307F40B27D
:1049000005B0BDE8F08F40B205B0BDE8F08F00BF44
:104910002DE9F041476A0546884614461E46B847C9
:104920000219414628463346BDE8F041D2B2FFF7AE
:1049300095BF00BF2DE9F04F0C4685B01946914652
:104940000646FFF7BBFE074600284CD0B368187830
:10495000FFF74AFEB37F727F01331C44914496F8FF
:1049600020A0F57FE4B25FFA89F9804621464A46E5
:1049700000955346304600F07DFC78B30AF1FF33D2
:1049800005F1070B1C44CBF3C40319460293E5B2AF
:10499000BAF1000F22D0013BDBB2CAEB050A09EBEA
:1049A000C1020133B8445FFA8AFA0393D7B2029B7B
:1049B00083B14C46C3461BF8013B224608340093A2
:1049C000304629460123E4B2FDF76EFABC42F2D12B
:1049D000039B9844013DEDB25545E8D1307F40B28C
:1049E00005B0BDE8F08F40B205B0BDE8F08F00BF64
:1049F0002DE9F041476A05460C4690461E46B847E9
:104A0000211A424628463346BDE8F041C9B2FFF7B5
:104A100091BF00BF2DE9F04F894685B01946144675
:104A20000646FFF74BFE0746002852D0B3681878B9
:104A3000FFF7DAFD96F81DA0B37FF57F0133CAEBCF
:104A400009091C445FFA89FAC5F1010196F820B002
:104A50005144E4B28046C9B222462B46CDF800B09C
:104A6000304600F007FC78B30BF1FF3305F107097E
:104A70001C44C9F3C40319460293E5B2BBF1000F0D
:104A800022D0013BDBB2CBEB050BAAEBC102013319
:104A9000B8445FFA8BFB0393D7B2029B83B15446B1
:104AA000C14619F8013B2146083C009330462A468E
:104AB0000223E4B2FDF7F8F9BC42F2D1039B98441B
:104AC000013DEDB25D45E8D1307F40B205B0BDE8B3
:104AD000F08F40B205B0BDE8F08F00BF2DE9F04186
:104AE000476A0546884614461E46B847221A41467C
:104AF00028463346BDE8F041D2B2FFF78BBF00BF76
:104B00002DE9F04F0D4685B0194692460646FFF74F
:104B1000D5FD044600284CD0B3681878FFF764FD33
:104B200096F82070727FB37F96F81F903B44C2EBDB
:104B30000A0AED1A5FFA8AFAC9F10102EDB252448B
:104B400080462946CDF80090D2B23B46304600F070
:104B500091FB48B309F10709C9F3C403194602934D
:104B600017B3013BDBB205EB070B0133AAEBC1071F
:104B70005FFA8BFBA0440393FFB2029B83B15446C0
:104B8000C14619F8013B2246083C009330462946AD
:104B90000323E4B2FDF788F9BC42F2D1039B9844A9
:104BA0000135EDB25D45E8D1307F40B205B0BDE8DA
:104BB000F08F40B205B0BDE8F08F00BF2DE9F041A5
:104BC000476A05460C4690461E46B84701194246BC
:104BD00028463346BDE8F041C9B2FFF791BF00BF98
:104BE0002DE9F0419846436A164607460C46984719
:104BF00098F800303044C6B28BB1002521463846C3
:104C00003246FFF72BFE18F8013FC0B204440544BA
:104C1000E4B2EDB2002BF1D12846BDE8F0811D468B
:104C2000FAE700BF2DE9F0419846436A0E46074671
:104C30001446984798F80030301AC6B28BB1002558
:104C4000224638463146FFF775FE18F8013FC0B2DC
:104C500004440544E4B2EDB2002BF1D12846BDE88E
:104C6000F0811D46FAE700BF2DE9F0419846436AFE
:104C7000164607460C46984798F80030301AC6B2D8
:104C80008BB10025214638463246FFF7C3FE18F89F
:104C9000013FC0B2241A0544E4B2EDB2002BF1D1B9
:104CA0002846BDE8F0811D46FAE700BF2DE9F04136
:104CB0009846436A0E4607461446984798F80030CF
:104CC0003044C6B28BB10025224638463146FFF744
:104CD00017FF18F8013FC0B2241A0544E4B2EDB240
:104CE000002BF1D12846BDE8F0811D46FAE700BF50
:104CF00010B5029C032B17D8DFE803F0110C070254
:104D00002346BDE81040FFF7D1BF2346BDE8104061
:104D1000FFF7AABF2346BDE81040FFF783BF234635
:104D2000BDE81040FFF75CBF002010BD2DE9F04149
:104D30009846436A164607460C46984798F800304E
:104D40003044C6B28BB10025214638463246FFF7C3
:104D500085FD18F8013FC0B204440544E4B2EDB249
:104D6000002BF1D12846BDE8F0811D46FAE700BFCF
:104D70002DE9F0419846436A0E4607461446984787
:104D800098F80030301AC6B28BB10025224638465A
:104D90003146FFF72DFE18F8013FC0B20444054428
:104DA000E4B2EDB2002BF1D12846BDE8F0811D46FA
:104DB000FAE700BF2DE9F0419846436A16460746D8
:104DC0000C46984798F80030301AC6B28BB10025CF
:104DD000214638463246FFF781FE18F8013FC0B23F
:104DE000241A0544E4B2EDB2002BF1D12846BDE807
:104DF000F0811D46FAE700BF2DE9F0419846436A6D
:104E00000E4607461446984798F800303044C6B21C
:104E10008BB10025224638463146FFF7CFFE18F801
:104E2000013FC0B2241A0544E4B2EDB2002BF1D127
:104E30002846BDE8F0811D46FAE700BF2DE9F041A4
:104E40000C46154698460746FFF72CFC241A3846B0
:104E5000FFF72CFCE4B22A18214638464346BDE849
:104E6000F041D2B2FFF744BF70B50C461546064676
:104E7000FFF718FC241A3046FFF718FCE4B22A1892
:104E80009DF81030D2B221463046FFF7E7FC0020F3
:104E900070BD00BF8268CAB190F82830BBB1012B49
:104EA0001CD0537B80F82930927B80F82A2090F820
:104EB0002B105BB252B29B1A40299BB204D0DBB2DA
:104EC00001FB03F3C3F38F1380F82C307047537941
:104ED00080F82930127B80F82A20E8E7D37B80F81D
:104EE0002930127C80F82A20E1E700BF002280F8F8
:104EF0002820FFF7CFBF00BF012380F82830FFF73D
:104F0000C9BF00BF022380F82830FFF7C3BF00BF2E
:104F100080F82B10FFF7BEBF014B4362704700BF04
:104F2000AD450008014B4362704700BFB145000822
:104F3000014B4362704700BFB9450008014B436213
:104F4000704700BFC54500082DE9F04106460846F8
:104F50000C4690469047054608B9BDE8F0813046BA
:104F60002946FFF7ABFB707F4042C7B209E0337FB1
:104F700020463B44DFB2C047054630462946FFF78E
:104F80009DFB01342046C0470028F0D1202D1BBFD7
:104F9000707FF37F307FC0183844C0B2BDE8F08125
:104FA000014AFFF7D1BF00BFDD450008014AFFF706
:104FB000CBBF00BFE145000810B504460978FFF7F4
:104FC0007DFB94F91D0010BD10B504460978FFF76C
:104FD00075FB94F91D0010BD70B50D46097869B1D7
:104FE000064600243046FFF769FB337F15F8011FA2
:104FF0001C44E4B20029F5D1204670BD0C46FBE705
:1050000070B50D46097869B1064600243046FFF7B1
:1050100055FB337F15F8011F1C44E4B20029F5D17C
:10502000204670BD0C46FBE710B4002414710C78C8
:1050300034B9147054709470D4705DF8044B704798
:105040005DF8044BFFF7C0BB704700BF704700BF5F
:105050002DE9F0430F7883B00C460A9E0B9D17B3E1
:10506000814690461F466A4600238DF80430FFF7BC
:10507000ABFB21784846FFF721FB98F8001099F820
:105080001D309DF804200B4488F8003032703A78C7
:105090009DF801309DF80010D21A5B1A3A702B70FF
:1050A00003B0BDE8F08337702F7003B0BDE8F08324
:1050B0002DE9F0470C7882B00D460A9F0B9E6CB329
:1050C00004469146984683684FF0000E6A4693F86E
:1050D00005A08DF804E0FFF777FB9DF901302978F2
:1050E00053452046B8BF8DF801A0FFF7E7FA99F8BD
:1050F0000010637F9DF804200B4489F800303A705B
:1051000098F800209DF801309DF80010D21A5B1A23
:1051100088F80020337002B0BDE8F0873C7034702E
:1051200002B0BDE8F08700BF82688A4207D010B5A0
:1051300004468160FFF7AEFE014B636210BD70470D
:10514000AD4500082DE9F04F8A4685B01946154651
:105150000646FFF7B3FA0446002848D0B36818782B
:10516000FFF742FA96F81E90737F96F82070C9EB0D
:1051700005055FFA85F99A4496F81FB0C7EB090553
:10518000EDB25FFA8AFA804600972A4651465B469E
:10519000304600F06FF828B30BF1030BCBF3850317
:1051A00019460293F7B1013BDBB20AEB81070133E9
:1051B000A0440393FFB2029B83B15446C3461BF83D
:1051C000013B21460434009330462A460023E4B2D2
:1051D000FCF77EFEBC42F2D1039B98440135EDB250
:1051E0004D45E8D1307F40B205B0BDE8F08F40B208
:1051F00005B0BDE8F08F00BF2DE9F041476A0546D4
:10520000884614461E46B84702194146284633468A
:10521000BDE8F041D2B2FFF795BF00BF2DE9F041E4
:10522000074680680C46007890461E46FFF7DAF97C
:10523000022802D00020BDE8F0817B6A38469847FA
:10524000337840445FFA80F88BB100252146384618
:105250004246FFF777FF16F8013FC0B20444054409
:10526000E4B2EDB2002BF1D12846BDE8F0811D4635
:10527000FAE700BF70B49DF80C4090F83B60013C29
:1052800014449642E4B290F839500FD3AC420FD395
:1052900090F83A40013B0B448C42DBB290F8382046
:1052A0000BD393420BD370BC01207047AC4201D3A7
:1052B000A242EDD870BC002070479342FAD370BC74
:1052C000994294BF00200120704700BF70B5054689
:1052D00086B01748FBF7FCF90024082640218022FD
:1052E000442328460191029203930096114B0494A3
:1052F00011494FF40012FDF7E1FB284621462246F2
:10530000FDF704FC284622460121FDF7FFFB284655
:1053100021462246FDF794FC284622460121FDF74E
:105320008FFC0648AC8306B0BDE87040FBF7D0B9EF
:10533000E4B30008000C014000540040FCB3000836
:1053400038B50D460446818B42B1124B12482A46AD
:10535000FBF79AF9A38B1D4208D038BD0F4B0E48BE
:105360002A46FBF791F9A38B1D4211D00C48FBF79D
:10537000AFF9A28B20466A40A2830021120AFDF7F2
:105380005FFC2046227F0121BDE83840FDF758BC74
:1053900038BD00BFE882000814B40008E0820008AD
:1053A0008482000840F0BF60024B40F40030D860B7
:1053B000704700BF00ED00E0C3785BB903780121BE
:1053C0005A09174803F01F03203201FA03F340F88B
:1053D00022307047134A30B4D2684378D243817880
:1053E000C2F302220F24D440C2F1040503FA05F2ED
:1053F00004EA0103017813431B0101F16042DBB2AF
:1054000002F5614282F800330378012203F01F00A5
:1054100003495B09824041F8232030BC704700BF3C
:1054200000E100E000ED00E021F0604121F07F01AB
:10543000014B08439860704700ED00E0044A13698F
:1054400019B923EA000010617047184310617047D2
:1054500000ED00E0044A042813680CBF43F0040385
:1054600023F004031360704710E000E008B50D4B13
:1054700098420BD04FF480000121FDF7E9F8BDE818
:1054800008404FF480000021FDF7E2B84FF400100F
:105490000121FDF7DDF8BDE808404FF400100021C0
:1054A000FDF7D6B800540040F0B504460D4687B06D
:1054B000868801A8FDF74EF8314F039B26F03F0682
:1054C000A7FB03273604BF0C360CB8B20643A680F0
:1054D00021882A6821F001012A4E0904090CB242F0
:1054E000218024D85200B3FBF2F39BB2032B00F1CE
:1054F000010098BF04232084A38321886E8989B288
:1055000041F0010121802388AA8823F4816323F0DC
:1055100002032889A9891B0432431B0C134340EA68
:1055200001029BB292B22380228107B0F0BD4BF6FC
:10553000FF71E88888421DD002EB820202EB8202F2
:10554000B3FBF2F39BB243F48043C3F30B020AB9FB
:1055500043F001034FF4967202FB07F70A4AF9176A
:1055600082FB0702C1EBA212013292B243F4004364
:105570002284C1E702EB4200B3FBF0F39BB2E4E705
:1055800083DE1B43A0860100D34D621010B44BF69E
:10559000FF7141F2883400234FF480420460C180DF
:1055A00082818380038143815DF8044B704700BF93
:1055B000038829B923F001031B041B0C03807047E7
:1055C0009BB243F001030380704700BF838829B971
:1055D00023F400631B041B0C838070479BB243F4CD
:1055E00000638380704700BF838829B923F4805308
:1055F0001B041B0C838070479BB243F48053838051
:10560000704700BF038829B923F480731B041B0C67
:10561000038070479BB243F480730380704700BFE0
:10562000038829B923F400731B041B0C0380704703
:105630009BB243F400730380704700BF038829B90D
:1056400023F480631B041B0C038070479BB243F45C
:1056500080630380704700BF838901F0FE019BB225
:1056600023F0FE0319438181704700BF838929B964
:1056700023F001031B041B0C838170479BB243F092
:1056800001038381704700BF038829B923F04003D9
:105690001B041B0C038070479BB243F04003038044
:1056A000704700BF83889BB21AB923EA0101818049
:1056B000704719438180704701827047008AC0B2E9
:1056C000704700BF22B901F0FE0189B20182704724
:1056D00041F0010189B20182704700BF82B000230E
:1056E00001930190019B19440191019B188880B29C
:1056F00002B07047038819B9C3F30E0303807047E3
:105700006FEA43436FEA53439BB20380704700BF85
:10571000B1F5006F038805D023F400631B041B0C54
:10572000038070479BB243F400630380704700BF5F
:10573000B1F5005F038805D023F400531B041B0C54
:10574000038070479BB243F400530380704700BF4F
:10575000038829B923F480531B041B0C0380704772
:105760009BB243F480530380704700BFB1F5006FD4
:10577000038805D023F400631B041B0C03807047CF
:105780009BB243F400630380704700BF038829B9CC
:1057900023F020031B041B0C038070479BB243F0D3
:1057A00020030380704700BF008BC0F307207047C1
:1057B000038829B923F010031B041B0C03807047D6
:1057C0009BB243F010030380704700BF038829B1E8
:1057D00023F080031B041B0C038070479BB243F033
:1057E00080030380704700BFB1F5804F838B05D0E5
:1057F00023F480431B041B0C838370479BB243F448
:1058000080438383704700BF838A008B9BB243EA47
:10581000004321F07F401840081AB0FA80F0400998
:10582000704700BF838A028B98B240EA024020F0A2
:105830007F40704782B000230A0F009301930190CC
:105840000092009B21F07F4153B1019B14330193DF
:10585000019B1B68194214BF0120002002B0704751
:10586000019B090C18330193F2E700BFC94389B2C9
:10587000818270478388808A9BB280B2084006D0BC
:1058800001F0E06113EA114314BF012000207047CA
:10589000C94389B2818270473C4B30B418683C4997
:1058A00040F0010018605D6882B0294059601968B5
:1058B000002021F0847121F48031196019684FF4BF
:1058C0001F0421F48021196059681A4621F4FE0151
:1058D00059609C6000900190196841F48031196012
:1058E00003E0009BB3F5A06F09D0136803F4003305
:1058F0000193009B01330093019B002BF1D0234BBC
:105900001B6813F4003318BF01230193019B012B83
:1059100006D0204B4FF000629A6002B030BC704756
:105920001D4A1A4B1068194640F0100010601068AC
:1059300020F003001060106840F0020010605A6808
:105940005A605A685A605A6842F480625A605A68CB
:1059500022F47C125A605A6842F4E8125A601A68BB
:1059600042F080721A600B68084A9B01FBD5114611
:10597000536823F003035360536843F002035360FA
:105980004B6803F00C03082BFAD1C2E70010024069
:105990000000FFF800ED00E000200240114A5368CB
:1059A00003F00C03082B0ED153685168C3F38343F3
:1059B000C90303F1020310D5526892030DD40A4AB9
:1059C00002FB03F300E0084B064A08495268C2F3A1
:1059D00003128A5CD3400B617047054A02FB03F354
:1059E000F2E700BF0010024000127A00F804002025
:1059F00000093D002DE9F8439DF824401E46E307C9
:105A00000F46904681469DF820503BD4A10728D4EC
:105A1000220715D4630701D4BDE8F883F11B05EB19
:105A200008024846C9B2D2B2FCF730FAC8EB060108
:105A30007A194846BDE8F843C9B2D2B2FCF726BA93
:105A4000F11905EB08024846C9B2D2B2FCF71EFABA
:105A500006EB08017A19C9B2D2B24846FCF716FA29
:105A6000D8E7F11BC8EB05024846C9B2D2B2FCF731
:105A70000DFAC8EB0601EA1BC9B2D2B24846FCF7E0
:105A800005FAC5E77118AA1AC9B2D2B2FCF7FEF935
:105A900006EB0801EA1BC9B2D2B24846FCF7F6F998
:105AA000B4E700BF2DE9F0479DF824401E46E30708
:105AB0000D46174681469DF820803FD4A10728D483
:105AC000220715D4630701D4BDE8F087711B7B1C46
:105AD00048464246C9B2DBB2FDF786F9F11B6B1CA2
