:020000040800F2
:100000000050002089200008D1200008D1200008DD
:10001000D1200008D1200008D120000800000000F5
:10002000000000000000000000000000D1200008D7
:10003000D120000800000000D1200008952F000802
:10004000D1200008D1200008D1200008D1200008CC
:10005000D1200008D1200008D1200008D1200008BC
:10006000D1200008D1200008D1200008D1200008AC
:10007000D1200008D1200008D1200008D12000089C
:10008000D1200008D1200008D1200008D12000088C
:10009000D1200008D1200008D1200008D12000087C
:1000A000D1200008D1200008D1200008D12000086C
:1000B000D1200008D1200008D1200008D12000085C
:1000C000D1200008D1200008D1200008D12000084C
:1000D000D1200008A5040008D1200008D120000884
:1000E000D1200008D1200008D12000080000000025
:1000F0000000000000000000000000000000000000
:1001000000000000000000005FF808F1704700BF29
:1001100038B50B4D0B4A2B680446DB07026005D54A
:10012000094A0A4B6260A360204638BD284605F0A4
:100130003BFD0028F4D0284605F045FDF0E700BF60
:1001400098090020407D00089C09002090080020AC
:10015000704700BFD0F88430052B1CDC024603EB4F
:10016000430330B400EB8303002501201D61D960F7
:100170005861D2F88430042503EB43039B004833D5
:10018000D418D150A0606560D2F8843030BC0344EC
:10019000C2F8843070470020704700BF2DE9F84353
:1001A0004FF6FF73DFF8B880054698F8017098F8AD
:1001B000022042EA07279F4223D03946274800F011
:1001C000C1FBD5F88430002B1BDD2C4600260FE048
:1001D0005B10C1582269184451F802900022394638
:1001E000C847D5F884300136B34204F10C0408DD69
:1001F0006369E068D907EBD4D4F8109000EB630092
:10020000ECE798F80330164A0A2B25D017791548E1
:1002100047EA0327394600F095FBD5F88430002BD8
:1002200018DD2C4600260DE05B10C158E26C184426
:100230008A5839469047D5F884300136B34204F1E4
:100240000C0407DD236DA06CDA07EDD4E26C00EB43
:100250006300EEE7BDE8F883BDE8F883607D000841
:100260000C0B00207C7D00082DE9F04F83B0354C4D
:1002700002AF25460646806801F06AF8012114F8AD
:1002800001E0BEF10A0F0CD0BEF10D0F54D00846AC
:100290006A1801E00D2B08D012F8013F01300A2B3B
:1002A000F8D10437BD46BDE8F08F431C8046F8D036
:1002B00004EB010CBEF1540F9CF8029021D0BEF16A
:1002C000480F11D0BEF1560F0BD19CF808E09CF8F6
:1002D00006309CF80420B0684946CDF800E001F0F3
:1002E00029F808F10101CAE79CF808E09CF80630FB
:1002F0009CF80420B0684946CDF800E001F00CF805
:10030000EFE70A1D811A1329EA4601DD411CB6E711
:1003100001F1080323F00703ADEB030D0DF1080B0A
:100320002A440131584600F0A7FA5A464946B068B7
:1003300000F0DAFFD546D4E7B1F1FF3F8846D0D1CF
:10034000AFE700BF0C0B0020F8B5154C237803B9BC
:10035000F8BD144E05463146134800F0F3FA3778DD
:10036000012F02D900232370F8BD3946A86800F098
:1003700033FF6FB9F3780A2B02D073790A2BF1D1CE
:100380006868002101F052FC2846FFF707FFE9E703
:100390006868012101F04AFC2846FFF765FFE1E7A4
:1003A000040A00200C0B00209C7D000830B50C4690
:1003B00083B0114800F0C6FA0123200A8DF80340EB
:1003C00019466C460A228DF802008DF800308DF82F
:1003D00001308DF8042001AD084803F05DFD802157
:1003E000064803F061FD0028F9D0AC4202D014F8B1
:1003F000011FF1E703B030BDA87D000800380140BF
:1004000038B5044607480D4600F0B0FAA06800F081
:10041000E7FE012800D038BD29462046BDE8384017
:10042000FFF7C4BFB07D0008F8B540F225510022A7
:10043000154803F015FD154D1549DFF860C0DFF8CC
:1004400060E00024FA270B680A681CF803000132F8
:100450008EFB0236D317C3EB261307FB13230A28A0
:1004600004F1010405F8010F0B60ECD1012240F208
:100470002551054803F0F4FC0649074B00200122F2
:1004800008551A70F8BD00BF003801400B0B002062
:10049000080B00200C0B0020040A0020080A002092
:1004A000D34D621070B540F225510F4803F002FDA4
:1004B00000B970BD0C4803F0F3FC0C490C4B0D68FF
:1004C0000A68FA26013283FB0234D317C3EB2413E4
:1004D00006FB1323C0B2074A0A2850550B60E8D127
:1004E000BDE87040FFF7A0BF00380140040B0020BA
:1004F000D34D6210080A00208368427900211A4413
:1005000003F8011B9A42FBD1704700BF00230B7018
:1005100083784B704379013B8B70C378CB70704705
:1005200010B4CB784978012B1ED0032B12D00C4687
:100530000023C27880788A4234BF0022012243EA35
:100540000201A0428CBF002001F0010013401843BB
:1005500010BC7047A1F10802D2B291420C462CBFE8
:10056000002301231146E4E701F10804E4B2A142AB
:1005700094BF00230123DCE7014B1870704700BFD4
:100580000400002008B50C4B01461B78012B09D054
:100590000A4803F081FC8021084803F085FC01280B
:1005A000F9D108BD064803F077FC8021044803F028
:1005B0007BFC0028F9D008BD040000200044004066
:1005C00000380140092B70B51E4602F1FF35044684
:1005D00013D8002D1BDD0B46411904F8013BA14245
:1005E000FBD110460B4BA3FB0623DB0803EB830375
:1005F000A6EB430330330B7070BD064B2A46A3FBBA
:100600000653DB08FFF7DEFF21180130EAE7014659
:100610000120E7E7CDCCCCCCF8B5002B04460F4643
:1006200027DB092B1E4602F1FF3219DC002A37DDD9
:1006300011462546013905F8017BFBD1012AB8BFD7
:100640000122002B144426DB501C164BA3FB06236F
:10065000DB0803EB8303A6EB430330332370F8BDC1
:10066000104BA3FB0653DB08FFF7D6FF0444013011
:10067000EBE75E42092E02F1FF3508DD094B2A4601
:10068000A3FB0653DB085B42FFF7C6FFEEE7023A27
:10069000002ACDDC00222D23901C04F8013BD4E776
:1006A0000120D2E7CDCCCCCC2DE9F04182B0089E20
:1006B000551E5FEA161E044698461ED1002D24DD05
:1006C0000F46431904F8017BA342FBD1104606F004
:1006D0000F06092E0CD9B8F1000F04D157361E7041
:1006E00002B0BDE8F08137361E7002B0BDE8F0817F
:1006F00030361E7002B0BDE8F081CDF800E02A4629
:10070000FFF7D2FF23180130E1E703460120DEE7BF
:100710002DE9F0410F4682B09E46064608B10023FF
:100720000370002513785BB1BD4280F09780252BC4
:100730000ED033700132137801350136002BF3D11E
:10074000AF4240F28B802846337002B0BDE8F081A2
:100750005178252935D0302938D00B46541CA3F1C7
:100760003002092A4FF0200136D8002202EB820223
:1007700003EB420214F8013F303AA3F1300009289C
:1007800002F0FF02F2D910462844874238BF7A1B94
:10079000A3F1580338BFD2B2202B66D8DFE803F0AC
:1007A0005965656565656565656565514765656537
:1007B000654765656565656565656538652E65656B
:1007C0001F003170023201350136ABE79378941C7B
:1007D000A3F13002092AC8D900200246D4E7DEF886
:1007E0000030009300230EF104083046FFF75CFF51
:1007F000C6460346621C1E44054493E7DEF80030FB
:1008000030460EF10408FFF7DDFEC6460346F1E769
:10081000DEF800100EF1040E0B785BB3324602F8DE
:10082000013B11F8013F901B002BF8D1E1E7DEF806
:10083000003030460EF10408FFF7EEFEC6460346D0
:10084000D8E7DEF80020012332700EF1040E1846BE
:10085000D0E7DEF8003000930123C4E70023681ED0
:1008600006F8013C02B0BDE8F0814FF0FF3002B065
:10087000BDE8F0811846BDE70CB410B582B004ACF9
:1008800054F8042B23460194FFF742FF02B0BDE861
:10089000104002B0704700BF0EB410B583B005AC75
:1008A00054F8042B4FF4827123460194FFF730FF74
:1008B00003B0BDE8104003B0704700BFF8B505466F
:1008C000007858B10E460A4F00243B689A68964259
:1008D00005D0DB689E4202D04FF0FF30F8BDFFF735
:1008E00051FE15F8010F01340028EED12046F8BD65
:1008F00000000020F0B5CBB06C4696460F460F4D79
:1009000006460FCD0FC40FCD0FC42D6873463A466F
:1009100009A84FF482712560FFF7FAFEB0F5827FD7
:1009200006DB074B68461B68D968FFF7C7FFFEE781
:10093000314609A8FFF7C2FF4BB0F0BDC47D0008E7
:10094000000000200FB400B5074A83B004AB53F891
:10095000041B10681A4680680193FFF7CBFF03B0B1
:100960005DF804EB04B0704700000020024B1B68E8
:100970009968FFF7A3BF00BF00000020044A0549A3
:100980001368002B08BF0B461844106018467047C8
:10099000080C00209C0D0020FEE700BF0A2A2DE96C
:1009A000F04790469A4605460C4652D0152A48D143
:1009B0004E68002200F070F801222146284600F01F
:1009C00063F8B768B67807F1800918E02146284631
:1009D00000F06AF880222146284600F065F80122DE
:1009E0002146284600F058F810223B46214617447D
:1009F000284600F061F80136B945F6B21CD0002255
:100A00002146284600F048F83E222146284600F0BC
:100A10004BF8A6F120021F2E62F07F0346F0800201
:100A2000D4D9DAB22146284600F03EF88822214681
:100A3000284600F039F8D2E700222146284600F087
:100A400023F85346424621462846BDE8F04702F0C7
:100A500049BD032200F010F82146064A284600F05E
:100A600031F85346424621462846BDE8F04702F099
:100A700039BD00BFE87D000810B48C680023A4468F
:100A8000012110BC604700BF10B48C680023A4464D
:100A9000032110BC604700BF10B48C680023A4463B
:100AA000022110BC604700BF10B48C680023A4462C
:100AB000052110BC604700BF10B48C680621A44615
:100AC00010BC60472DE9F04180460E46551E0023BC
:100AD00015F8014F5BB9FF2C1CD022460521B468E4
:100AE0004046A0470028F2D10020BDE8F081FF2C4D
:100AF00012D0FE2C43D0EF2CE9D8DF2C15D8CF2C08
:100B00001CD8BF2C23D82306E1D4204602F0B0FA2B
:100B10000023DDE70123DBE722460023B46805213B
:100B20004046A0470028D2D1DEE704F00F020023A0
:100B3000B46802214046A0470023C9E704F00F0231
:100B40000023B46803214046A0470023C0E72401E6
:100B5000002302341A460421B76804F0FE0440461C
:100B6000B847204602F084FA002301220421B76826
:100B70004046B847204602F07BFA0023A8E7012050
:100B8000BDE8F08110B5044600F056F9207650B16A
:100B9000204600F051F9204600F016FA20460021C8
:100BA00000F068FA207E10BD38B5044600F044F924
:100BB0000546207670B1637E7BB1204600F03CF99B
:100BC000204600F001FA204600F00EFA237E284667
:100BD000637638BD6076284638BD2046FFF7D2FFE1
:100BE000EBE700BF10B5044600F070F920766076A0
:100BF00080B1204600F020F9204600F01DF9204683
:100C000000F0E2F90021204600F034FA2046FFF718
:100C1000CBFF207E0023A383236284F8243010BD01
:100C200038B500238383036280F82430044600F043
:100C300003F9207618B1657E45B9284638BD637E34
:100C40000546002BF9D06076284638BD204600F0D6
:100C5000F3F8204600F0B8F9204604F11C0100F03A
:100C600017FA284638BD00BF90F82400704700BF2F
:100C700010B590F8244034B9084B20461A889B7868
:100C80000A808B7010BD02460846136A0449B2F907
:100C90001C20FFF701FE204610BD00BF087E0008A3
:100CA000007E000838B590F8243083B10446006A0D
:100CB00005F0B0FA074905F0B9FB0546B4F91C0088
:100CC00005F0ACFA0146284605F0F4F938BD0020DD
:100CD00038BD00BF0000204100207047704700BFB2
:100CE00041717047407970478171704780797047D2
:100CF000C1717047C079704701727047007A7047C0
:100D000041727047407A7047012981720BD00229E5
:100D100000D0704741F6B05142F630220A23C1811B
:100D200002824382704742F2FC11F5E781817047ED
:100D3000704700BF807A704780897047C0897047CC
:100D4000008A7047408A70470020704700230B607C
:100D5000C1F80330C3794B71704700BF00230B60AB
:100D6000437910B40B70047A427A83794C708A709C
:100D7000CB7010BC704700BF03682DE9F041224FD3
:100D80009E6B0546BE420C46904638D1867A1B6C57
:100D90001E498B4230D1A88944B1B8F10A0F05D958
:100DA000013EF6B20023012E237001D9BDE8F08187
:100DB000174E05232025013BDBB2042B00D0C8B120
:100DC000A6FB0012D20802EB8201A0EB41003030FA
:100DD000E05490B2002BEED10E4B217918681D79AA
:100DE000E2782E23C4F80600A57261712271E370C7
:100DF000BDE8F081E554EDE728469847CCE7B047D9
:100E00002B680646C3E700BF350D0008390D000802
:100E1000CDCCCCCC887E000810B4064C00220F212B
:100E20000460017142718271C2710272427210BC1F
:100E3000704700BF1C7E000870B50546102300F106
:100E40000C06C3733146406800F078FD2989686854
:100E5000012200F0DBFD7D2405E0013C4FF00100A4
:100E600031D002F0B3F82989686800F0C9FD002884
:100E7000F3D029890022686800F0C8FD4FF4F070B3
:100E800002F0A4F801222989686800F0BFFD46201D
:100E900002F09CF80423EB733146686800F04EFDC5
:100EA0002989686800F0A6FD044610233146EB73DB
:100EB000686800F043FD4FF4CD7002F087F8B4FA93
:100EC00084F0400970BD204670BD00BF38B50446AF
:100ED0004260038101600846012100F0EBFD228998
:100EE00010230325E373A28104F10C016068A5734C
:100EF00000F024FD21896068012200F087FDA572C1
:100F00002046FFF799FF2046FFF796FF2046BDE8F1
:100F10003840FFF791BF00BF38B50446102300F1F9
:100F20000C05C3732946406800F008FD00222189A2
:100F3000606800F06BFD032002F048F80423E373BF
:100F40002946606800F0FAFC0F2002F03FF8218982
:100F5000606800F04FFD04462D2002F037F8201C99
:100F600018BF012038BD00BF38B50D461023044618
:100F7000C37300F10C01406800F0E0FC8DB92A4613
:100F80002189606800F042FD412002F01FF860688E
:100F90002189012200F03AFDBDE83840052002F029
:100FA00015B821890022606800F030FD052002F0AC
:100FB0000DF860682189012200F028FDBDE8384065
:100FC0003C2002F003B800BF70B506460024CC25D3
:100FD00045FA04F101F0010101343046FFF7C4FF86
:100FE000082CF5D170BD00BF70B50646002444251D
:100FF00045FA04F101F0010101343046FFF7B4FF76
:10100000082CF5D170BD00BF2DE9F8430546884690
:1010100017461E4600244FF04E0949FA04F101F02C
:10102000010101342846FFF79FFF082CF5D1002469
:1010300048FA04F101F0010101342846FFF794FF5A
:10104000082CF5D1002447FA04F101F00101013424
:101050002846FFF789FF082CF5D1002446FA04F151
:1010600001F0010101342846FFF77EFF082CF5D17D
:10107000BDE8F88338B50C4605464B0143F01F0325
:10108000DBB246224B21FFF7BFFFAC7238BD00BF79
:101090002DE9F04105460E460024BE2747FA04F12B
:1010A00001F0010101342846FFF75EFF082CF5D15D
:1010B00000272846FFF730FF7F08013C10B167F09A
:1010C0007F07FFB214F0FF04F3D14FF00808284661
:1010D000FFF722FF640808F1FF3310B164F07F04CA
:1010E000E4B213F0FF08F2D1AB7A47EA0420BBB1B7
:1010F000012B2BD0022B2BD040F631039842154DFB
:1011000013D94442A4B2C4F3061004F03FFF01F126
:101110000043194604F0A0FF308004F00F0009E0FE
:101120000D4D40F631039842EBD8C0F306133380DF
:1011300000F00F0005F072F8294605F0C3F805F03D
:10114000ADFA012370603372BDE8F081034DE8E72A
:10115000034DE6E700401C440000203F0000C8406B
:1011600000007A42704700BF0A4602484FF48041AF
:1011700000F04CBC000C014070B5064600F1ED04D7
:1011800000F1F10514F8013FEBB9237BABB9A5429F
:10119000F8D11049304603F009F806F18A050C240D
:1011A00022460C342B4600213046E4B202F0A8FF60
:1011B000482C05F11405F3D170BD227D217C304609
:1011C00001F0FEFAE3E7227A2179304601F0E2FAF3
:1011D000DBE700BF6C80000880F83C10704700BF60
:1011E00090F83C00704700BF70B5064610461546A3
:1011F0000C4606F035FC062801D8022C00D970BD3B
:10120000C4EBC40430192A46BDE870403D300721C4
:10121000FFF732BB80F85210704700BF80F85D10B6
:10122000704700BF80F85E10704700BF38B50546B4
:1012300008460C4606F014FC132800D938BD224697
:1012400005F15F001421BDE83840FFF715BB00BF72
:101250000023C0F85F30C0F86330C0F86730C0F8D2
:101260006B30C0F86F30704780F87F10704700BF58
:1012700038B5054608460C4606F0F2FB092800D9A9
:1012800038BD224605F180000A21BDE83840FFF74D
:10129000F3BA00BF80F87310704700BF80F8741075
:1012A000704700BF0B4B00B5A3FB01E364225B0951
:1012B00002FB1311084A89B2A2FB011283B0D208C3
:1012C00000920921054A7530FFF7D6FA03B05DF8A0
:1012D00004FB00BF1F85EB51CDCCCCCC907E000829
:1012E00080F87E10704700BF70B506461046154660
:1012F0000C4606F0B5FB132801D8042C00D970BDAC
:1013000004EB840406EB84002A46BDE870408A3072
:101310001421FFF7B1BA00BF10B403299DF80440AF
:1013200006D8014481F8EE4081F8F22081F8F630C9
:1013300010BC704710B403299DF8044006D801443E
:1013400081F8FA4081F8FE2081F8023110BC704724
:1013500070B5064600F18A0400F21A25204606F010
:101360007FFB002102462046143406F0D9F9AC4236
:10137000F4D1002386F8EE3086F8FA3086F8EF30A4
:1013800086F8FB3086F8F03086F8FC3086F8F130CD
:1013900086F8FD3070BD00BFF0B504461E4D83B029
:1013A0001E4A1F4900F048FA022610234FF48047D6
:1013B000284601A98DF80730ADF804708DF8066055
:1013C00000F0BCFA39462846002200F01FFB01A9B4
:1013D0002846ADF8046000F0B1FA314628460122F3
:1013E00000F014FB0023C4F853302046C4F85730F3
:1013F000A4F85B3084F85D3084F85E30C4F85F3068
:10140000C4F86330C4F86730C4F86B30C4F86F3088
:10141000FFF79EFF03B0F0BD000C0140193100083A
:101420003004002070B5064682B00C23172201213B
:1014300001F0B0F9304608230F22002101F0C0F975
:10144000304608230F220D2101F0BAF902240025AD
:10145000012D14BF1123102304F1FF310093234603
:1014600004F1020414BF10221122C9B23046E4B2C2
:1014700001F09EFE0E2C85F00105E9D102B070BD91
:1014800030B5044683B006230B22012101F082F916
:10149000204608230322002101F092F90725204667
:1014A00008230322072101F08BF920462A460A234C
:1014B000042101F06FF9204600950D2305220B2130
:1014C00001F076FE092300932A4620460B230D21C6
:1014D00001F06EFE03B030BD10B5044602230F22AA
:1014E000722101F057F9204602230F22752101F0E5
:1014F00051F9204602230F22782101F04BF92046B2
:1015000002230F227B2101F045F9022320460F22FE
:101510007E2101F03FF994F87E300D2B00D810BDEC
:1015200003230C227221204601F04AF903230C22E6
:101530007321204601F044F994F87E30172BEED940
:10154000062309227521204601F03AF906230922D3
:101550007621204601F034F994F87E30212BDED933
:10156000092306227821204601F02AF909230622C0
:101570007921204601F024F994F87E302B2BCED926
:101580000C2303227B21204601F01AF90C230322AD
:101590007C21204601F014F994F87E30352BBED919
:1015A00020460F2300227E2101F00AF92046BDE8E3
:1015B00010400F2300227F2101F002B970B50446CC
:1015C000FFF75EFF2046FFF72DFF2046454902F05A
:1015D000EDFD454B24220021204602F091FD2046DE
:1015E000424902F0E3FD04F13D060C252A460C3584
:1015F000334614212046EDB202F082FD302D06F173
:101600000706F3D194F85D10002941D194F85E30BB
:10161000002B44D194F85310002946D194F852304D
:10162000002B59D104F15F033E220021204602F035
:1016300067FD342300224021204601F0C1F84023F9
:1016400033220021204601F0A5F894F8733063B1ED
:1016500094F874308BBB04F175031A22492120469B
:1016600002F04EFD2046FFF737FF94F87F3003B9B4
:1016700070BD1F4B26225121204602F041FD04F18E
:1016800080032046BDE870403222422102F038BD7E
:101690002A46184B0021204602F032FDC2E72A46B6
:1016A000154B204602F02CFDBCE719462A4604F1F2
:1016B0005303204602F024FDB4E72046094902F016
:1016C00075FD0E4B08226C21204602F019FD0749DA
:1016D000204602F06BFDBEE72A46094B204602F089
:1016E0000FFD9FE7DC8800089C7E00086C800008E6
:1016F000C47E0008A07E0008AC7E0008C07E000802
:10170000B87E000810B5044600F0C0F805E0FFF709
:1017100055FF204600F0BEF858B194F83C30204602
:10172000002BF4D0FFF728FD204600F0B3F8002886
:10173000F3D110BD70B504460D46436B02209847A7
:1017400029460A222E6820460023B0470546636BCF
:1017500003209847636B00209847284670BD00BF60
:1017600070B504460D46436B02209847636B012019
:1017700098472E682946204600231422B04704F1DA
:1017800038032E68294620461722B047636B002095
:10179000BDE87040184700BFF8B504460D46436BDE
:1017A00002209847636B012098472E6829462046FF
:1017B00000231522B047064630B12F68294604F1B0
:1017C000380317222046B847636B002098473046FD
:1017D000F8BD00BF30B50446416883B00D680DF117
:1017E00007034622A8479DF80730616823700D68FB
:1017F0000DF1070320464722A8479DF8073061688E
:1018000063700D68204600234822A8476168E07491
:101810000D6804F1380320461722A84703B030BDF5
:1018200010B541680446FFF785FF18B12046FFF761
:10183000D1FF012010BD00BF2DE9F04104460F4645
:10184000904600250126222383748560C560457477
:101850008561067480F8316002F0A2FC0A4B4022D8
:1018600084F8286084F8295084F82A5084F82C5091
:1018700084F82B20676063632046C7F80880BDE8C2
:10188000F041FFF7CDBF00BF651100084168FFF7C9
:1018900067BF00BF836910B5044603B1984761680C
:1018A0002046BDE81040FFF777BF00BF034630B4C5
:1018B000446880F82D1080F82E2025682146AC461B
:1018C00030BC2D333222604770B49DF80C604568FF
:1018D00080F82D1080F82E2080F8303080F82F60AE
:1018E0002C682946A44670BC00F12D033B226047BA
:1018F00003780022013BC37082700271704700BF01
:1019000030B48378047841782344DBB28B4283700F
:1019100010D2C2780579A318DBB2994298BF01F1C1
:10192000FF3305F1010298BFDBB20271C37030BC16
:1019300001207047002030BC704700BF2DE9F04106
:10194000CC78E30648BF8B78098804F00F0748BFBE
:101950001F4311F0FF0F21D0066800234FF0010E46
:101960004FF00F0802E00133082B16D00EFA03F2F5
:1019700032EA0105F7D19D0008FA05FC26EA0C06BB
:1019800007FA05F5282C46EA050631D0482C03F164
:10199000010308BF0261082BE8D10660FF2923D9A3
:1019A000466800234FF0010E4FF00F0802E00133AC
:1019B000082B18D003F108020EFA02F232EA0105F0
:1019C000F5D19D0008FA05FC26EA0C0607FA05F594
:1019D000282C46EA050609D0482C03F1010308BF6C
:1019E0000261082BE6D14660BDE8F0814261DEE786
:1019F0004261B8E78368194214BF01200020704794
:101A0000C368194214BF0120002070470AB9416120
:101A100070470161704700BF214A30B4536803F03A
:101A20000C03042B06D0082B25D01BB11D4A1346EE
:101A3000026001E01B4B0360194A1B4C51681B4DAF
:101A4000C1F30311615CCB4043605168C1F30221D3
:101A5000615C23FA01F181605168C1F3C221615CCC
:101A6000CB40C3605268C2F38132AA5C30BCB3FB86
:101A7000F2F30361704753685168C3F38343C903AA
:101A800003F1020307D55268920304D4054A02FB0E
:101A900003F30360D0E7064A02FB03F30360CBE7DE
:101AA0000010024000127A004C040020480400207C
:101AB00000093D0029B9054A936923EA00009061B5
:101AC0007047024B9A6910439861704700100240BA
:101AD00029B9054AD36923EA0000D0617047024B57
:101AE000DA691043D86170470010024029B9054AED
:101AF000136923EA000010617047024B1A69104312
:101B0000186170470010024070B580218AB000262D
:101B100042244022082303940291019200934FF43F
:101B200000122B4B2B490496054600F023FA04467D
:101B30003146FF2228468DF81C4000F045FAFF226E
:101B40008DF81D000121284600F03EFA31468DF83F
:101B50001E00FF22284600F043FAFF228DF81F00E6
:101B60000121284600F03CFA01218DF8200028468A
:101B700000F04EFA31468DF82100FF22284600F091
:101B80003BFAFF228DF822000121284600F034FAAA
:101B900031468DF823000DF11B02284600F068FA4B
:101BA0000DF11B028DF824000121284600F060FA97
:101BB00001232B778DF8250007AB0DF1250204B921
:101BC0002C77934202D013F8014FF8E70AB070BDAA
:101BD000000C01400054004010B50446FFF794FF8C
:101BE0004FF6FF710023012284F86230A4F86010E0
:101BF00084F8632084F8643010BD00BF007F704714
:101C0000C36D052B10DC024603EB43039B0020331E
:101C100030B4C41800250120D1506560A060D36D98
:101C200030BC0344D36570470020704780F86410CF
:101C3000704700BF10B5037F82B004463BB9FFF781
:101C400063FF237F1BB94FF6FF7002B010BD0DF18B
:101C500006020121204600F00BFA10B90023237779
:101C6000F1E70DF107020021204600F001FA0028FB
:101C7000F4D09DF807009DF8063043EA0020E4E721
:101C80002DE9F84390F8636016B93046BDE8F88353
:101C900004464FF6FF75FFF7CDFFA84280462BD0D4
:101CA00001463948FEF74EFE94F862300133DBB24C
:101CB000032B84F862303FD1E36D002B2FDD2546E6
:101CC000002710E05B10C1586A6A184451F802906E
:101CD00001224146C84794F8643001370C35F3B906
:101CE000E36DBB421BDDAB6A286AD907EAD4D5F89D
:101CF000249000EB6300EBE7B4F86010002781420A
:101D000084F862701FD14FF6FF76C6EB0806B6FA6C
:101D100086F67609A4F860803046BDE8F8834FF671
:101D2000FF752046FFF786FFA842FAD1002384F80A
:101D300062304FF6FF78EDE7B4F86030AB4218BF81
:101D40000026E7D1DFE7E36D002BEFDD254612E04B
:101D50005B10C25818446B6A52F803800022C047D7
:101D600094F8643001370C35002BDFD1E36DBB42B2
:101D7000DCDDB4F86010AB6A286ADA07E8D4D5F87D
:101D8000248000EB6300E9E7CC7E000870B50446D0
:101D90004BF6FF7686B001210069FFF78BFEE28AE1
:101DA000A38AE06813431C25032201A9ADF804307F
:101DB0008DF806208DF80750FFF7C0FDA0680121BF
:101DC000FFF786FE01210846FFF774FE606802F007
:101DD000A9FE114B06A941F8103D606800230125BA
:101DE0004FF48042ADF80E60ADF80C30ADF8123013
:101DF000ADF81050ADF8142002F0B2FE294660682C
:101E000002F020FF4FF40031606802F073FF0028F9
:101E1000F8D106B070BD00BF801A0600F8B50646BE
:101E20000D4601F0BFF8074604E001F0BBF8C01B07
:101E3000C82808D82946706802F04EFF04460028DA
:101E4000F3D00120F8BD2046F8BD00BF70B50446B0
:101E50000D46164601F0D2F86068012102F000FF3D
:101E600020462049FFF7DAFF10B90025284670BD4B
:101E7000217E6068002202F023FF1B492046FFF705
:101E8000CDFF0028F1D02946606802F013FF174902
:101E90002046FFF7C3FF0028E7D00121606802F069
:101EA000DFFE10492046FFF7B9FF0028DDD0217E74
:101EB0006068012202F004FF0D492046FFF7AEFFE3
:101EC0000028D2D00B492046FFF7A8FF054600287E
:101ED000CBD0606802F0F0FE30706068012102F043
:101EE000CDFEC3E701000300820007008400070065
:101EF000020003004000030070B504460D4616467C
:101F000001F07CF86068012102F0AAFE2046164923
:101F1000FFF784FF10B90025284670BD217E606858
:101F2000002202F0CDFE11492046FFF777FF00287E
:101F3000F1D02946606802F0BDFE0D492046FFF74A
:101F40006DFF0028E7D03146606802F0B3FE084913
:101F50002046FFF763FF05460028DCD060680121BA
:101F600002F08CFED8E700BF0100030082000700EA
:101F700084000700F8B5069DBDF81C70BDF8206010
:101F800041608260BDF824109DF82820C3600023C2
:101F90000446037005618782C682018332B92046F8
:101FA000BDE8F8400A212822FFF7A6BFFFF7EEFEA2
:101FB0002278044B204613F832102822BDE8F8405E
:101FC000FFF79ABF107F0008037810B4034C01EBB1
:101FD000430114F8211010BCFFF78EBF307F0008BA
:101FE000037810B4034C01EB430114F8211010BC2A
:101FF000FFF782BF007F0008037810B4034C01EBA9
:10200000430114F8211010BCFFF776BF207F0008B1
:1020100070B503780F4D82B00E460DF1070215F82A
:1020200033100446FFF712FF60B19DF807205EB938
:1020300002F0BF028DF807202378204615F83310F0
:10204000FFF75AFF02B070BD42F040028DF8072042
:10205000F2E700BF107F0008037810B4034C01EBD7
:10206000430114F8211010BCFFF746BFF07E0008B2
:10207000037810B4034C01EB430114F8211010BC99
:10208000FFF7E4BEE07E0008002103E00A4B5B5846
:102090004350043109480A4B42189A42F6D3094A80
:1020A00002E0002342F8043B074B9A42F9D302F0C6
:1020B0003DFE01F075FA7047C0980008000000204E
:1020C00090080020900800209C0D002000000000D7
:1020D000034B1A68D2B2FEE7AFF30080AFF3008083
:1020E00004ED00E010B50446FEF796FE024A0F2309
:1020F00023752260204610BD487F000870B588B067
:10210000064600F07BFF00F04DFF012104462E48FB
:1021100002F0C2FD01212C4802F0A2FD04E000F013
:1021200041FF001B642832D82849274802F0D4FD1B
:102130000028F4D001222021234802F0C1FD04E050
:1021400000F030FF001B642821D821491E4802F00E
:10215000C3FD0028F4D0142504E000F023FF001B89
:10216000642814D81B49184802F0B6FD0028F4D0A2
:10217000154802F0A1FD08AA2A446B1C132D02F891
:10218000200CDDB206D0202D08BF0025EAE7002094
:1021900008B070BD00210C4802F07EFD01210A4804
:1021A00002F06CFD1436002308AA02EB430111F87B
:1021B000200C11F81F2C013342EA0022102B26F8C4
:1021C000022FF1D10120E3E7005400400100030099
:1021D000020003004000030010B50446FFF78EFF25
:1021E000A08D638AE289C0F3090000FB032080B25E
:1021F000A08110BDF8B504460F4616461D46FFF7F0
:102200007DFF608D10F00F0009D0E38D069A3B80B2
:10221000238E01203380638E2B80A38E1380F8BD24
:1022200038B5054600F0EAFE01211E4802F034FDF3
:1022300001211C4802F014FD1B491A4802F04CFD14
:102240000028F9D000222021164802F039FD174954
:10225000144802F041FD0028F9D005F11804243596
:1022600034F8021F0F48090A02F024FD10490D48F6
:1022700002F032FD0028F9D021780A4802F01AFD58
:102280000B49084802F028FD0028F9D0AC42E7D1FC
:102290000021044802F000FDBDE83840012101485A
:1022A00002F0ECBC00540040010003008200070073
:1022B00084000700F0B5044687B008200F460121CE
:1022C000FFF7F8FB4FF420750223102201A94D48B7
:1022D0008DF80630ADF804508DF80720FFF72EFB7F
:1022E00000224FF400714748FFF790FB0022802145
:1022F0004448FFF78BFB00F081FE01224FF4007190
:102300004048FFF783FB00F079FE01210820FFF72A
:10231000D1FBC0251C22032301A93A488DF80720D0
:102320008DF80630ADF80450FFF708FB01214FF49B
:102330000010FFF7CDFB01210846FFF7BBFB324839
:1023400002F0F0FB4BF6FF70304B012206AD45F872
:10235000103D11460023ADF80E004FF480462A4888
:10236000ADF81020ADF80C30ADF81230ADF81460B7
:1023700002F068FC2946244802F0F2FB4FF40031D9
:10238000214802F0B7FC0028F8D12046FFF7B6FE3E
:1023900008B907B0F0BD4FF40143A3842046FFF70E
:1023A0003FFF4FF4FA7000F041FE2046FFF7A6FE13
:1023B0004FF480436383E7B9E18B238C628C23F075
:1023C0008F0343F4805322F0FF0241F4006143F095
:1023D000110342F033020125E18323846284204605
:1023E0006571FFF71DFF6E2000F020FE284607B044
:1023F000F0BD44F20103E18B638341F4805189B263
:10240000DBE700BF000C014000540040801A0600CA
:1024100038B50D460446FFF771FE65B9E28B638B54
:1024200022F4805243F04103E28363832046BDE8F7
:102430003840FFF7F5BE638BE28B23F0400343F097
:10244000010342F480526383E2832046BDE83840B2
:10245000FFF7E6BE10B504462046FFF74FFE638D3A
:102460005A04F9D52046FFF749FE628BA38B22F46C
:102470008072C3F30E036283A3832046FFF7D0FE6E
:102480002046FFF73BFE638D5B04F9D410BD00BF0F
:10249000C28938B5914238BF1146048A05468C423C
:1024A00028BF0C46FFF72AFEE9896B8A641A94FB61
:1024B000F3F4AA8B284622F4FF7323F0010323438D
:1024C0006FEA43436FEA5343AB83FFF7A9FE322021
:1024D00000F0ACFD2846BDE83840FFF7BBBF00BFA9
:1024E00038B504460D46FFF709FE638B23F4C0633D
:1024F0009BB20DB143F4007343F4807320466383B1
:10250000FFF78EFE2046BDE83840FFF7A3BF00BFAF
:1025100069B9036810B504461B6C9847618A236843
:10252000014489B22046BDE81040DB6B1847012109
:10253000FFF7D6BF69B9036810B504461B6C98470E
:10254000618A2368411A89B22046BDE81040DB6BDE
:1025500018470021FFF7C4BF38B504460F2928BF2C
:102560000F210D46FFF7CAFD238C204623F00F03F1
:102570002B432384FFF754FE29462046BDE838400C
:10258000FEF7AEBB38B504460D46FEF7B1FB20465C
:10259000FFF7B4FD638B3DB923F4005363832046FA
:1025A000BDE83840FFF73CBE43F400536383204648
:1025B000BDE83840FFF734BE38B504460D46FEF797
:1025C0009BFB638B3DB943F4804363832046BDE8A6
:1025D0003840FFF725BE23F4804363832046BDE8DF
:1025E0003840FFF71DBE00BF38B504460D46FEF764
:1025F00087FB638B4DB96FEA43436FEA5343204631
:102600006383BDE83840FFF70BBEC3F30E0363835B
:102610002046BDE83840FFF703BE00BF012900D0C7
:10262000704710B50446FEF76FFB42F22E220A23D4
:10263000E281638210BD00BF38B505460C46FEF747
:1026400085FB2846FFF75AFD6B8D01226370190741
:102650006B8D48BFA27113F00B0F22701CBF0122BB
:10266000E27013F00E0F1CBF012323716B8B9B04D0
:1026700044BF0123637138BD38B505460C46FEF7EB
:102680006DFB2846FFF73AFD6B8B5A045CBF0122B5
:1026900062701B045CBF0123A37095F820300022F8
:1026A00003F00F032370E27038BD00BF2DE9F0473F
:1026B000072B82B0994606468A4617461CD91D4606
:1026C0000C464FF0FF08083D2146CDF8008000235E
:1026D0003A463046EDB2FFF7F7F80834072DE4B27A
:1026E000F1D8A9F1080303F0F8030AF1080A9A44A3
:1026F0000AF0FF0A09F007037BB183F007030133F7
:10270000FF2203F0070302FA03F3DBB200933A4619
:10271000514630460023FFF7D7F802B0BDE8F087F6
:102720002DE9F047072B82B0994606460F469246A0
:102730001CD91D4614464FF0FF08083D2246CDF82F
:102740000080012339463046EDB2FFF7BDF808346A
:10275000072DE4B2F1D8A9F1080303F0F8030AF158
:10276000080A9A440AF0FF0A09F007037BB183F0D4
:1027700007030133FF2203F0070302FA03F3DBB27E
:1027800000935246394630460123FFF79DF802B0C8
:10279000BDE8F087F0B5012483B000940D460446EF
:1027A00016461F4601F010FD08B903B0F0BD3B46C8
:1027B00032462946204603B0BDE8F040FFF776BF19
:1027C000F0B51C4683B00123009405460E4617461B
:1027D00001F0FAFC08B903B0F0BD23463A46314691
:1027E000284603B0BDE8F040FFF79ABF70B5044635
:1027F00088B0284D2848FEF7B9F801210420FFF7DA
:1028000059F94FF4807603232846102207A98DF842
:102810001E308DF81F20ADF81C60FFF78FF8314691
:1028200028460022FFF7F2F8C82000F0C1FB31462D
:1028300028460122FFF7EAF8012000F0B9FB012544
:10284000402380210822039301930291134B0092AD
:10285000204604954FF400121149FFF78BFB00222C
:1028600011462046FFF7B0FB294620460022FFF71D
:10287000ABFB002211462046FFF7EEFB2946002263
:102880002046FFF7E9FB0023A3830648FEF76EF816
:1028900008B070BD00080140C07F0008000C014076
:1028A00000540040E07F000838B50D460446818B97
:1028B00042B1124B2A461248FEF744F8A38B1D4240
:1028C00008D038BD0F4B2A460D48FEF73BF8A38BC6
:1028D0001D4211D00C48FEF749F8A28B00216A4036
:1028E000A2832046120AFFF7B7FB227F2046BDE8ED
:1028F00038400121FFF7B0BB38BD00BF648000083D
:1029000028800008208000080080000810B50446D8
:10291000828B002122F4F05292B28283120AFFF7D6
:102920009BFB227F2046BDE810400121FFF794BBAE
:1029300010B50446828B002122F0FA0292B2828303
:10294000120AFFF789FB227F2046BDE810400121D3
:10295000FFF782BB01207047704700BFA0F1040061
:10296000FFF7FABF0148FDF7EDBF00BFFC8F00087D
:10297000A0F10400FFF7F6BF38B5044607480D463E
:10298000FDF7E0FFB4F8F830402B00D038BD294601
:102990002069BDE83840FEF749BC00BF0C90000834
:1029A000A0F10400FFF7E8BFB0F8F83010B5202B15
:1029B00004461ED00DD8C3B1102B02D18023A0F83D
:1029C000F83000F0EFFA0123C4F8FC0084F8FA3084
:1029D00010BD402B05D0802BF3D14023A0F8F83058
:1029E000EFE72023A0F8F830EBE71023A0F8F83049
:1029F000E7E70023A0F8F830E3E700BF90F80431E0
:102A0000ABB1B0F8F8308B4211D0202910B503D00B
:102A10000ED809B1102901D1A0F8F810044600F031
:102A2000C1FA0123C4F8FC0084F8FA3010BD7047E5
:102A30004029F1D08029EFD0F0E700BF38B5044637
:102A4000114B1249124A134803F1080524336360FD
:102A5000E1602261A060256004F11400FFF742FBF1
:102A600004F14C0001F0C6FE42F210700222032372
:102A70004FF47A7184F8072184F80831C4F8F4001F
:102A8000C4F80011204638BDBC8F00088C0C002013
:102A900090080020AC0C002038B590F8F0300446C7
:102AA0000D46B3B9002D14BF4FF480414FF40051CF
:102AB0000122E068FFF7F8FE2A460421A06801F031
:102AC000E9FB00F06FFA0123C4F8EC0084F8F03061
:102AD00038BD00224FF40051C068FFF7E5FEE06802
:102AE00000224FF48041FFF7DFFE4FF4FA7000F050
:102AF0009DFAD7E7F8B50446002500F11406012732
:102B00002946304684F8E85084F8F050A4F8F8508C
:102B100084F8FA5084F8065184F80471FFF7CAFB70
:102B2000394684F805013046FFF778FD04F1DC06EC
:102B3000211D04F14C0001F08DFE30464FF400538E
:102B40000821064A01F0D8FB304601F037FE29463D
:102B50003046BDE8F84001F007BC00BF000C014062
:102B6000B0F8F830402B06D0802B00D07047DC3016
:102B700091B901F015BC90F80531002BF6D00B4649
:102B800010B511460446143043B1FFF7C1FC20696B
:102B9000BDE81040FEF75CBB01F012BCFFF7CAFCB9
:102BA000F5E700BF70B50D460446C068FFF7C0FEEC
:102BB000402D50D094F806316BB194F80531002BBC
:102BC0006BD100212069FEF765FB2069FEF740FB11
:102BD000002384F80631802D25D104F1DC0630462F
:102BE0000121A4F8F85001F0BFFB304694F8081119
:102BF00001F016FC35492069FEF73AFB2946E068EA
:102C00000122FFF751FEE06801220421FFF74CFE8C
:102C1000A0682021012201F03DFB20690121BDE8CF
:102C20007040FEF721BB002104F1DC0001F09CFBA9
:102C3000A4F8F850BDBB2A46E0680421FFF734FE33
:102C400029462069FEF710FB2A46A0682021BDE82E
:102C5000704001F01FBB002104F1DC0001F084FB97
:102C600094F80531A4F8F8505BB919492069FEF7CA
:102C7000DDFA18492069FEF7FBFA012384F80631D2
:102C8000BCE704F1140630460121FFF7C1FB3046D2
:102C900094F80711FFF760FCEBE7002104F1140042
:102CA000FFF7B6FB8DE7102D06D0202DA6D10A49DF
:102CB0002069FEF7DDFAA1E7E06801220821FFF7AD
:102CC000F3FD06492069FEF7D3FA97E7489000081C
:102CD0002C9000083C900008249000081C900008EC
:102CE00030B590F8F03087B00446002B48D194F806
:102CF000FA30002B32D1B4F8F830402B01D007B0B5
:102D000030BD94F80531002BF9D00DF10E0304F11C
:102D100014050093284603AB0DF10A0202A9FFF740
:102D200069FA002845D12846FFF756FA014620697E
:102D3000FEF7B8FA20690121FEF7ACFA284604A98B
:102D4000FFF77AFC9DF816102069FEF7A7FA2069B4
:102D50009DF81110FEF7C4FA07B030BD00F022F95B
:102D6000D4F8FC30D4F80021C01A9042C3D3B4F890
:102D7000F8102046FFF716FF002384F8FA30BAE770
:102D800000F010F9D4F8EC30D4F8F420C01A9042D6
:102D9000ADD300224FF40051E068FFF785FD00221B
:102DA0004FF48041E068FFF77FFD002384F8F030A6
:102DB0009DE7BDF80E00BDF80C300090BDF80A206C
:102DC000BDF8081004F14C0001F056FDABE700BF60
:102DD00010B5044690F8E81081F0010180F8E81081
:102DE000FFF75AFE94F8E810204619B9BDE81040E4
:102DF000FFF7D8BE1021BDE81040FFF7D3BE00BFDB
:102E000090F8043110B5044633B190F8E8201AB1B7
:102E1000FFF7DEFF94F8043183F0010384F80431F6
:102E200010BD00BF38B5B0F8F830402B08D0802B6B
:102E300000D038BDDC30B9B9BDE8384001F0E0BAA7
:102E400090F80531002BF4D000F1140420460D4613
:102E5000FDF748FF01465DB908B1411EC9B22046E1
:102E6000BDE83840FFF778BBBDE8384001F0B8BA9C
:102E70000131C9B2F3E700BF30B44FF6DF7441F45B
:102E80007F4343F0DF03A34231D04FF6EF7441F4A8
:102E90007F4343F0EF03A3423AD04FF6F77441F477
:102EA0007F4343F0F703A34236D04FF6FB7241F461
:102EB0007F4343F0FB03934220D04FF6FD7241F471
:102EC0007F4343F0FD0393422AD04FF6FE7241F454
:102ED0007F4343F0FE03934226D04EF6FF7341F446
:102EE0006F4141F0FF0199420FD030BC704790F81C
:102EF0000431002BF9D030BCFFF756BD90F80431F7
:102F0000002BF2D030BCFFF763BF30BCFFF778BFB7
:102F1000012130BCFFF724BE002130BCFFF720BEEA
:102F2000012130BCFFF77EBF002130BCFFF77ABF24
:102F3000124B134A1B68A2FB03239B09013BB3F10D
:102F4000807FFCD270B40F4A0F4DF026002407207A
:102F50000E49536085F8236094601060CB6813F0CD
:102F6000807309D1C8680A4A40F08070C860536015
:102F7000136843F00103136070BC704774040020B1
:102F8000D34D621010E000E000ED00E0F0ED00E055
:102F9000001000E0024A136801331360704700BF5D
:102FA000CC0C0020014B1868704700BFCC0C0020EF
:102FB00010F1FF30044A06D3116813689942FCD01F
:102FC00010F1FF30F8D27047CC0C0020084B10B441
:102FD0001B68084C0849A4FB03430A4649689B0C3C
:102FE00000FB031053681B1A002BFBDB10BC70475F
:102FF0007404002083DE1B43001000E0084B094AE4
:103000001B680948A2FB0323014640684FF47A720B
:103010009B0C02FB03024B689B1A002BFBDB7047E7
:103020007404002083DE1B43001000E00D4B10B43D
:103030001A680D4C4FF47A73A4FB022410F1FF3090
:103040004FEA944403FB04F4084908D34A68224435
:103050004B689B1A002BFBDB10F1FF30F6D210BC43
:10306000704700BF7404002083DE1B43001000E0A3
:10307000FFF7DCBF70B5012186B01E4D0820FEF7BA
:1030800019FD01214FF48020FEF722FD1A4C28463D
:1030900001A94FF4806203231826ADF804208DF8AF
:1030A00006308DF80760FEF749FC01A92846042286
:1030B0004FF400638DF80720ADF804304FF4E1358C
:1030C000FEF73CFC00230C22204602A9ADF8143088
:1030D000ADF81030ADF80E30ADF80C30ADF8122070
:1030E000029500F051FE2046012100F0ABFE06B033
:1030F00070BD00BF000C014000480040014608B50B
:10310000044800F0C9FE8021024800F0CDFE0028EE
:10311000F9D008BD0048004070B5013982B01C46A6
:1031200006290BD8DFE801F0041F0A0A0D25250047
:103130004FF4FA70FFF77AFFFFF79CFF012002B00F
:1031400070BD1A4B01921878400000F0FE00FFF7A6
:10315000D5FF019A1046FFF7D1FF6E20FFF736FF2B
:10316000012002B070BD114BE2B91A70012002B00B
:1031700070BD002AE2D0551EEDB201350B4E25443C
:103180003078400000F0FE00FFF7B8FF14F8010BA4
:10319000FFF7B4FF6E20FFF719FFA542F0D1012021
:1031A00002B070BD01221A70E0E700BFD00C002011
:1031B0002DE9F04F83B09DF830B099428CBFCF1A03
:1031C0005F1A5A450C461E4681469246FFB23DD9CB
:1031D000CBEB0203DBB29F42019345D2114622465C
:1031E000B2465C460E4693464FF00108DA4534BFBE
:1031F0004FF0010B4FF0FF3B019B43F34705FF2EC0
:1032000008BFFE26B44210D8B8F1000F10D15246C4
:1032100021464846FEF74AFBED1BEAB255B201349F
:10322000002DE4B20ADBA642EED203B0BDE8F08F77
:10323000224651464846FEF739FBEDE701990AEB75
:103240000B0355185FFA83FA6DB2ECE7C2EB0B0380
:10325000DBB29F42019325D3B14215D8019A4FF0BA
:10326000000801971746C1E7B142F7D921463A460F
:103270003446DA4647F347050E46019F4FF00008F3
:103280004FF0010B0192BAE721463A463446DA463E
:1032900047F347050E46019F4FF000084FF0FF3BF4
:1032A0000192ACE7314622465E4654468B46924632
:1032B0004FF001089AE700BFF0B5074687B0294CE8
:1032C00001210420FEF7F6FB01214FF48040FEF7B8
:1032D000F1FB1825204669464FF4007203238DF850
:1032E0000350ADF800208DF80230FEF727FB0422D2
:1032F00069464FF4806320468DF80320ADF8003016
:10330000194DFEF71BFB4FF4E06001F0CBFB0024EE
:103310000126252301A88DF804308DF805408DF88D
:1033200006408DF8076001F0C7FB0C23284602A970
:10333000ADF812300297ADF81440ADF81040ADF87A
:103340000E40ADF80C4000F01FFD3246284640F21A
:10335000255100F085FD3146284600F073FD07B089
:10336000F0BD00BF0008014000380140F0B507463D
:1033700087B01D4E01210420FEF79CFB042501218E
:103380004FF40030FEF7A4FB184C182230460DEB2A
:10339000050103238DF807208DF80630ADF80450A1
:1033A000FEF7CCFA0DEB050130460823ADF80430EA
:1033B0008DF80750FEF7C2FA00230C22204602A91E
:1033C000ADF81430ADF81030ADF80E30ADF80C306B
:1033D000ADF81220029700F0D7FC2046012100F042
:1033E00031FD07B0F0BD00BF0008014000440040BF
:1033F00010B5012882B04FF004020CBF1824042439
:1034000003230DEB020105488DF80740ADF80420B9
:103410008DF80630FEF792FA02B010BD00080140A8
:1034200030B484784579121BED0802FB05F2802444
:1034300001F00705D2B22C4102EBD1018068E2B263
:103440002BB9435C23EA0202425430BC7047435C10
:103450001A43425430BC704710B484784A7894427E
:1034600006D8C478944203D343790C78A34201D898
:1034700010BC70470B79214610BCFFF7D1BF00BFCD
:103480002DE9F041CB780D4606468C78032B26D8E3
:10349000DFE803F01F1B1702FF274FF0000809E0C9
:1034A0002A786B78640042443B4414F0FF042A708D
:1034B0006B7012D02306F3D529463046FFF7CCFFB8
:1034C000EEE700274FF0FF08F4E701274FF0000870
:1034D000F0E700274FF00108ECE7BDE8F081002796
:1034E000B846E7E710B5143A82B04C68332A22D8C0
:1034F000DFE802F02932213C212121212121212153
:1035000021212121212121212121212121212121AB
:1035100021214321212121212121211A2121212180
:103520002121212121214A24194620460193FCF71B
:10353000F7FF019B68BB012002B010BD627801203B
:103540001A7002B010BD2046FCF7D6FF2046FEF7E9
:10355000CFF9012002B010BD2046FEF7D1F90028B6
:10356000EAD02046FCF7C8FF0120E5E720461946CF
:10357000FCF7CCFF012002B010BD20461946FFF732
:103580006BFF012002B010BD627901201A7002B0F9
:1035900010BD20461946FFF773FF0120CCE700BF9E
:1035A00010B54FF4E130E2B0FFF786FEFFF7C0FC44
:1035B0003C48FDF7DBF93C48FFF718F93B4800F0C1
:1035C0002FFE3B48FDF7E8FE01213948FDF704FED8
:1035D000384A00213648FDF787FE374C3448FEF75D
:1035E00091F801213248FDF7BFFD2368DA0740D585
:1035F0003248FEF7F1FA32480368DB0742D531481A
:10360000FCF7A6FD2F492D48FEF7FAFA1FA8FFF791
:1036100015FA1FA8FFF76EFA1FA92848FEF7F0FA5F
:103620001FA92848FCF796FD684600F051F8684647
:1036300000F008F969462148FEF7E2FA6946214898
:10364000FCF788FD1A480021FDF7C6FD1E48FDF76E
:103650008DF91A48FEF714FB1A48FCF775FE684608
:1036600000F01EFA1FA8FFF73BFB1148FEF74AF8CF
:10367000EFE7204602F098FA0028B9D0204602F081
:10368000A2FAB5E702F090FA0028B8D00D48FCF78E
:103690003FFD0B4802F097FAB1E7094802F090FAB3
:1036A00002F05CF9549000088C0C0020AC0C002057
:1036B0009008002078900008980900209C090020BC
:1036C000D40C0020D80C002084900008704700BF64
:1036D00038B50E4D0E4A2B680446DB0702600CD548
:1036E0000C4D0D480D490E4A4FF47A73A060656089
:1036F000E1602261A366204638BD284602F054FAF4
:103700000028EDD0284602F05EFAE9E7980900208B
:10371000309100089C090020AC0C00208C0C00208B
:103720009008002010B50446F9B990F875300BB137
:1037300080F8751094F87120A2B984F87620E068BA
:103740004FF48061FFF7B0F8E06894F875204FF40B
:103750000071FFF7A9F894F875102069BDE81040D2
:10376000FDF758BD94F87620E9E7012280F876202D
:1037700080F87520E3E700BF70B590F870401CB981
:1037800090F8753023BB70BDC66E044630460D46BA
:1037900002F054FF88B194F87530F3B129463046F1
:1037A00002F02EFF0028EED01048FDF7DFF820468B
:1037B000BDE870400021FFF7B5BF2946304602F052
:1037C0001FFF0028DFD094F87530002BECD170BDBE
:1037D0002146BDE87040FFF7A5BF0548FDF7C6F8D4
:1037E0002046BDE870400121FFF79CBFBC90000857
:1037F000A4900008F0B5054683B0084616460C466E
:1038000002F026FF02F00AFD0146204602F050FCBD
:103810000A4902F057FD02F041FF0746204602F038
:1038200017FF3B4602B206496846FDF735F86A467F
:1038300031462869FDF7D8FC03B0F0BD00002041F7
:10384000007E000870B5044682B02948FDF78EF866
:10385000284900230122E16684F8722084F871303F
:1038600084F8703084F8733084F8743084F87530DC
:1038700084F8763084F8773084F878306068FEF722
:10388000BDF984F8790018B91B492069FDF7CEFC11
:1038900004250222E16E2046FFF7ACFF022610232A
:1038A0000DEB05011548ADF804308DF807508DF883
:1038B0000660FEF743F829460123104A04F114007C
:1038C000FDF790F9334629460C4A04F13C00FDF718
:1038D00089F9FFF767FB012260664FF48051A06809
:1038E00000F0D8FC0648FDF741F802B070BD00BFFB
:1038F000D490000800000C42F49000080008014039
:103900000891000810B5102104460C48FEF772F823
:1039100000B110BD94F87320E06882F0010284F8D1
:1039200073204FF40061FEF7BFFF94F87320A06886
:103930004FF48071BDE8104000F0ACBC00080140BD
:1039400010B5102104460C48FEF754F800B110BD24
:1039500094F87420E06882F0010284F874204FF437
:103960008051FEF7A1FF94F87420A0684FF4007115
:10397000BDE8104000F08EBC0008014010B51021D9
:1039800004460948FEF736F800B110BD94F87020DF
:10399000A06882F0010284F870204FF48061BDE8D5
:1039A000104000F077BC00BF0008014010B51021A6
:1039B00004460C48FEF71EF800B110BD94F87120C3
:1039C000E06882F0010284F871204FF48061FEF714
:1039D0006BFF94F87120A0684FF40061BDE81040BF
:1039E00000F058BC0008014010B5044690F877205C
:1039F0004FF4004182F00102C06884F87720FEF79E
:103A000053FF94F87720A0684FF40051BDE81040B0
:103A100000F040BC10B5044690F878204FF4807157
:103A200082F00102C06884F87820FEF73DFF94F828
:103A30007820A0684FF48041BDE8104000F02ABC17
:103A400090F8703010B513B990F87130BBB10446DE
:103A5000002380F8703080F8713080F8733080F87F
:103A6000743080F8753080F87630C068FEF74EFF0D
:103A700094F875102069BDE81040FDF7CBBB90F8B5
:103A80007330002BE3D190F87430002BDFD190F825
:103A90007530002BDBD190F87630002BD7D110BDDC
:103AA0002DE9F0431021044683B03F48FDF7A2FF03
:103AB0000546FFF777FA636EA26EC01A904225D2D0
:103AC000291C18BF01212069FDF7A8FBD5B9606842
:103AD000FEF794F894F8793083420BD06068FEF7D3
:103AE0008DF850B12069FDF7B3FB6068FEF786F8EA
:103AF00084F8790003B0BDE8F0832C492069FDF714
:103B000095FBF2E72046FFF79BFFE0E704F1140680
:103B10003046FDF785F804F13C0780463846FDF74E
:103B20007FF8694681463046FDF7A2F840BBB8F100
:103B3000000F25D069463846FDF79AF8D0B9B9F19B
:103B4000000F17D088F00101C9B22069FDF76AFBA8
:103B5000B8F1000F24D03046FDF7A4F88046ADB18F
:103B60003046FDF721F83846FDF71EF8FFF71AFA40
:103B70006066A5E76A4600212069FDF735FBE1E7AD
:103B80006A4601212069FDF72FFBD3E73046FDF798
:103B90006BF80028E4D041462046FFF7EDFDDFE753
:103BA0002046FFF74DFFD6E700080140F4900008DB
:103BB00038B590F87250044685F0010580F87250CF
:103BC0005DB14FF480518068012200F063FB2069F1
:103BD0000121BDE83840FDF7C7BA80F8735080F87E
:103BE000745080F8775080F878502A464FF400617E
:103BF000C068FEF759FE94F87420E0684FF48051D5
:103C0000FEF752FE94F87720E0684FF40041FEF78B
:103C10004BFE94F87820E0684FF48071FEF744FE84
:103C200094F87320A0684FF4807100F033FB94F88F
:103C30007420A0684FF4007100F02CFB94F87720FA
:103C4000A0684FF4005100F025FB94F87820A0689C
:103C50004FF4804100F01EFBA0682A464FF48051CB
:103C600000F018FB29462069BDE83840FDF77CBA12
:103C700038B54FF6FF6441F47E4343F0FF03A3429F
:103C800062D04FF6FF5441F47D4343F0FF03A3425B
:103C90005ED04FF6FF3441F47B4343F0FF03A34271
:103CA0005AD04FF2FF7441F4774343F0FF03A3422D
:103CB00056D04DF6FF7441F45F4343F0FF03A34237
:103CC00052D04BF6FF7441F43F4343F0FF03A3424D
:103CD00052D04FF67F7241F47F4343F07F0393420B
:103CE000044610D04FF6BF7241F47F4343F0BF0348
:103CF00093421CD04EF6FF7341F46F4141F0FF0137
:103D0000994235D038BDC56E1D49284602F08CFC5D
:103D10000028F7D128464FF07C5102F0CBF9E0663D
:103D2000014602222046BDE83840FFF763BDC56E5C
:103D30001449284602F06EFC0028E3D128464FF0D3
:103D40007C5102F0B5F9EAE7BDE83840FFF7DABD8B
:103D5000BDE83840FFF7F4BDBDE83840FFF70EBEC0
:103D6000BDE83840FFF722BEBDE83840FFF73CBE53
:103D7000BDE83840FFF71CBFBDE83840FFF74ABE3A
:103D8000000034420000204130B504460D46038A4D
:103D9000CA889BB223F440531343038282890B8960
:103DA000888892B24989034322F4B0520B4322F02F
:103DB0000C0213439BB2A381A38AAA899BB223F46A
:103DC000407387B01343A38201A8FDF725FE049931
:103DD0001A48039BA289844208BF0B4612F4004F85
:103DE0002A6803EB830314BF5200920003EB8303A2
:103DF000B3FBF2F3124DA189A5FB03206422400915
:103E000000FB12330A044FEA00100AD41A013232BE
:103E1000A5FB0223C3F3431303439BB2238107B0E3
:103E200030BDD9003231A5FB0131C1F3421242EA63
:103E300000039BB2238107B030BD00BF00380140B2
:103E40001F85EB51838929B923F400531B041B0CF4
:103E5000838170479BB243F400538381704700BF56
:103E600010B401F01F04C1F342110123012903FA28
:103E700004F30FD002290CBF103014302AB90268A5
:103E800010BC22EA030303607047026810BC1343AE
:103E9000036070470C30F1E7C1F30801818070477F
:103EA0008088C0F3080070470388194214BF0120BE
:103EB00000207047C1F3421210B4012301F01F0427
:103EC000012A03FA04F315D0022A0CBF028A828A5F
:103ED00092B21340028892B24BB10123090A03FA4D
:103EE00001F10A4214BF1846002010BC7047184662
:103EF00010BC7047828992B21340EBE743185B789D
:103F0000405C03EB002080B2704700BF0020704788
:103F1000704700BF08B5FFF7FBFF18B1022801D0BA
:103F2000032008BD062008BD0621FFF7E7BF00BF3C
:103F30000821FFF7E3BF00BF807A7047C07A70475F
:103F40002DE9F0478468814623780E461846FFF72E
:103F5000DFFF80461846FFF7DDFFB8F1010F82460C
:103F6000204614BFFF270F27FFF7E6FF0246204633
:103F7000FFF7E4FF05462046FFF7DAFF602E30D951
:103F800040B304446122B54217D3AA420CD914E0CD
:103F9000B2422DD0A378AA4203EA070353441C443B
:103FA00002F1010209D0D2B22378FF2BF0D1AA424C
:103FB00004F1010402F10102F5D1002089F81C008E
:103FC00089F81F0089F8200089F81D0089F81E0073
:103FD000BDE8F0872046FFF7A7FF38B1044441222F
:103FE000D1E72046FFF7A0FF402EF6D81134CAE7EC
:103FF000B8F1000F19D0B8F1020F16D003F00F027C
:10400000023A1B0989F81E2089F81D306378204682
:1040100003F00F021B0989F8202089F81F30A378CC
:104020001B0989F81C30BDE8F08789F81F306378D8
:10403000204689F82030E37889F81C30237989F804
:104040001D30637989F81E30BDE8F0872DE9F04F07
:10405000884685B0194616460746FFF771FF0446A5
:1040600000284AD0BB681878FFF754FF97F81EA0C5
:1040700097F82050CAEB060697F81DB05FFA86FA4B
:10408000C344C5EB0A0697F81F80F6B25FFA8BFBB4
:1040900081460095324659464346384600F094F82A
:1040A00030B308F10708C8F3C40319460293FDB101
:1040B000013BDBB20BEBC1080133A14403935FFA70
:1040C00088F8029B83B15C464D4615F8012B2146CA
:1040D00008340092002332463846E4B2FDF7F4FB80
:1040E0004445F2D1039B99440136F6B25645E8D1D6
:1040F00097F91C0005B0BDE8F08F05B0BDE8F08F62
:104100002DE9F0411E46436A174680460C46984703
:104110003378384493B1C7B2002521463A46404629
:10412000FFF794FF16F8013FC0B204440544E4B21F
:10413000EDB2002BF1D12846BDE8F0811D46FAE72B
:104140008368CBB190F82820BAB1012A1ED093F928
:104150000D2080F8292093F90E3080F82A3090F84D
:104160002B10D31A40299BB204D0DBB201FB03F31E
:10417000C3F38F1380F82C30704793F9052080F833
:10418000292093F90C3080F82A30E8E793F90F20C2
:1041900080F8292093F9103080F82A30DFE700BF3B
:1041A000014B4362704700BF0D3F000882688A429E
:1041B00006D010B58160FFF7C3FF024B436210BD0C
:1041C000704700BF0D3F000870B49DF80C4090F898
:1041D0003B60013C14449642E4B290F839500FD34E
:1041E000AC420FD390F83A40013B0B448C42DBB217
:1041F00090F838200BD393420BD370BC012070474A
:10420000AC4201D3A242EDD870BC0020704793426B
:10421000FAD370BC994294BF00200120704700BFC0
:1042200070B5054686B01748FCF7A0FB002444266D
:104230008021402208230291019200932846124BCC
:10424000049403964FF400121049FDF793FE2246A2
:1042500021462846FDF7B8FE224628460121FDF7F3
:10426000B3FE224621462846FDF7F6FE22462846A2
:104270000121FDF7F1FE0648AC8306B0BDE87040B1
:10428000FCF774BB48910008000C0140005400404A
:104290006091000838B50D460446818B42B1124B3F
:1042A0002A461248FCF74EFBA38B1D4208D038BDAE
:1042B0000F4B2A460D48FCF745FBA38B1D4211D03E
:1042C0000C48FCF753FBA28B00216A40A2832046D6
:1042D000120AFDF7C1FE227F2046BDE838400121C9
:1042E000FDF7BABE38BD00BF6480000878910008B1
:1042F000208000080080000870B50446002582B0C8
:104300004260038101600846A5720121FDF7D2FBDE
:1043100026890223102201A960688DF807208DF8F4
:104320000630ADF80460FDF709FB4FF4E130FFF70C
:104330001DF82846FFF75CF82A4621896068FDF7DA
:1043400065FB02B070BD00BF08B50220FCF714F990
:10435000044B1868FCF7F6FABDE808400120FCF7AA
:104360000BB900BF7004002038B504460D46406804
:1043700021896DB10122FDF749FB0120FFF738F8D3
:104380002046FFF7E1FFBDE838406420FEF74EBE4F
:104390002A46FDF73BFB2846BDE83840FFF728B822
:1043A00008B50220FCF7E8F8044B1868FCF7CAFAD5
:1043B000BDE808400120FCF7DFB800BF6004002022
:1043C00008B50220FCF7D8F8044B1868FCF7BAFAD5
:1043D000BDE808400120FCF7CFB800BF6C04002006
:1043E00008B50220FCF7C8F8044B1868FCF7AAFAD5
:1043F000BDE808400120FCF7BFB800BF64040020FE
:1044000008B50220FCF7B8F8044B1868FCF79AFAD4
:10441000BDE808400120FCF7AFB800BF68040020E9
:1044200070B502200E46FCF7A7F80E4D0E24286842
:10443000FCF788FA3220FEF7F9FD631E13F0FF0443
:10444000F5D156B1084D28680134FCF77BFAE4B287
:104450003220FEF7EBFDA642F5D10120BDE8704009
:10446000FCF78AB86804002064040020F8B50F4601
:104470001646FEF797FD054604E0FEF793FD401B48
:10448000B0420BD820210648FFF70EFD0446002855
:10449000F3D00348FFF704FD012438702046F8BD2F
:1044A000004400402DE9F04F83B0164600AF0732BC
:1044B00022F00702994697F83030ADEB020D002E3E
:1044C0008A466D467B601CDD804600240AE034B9D4
:1044D0002B789AF800401C1B18BF4FF0FF340134B2
:1044E000A6420EDD4A4629194046FFF7BFFF834624
:1044F0000028ECD17B685BB900200C37BD46BDE8D5
:10450000F08F7B6873B14FF0010B01E0FFF7C8FC3F
:1045100020210A48FFF7C8FC01280848F6D0BBF163
:10452000000FE9D032465146284603F051F8B0FA60
:1045300080F00C374009BD46BDE8F08F00440040D4
:10454000F0B5064683B02448FCF710FA0020FEF7C9
:104550004FFF318900227068FDF758FAC820FEF736
:1045600065FD318901227068FDF750FA0120FEF7E0
:104570003FFF01230093304642F210730422174993
:10458000FFF790FFE0B1164DC52105F1080715486A
:10459000FFF782FC80211348FFF786FC01280446C0
:1045A000F8D1BD4202D015F8011FF0E700904FF49A
:1045B000FA6304220C493046FFF774FF054618B928
:1045C0000025284603B0F0BD0848FCF7CFF928467F
:1045D000B47203B0F0BD00BFD8910008D0910008BC
:1045E000B891000800440040AC920008F091000827
:1045F00070B5064682B01448FCF7B8F901E0FFF741
:104600004FFC20211148FFF74FFC01280F48F6D03E
:104610000F4C5021E51C0D48FFF73EFC80210B4854
:10462000FFF742FC0128F9D1AC4202D014F8011F77
:10463000F1E700904FF4FA63304604220549FFF792
:1046400031FF02B070BD00BF10920008004400406E
:10465000D4910008B4910008F0B5074683B028480B
:10466000FCF784F901E0FFF71BFC20212548FFF748
:104670001BFC01282348F6D0234C3121E51C21489E
:10468000FFF70AFC80211F48FFF70EFC0128F9D133
:10469000AC4202D014F8011FF1E71C4E002435682B
:1046A000284603F0DDF9844210D2295D1548FFF752
:1046B000F3FB80211348FFF7F7FB0128F9D1356898
:1046C0000134284603F0CCF98442EED30F2C0CD8E9
:1046D00000210C48FFF7E0FB80210A48FFF7E4FBCC
:1046E0000128F9D10134102CF2D10123009338466E
:1046F0004FF4FA6304220649FFF7D4FE03B0F0BD7D
:104700002892000800440040C49100085C04002086
:10471000A892000870B5054686B02248FCF726F935
:1047200001E0FFF7BDFB20211F48FFF7BDFB01287B
:104730001D48F6D01D4C1121E61C1B48FFF7ACFBB1
:1047400080211948FFF7B0FB0128F9D1B44202D00B
:1047500014F8011FF1E70023009304224FF4FA63D9
:1047600013492846FFF79EFEC8B102AC06AE2146AB
:104770004FF4FA622846FFF779FE013478B1A64279
:10478000F5D102A90B48FCF7DDF80B4B02A819681C
:1047900003F02AF8B0FA80F0400906B070BD00209E
:1047A00006B070BD3C92000800440040C89100086B
:1047B000CC910008509200085C04002038B5837A40
:1047C000044663B12046FFF7A5FF70B92046FFF706
:1047D00043FF05462046FFF70BFF284638BDFFF78D
:1047E000AFFEA07A0028EDD138BD2046FFF700FFCC
:1047F000012038BD00220271C270827042700270C6
:1048000080F82420A0F84C20704700BF0346F0B584
:104810000E4C0F4A03CCC3F80600C3F80A102678E2
:1048200003CAD3F806401778D3F80AE000229E7333
:104830001C611E76C3F814E0C3F81A0083F82270D6
:10484000C3F81E1083F84E205A71F0BDB0920008D4
:10485000BC92000830B40123002504240822C5625C
:10486000846381624163016442640363C36383645C
:1048700080F8243030BC70472DE9F04F83B00446F7
:10488000BDF83060002963D01112C2F3C02021F0BE
:104890000F01014341F00A0149B200202A29217089
:1048A0006070A07078D03BDD4A294ED11B0103F027
:1048B000100343EA1633C6F38512C3EB0313F6B2B3
:1048C00016F0200F02EB830306F01F069BB214BF05
:1048D000A6EB0616C6EB061603EB460694F8243044
:1048E000B6B293B3B4F84C30B3422ED06B49A36C3C
:1048F000A1FB06214909C1EB0112A6EB8202DD07EB
:10490000A4F84C60D2B2C9B2206C6BD55B10C5580C
:10491000646C18442C59234603B0BDE8F04F184787
:104920000A39012911D802F00302520004EB0208EF
:1049300098F80630370A551CBB42F6B2254455D0CC
:10494000002388F80670AE71A37303B0BDE8F08F42
:10495000FFF75CFF94F82430002BF6D0236B04F1B2
:104960001A01DD07A06A79D55B10C558E26A1844C0
:10497000AA58904794F82430002BE6D0E36B606B84
:10498000DA076FD55B10C158A26B18448A584449A6
:1049900003B0BDE8F04F1047D2B202F010016079C9
:1049A00002F00F029500C9B2A842E17003D994F851
:1049B0002420002A5AD1227965718A4203D000222C
:1049C000217184F84E2067194FEA232E311287F89F
:1049D0004EE087F84F3087F8501087F8516003B0E9
:1049E000BDE8F08F646C00EB630094E7AB79B342F1
:1049F000A6D1062A88F810702E742076A5D104F16D
:104A0000100B04F106095946484602F0EDFE002855
:104A10009BD104F11A0A5146584602F0E5FE0028DF
:104A200093D05946504602F0BDFF94F82430002B35
:104A30008BD0206BC3072DD5A26A40101158E36AB2
:104A4000CB5851461044984799F80630BB427FF442
:104A500077AFAB79B3427FF473AF76E7E26A00EBEE
:104A6000630086E7A26B00EB630090E7E26B04F162
:104A70004E01D707606B09D5521087581044A26BBE
:104A8000BF580193B847E178019B94E7A76B00EB0F
:104A90006200F6E74010E36AA26AD2E78988888854
:104AA000DC7E000840F0BF60024B40F40030D8606C
:104AB000704700BF00ED00E0C3785BB903780121C7
:104AC0005A09164803F01F03203201FA03F340F895
:104AD00022307047124B30B4D9688278C943447889
:104AE000C1F302210F23C1F10405CB40AC401340B8
:104AF000027823431B0102F16042DBB202F56142FE
:104B000082F800330378012203F01F0003495B0998
:104B1000824041F8232030BC704700BF00E100E034
:104B200000ED00E008B50D4B012198420AD04FF48A
:104B30008000FCF7DBFFBDE8084000214FF4800057
:104B4000FCF7D4BF4FF40010FCF7D0FFBDE80840DD
:104B500000214FF40010FCF7C9BF00BF0054004013
:104B6000F0B504460D4687B0868801A8FCF754FFCF
:104B7000314F039B26F03F06A7FB03273604BF0CEB
:104B8000360CB8B20643A68021882A6821F00101BC
:104B90002A4E0904090CB242218024D85200B3FBEA
:104BA000F2F39BB2032B00F1010098BF0423208491
:104BB000A3832188AE8889B241F001012180238836
:104BC0006A8923F4816323F00203A88929891B04DD
:104BD00032431B0C134340EA01029BB292B2238082
:104BE000228107B0F0BD4BF6FF71E88888421DD0E6
:104BF00002EB820202EB8202B3FBF2F39BB243F4BC
:104C00008043C3F30B020AB943F001034FF49672D9
:104C100002FB07F70A4AF91782FB0702C1EBA2124F
:104C2000013292B243F400432284C1E702EB420016
:104C3000B3FBF0F39BB2E4E783DE1B43A0860100E5
:104C4000D34D6210038829B923F001031B041B0C08
:104C5000038070479BB243F001030380704700BF9D
:104C6000038829B923F480731B041B0C038070474D
:104C70009BB243F480730380704700BF038829B957
:104C800023F400731B041B0C038070479BB243F496
:104C900000730380704700BF038829B923F4806341
:104CA0001B041B0C038070479BB243F4806303809A
:104CB000704700BF01827047008AC0B2704700BFD2
:104CC00022B901F0FE0189B20182704741F0010171
:104CD00089B20182704700BF838A008B9BB243EA8E
:104CE000004321F07F4203EA0200401AB0FA80F04C
:104CF0004009704782B000230A0F0093019301908E
:104D00000092009B21F07F4153B1019B143301932A
:104D1000019B1B68194214BF0120002002B070479C
:104D2000019B090C18330193F2E700BF3C4B30B4F0
:104D300018683C4940F0010018605D6882B0294065
:104D400059601968002021F0847121F480311960C4
:104D500019684FF41F0421F48021196059681A461C
:104D600021F4FE0159609C6000900190196841F4A3
:104D70008031196003E0009BB3F5A06F09D0136880
:104D800003F400330193009B01330093019B002B3C
:104D9000F1D0234B1B6813F4003318BF0123019398
:104DA000019B012B06D0204B4FF000629A6002B0AD
:104DB00030BC70471D4A1A4B1068194640F010006D
:104DC0001060106820F003001060106840F00200CE
:104DD00010605A685A605A685A605A6842F4806291
:104DE0005A605A6822F47C125A605A6842F4E812F7
:104DF0005A601A6842F080721A600B68084A9B0178
:104E0000FBD51146536823F003035360536843F006
:104E1000020353604B6803F00C03082BFAD1C2E77E
:104E2000001002400000FFF800ED00E0002002400A
:104E300010B50446024B036000F066FE204610BD2C
:104E4000D092000810B50446FFF7F2FF204600F0AC
:104E5000FDFE204610BD2DE9F14F0E461946834652
:104E6000174699460A9CDDF82CA0DDF830800D9D90
:104E700000F05EFD78B1002E2C602F7106DB34440B
:104E8000A0450CBF06240124AC711EE002361CD1E3
:104E90000123AB7119E0444504D15146584600F056
:104EA00047FD88B9DBF808003A4603680D95CDF850
:104EB0003080CDF82CA00A94DC6931464B46A446DC
:104EC00001B0BDE8F04F60476F71002001B0BDE850
:104ED000F08F2DE9F041069E804696420F4614461B
:104EE0001D4603D1194600F023FD58B9D8F8080033
:104EF0002246036806961E6A39462B46B446BDE82C
:104F0000F04160470620BDE8F0812DE9F0410446FC
:104F10000D4616461F4600F00AFE48B9A068324604
:104F2000036829469C693B46A446BDE8F0416047BA
:104F3000BDE8F08170B50023A0EBC006C0EBC00255
:104F400010F8015B941905F07F02A24013432A0672
:104F5000F4D40B6070BD00231A4630B510F8014B35
:104F600004F07F0595402B43250602F10702F5D496
:104F70001F2A06D8640642BF4FF0FF3404FA02F23B
:104F800013430B6030BD5028F7B505460F46144655
:104F90001E4605D1D01C20F0030050F8043B33E03E
:104FA00000F00F030C2B23D8DFE803F01A07121AC6
:104FB0001E222222220C161A1E0001A92046FFF7EB
:104FC000B9FF03E001A92046FFF7C5FF019B11E0EF
:104FD000204630F8023B0DE0204630F9023B09E064
:104FE000204650F8043B05E0204650F8083B01E01D
:104FF000FBF7D2FC43B105F07002102A18BF3C4603
:105000002A06234448BF1B68336003B0F0BD08B5CF
:105010000346FF2B08461CD003F07003202B0ED054
:1050200003D8B3B1102B12D113E0402B0BD0502B6F
:105030000FD0302B0BD1BDE8084002F0BDBABDE85F
:10504000084002F0B5BABDE8084002F0A1BAFBF78B
:10505000A3FC002008BD70B50C460146204615464D
:105060001E46FFF7D4FF33462A4601462046BDE8D8
:105070007040FFF788BF73B50E461446054610B161
:1050800002F086FAFFE720603178721CFF2905D014
:10509000231D2846FFF7DFFF024600E0606013781B
:1050A000501CFF2B237507D01023237501A9FFF790
:1050B00041FF019B034400E00023E360037801A962
:1050C00063750130FFF736FF019B0344236102B093
:1050D00070BD1FB503AB009300230A46194601F0CB
:1050E000CDFC039805B05DF804FB00002DE9F04FFE
:1050F000002391B0049300F00303012B07460C46F4
:1051000015460ED002D3022B02D0EFE0020717D5CE
:105110002946204602F028FA08B109209FE108201C
:105120009DE100F0080202F0FF065AB9D1F8208094
:1051300028460D21FFF7CDFF804520D1062602E04D
:10514000012600E0022610AB43F82C4D009307F037
:10515000080700233E430C221946284601F0B4FC00
:10516000062E17D1D4F83080A76AB8F1000FD4F812
:105170002C900CBF4FF0010A4FF0030A05E110AA72
:1051800042F82C4D0092334631460C22284601F05D
:105190009BFC0226284602F001FA81460028B7D07F
:1051A0000AAA01462846FFF766FF294680469DF871
:1051B0003C00FFF72CFF0F210C902846FFF789FFDA
:1051C00020F00100471E0E9B984580F03F8142462B
:1051D00006AB9DF83D100020FFF73DFF07AB0246F0
:1051E0009DF83D100020FFF736FF08AB02469DF802
:1051F0003D100020FFF72FFF09A9FFF79BFE069B3C
:105200000A9A804613449F4202D2DDF83880DAE7DA
:10521000079A13449F42D6D2089818B10B9B00EB13
:10522000030800E08046099810B10E9F0138384409
:10523000B8F1000F3FF46CAF002800F00C8116F0BD
:105240000803029314D0472323704E236370552321
:10525000A3704323E370462323714F2363715223CA
:10526000A3710023E3714FF0000A6FF0030B1BE002
:10527000E379012B0CBF54F8203C04F1580304934C
:10528000F1E704270D9A09AB07FB11220C99FFF7F0
:105290007AFE0999002900F0D5806CBB089F002F89
:1052A00059D0039B3B44184607A9FFF754FE08A9B1
:1052B0000390FFF750FE0799002949D025DD9DF89E
:1052C0003C00FF2814D000F00703042B0ED801A2E5
:1052D00052F823F083520008ED520008F5520008FE
:1052E00083520008E95200080827CBE7FBF754FB7C
:1052F0000027C7E70227C5E704AB0022204600F0DD
:1053000051FB002840F09E80C8E70D9F4A1CB4B1B5
:10531000029BA3B90BFB0272049B171F069357F85D
:10532000041F41B106AB00223944204600F03AFB8D
:105330000028F4D0012181F00101C9B205E00BFB86
:1053400002F2B958B1FA81F149090029A6D079E0F1
:105350004FF0010AA2E7BAF1000F3FF4D9AE4FF0C7
:10536000020AF30711D5BAF1020F3FF4D1AE0D21B5
:105370002846049EFFF7ADFE66622062A762C4F86D
:105380002C90C4F83080062069E016F0080608D09A
:10539000BAF1010F01D100F0B1FA002F24DA00F0C8
:1053A000BFFABAF1010F02D1204600F02CFC002F09
:1053B0001ADA0AAA49462846FFF75DFE29469DF8F3
:1053C0003C00FFF724FE6FF0030307FB03330D9A45
:1053D0000C90134453F826200AB10136FAE7042250
:1053E000A662E0622263636310AB43F81C4D009336
:1053F00000231A461946284601F066FB10AB43F815
:10540000207D0093002319460122284601F05CFB11
:105410000F212846FFF75DFE00F0010010AB40EAC7
:10542000080043F8240D009300230F221946284654
:1054300001F04AFBBAF1020F02D1204600F00EFB48
:1054400007200CE0079F4FF0030A8AE74FF000089F
:105450004FF0010A01E04FF0020A002781E711B086
:10546000BDE8F08F10B50446024B036000F04CFB22
:10547000204610BD6493000810B50446FFF7F2FF04
:10548000204600F0E3FB204610BD2DE9F74FDDF884
:10549000309004464A450F461646984605D11946AF
:1054A00000F046FA08B1062026E0E56804EBC504E2
:1054B0000DB3E3689A0702D4013D083CF8E713F006
:1054C000010A4FEA232203D0FB1CF5D033689A5817
:1054D000A06832440368CDF80090D3F820B0394674
:1054E0004346D8470328E7D9BAF1000F04D040F06B
:1054F0000100C0B200E0012003B0BDE8F08FF0B4BD
:105500000D1E049C05DB5019844214BF01200620A7
:1055100008E0023505D0056804942C6AA446F0BC66
:1055200060470120F0BC70472DE9F04F91B01D9C01
:105530000793A3688846D90648BF8368069248BF88
:10554000A3601C9A1A9B8246934208D11B9900F0D3
:10555000EFF920B19DF818306371002727E1079912
:10556000504600F0E5F90746C8B11A9BB8F1000FA4
:1055700023609DF8183023710BDB1A9B98441C9B09
:1055800043450CBF4FF006084FF0010884F8068031
:10559000E3E718F1020FE0D10123A371DDE74FF03B
:1055A0000009CB46B8F1000FA9BF1C9B0897C8EBB8
:1055B0000303089301230993069BCDF8289043F039
:1055C00001030B93DAF80C300AEBC3020492059343
:1055D000059B002B00F0A380049BA568DB680F955A
:1055E000DA0748BF1A984FEA232148BF0068CDF870
:1055F00034B048BF41581A988DF838B00144089823
:105600008DF839B08DF83AB04CBF0B9A069A30B18C
:105610008842099E2CBF00200120B04278D09B0711
:105620000DD418F1020F08D1AE0706D1059B013B3E
:105630000593049B083B0493CAE702F0FD02049B18
:105640000DAD9868036803951C9D02951B9D8DE820
:1056500022004146DD69079BA84761799DF8392002
:105660009DF83A501143062D0346617101D0022D79
:1056700006D10D9BA57123609DF8383023714AE057
:105680002268B9F1000F0ED16AB90D9A9DF8385011
:1056900022602571002A36D0002934D0DAF808209B
:1056A000D50730D437E052B10D9B9A4205D122790B
:1056B0009DF838301343237124E02BB920B90D9B9A
:1056C00003B3B9F1000F1DD00329A67904D9C80787
:1056D00053D5A368990750D556B395B385EA060309
:1056E000DBB2032B3AD9032D07D92E460D9B4FF081
:1056F000000923609DF838302371B207A67156D493
:10570000F30754D54B466279042A06D099468DE7B3
:1057100001230A938AE7074649E01F4647E00A9BB0
:1057200023B1099B13B1059B09934BE74F463EE01C
:10573000032D29D9EB070DD5DAF808309E0709D5D6
:1057400022E0032E29D9F00706D5DAF808309907A8
:1057500023D401E00126C1E70125BFE73540EDB2C2
:10576000032D05D9002323600223A37101271EE026
:105770000123C4F800B0A371C5E7002E08BF0126BD
:10578000002D08BF0125A9E71C9B414600930798FF
:105790001B9BFFF7B4FE06469FE71C9B0D9A0093E8
:1057A00041461B9B0798FFF7AAFE054696E7384639
:1057B00011B0BDE8F08F2DE9F04F89B0804602911D
:1057C00092461C4600F0B3F90546002840F085805B
:1057D000D4F80890D8F80C6019F0100F18BFD8F85A
:1057E000089008EBC60709F001034FF0000B039384
:1057F000002E5FD0FA68CDF810B002F001030093DC
:1058000012F002038DF814B0CDF81890CDF81CB04A
:10581000019304D1039B13B9013E083FE8E7BAF1B5
:10582000000F07D0009B121213B1DAF800309A581B
:10583000524400E05246B868029903689D6904AB7F
:10584000A84705460028E7D0079B082B03D1009BFB
:105850000BB1BB6807939DF81430032B01D9019A53
:105860006AB3E168A9B904AB0FCB84E80F002379D0
:10587000032B32D99A0704D5D8F8083013F0010F5A
:1058800005E0DB0729D5D8F8083013F0020FC3D1A3
:1058900023E02368049A934202D00023236013E09C
:1058A000ABB9079808280FD008290DD000F040F8B0
:1058B00068B909E02579003518BF01250DE023F00E
:1058C00002038DF81430CCE70223237105E022791E
:1058D0009DF81430134323719EE7284609B0BDE8B4
:1058E000F08F08B58047FBF757F80000024B1868A7
:1058F000BFF35F8F704700BF7804002008B5FFF743
:10590000F5FFFFF7EEFF08B58047FFF7F7FF000050
:10591000024B1868BFF35F8F704700BF7C04002004
:1059200008B5FFF7F5FFFFF7EEFF7047002070475F
:10593000814208B50ED0406803782A2B0CD0496804
:105940000B782A2B08BF013101F04EFFB0FA80F02E
:10595000400908BD012008BD002008BD1EB400F0AC
:105960009AF81EBC01F03AFC0378472B17D1437814
:105970004E2B14D18378552B11D1C378432B0ED1E4
:105980000379432B0BD143792B2B08D183792B2B14
:1059900005D1C07901288CBF00200120704700206C
:1059A000704700002DE9F3411D4603780E46472B52
:1059B0000246C17943D143784E2B40D18378552B91
:1059C0003DD1C378432B3AD10379462B37D1437964
:1059D0004F2B34D18379522B31D100292FD1084656
:1059E0000123002401947BB980B901290ABF52F830
:1059F000203CA2F12003783B01290CBF52F8202C57
:105A000058321C68019202E0124C00E0124C2368EC
:105A100020469B68984720B1019B02271B68019391
:105A200000E00127336801AAD3F810802146012342
:105A30003046C04758B1019B38462B6007E01046FE
:105A4000FFF792FF80F00100C0B20023C9E702B067
:105A5000BDE8F0811C9400084894000810B5044685
:105A600000F03EF902462046A4F12001FFF77CFF3A
:105A700050B154F8043C0133012B44F8043C08D1E4
:105A8000936844F8083C03E093680BB1FFF736FFD6
:105A90009160012010BD10B500F022F98268014626
:105AA0000AB9FFF72BFF02F120042046FFF75CFF45
:105AB00038B1D369013BD36123B9906988609361A0
:105AC00000E08860204610BD7FB510230293036874
:105AD000002415469E6900946B468DF8044003949B
