:020000040800F2
:100000000050002095270008E1270008E12700089C
:10001000E1270008E1270008E127000800000000B0
:10002000000000000000000000000000E1270008C0
:10003000E127000800000000E1270008F53800086B
:10004000E1270008E1270008E1270008E127000870
:10005000E1270008E1270008E1270008E127000860
:10006000E1270008E1270008E1270008E127000850
:10007000E1270008E1270008E1270008E127000840
:10008000E1270008E1270008E1270008E127000830
:10009000E1270008E1270008E1270008E127000820
:1000A000E1270008E1270008E1270008E127000810
:1000B000E1270008E1270008E1270008E127000800
:1000C000E1270008E1270008E1270008E1270008F0
:1000D000E1270008C9410008E1270008E1270008DE
:1000E000E1270008E1270008E127000800000000E0
:1000F0000000000000000000000000000000000000
:1001000000000000000000005FF808F183684279F9
:1001100000211A4403F8011B9A42FBD1704700BF2B
:1001200010B4C478914294BF002301238C4234BFA1
:1001300000210121807843EA010490428CBF002015
:1001400004F001000B40184310BC704743798B4208
:1001500004D2934234BF0020012070470120704731
:1001600070B44D78CC78C2782C44013C04F0FF0484
:10017000A54294BF00260126AA4234BF00230123D2
:10018000857846EA0302A5428CBF002402F00104F0
:1001900024B9334002D170BC1846704740790B78BF
:1001A0008A78834209D970BC1A44013A02F0FF02EE
:1001B00082428CBF002001207047012070BC704734
:1001C00000230B7083784B704379013B8B70C378AD
:1001D000CB70704710B4CB784978012B1ED0032B1D
:1001E00012D00C460023C27880788A4234BF0022A5
:1001F000012243EA0201A0428CBF002001F001006D
:100200001340184310BC7047A1F10802D2B29142CA
:100210000C462CBF002301231146E4E701F108043A
:10022000E4B2A14294BF00230123DCE710B40446EA
:100230000846A3681146627910BC00F083BB00BF7A
:1002400001207047014B1870704700BF000000206C
:1002500008B50C4B01461B78012B09D00A4804F065
:10026000E7FD8021084804F065FE0128F9D108BDAA
:10027000064804F0DDFD8021044804F05BFE002800
:10028000F9D008BD000000200044004000380140C3
:1002900001700120704700BF0B7810B453B10246C3
:1002A00002F8013B11F8013F141A002BF8D1204647
:1002B00010BC70471C46FAE7092B70B51E4602F1C8
:1002C000FF35044613D8002D1BDD0B46411904F8F9
:1002D000013BA142FBD110460B4BA3FB0623DB08DD
:1002E00003EB8303A6EB430330330B7070BD064B67
:1002F0002A46A3FB0653DB08FFF7DEFF2118013077
:10030000EAE701460120E7E7CDCCCCCCF8B5002BDD
:1003100004460F4627DB092B1E4602F1FF3219DC8B
:10032000002A37DD11462546013905F8017BFBD14E
:10033000012AB8BF0122002B144426DB501C164BA7
:10034000A3FB0623DB0803EB8303A6EB4303303355
:100350002370F8BD104BA3FB0653DB08FFF7D6FF55
:1003600004440130EBE75E42092E02F1FF3508DD5F
:10037000094B2A46A3FB0653DB085B42FFF7C6FF87
:10038000EEE7023A002ACDDC00222D23901C04F86F
:10039000013BD4E70120D2E7CDCCCCCC2DE9F04114
:1003A00082B0089E551E5FEA161E044698461ED16E
:1003B000002D24DD0F46431904F8017BA342FBD135
:1003C000104606F00F06092E0CD9B8F1000F04D123
:1003D00057361E7002B0BDE8F08137361E7002B08D
:1003E000BDE8F08130361E7002B0BDE8F081CDF876
:1003F00000E02A46FFF7D2FF23180130E1E7034669
:100400000120DEE72DE9F0410F4682B09E46064608
:1004100008B100230370002513785BB1BD4280F062
:100420009780252B0ED033700132137801350136B9
:10043000002BF3D1AF4240F28B802846337002B0DC
:10044000BDE8F0815178252935D0302938D00B46C8
:10045000541CA3F13002092A4FF0200136D80022A3
:1004600002EB820203EB420214F8013F303AA3F19F
:100470003000092802F0FF02F2D9104628448742D2
:1004800038BF7A1BA3F1580338BFD2B2202B66D8ED
:10049000DFE803F059656565656565656565655106
:1004A0004765656565476565656565656565653865
:1004B000652E65651F003170023201350136ABE7EC
:1004C0009378941CA3F13002092AC8D9002002466F
:1004D000D4E7DEF80030009300230EF10408304624
:1004E000FFF75CFFC6460346621C1E44054493E7C3
:1004F000DEF8003030460EF10408FFF7DDFEC64698
:100500000346F1E7DEF800100EF1040E0B785BB342
:10051000324602F8013B11F8013F901B002BF8D145
:10052000E1E7DEF8003030460EF10408FFF7EEFE9A
:10053000C6460346D8E7DEF80020012332700EF1EC
:10054000040E1846D0E7DEF8003000930123C4E71C
:100550000023681E06F8013C02B0BDE8F0814FF0B0
:10056000FF3002B0BDE8F0811846BDE70CB410B50D
:1005700082B004AC54F8042B23460194FFF742FFE9
:1005800002B0BDE8104002B0704700BF13460A46F3
:100590006421FFF737BF00BF0EB410B583B005ACC0
:1005A00054F8042B642123460194FFF72BFF03B07A
:1005B000BDE8104003B07047084B10B55B689A68FF
:1005C0008A4202D0DB68994205D10446C0B2FFF7E7
:1005D0003FFE204610BD4FF0FF3010BD0000002050
:1005E000F8B50546007858B10E460A4F00247B68DE
:1005F0009A68964205D0DB689E4202D04FF0FF30E9
:10060000F8BDFFF725FE15F8010F01340028EED1E3
:100610002046F8BD00000020F0B5A3B06C46964619
:100620000F460E4D06460FCD0FC40FCD0FC42D68DB
:1006300073463A4609A864212560FFF7E3FE632864
:1006400006DD074B68465B68D968FFF7C9FFFEE720
:10065000314609A8FFF7C4FF23B0F0BD589A00083F
:1006600000000020034B0A465B6801469868FFF7CC
:10067000D3BF00BF000000200FB400B5074A83B00D
:1006800004AB53F8041B50681A4680680193FFF7C7
:10069000C3FF03B05DF804EB04B070470000002016
:1006A0000EB400B582B003AB53F8041B1A46019395
:1006B000FFF7B2FF02B05DF804EB03B0704700BF74
:1006C000024B5B689968FFF78BBF00BF00000020FA
:1006D000044A05491368002B08BF0B4618441060F4
:1006E0001846704724090020041100204FF0FF3005
:1006F000704700BF4FF0FF30704700BF4FF400530A
:100700004B600020704700BF0120704700207047F9
:100710001046704710467047FEE700BF0A2A2DE9D1
:10072000F04790469A4605460C4652D0152A48D1C5
:100730004E68002200F0F6F801222146284600F01B
:10074000D9F8B768B67807F1800918E0214628463D
:1007500000F0F0F880222146284600F0EBF8012254
:100760002146284600F0DEF810223B462146174479
:10077000284600F0E7F80136B945F6B21CD0002251
:100780002146284600F0CEF83E222146284600F0B9
:10079000D1F8A6F120021F2E62F07F0346F08002FE
:1007A000D4D9DAB22146284600F0C4F8882221467E
:1007B000284600F0BFF8D2E700222146284600F084
:1007C00099F85346424621462846BDE8F04703F0D3
:1007D0009DBC032200F07EF82146064A284600F020
:1007E000BDF85346424621462846BDE8F04703F08F
:1007F0008DBC00BF7C9A00080A2A2DE9F04791467B
:100800009A4606460D4652D0152A48D14C68002219
:1008100000F088F801222946304600F06BF8A768FE
:10082000A47807F5007818E02946304600F082F8F1
:1008300080222946304600F07DF8012229463046C4
:1008400000F070F810223B4629461744304600F06D
:1008500079F80134B845E4B21CD00022294630466C
:1008600000F060F83E222946304600F063F8A4F11B
:1008700020021F2C62F07F0344F08002D4D9DAB248
:100880002946304600F056F888222946304600F0C6
:1008900051F8D2E700222946304600F02BF85346A3
:1008A0004A4629463046BDE8F04703F039BB0322EB
:1008B00000F010F82946064A304600F04FF853463B
:1008C0004A4629463046BDE8F04703F029BB00BF41
:1008D0007C9A000810B48C680023A446012110BC47
:1008E000604700BF10B48C680023A4461A4619461E
:1008F00010BC604710B48C680023A446032110BCD0
:10090000604700BF10B48C680023A4461A46042137
:1009100010BC604710B48C680023A4460122042157
:1009200010BC604710B48C680023A446022110BCA0
:10093000604700BF10B48C680023A446052110BC9A
:10094000604700BF10B48C680621A44610BC604705
:1009500010B48C680721A44610BC60472DE9F04113
:1009600080460E46551E002315F8014F5BB9FF2C3B
:100970001CD022460521B4684046A0470028F2D189
:100980000020BDE8F081FF2C12D0FE2C43D0EF2CCC
:10099000E9D8DF2C15D8CF2C1CD8BF2C23D82306A0
:1009A000E1D4204603F022F80023DDE70123DBE752
:1009B00022460023B46805214046A0470028D2D132
:1009C000DEE704F00F020023B46802214046A0478E
:1009D0000023C9E704F00F020023B4680321404656
:1009E000A0470023C0E72401002302341A46042153
:1009F000B76804F0FE044046B847204602F0F6FF10
:100A0000002301220421B7684046B847204602F07F
:100A1000EDFF0023A8E70120BDE8F081002070472A
:100A2000704700BF417170474079704781717047CE
:100A300080797047C1717047C07970470172704703
:100A4000007A704741727047407A7047012981727D
:100A50000BD0022900D0704741F6B05142F6302247
:100A60000A23C18102824382704742F2FC11F5E7FA
:100A700081817047704700BF807A704780897047D6
:100A8000C0897047008A7047408A704700207047CD
:100A900000230B60C1F80330C3794B71704700BF6E
:100AA00000230B60437910B40B70047A427A837987
:100AB0004C708A70CB7010BC704700BF03682DE982
:100AC000F041224F9E6B0546BE420C46904638D1FF
:100AD000867A1B6C1E498B4230D1A88944B1B8F18B
:100AE0000A0F05D9013EF6B20023012E237001D969
:100AF000BDE8F081174E05232025013BDBB2042B16
:100B000000D0C8B1A6FB0012D20802EB8201A0EB14
:100B100041003030E05490B2002BEED10E4B2179E1
:100B200018681D79E2782E23C4F80600A572617159
:100B30002271E370BDE8F081E554EDE7284698475F
:100B4000CCE7B0472B680646C3E700BF790A000828
:100B50007D0A0008CDCCCCCC109B000810B4064C0C
:100B600000220F210460017142718271C271027210
:100B7000427210BC704700BF9C9A000870B40D4EC2
:100B800005232025013BDBB2042B00D06AB1A6FB74
:100B90000240C00800EB8004A2EB44023032CA5489
:100BA00082B2002BEED170BC7047CD54002BE9D13E
:100BB000F9E700BFCDCCCCCC70B5102300F10C060A
:100BC000C37305463146406801F090F87D2405E086
:100BD000013C4FF0010031D002F0B6FE298968686F
:100BE00001F0F2F80028F3D029890022686801F0AA
:100BF000F9F84FF4F07002F0A7FE01222989686825
:100C000001F0F0F8462002F09FFE0423EB7331461A
:100C1000686801F06BF82989686801F0CBF8044630
:100C200010233146EB73686801F060F84FF4CD7023
:100C300002F08AFEB4FA84F0400970BD204670BD0F
:100C400038B504464260038101600846012101F085
:100C500081FA228910230325E373A28104F10C0198
:100C60006068A57301F042F821896068012201F0F3
:100C7000B9F8A5722046FFF79FFF2046FFF79CFFBB
:100C80002046BDE83840FFF797BF00BF38B504469F
:100C9000102300F10C05C3732946406801F026F8C3
:100CA00000222189606801F09DF8032002F04CFECB
:100CB0000423E3732946606801F018F80F2002F05E
:100CC00043FE2189606801F075F804462D2002F08A
:100CD0003BFE201C18BF012038BD00BF70B5064682
:100CE000082400253046FFF7D1FF6D08631E10B1C0
:100CF00065F07F05EDB213F0FF04F3D1284670BD17
:100D000038B50D4610230446C37300F10C0140684A
:100D100000F0ECFF8DB92A462189606801F062F885
:100D2000412002F011FE60682189012201F05AF889
:100D3000BDE83840052002F007BE21890022606826
:100D400001F050F8052002F0FFFD606821890122C2
:100D500001F048F8BDE838403C2002F0F5BD00BF86
:100D600070B506460D46002445FA04F101F0010174
:100D700001343046FFF7C4FF082CF5D170BD00BF29
:100D8000704700BF2DE9F04106460024332545FA9F
:100D900004F101F0010101343046FFF7B1FF082CE6
:100DA000F5D106F10F0706F1170808240025304693
:100DB000FFF76CFF6D08631E10B165F07F05EDB2A3
:100DC00013F0FF04F3D107F8015F4745EDD1BDE80B
:100DD000F08100BF2DE9F04105460024552646FA72
:100DE00004F101F0010101342846FFF789FF082CC6
:100DF000F5D105F10F0705F1170817F8016F002469
:100E000046FA04F101F0010101342846FFF778FFAA
:100E1000082CF5D1B845F0D1BDE8F08170B5064693
:100E20000024CC2545FA04F101F0010101343046DB
:100E3000FFF766FF082CF5D170BD00BF70B5064600
:100E40000024442545FA04F101F001010134304643
:100E5000FFF756FF082CF5D170BD00BF70B50646F0
:100E60000024482545FA04F101F00101013430461F
:100E7000FFF746FF082CF5D1BDE870400A2002F0CC
:100E800063BD00BF2DE9F8430546884617461E4658
:100E900000244FF04E0949FA04F101F00101013438
:100EA0002846FFF72DFF082CF5D1002448FA04F15D
:100EB00001F0010101342846FFF722FF082CF5D18B
:100EC000002447FA04F101F0010101342846FFF73C
:100ED00017FF082CF5D1002446FA04F101F00101B6
:100EE00001342846FFF70CFF082CF5D1BDE8F88344
:100EF00038B50C4605464B0143F01F03DBB24622D2
:100F00004B21FFF7BFFFAC7238BD00BF2DE9F8439E
:100F100005460E460024BE2747FA04F101F0010100
:100F200001342846FFF7ECFE082CF5D100272846AF
:100F3000FFF7ACFE7F08013C10B167F07F07FFB2FE
:100F400014F0FF04F3D14FF008082846FFF79EFE87
:100F5000640808F1FF3310B164F07F04E4B213F0C9
:100F6000FF08F2D140F6310347EA04249C4218D826
:100F7000C4F3061006F040FC804604F00F008946DA
:100F800006F03AFC0022154B06F09CFC02460B468C
:100F90004046494606F0E4FA06F0CEFE3060BDE871
:100FA000F8836442A4B2C4F3061006F025FC804620
:100FB00004F00F00894606F01FFC0022074B06F0E4
:100FC00081FC02460B464046494606F0C9FA06F047
:100FD000B3FE00F100403060BDE8F8830000B03F90
:100FE0002DE9F04105460E460024BE2747FA04F1DC
:100FF00001F0010101342846FFF782FE082CF5D1EB
:1010000000272846FFF742FE7F08013C10B167F039
:101010007F07FFB214F0FF04F3D14FF00808284611
:10102000FFF734FE640808F1FF3310B164F07F0469
:10103000E4B213F0FF08F2D1AB7A47EA0420BBB167
:10104000012B2BD0022B2BD040F631039842154DAB
:1010500013D94442A4B2C4F3061006F0CDFB01F14B
:101060000043194606F040FE308004F00F0009E00E
:101070000D4D40F631039842EBD8C0F30613338090
:1010800000F00F0006F062FF294606F0B3FF07F0FC
:101090009DF9012370603372BDE8F081034DE8E7EC
:1010A000034DE6E700401C440000203F0000C8401C
:1010B00000007A4270B505460024B82646FA04F1CD
:1010C00001F0010101342846FFF71AFE082CF5D182
:1010D00068680122298900F085FE052002F034FCB1
:1010E0002846FFF7D3FD0028FAD170BD70B505463C
:1010F0000024B42646FA04F101F001010134284627
:10110000FFF7FEFD082CF5D12846FFF7BFFD0030A4
:1011100018BF012070BD00BF2DE9F041064688468A
:101120000024BE2545FA04F101F0010101343046E6
:10113000FFF7E6FD082CF5D108F1FF3708F10708A5
:10114000082400253046FFF7A1FD6D08631E10B18D
:1011500065F07F05EDB213F0FF04F3D107F8015FEE
:101160004745EDD1BDE8F081704700BF41630320E2
:10117000084700BF704700BF0A4602484FF480414D
:1011800000F030BE000C014070B5064600F1EB04E3
:1011900000F1EF0514F8013FEBB9237BABB9A54291
:1011A000F8D11049304604F0C7FC06F188050C243C
:1011B00022460C342B4600213046E4B204F012FAE9
:1011C000482C05F11405F3D170BD227D217C3046F9
:1011D00001F068FEE3E7227A2179304601F062FEF1
:1011E000DBE700BFBCAD000880F83C10704700BFD3
:1011F00070B50646104615460C4608F0C9FA062892
:1012000001D8022C00D970BDC4EBC40430192A46A1
:10121000BDE870403D300721FFF7A8B980F85210B3
:10122000704700BF38B5054608460C4608F0B0FACE
:10123000092800D938BD224605F153000A21BDE82E
:101240003840FFF793B900BF0023C0F85330C0F80F
:101250005730A0F85B30704738B5054608460C4655
:1012600008F096FA132800D938BD224605F15D0032
:101270001421BDE83840FFF779B900BF0023C0F85A
:101280005D30C0F86130C0F86530C0F86930C0F832
:101290006D30704780F87D10704700BF38B5054647
:1012A00008460C4608F074FA092800D938BD2246D1
:1012B00005F17E000A21BDE83840FFF757B900BFAD
:1012C00080F87110704700BF80F87210704700BF3F
:1012D0000B4B00B5A3FB01E364225B0902FB131176
:1012E000084A89B2A2FB011283B0D20800920921F8
:1012F000054A7330FFF73AF903B05DF804FB00BF0D
:101300001F85EB51CDCCCCCC189B000880F87C100D
:10131000704700BF70B50646104615460C4608F0EB
:1013200037FA132801D8042C00D970BD04EB8404CB
:1013300006EB84002A46BDE8704088301421FFF790
:1013400015B900BF10B403299DF8044006D8014424
:1013500081F8EC4081F8F02081F8F43010BC70473F
:1013600010B403299DF8044006D8014481F8F840E0
:1013700081F8FC2081F8003110BC704770B506463A
:1013800000F1880400F50675204608F001FA0021F6
:1013900002462046143408F05BF8AC42F4D1002336
:1013A00086F8EC3086F8F83086F8ED3086F8F930BB
:1013B00086F8EE3086F8FA3086F8EF3086F8FB30A3
:1013C00070BD00BFF0B504461C4D83B01C4A1D49DA
:1013D00000F0B4FA022610234FF48047284601A9F2
:1013E0008DF80730ADF804708DF8066000F07EFCD3
:1013F00039462846002200F0F5FC01A92846ADF840
:10140000046000F073FC31462846012200F0EAFC3B
:101410000023C4F853302046C4F85730A4F85B309A
:10142000C4F85D30C4F86130C4F86530C4F8693080
:10143000C4F86D30FFF7A2FF03B0F0BD000C01400F
:10144000A53A00088404002070B5064682B00C233B
:101450001722012101F026FD304608230F2200212A
:1014600001F036FD304608230F220D2101F030FD3A
:1014700002240025012D14BF1123102304F1FF3194
:101480000093234604F1020414BF10221122C9B2B2
:101490003046E4B202F052FB0E2C85F00105E9D192
:1014A00002B070BD30B5044683B006230B22012183
:1014B00001F0F8FC204608230322002101F008FD7A
:1014C0000725204608230322072101F001FD2046BD
:1014D0002A460A23042101F0E5FC204600950D234D
:1014E00005220B2102F02AFB092300932A462046FD
:1014F0000B230D2102F022FB03B030BD10B50446D2
:1015000002230F22722101F0CDFC204602230F227C
:10151000752101F0C7FC204602230F22782101F03B
:10152000C1FC204602230F227B2101F0BBFC0223D9
:1015300020460F227E2101F0B5FC94F87C300D2B63
:1015400000D810BD03230C227221204601F0C0FCFC
:1015500003230C227321204601F0BAFC94F87C305E
:10156000172BEED9062309227521204601F0B0FC85
:10157000062309227621204601F0AAFC94F87C304B
:10158000212BDED9092306227821204601F0A0FC78
:10159000092306227921204601F09AFC94F87C3038
:1015A0002B2BCED90C2303227B21204601F090FC6B
:1015B0000C2303227C21204601F08AFC94F87C3025
:1015C000352BBED920460F2300227E2101F080FC5E
:1015D0002046BDE810400F2300227F2101F078BC97
:1015E00070B50446FFF75EFF2046FFF72DFF20464B
:1015F0003A4904F0A1FA3A4B24220021204603F094
:10160000F1FF2046374904F097FA04F13D060C2516
:101610002A460C35334614212046EDB203F0E2FF92
:10162000302D06F10706F3D194F85310C1BB94F89E
:101630005230EBBB04F15D0340220021204603F051
:10164000D1FF342300224021204601F041FC4023F9
:1016500033220021204601F025FC94F8713063B15B
:1016600094F8723053BB04F173031A2249212046C7
:1016700003F0B8FF2046FFF741FF94F87D3003B92F
:1016800070BD194B26225121204603F0ABFF04F117
:101690007E032046BDE870403222422103F0A2BF03
:1016A0002A4604F153030021204603F09BFFC1E7C3
:1016B0002A460E4B204603F095FFBBE7204607491C
:1016C00004F03AFA0A4B08226C21204603F08AFF04
:1016D0000449204604F030FAC5E700BF08C50008F9
:1016E000249B0008BCAD0008349B0008289B000820
:1016F000309B000810B5044600F04AF905E0FFF7FA
:101700006FFF204600F048F958B194F83C3020466D
:10171000002BF4D0FFF738FD204600F03DF90028FB
:10172000F3D110BD10B40C68A44610BC604700BFD4
:1017300070B504460D46436B0220984729460A229D
:101740002E6820460023B0470546636B0320984768
:10175000636B00209847284670BD00BF70B50446F3
:101760000D46436B02209847636B012098472E6813
:101770002946204600231422B04704F138032E687E
:10178000294620461722B047636B0020BDE8704011
:10179000184700BFF8B504460D46436B0220984732
:1017A000636B012098472E682946204600231522A6
:1017B000B047064630B12F68294604F13803172296
:1017C0002046B847636B002098473046F8BD00BFFD
:1017D00010B582B002AB03F8012D0C680F22A047B0
:1017E00002B010BD10B480F82D2080F82E300C68A7
:1017F00000F12D03A446322210BC604770B49DF85E
:101800000C609DF8105080F82D2080F82E3080F864
:10181000306080F82F500C6800F12D03A44670BC96
:101820003B22604770B49DF80C609DF8105080F822
:101830002D2080F82E3080F8306080F82F500C6812
:1018400000F12D03A44670BC2D22604710B582B074
:101850000C680DF107034622A0479DF8070002B06F
:1018600010BD00BF10B582B00C680DF10703472210
:10187000A0479DF8070002B010BD00BF10B40C686F
:101880000023A446482210BC604700BF30B5044680
:10189000416883B00D680DF107034622A8479DF803
:1018A0000730616823700D680DF107032046472259
:1018B000A8479DF80730616863700D6820460023D3
:1018C0004822A8476168E0740D6804F13803204697
:1018D0001722A84703B030BD10B541680446FFF792
:1018E00027FF18B12046FFF7D1FF012010BD00BF30
:1018F000F8B504460F46002501262223837485602F
:10190000C56045748561067480F8316004F010F894
:10191000094B402284F8286084F8295084F82A5022
:1019200084F82C5084F82B20676063632046BDE860
:10193000F840FFF7D1BF00BF691100082DE9F04161
:1019400004460F46904600250126222383748560B5
:10195000C56045748561067480F8316003F0E8FF66
:101960000A4B402284F8286084F8295084F82A50D1
:1019700084F82C5084F82B20676063632046C7F8F6
:101980000880BDE8F041FFF7A7BF00BF691100085C
:101990004168FFF7E3BE00BF836910B5044603B199
:1019A000984761682046BDE81040FFF7F3BE00BFCE
:1019B00010B582B0426802AB03F8011D14681146ED
:1019C0000F22A04702B010BD416810B40C6800237C
:1019D000A446102210BC6047416810B40C68002374
:1019E000A446112210BC6047034630B4446880F816
:1019F0002D1080F82E2025682146AC4630BC2D33B2
:101A00003222604770B49DF80C60456880F82D1054
:101A100080F82E2080F8303080F82F602C6829461E
:101A2000A44670BC00F12D033B22604770B49DF8C2
:101A30000C60456880F82D1080F82E2080F830303A
:101A400080F82F602C682946A44670BC00F12D0355
:101A50002D226047F0B445680027802680F82D10BD
:101A600080F82E2080F8313080F8307080F82F60B8
:101A70002C682946A446F0BC00F12D033B226047A8
:101A800030B583B09DF8185044688DF804108DF877
:101A900005208DF806308DF807502568214601ABEA
:101AA0003C22A84703B030BD80F83110704700BF1A
:101AB0000B0A80F8311080F832307047920810B469
:101AC00001F0F801540144EAD30341EAD20180F85D
:101AD000313080F8321010BC704700BF10B4C47CA5
:101AE000282C09D0302C13D080F8311080F8322007
:101AF00080F8333010BC7047D20802F01C0221F08D
:101B00001F010A4342EA931380F8313010BC70473A
:101B10009208540121F0070144EAD30341EAD202BA
:101B200080F8313080F8322010BC704790F83100D6
:101B3000704700BFC37C282B04D0022B0CBF0320AE
:101B400001207047FF207047C37C302B0CD0282B1E
:101B500006D0022B0CBF0323012380F831307047DD
:101B6000FF2380F831307047FF2380F8313080F850
:101B70003230704700207047002380F831307047C2
:101B8000C37C282B0CBF6D2001207047C37C282B01
:101B90000CBF6D23012380F8313070470378002299
:101BA000013BC37082700271704700BF10B4002403
:101BB00004710170427010BCFFF7F0BF30B483783D
:101BC000047841782344DBB28B42837010D2C27810
:101BD0000579A318DBB2994298BF01F1FF3305F1F3
:101BE000010298BFDBB20271C37030BC01207047A4
:101BF000002030BC704700BF08B52F4B98421ED064
:101C00002E4B984225D02E4B98422CD02D4B9842EB
:101C100033D02D4B98423AD02C4B984241D02C4B8C
:101C2000984200D008BD01214FF4807000F0AEFA58
:101C3000BDE8084000214FF4807000F0A7BA0121F0
:101C4000042000F0A3FABDE808400021042000F0C1
:101C50009DBA0121082000F099FABDE80840002152
:101C6000082000F093BA0121102000F08FFABDE89F
:101C700008400021102000F089BA0121202000F046
:101C800085FABDE808400021202000F07FBA01213C
:101C9000402000F07BFABDE808400021402000F021
:101CA00075BA0121802000F071FABDE808400021DA
:101CB000802000F06BBA00BF00080140000C01401A
:101CC000001001400014014000180140001C0140B8
:101CD0000020014008B50121084600F057FABDE890
:101CE00008400021012000F051BA00BF2DE9F04169
:101CF000CC78E30648BF8B78098804F00F0748BF0B
:101D00001F4311F0FF0F21D0066800234FF0010E92
:101D10004FF00F0802E00133082B16D00EFA03F241
:101D200032EA0105F7D19D0008FA05FC26EA0C0607
:101D300007FA05F5282C46EA050631D0482C03F1B0
:101D4000010308BF0261082BE8D10660FF2923D9EF
:101D5000466800234FF0010E4FF00F0802E00133F8
:101D6000082B18D003F108020EFA02F232EA01053C
:101D7000F5D19D0008FA05FC26EA0C0607FA05F5E0
:101D8000282C46EA050609D0482C03F1010308BFB8
:101D90000261082BE6D14660BDE8F0814261DEE7D2
:101DA0004261B8E74FF6FF7102220423018082707E
:101DB000C37070478368194214BF01200020704728
:101DC000806880B2704700BFC368194214BF012009
:101DD00000207047C06880B2704700BF0161704743
:101DE000416170470AB9416170470161704700BFA6
:101DF000C160704741F4803383618161836183698D
:101E0000836970474FF68073044A10B41468234006
:101E1000194341EA0010106010BC704700000140F7
:101E2000014B1860704700BF1C0020420028194B6E
:101E300000F44012B4BFDB695B68B2F5401F30B4F8
:101E400084B21ED0C20213D5C0F303450322AA40B8
:101E500023EA020343F0706319B1420D120194406A
:101E600023430C4A0028B4BFD361536030BC704791
:101E7000420D120104FA02F223EA020343F07063F6
:101E8000EAE7044D23F070636A6822F070626A60CA
:101E9000E2E700BF0000014001F0FC0303F18043D2
:101EA00003F5803301F0030110B489009C680F2210
:101EB0008A4024EA02029A609A6888401043986037
:101EC00010BC7047014B1860704700BFDC00204217
:101ED0000D4B0E4A19684FF41F0041F001011960C3
:101EE00059680A405A601A6822F0847222F48032DB
:101EF0001A601A6822F480221A605A6822F4FE02DC
:101F00005A609860704700BF001002400000FFF860
:101F10000C4BB0F5803F1A6822F480321A601A68C0
:101F200022F480221A6008D0B0F5802F04D11A68FC
:101F300042F4A0221A60704770471A6842F4803257
:101F40001A6070470010024082B000230A4A0193D1
:101F500002E0B3F5A06F08D0136813F4003F019BB3
:101F600003F101030193019BF3D0034B1868C0F305
:101F7000404002B0704700BF00100240034A13689F
:101F800023F0F80343EAC0001060704700100240DD
:101F9000014B1860704700BF00004242034A53687B
:101FA00023F47C131943084350607047001002402B
:101FB000014B1860704700BF60004242034A5368FB
:101FC00023F0030318435060704700BF0010024025
:101FD000024B586800F00C00704700BF0010024030
:101FE000034A536823F0F00318435060704700BF62
:101FF00000100240034A536823F4E0631843506022
:10200000704700BF00100240034A536823F4605336
:1020100043EAC000506070470010024029B9054AE9
:10202000137823EA000010707047024B1A781043AF
:102030001870704709100240014B1860704700BFCC
:10204000D8004242034A536823F440431843506087
:10205000704700BF00100240064B002201281A7092
:102060001A7005D0042802D105221A7070477047F3
:102070001870704720100240014B1860704700BF75
:1020800080044242024A136A18431062704700BF3C
:1020900000100240014B1860704700BF3C044242F0
:1020A000214A10B4536803F00C03042B06D0082B0C
:1020B00025D01BB11D4A1346026001E01B4B036093
:1020C000194A1B495468C4F303140C5DE340436090
:1020D0005468C4F302240C5D23FA04F48460546849
:1020E000C4F3C2240C5DE340C360526810BCC2F369
:1020F00081320A44127CB3FBF2F3036170475368E8
:102100005168C3F38343C90303F1020307D552683F
:10211000920304D4054A02FB03F30360D0E7054AA7
:1021200002FB03F30360CBE70010024000127A00C9
:10213000CC04002000093D0029B9054A536923EA6F
:10214000000050617047024B5A6910435861704754
:102150000010024029B9054A936923EA0000906102
:102160007047024B9A691043986170470010024013
:1021700029B9054AD36923EA0000D0617047024BB0
:10218000DA691043D86170470010024029B9054A46
:10219000D36823EA0000D0607047024BDA6810432E
:1021A000D86070470010024029B9054A136923EA34
:1021B000000010617047024B1A69104318617047A4
:1021C00000100240014B1860704700BF40044242BB
:1021D000014B1860704700BF4C004242014B187021
:1021E000704700BF071002404309012B0BD0022BA0
:1021F000094B00F01F000CBF1B6A5B6A23FA00F05A
:1022000000F001007047044B00F01F001B6823FA28
:1022100000F000F00100704700100240024A536ACB
:1022200043F080735362704700100240034B9B6879
:10223000184214BF01200020704700BF0010024068
:10224000014B1870704700BF0A10024070B5044679
:1022500086B0002542268021402208230291019267
:10226000009304951D4B03964FF400121C4900F097
:10227000B9F929462046FF2200F0DEF92046FF2268
:10228000012100F0D9F929462046FF2200F0E2F9A9
:102290002046FF22012100F0DDF92046012100F057
:1022A0000FFA29462046FF2200F0FCF9FF222046C3
:1022B000012100F0F7F92946204600F05FFA204698
:1022C000012100F05BFA4FF6FF72012384F85E50A3
:1022D000A4F85C2084F85F3006B070BD000C0140AB
:1022E00000540040836D052B10DC30B4044603EB32
:1022F000430300EB830301220025D9611D625A626A
:10230000836D10461344A36530BC704700207047AE
:1023100038B50121054600F031FA0021044628466F
:1023200000F02CFA44EA002080B238BD80F85F103B
:10233000704700BF2DE9F84390F85F6016B930464A
:10234000BDE8F8830446FFF7E3FF804601463848BE
:10235000FEF792F94FF6FF7290453CD094F85E304C
:102360000133DBB2032B84F85E3009D0B4F85C3063
:10237000934255D00026A4F85C803046BDE8F8832F
:10238000A36D002B1ADD254600270EE05B10C15817
:102390002A6A184451F8029001224146C847A36DA9
:1023A0000137BB4205F10C0508DD6B6AE869D90706
:1023B000ECD4D5F8209000EB6300EDE74FF6FF7505
:1023C0002046FFF7A5FFA842FAD1002384F85E302B
:1023D0004FF6FF78CFE7B4F85C100027414584F84A
:1023E0005E701DD0A36D002BEFDD25460FE05B1066
:1023F000C25818442B6A52F803800022C047A36DCC
:102400000137BB4205F10C05DFDDB4F85C106B6AE7
:10241000E869DA07EBD4D5F8208000EB6300ECE73D
:102420004FF6FF76C6EB0806B6FA86F67609A2E7FF
:102430003C9B000870B504464BF6FF7686B0012140
:102440000069FFF787FEE28AA38AE06813431C2530
:10245000032201A9ADF804308DF806208DF807504D
:10246000FFF744FCA0680121FFF782FE0121084626
:10247000FFF770FE606804F0F1F8114B06A941F80F
:10248000103D6068002301254FF48042ADF80E60D6
:10249000ADF80C30ADF81230ADF81050ADF8142096
:1024A00004F0FAF82946606804F078F94FF4003136
:1024B000606804F0A7FA0028F8D106B070BD00BF2C
:1024C000801A060038B504460D4601F055FA6068DA
:1024D000012104F08DF92049606804F07DFA00289C
:1024E000F9D00022217E606804F0E2F91B4960689F
:1024F00004F072FA0028F9D02946606804F0D2F995
:102500001749606804F068FA0028F9D00121606872
:1025100004F06EF91049606804F05EFA0028F9D002
:102520000122217E606804F0C3F90E49606804F05E
:1025300053FA0028F9D00C49606804F04DFA0028DD
:10254000F9D0606804F0B0F905460121606804F034
:102550005DF9284638BD00BF010003008200070076
:1025600084000700020003004000030070B5044629
:102570000E46154601F000FA6068012104F038F9B2
:102580001549606804F028FA0028F9D00022217E5D
:10259000606804F08DF91149606804F01DFA0028A4
:1025A000F9D03146606804F07DF90D49606804F0A7
:1025B00013FA0028F9D02946606804F073F9084935
:1025C000606804F009FA0028F9D060680121BDE8CC
:1025D000704004F01BB900BF010003008200070037
:1025E00084000700F8B5069DBDF81C70BDF820609A
:1025F00041608260BDF824109DF82820C36000234C
:102600000446037005618782C682018332B9204681
:10261000BDE8F8400A212822FFF7A8BFFFF70AFF0C
:102620002278044B204613F832102822BDE8F840E7
:10263000FFF79CBF509B000810B40478044B01EBDB
:10264000440103EB8103197C10BCFFF78FBF00BF6F
:10265000509B000810B40478044B01EB440103EBD9
:10266000810393F8201010BCFFF780BF509B000837
:1026700038B5044649B10A4B0178A82213F8311045
:10268000FFF774FF0123237038BD0D46044B01781A
:10269000282213F83110FFF769FF257038BD00BFFD
:1026A000509B000810B40478044B01EB440103EB89
:1026B000810393F8301010BCFFF758BF509B0008FF
:1026C00070B50E4603780A4D044615F83310FFF72F
:1026D000F9FE4EB900F0BF022378204615F83310FA
:1026E000BDE87040FFF742BF40F04002D2B2F3E7CE
:1026F000509B000870B50E4603780A4D044615F845
:102700003310FFF7DFFE56B140F00202D2B2237859
:10271000204615F83310BDE87040FFF727BF00F0E2
:10272000FD02F4E7509B000810B40478044B01EB61
:10273000440103EB810393F8401010BCFFF716BF70
:10274000509B000810B40478044B01EB440103EBE8
:10275000810393F8501010BCFFF708BF509B00088E
:1027600010B40478044B01EB440103EB810393F8AC
:10277000601010BCFFF7FABE509B00080278044BB3
:1027800001EB420103EB810393F87010FFF79ABE4F
:10279000509B0008002103E00A4B5B584350043172
:1027A00009480A4B42189A42F6D3094A02E000232C
:1027B00042F8043B074B9A42F9D304F055F901F073
:1027C0001BFD704738D500080000002024090020B8
:1027D0002409002004110020000000000000000077
:1027E000034B1A68D2B2FEE7AFF30080AFF300806C
:1027F00004ED00E010B50446FEF7B0F9024A0F23DD
:1028000023752260204610BD089C000870B588B072
:10281000064601F0B1F801F07BF8012104462E488C
:1028200004F002F801212C4803F0E2FF04E001F07B
:102830006FF8001B642832D82849274804F0CCF8E8
:102840000028F4D001222021234804F031F804E0CC
:1028500001F05EF8001B642821D821491E4804F0CD
:10286000BBF80028F4D0142504E001F051F8001B57
:10287000642814D81B49184804F0AEF80028F4D096
:10288000154804F011F808AA2A446B1C132D02F80D
:10289000200CDDB206D0202D08BF0025EAE700207D
:1028A00008B070BD00210C4803F0BEFF01210A48AA
:1028B00003F0ACFF1436002308AA02EB430111F821
:1028C000200C11F81F2C013342EA0022102B26F8AD
:1028D000022FF1D10120E3E7005400400100030082
:1028E000020003004000030010B50446FFF78EFF0E
:1028F000A08D638AE289C0F3090000FB032080B247
:10290000A08110BDF8B504460F4616461D46FFF7D8
:102910007DFF608D10F00F0009D0E38D069A3B809B
:10292000238E01203380638E2B80A38E1380F8BD0D
:1029300038B5054601F020F801211E4803F074FF68
:1029400001211C4803F054FF1B491A4804F044F8C5
:102950000028F9D000222021164803F0A9FF1749CA
:10296000144804F039F80028F9D005F1180424358A
:1029700034F8021F0F48090A03F094FF10490D486C
:1029800004F02AF80028F9D021780A4803F08AFFD9
:102990000B49084804F020F80028F9D0AC42E7D1F0
:1029A0000021044803F040FFBDE838400121014800
:1029B00003F02CBF00540040010003008200070018
:1029C00084000700F0B5044687B008200F460121B7
:1029D000FFF7C0FB4FF420750223102201A94D48D8
:1029E0008DF80630ADF804508DF80720FFF77EF91A
:1029F00000224FF400714748FFF7F4F900228021CC
:102A00004448FFF7EFF900F0B7FF01224FF40071DF
:102A10004048FFF7E7F900F0AFFF01210820FFF77A
:102A200099FBC0251C22032301A93A488DF80720F1
:102A30008DF80630ADF80450FFF758F901214FF436
:102A40000010FFF795FB01210846FFF783FB324892
:102A500003F004FE4BF6FF70304B012206AD45F843
:102A6000103D11460023ADF80E004FF480462A4871
:102A7000ADF81020ADF80C30ADF81230ADF81460A0
:102A800003F08CFE2946244803F006FE4FF4003183
:102A9000214803F0B7FF0028F8D12046FFF7B6FE23
:102AA00008B907B0F0BD4FF40143A3842046FFF7F7
:102AB0003FFF4FF4FA7000F077FF2046FFF7A6FEC5
:102AC0004FF480436383E7B9E18B238C628C23F05E
:102AD0008F0343F4805322F0FF0241F4006143F07E
:102AE000110342F033020125E183238462842046EE
:102AF0006571FFF71DFF6E2000F056FF284607B0F6
:102B0000F0BD44F20103E18B638341F4805189B24B
:102B1000DBE700BF000C014000540040801A0600B3
:102B200038B50D460446FFF771FE65B9E28B638B3D
:102B300022F4805243F04103E28363832046BDE8E0
:102B40003840FFF7F5BE638BE28B23F0400343F080
:102B5000010342F480526383E2832046BDE838409B
:102B6000FFF7E6BE10B504462046FFF74FFE638D23
:102B70005A04F9D52046FFF749FE628BA38B22F455
:102B80008072C3F30E036283A3832046FFF7D0FE57
:102B90002046FFF73BFE638D5B04F9D410BD00BFF8
:102BA000C28938B5914238BF1146048A05468C4225
:102BB00028BF0C46FFF72AFEE9896B8A641A94FB4A
:102BC000F3F4AA8B284622F4FF7323F00103234376
:102BD0006FEA43436FEA5343AB83FFF7A9FE32200A
:102BE00000F0E2FE2846BDE83840FFF7BBBF00BF5B
:102BF00038B504460D46FFF709FE638B23F4C06326
:102C00009BB20DB143F4007343F480732046638399
:102C1000FFF78EFE2046BDE83840FFF7A3BF00BF98
:102C200069B9036810B504461B6C9847618A23682C
:102C3000014489B22046BDE81040DB6B18470121F2
:102C4000FFF7D6BF69B9036810B504461B6C9847F7
:102C5000618A2368411A89B22046BDE81040DB6BC7
:102C600018470021FFF7C4BF38B504460F2928BF15
:102C70000F210D46FFF7CAFD238C204623F00F03DA
:102C80002B432384FFF754FE29462046BDE83840F5
:102C9000FDF7C8BE38B504460D46FDF7CBFE20460D
:102CA000FFF7B4FD638B3DB923F4005363832046E3
:102CB000BDE83840FFF73CBE43F400536383204631
:102CC000BDE83840FFF734BE38B504460D46FDF781
:102CD000B5FE638B3DB943F4804363832046BDE872
:102CE0003840FFF725BE23F4804363832046BDE8C8
:102CF0003840FFF71DBE00BF38B504460D46FDF74E
:102D0000A1FE638B4DB96FEA43436FEA53432046FC
:102D10006383BDE83840FFF70BBEC3F30E03638344
:102D20002046BDE83840FFF703BE00BF012900D0B0
:102D3000704710B50446FDF789FE42F22E220A23A1
:102D4000E281638210BD00BF38B505460C46FDF731
:102D50009FFE2846FFF75AFD6B8D0122637019070D
:102D60006B8D48BFA27113F00B0F22701CBF0122A4
:102D7000E27013F00E0F1CBF012323716B8B9B04B9
:102D800044BF0123637138BD38B505460C46FDF7D5
:102D900087FE2846FFF73AFD6B8B5A045CBF012281
:102DA00062701B045CBF0123A37095F820300022E1
:102DB00003F00F032370E27038BD00BF2DE9F04728
:102DC000072B82B0994606468A4617461CD91D46EF
:102DD0000C464FF0FF08083D2146CDF80080002347
:102DE0003A463046EDB2FEF70DFE0834072DE4B248
:102DF000F1D8A9F1080303F0F8030AF1080A9A448C
:102E00000AF0FF0A09F007037BB183F007030133DF
:102E1000FF2203F0070302FA03F3DBB200933A4602
:102E2000514630460023FEF7EDFD02B0BDE8F087C5
:102E30002DE9F047072B82B0994606460F46924689
:102E40001CD91D4614464FF0FF08083D2246CDF818
:102E50000080012339463046EDB2FEF7D3FD083439
:102E6000072DE4B2F1D8A9F1080303F0F8030AF141
:102E7000080A9A440AF0FF0A09F007037BB183F0BD
:102E800007030133FF2203F0070302FA03F3DBB267
:102E900000935246394630460123FEF7B3FD02B097
:102EA000BDE8F087F0B5012483B000940D460446D8
:102EB00016461F4602F0E4FE08B903B0F0BD3B46DB
:102EC00032462946204603B0BDE8F040FFF776BF02
:102ED000F0B51C4683B00123009405460E46174604
:102EE00002F0CEFE08B903B0F0BD23463A463146A3
:102EF000284603B0BDE8F040FFF79ABF2DE9F04146
:102F000082B09DF82040054600940E46174698462C
:102F100002F0B6FE10B902B0BDE8F08143463A4671
:102F200031462846FFF74AFF23463A4631462846AF
:102F3000FFF77EFF08F1FF31314423463A46284629
:102F4000C9B2FFF775FF434631462846621E3A4430
:102F5000D2B202B0BDE8F041FFF730BF2DE9F04139
:102F600080460F4615461E469DF8184033462A46B1
:102F700039464046FFF722FF631E013513F0FF0478
:102F8000EDB2F3D1BDE8F0812DE9F04182B09DF8BA
:102F90002040054600940E461746984602F070FE03
:102FA00010B902B0BDE8F08143463A4631462846A2
:102FB000089402B0BDE8F041FFF7D0BF2DE9F04F13
:102FC00087B09DF840500646009589469246039387
:102FD0009DF8444002F054FE10B907B0BDE8F08FF0
:102FE0002B1BDBB21A460AEB0403D9B2E7430846AF
:102FF000059202F1FF38039A09EB040B5FFA8BFB91
:103000001744022359460490024600933046234653
:103010004F4403F08FFEFFB201233946049A009318
:1030200030462346D04403F085FE5FFA88F8042337
:103030004246594600933046234603F07BFE082360
:1030400042463946009330462346C4F1FE0703F05A
:1030500071FEFFB2039B3C1B0498059A0BF101081B
:103060001C445FFA88F8E4B22346414600F1010BA4
:10307000174430465246FFF7A1FE6A1E52445FFADB
:103080008BFBFFB2234641463046D2B2FFF796FE95
:103090003B465A4649463046FFF7CAFE039B5A460E
:1030A000591E30463B464944C9B207B0BDE8F04F0F
:1030B000FFF7BEBE2DE9F04F85B09DF838500646AB
:1030C00000958846924699469DF83C4002F0D8FD0E
:1030D00010B905B0BDE8F08F6FEA040B2D1BEBB201
:1030E00008EB04050AEB04020393EDB25F1ECB4428
:1030F0000223D2B22946009330462346C3440292AB
:103100005FFA8BFB03F070FE01235946029A00938D
:1031100030462346574403F067FEFFB204233A4685
:10312000294600933046234603F05EFE08235946A5
:103130003A4600933046234603F056FEC4F1FE03A0
:10314000DBB2C4EB030B0399CB4401350134EDB280
:103150005FFA8BFBE4B25246304601EB030A00945F
:103160005B462946FFF7FAFE5B463A46294630465B
:103170000094FFF7F3FE4B4641463046029A5FFA51
:103180008AFA0132D2B2CDF838A005B0BDE8F04FCE
:10319000FFF7E4BE30B5044687B01748FDF790FA54
:1031A00001254023802108222046039301930291A8
:1031B000124B009204954FF400121149FFF712FAD6
:1031C000002220461146FFF737FA29462046002202
:1031D000FFF732FA002220461146FFF7C1FA2046D7
:1031E00029460022FFF7BCFA06480023A38307B054
:1031F000BDE83040FDF764BA809C0008000C014037
:1032000000540040A09C000838B50D460446818B50
:1032100042B1124B2A461248FDF72EFAA38B1D42EB
:1032200008D038BD0F4B2A460D48FDF725FAA38B71
:103230001D4211D00C48FDF743FAA28B20466A408C
:10324000A2830021120AFFF78BFA227F2046BDE8F5
:1032500038400121FFF784BA38BD00BF249D000823
:10326000E89C0008E09C0008C09C000810B50446DB
:10327000828B002122F4F05292B28283120AFFF76D
:103280006FFA227F2046BDE810400121FFF768BA9F
:1032900010B50446828B002122F0FA0292B282839A
:1032A000120AFFF75DFA227F2046BDE81040012197
:1032B000FFF756BA01207047704700BFA0F1040025
:1032C000FAE700BF0148FDF7D7B900BF40CC0008BE
:1032D000A0F10400F6E700BF38B5044607480D46E4
:1032E000FDF7CAF9B4F8FC30402B00D038BD2946B0
:1032F0006069BDE83840FDF7AFBF00BF50CC0008A3
:10330000A0F10400E8E700BFB0F8FC3010B5202BB6
:1033100004461ED00DD8C3B1102B02D18023A0F8D3
:10332000FC3000F0F5FA0123C4F8000184F8FE3007
:1033300010BD402B05D0802BF3D14023A0F8FC30EA
:10334000EFE72023A0F8FC30EBE71023A0F8FC30D7
:10335000E7E70023A0F8FC30E3E700BF38B5194DDC
:10336000194B2A6803F118010360D3070446416032
:103370001FD51649164A174B1748E1602261636151
:10338000A06004F11800FFF735FA04F1500002F0D4
:10339000ABFF42F21070022203234FF47A7184F8DB
:1033A0000B2184F80C31C4F8F800C4F8041120464D
:1033B00038BD284604F0BCF80028DAD0284604F0CE
:1033C000C3F8D6E76C0E0020ECCB00084C0E0020B2
:1033D0002C0E0020280D0020700E002090F80831DF
:1033E00003B191E7704700BF38B590F8F430044658
:1033F0000D46B3B9002D14BF4FF480414FF4005176
:1034000001222069FFF700FF2A460421E06802F04C
:103410009DFC00F07DFA0123C4F8F00084F8F4303C
:1034200038BD00224FF400510069FFF7EDFE20691E
:1034300000224FF48041FFF7E7FE4FF4FA7000F0EE
:10344000B3FAD7E7F8B50446002504F1180601469B
:1034500001278068FEF746FF2946304684F8EC5085
:1034600084F8F450A4F8FC5084F8FE5084F80A5113
:1034700084F80871FFF7A6FA394684F80901304646
:10348000FFF754FC04F1E006211D04F1500002F0A6
:103490005BFF30464FF400530821064A02F088FCD7
:1034A000304602F005FF29463046BDE8F84002F0FC
:1034B000B7BC00BF000C0140B0F8FC30402B06D078
:1034C000802B00D07047E03091B902F0E5BC90F855
:1034D0000931002BF6D00B4610B5114604461830C2
:1034E00043B1FFF79DFB6069BDE81040FDF7C6BE24
:1034F00002F0E2BCFFF7A6FBF5E700BF70B50D4692
:1035000004460069FFF7C4FE402D50D094F80A31FC
:103510006BB194F80931002B6BD100216069FDF784
:10352000CFFE6069FDF7AAFE002384F80A31802DE2
:1035300025D104F1E00630460121A4F8FC5002F048
:103540006FFC304694F80C1102F0E6FC35496069D6
:10355000FDF7A4FE294620690122FFF755FE2069E8
:1035600001220421FFF750FEE0682021012202F031
:10357000EDFB60690121BDE87040FDF78BBE0021C5
:1035800004F1E00002F04CFCA4F8FC50BDBB2A465C
:1035900020690421FFF738FE29466069FDF77AFEAD
:1035A0002A46E0682021BDE8704002F0CFBB002130
:1035B00004F1E00002F034FC94F80931A4F8FC5066
:1035C0005BB919496069FDF747FE18496069FDF765
:1035D00065FE012384F80A31BCE704F11806304681
:1035E0000121FFF79DFA304694F80B11FFF73CFBE1
:1035F000EBE7002104F11800FFF792FA8DE7102D98
:1036000006D0202DA6D10A496069FDF747FEA1E743
:10361000206901220821FFF7F7FD06496069FDF7DF
:103620003DFE97E78CCC000870CC000880CC0008E9
:1036300068CC000860CC000830B590F8F43087B052
:103640000446002B48D194F8FE30002B32D1B4F858
:10365000FC30402B01D007B030BD94F80931002B6D
:10366000F9D00DF10E0304F118050093284603ABC1
:103670000DF10A0202A9FFF745F9002845D12846B5
:10368000FFF732F901466069FDF722FE606901210A
:10369000FDF716FE284604A9FFF756FB9DF8161005
:1036A0006069FDF711FE60699DF81110FDF72EFEAF
:1036B00007B030BD00F02CF9D4F80031D4F8042163
:1036C000C01A9042C3D3B4F8FC102046FFF716FF8F
:1036D000002384F8FE30BAE700F01AF9D4F8F0308D
:1036E000D4F8F820C01A9042ADD300224FF4005114
:1036F0002069FFF789FD00224FF480412069FFF720
:1037000083FD002384F8F4309DE7BDF80E00BDF87A
:103710000C300090BDF80A20BDF8081004F15000EC
:1037200002F024FEABE700BF10B5044690F8EC10A1
:1037300081F0010180F8EC10FFF756FE94F8EC10D0
:10374000204619B9BDE81040FFF7D8BE1021BDE8EA
:103750001040FFF7D3BE00BF90F8083110B5044603
:1037600033B190F8EC201AB1FFF7DEFF94F808317E
:1037700083F0010384F8083110BD00BF90F80831D0
:1037800003B97047D0E700BF38B5B0F8FC30402B24
:1037900008D0802B00D038BDE030B9B9BDE8384042
:1037A00002F0AABB90F80931002BF4D000F1180404
:1037B00020460D46FDF738F901465DB908B1411EB6
:1037C000C9B22046BDE83840FFF74EBABDE83840E0
:1037D00002F082BB0131C9B2F3E700BF30B44FF64B
:1037E000DF7441F47F4343F0DF03A34231D04FF64F
:1037F000EF7441F47F4343F0EF03A34238D04FF618
:10380000F77441F47F4343F0F703A34234D04FF6FB
:10381000FB7241F47F4343F0FB0393421FD04FF60A
:10382000FD7241F47F4343F0FD03934228D04FF6ED
:10383000FE7241F47F4343F0FE03934224D04EF6E0
:10384000FF7341F46F4141F0FF0199420DD030BC4C
:10385000704790F80831002BF9D030BC54E590F84F
:103860000831002BF3D030BC5EE730BCFFF774BFEB
:10387000012130BCFFF720BE002130BCFFF71CBE89
:10388000012130BCFFF780BF002130BCFFF77CBFB7
:10389000124B134A1B68A2FB03239B09013BB3F1A4
:1038A000807FFCD270B40F4A0F4DF0260024072011
:1038B0000E49536085F8236094601060CB6813F064
:1038C000807309D1C8680A4A40F08070C8605360AC
:1038D000136843F00103136070BC704710050020AB
:1038E000D34D621010E000E000ED00E0F0ED00E0EC
:1038F000001000E0024A136801331360704700BFF4
:10390000D00E0020014B1860704700BFD00E002081
:10391000014B1868704700BFD00E0020024A1168A2
:1039200013689942FCD07047D00E002010F1FF3090
:10393000044A06D3116813689942FCD010F1FF3095
:10394000F8D27047D00E0020084B10B41B68084C0A
:103950000849A4FB03430A4649689B0C00FB03107B
:1039600053681B1A002BFBDB10BC704710050020AE
:1039700083DE1B43001000E0084B094A1B6809481E
:10398000A2FB0323014640684FF47A729B0C02FBB2
:1039900003024B689B1A002BFBDB704710050020CD
:1039A00083DE1B43001000E00D4B10B41A680D4C71
:1039B0004FF47A73A4FB022410F1FF304FEA9444D1
:1039C00003FB04F4084908D34A6822444B689B1A55
:1039D000002BFBDB10F1FF30F6D210BC704700BFAC
:1039E0001005002083DE1B43001000E0FFF7DCBF62
:1039F0000120FFF7A9BF00BF0A20FFF7A5BF00BF46
:103A000070B5012186B01E4D0820FEF7A3FB0121F1
:103A10004FF48020FEF7ACFB1A4C284601A94FF466
:103A2000806203231826ADF804208DF806308DF847
:103A30000760FEF75BF901A9284604224FF40063F2
:103A40008DF80720ADF804304FF4E135FEF74EF95C
:103A500000230C22204602A9ADF81430ADF8103036
:103A6000ADF80E30ADF80C30ADF81220029501F033
:103A7000E9F82046012101F067F906B070BD00BFEA
:103A8000000C014000480040014608B5044801F020
:103A9000CFF98021024801F04DFA0028F9D008BD85
:103AA0000048004070B5013982B01C4606290BD889
:103AB000DFE801F0041F0A0A0D2525004FF4FA7013
:103AC000FFF772FFFFF79CFF012002B070BD1A4B99
:103AD00001921878400000F0FE00FFF7D5FF019A30
:103AE0001046FFF7D1FF6E20FFF72EFF012002B036
:103AF00070BD114BE2B91A70012002B070BD002AEE
:103B0000E2D0551EEDB201350B4E25443078400011
:103B100000F0FE00FFF7B8FF14F8010BFFF7B4FF49
:103B20006E20FFF711FFA542F0D1012002B070BD59
:103B300001221A70E0E700BFD40E00202DE9F04FFB
:103B400083B09DF830B099428CBFCF1A5F1A5A45A6
:103B50000C461E4681469246FFB23DD9CBEB02038E
:103B6000DBB29F42019345D211462246B2465C46E3
:103B70000E4693464FF00108DA4534BF4FF0010B73
:103B80004FF0FF3B019B43F34705FF2E08BFFE2686
:103B9000B44210D8B8F1000F10D152462146484621
:103BA000FDF722FFED1BEAB255B20134002DE4B25D
:103BB0000ADBA642EED203B0BDE8F08F22465146A2
:103BC0004846FDF711FFEDE701990AEB0B03551885
:103BD0005FFA83FA6DB2ECE7C2EB0B03DBB29F42F4
:103BE000019325D3B14215D8019A4FF000080197EF
:103BF0001746C1E7B142F7D921463A463446DA467C
:103C000047F347050E46019F4FF000084FF0010BA8
:103C10000192BAE721463A463446DA4647F3470569
:103C20000E46019F4FF000084FF0FF3B0192ACE7BA
:103C3000314622465E4654468B4692464FF0010876
:103C40009AE700BFF0B5074687B0294C0121042050
:103C5000FEF780FA01214FF48040FEF77BFA182529
:103C6000204669464FF4007203238DF80350ADF8E7
:103C700000208DF80230FEF739F8042269464FF42F
:103C8000806320468DF80320ADF80030194DFEF713
:103C90002DF84FF4E06002F07FFC0024012625237C
:103CA00001A88DF804308DF805408DF806408DF898
:103CB000076002F07BFC0C23284602A9ADF8123005
:103CC0000297ADF81440ADF81040ADF80E40ADF8D5
:103CD0000C4000F0B7FF3246284640F2255101F073
:103CE00041F83146284601F02FF807B0F0BD00BF7B
:103CF0000008014000380140F0B5074687B01D4E6E
:103D000001210420FEF726FA042501214FF400309A
:103D1000FEF72EFA184C182230460DEB050103234E
:103D20008DF807208DF80630ADF80450FDF7DEFF62
:103D30000DEB050130460823ADF804308DF807502F
:103D4000FDF7D4FF00230C22204602A9ADF8143061
:103D5000ADF81030ADF80E30ADF80C30ADF81220E3
:103D6000029700F06FFF2046012100F0EDFF07B041
:103D7000F0BD00BF000801400044004010B501281C
:103D800082B04FF004020CBF1824042403230DEB6F
:103D9000020105488DF80740ADF804208DF8063083
:103DA000FDF7A4FF02B010BD00080140044A054918
:103DB000136810B45C1C1460C85410BC704700BF7A
:103DC000DC0E00200C0F0020014B00221A6070470F
:103DD000DC0E0020004870470C0F0020014B1868D3
:103DE000C0B27047DC0E002083684279002103EBEB
:103DF000820203F8011B9A42FBD170474271816035
:103E000001EB8202002301F8013B8A42FBD170479B
:103E1000F0B485784479521B01F007078025CE085D
:103E2000D2B2E40845FA07F1806802FB0462C9B225
:103E30002BB9835C23EA01018154F0BC7047835C99
:103E400019438154F0BC704710B484784A78944286
:103E500006D8C478944203D343790C78A34201D89E
:103E600010BC70470B79214610BCFFF7D1BF00BFD3
:103E700070B50D4606468C7823061AD4EB78032BD2
:103E800006D8DFE803F0120A0E026B78013B6B7074
:103E9000640014F0FF04EFD170BD6B7801336B70D8
:103EA000F6E72B78013B2B70F2E72B7801332B7070
:103EB000EEE729463046FFF7C7FFDFE72DE9F0417F
:103EC000CB780D4606468C78032B26D8DFE803F026
:103ED0001F1B1702FF274FF0000809E02A786B78B4
:103EE000640042443B4414F0FF042A706B7012D00B
:103EF0002306F3D529463046FFF7A6FFEEE7002755
:103F00004FF0FF08F4E701274FF00008F0E7002723
:103F10004FF00108ECE7BDE8F0810027B846E7E77D
:103F200010B5143A82B04C68332A23D8DFE802F087
:103F30002A3922482222222222222222222222221C
:103F400022222222222222222222222222224F2224
:103F5000222222222222221A222222222222222249
:103F600022225625194620460193FCF733F9019B7E
:103F7000002838D1012002B010BD627801201A70EB
:103F800002B010BDA3686279002103EB820203F83E
:103F9000011B9A42FBD12046FDF700FE012002B032
:103FA00010BD2046FDF70AFE0028E4D0A368627920
:103FB000002103EB820203F8011B9A42FBD1D9E7EF
:103FC00020461946FCF7FCF8012002B010BD20463F
:103FD0001946FFF739FF012002B010BD62790120B8
:103FE0001A7002B010BD20461946FFF767FF012086
:103FF000C1E700BF81604271FCF788B830B48478B3
:104000004579121BED0802FB05F2802401F007053B
:10401000D2B22C4102EBD1018068E2B22BB9435CF1
:1040200023EA0202425430BC7047435C1A434254B4
:1040300030BC704710B484784A78944206D8C4786B
:10404000944203D343790C78A34201D810BC704743
:104050000B79214610BCFFF7D1BF00BF70B50D46EC
:1040600006468C7823061AD4EB78032B06D8DFE8B3
:1040700003F0120A0E026B78013B6B70640014F0BF
:10408000FF04EFD170BD6B7801336B70F6E72B78CE
:10409000013B2B70F2E72B7801332B70EEE72946BA
:1040A0003046FFF7C7FFDFE72DE9F041CB780D463B
:1040B00006468C78032B26D8DFE803F01F1B170277
:1040C000FF274FF0000809E02A786B78640042442B
:1040D0003B4414F0FF042A706B7012D02306F3D512
:1040E00029463046FFF7A6FFEEE700274FF0FF080E
:1040F000F4E701274FF00008F0E700274FF0010830
:10410000ECE7BDE8F0810027B846E7E710B5143AC0
:1041100082B04C68332A22D8DFE802F02932213CF1
:10412000212121212121212121212121212121217F
:10413000212121212121212121214321212121214D
:104140002121211A212121212121212121214A243A
:10415000194620460193FCF73DF8019B68BB0120FE
:1041600002B010BD627801201A7002B010BD204666
:10417000FBF7CCFF2046FDF711FD012002B010BD7A
:104180002046FDF71BFD0028EAD02046FBF7BEFFC6
:104190000120E5E720461946FCF712F8012002B09D
:1041A00010BD20461946FFF745FF012002B010BDA3
:1041B000627901201A7002B010BD20461946FFF73F
:1041C00073FF0120CCE700BF08B540F22551084835
:1041D00000F0BAFE00B908BD054800F02DFEC0B2DF
:1041E0007428F8D1BDE808400248FCF769BA00BF5E
:1041F0000038014010CD0008F0B54FF4E130DBB0DD
:10420000FFF720FDFFF744FB3E48FCF759FA3E4814
:10421000FDF7D8F801213C48FCF7E6FF3B4A0021B6
:104220003948FDF777F83848FDF764FA384E012130
:104230003548FCF7A1FF3748FEF7ACFF3368DA07D3
:1042400057D53548FEF702F8344801F045FD16A869
:10425000FFF784F816A8FFF7F5F8684600F06EF847
:10426000684600F02FF900212748FCF7BDFF2C48D5
:10427000FCF726FA2B4C2C4D2EE02748FEF75AF877
:1042800061682A48C91BA5FB0131090CFCF7F4F948
:104290006846676800F096FA63682548D91BA5FB55
:1042A0000131090CFCF7E8F916A86768FFF7C4F9B3
:1042B00063682048D91BA5FB0131090CFCF7DCF928
:1042C00011486768FDF716FA63681B48D91BA5FB00
:1042D0000131090CFCF7D0F933686768DB07CCD4EF
:1042E0000B4803F025F90028C7D0094803F02CF942
:1042F000C3E7304603F01CF90028A2D0304603F093
:1043000023F99EE798CC0008280D0020BCCC0008BB
:104310006C0E00202C0E0020700E00204C0E002091
:10432000C8CC0008001000E0D55204E9DCCC00083D
:10433000E8CC0008F4CC000800CD000838B50D4DDD
:104340000D4A2B680446DB07026009D50B480C496F
:104350000C4A0D4B6060A160E2602361204638BDCD
:10436000284603F0E5F80028F0D0284603F0ECF8E2
:10437000ECE700BF6C0E002024CD0008700E00207A
:104380004C0E00202C0E0020280D002010B50446F5
:10439000F9B990F852300BB180F8521094F84E20D1
:1043A000A2B984F85320E0684FF48061FEF72CFF37
:1043B000E06894F852204FF40071FEF725FF94F85E
:1043C00052102069BDE81040FCF728BF94F8532034
:1043D000E9E7012280F8532080F85220E3E700BF8C
:1043E00070B590F84D401CB990F8523023BB70BDA9
:1043F000866C044630460D4603F0B8FF88B194F849
:104400005230F3B12946304603F092FF0028EED037
:104410001048FCF755F92046BDE870400021FFF731
:10442000B5BF2946304603F083FF0028DFD094F85B
:104430005230002BECD170BD2146BDE87040FFF733
:10444000A5BF0548FCF73CF92046BDE870400121B6
:10445000FFF79CBF5CCD000844CD000808B51021D3
:104460000348FDF7A7FCB0FA80F0400908BD00BF83
:1044700000080140F0B5054683B0084616460C46D4
:1044800003F07EFF03F062FD0146204603F0A8FC26
:104490000A4903F0AFFD03F099FF0746204603F0F9
:1044A0006FFF3B4602B206496846FCF775F86A465C
:1044B00031462869FCF79CFE03B0F0BD00002041A6
:1044C00074CD00082DE9F041044682B04448FCF761
:1044D000F7F821466068FDF705FF424900250127EE
:1044E0004FF00408A1642046022284F84C7084F83E
:1044F0004F7084F84E5084F84D5084F8505084F832
:10450000515084F8525084F8535084F8545084F831
:104510005550FFF7AFFF04F11406102202230DEBF4
:1045200008013148ADF804208DF806308DF8078079
:10453000FDF7DCFB3B46414630462B4AFCF780FB4F
:1045400084F84500E8B904F12C0528460223264AE0
:104550000421FCF775FB84F8470048BB94F845300C
:104560001BB922492069FCF75DFEA06801224FF4C7
:10457000805101F0EBFB1E48FCF7A2F802B0BDE849
:10458000F0813046FCF718FB3046FCF715FB30464F
:10459000FCF744FC29463046FCF7AAFC3046FCF701
:1045A0000BFB3046FCF73AFC3046FCF747FCCAE709
:1045B0002846FCF701FB2846FCF7FEFA2846FCF7E4
:1045C0002DFC00212846FCF793FC2846FCF7F4FA62
:1045D0002846FCF723FC2846FCF730FCBEE700BF6A
:1045E0007CCD000800000C42000801409CCD000872
:1045F000A8CD000838B5856C04460949284603F063
:10460000ABFE00B138BD28464FF07C5103F0EAFB09
:104610000222A06401462046BDE83840FFF72ABFC9
:104620000000344238B5856C04460949284603F039
:1046300089FE00B138BD28464FF07C5103F0D0FB15
:104640000222A06401462046BDE83840FFF712BFB1
:104650000000204110B5102104460C48FDF7AAFBCC
:1046600000B110BD94F85020E06882F0010284F897
:1046700050204FF40061FEF7C7FD94F85020A06869
:104680004FF48071BDE8104001F060BB00080140AC
:1046900010B5102104460C48FDF78CFB00B110BD8D
:1046A00094F85120E06882F0010284F851204FF420
:1046B0008051FEF7A9FD94F85120A0684FF40071D5
:1046C000BDE8104001F042BB0008014010B51021C8
:1046D00004460948FDF76EFB00B110BD94F84D206B
:1046E000A06882F0010284F84D204FF48061BDE89B
:1046F000104001F02BBB00BF0008014010B5102195
:1047000004460C48FDF756FB00B110BD94F84E204E
:10471000E06882F0010284F84E204FF48061FEF7D9
:1047200073FD94F84E20A0684FF40061BDE810407E
:1047300001F00CBB0008014010B5044690F854206D
:104740004FF4004182F00102C06884F85420FEF763
:104750005BFD94F85420A0684FF40051BDE8104070
:1047600001F0F4BA10B5044690F855204FF480716A
:1047700082F00102C06884F85520FEF745FD94F8E8
:104780005520A0684FF48041BDE8104001F0DEBA2A
:1047900010B50446002380F84D3080F84E3080F884
:1047A000503080F8513080F8523080F85330C06873
:1047B000FEF75CFD94F852102069BDE81040FCF74C
:1047C0002DBD00BF2DE9F04700F1140788B000238C
:1047D00004463846ADF8083003938DF81030ADF834
:1047E000143006938DF81C30FCF7E6F984F8450088
:1047F00070B194F844503846002D40F0C480FCF766
:10480000DBF93846FCF70AFB29463846FCF770FB13
:1048100004F12C052846FCF7CFF984F8470070B165
:1048200094F846602846002E40F0B480FCF7C4F9A6
:104830002846FCF7F3FA31462846FCF759FB9DF869
:104840001030002B65D06846039BBDF90820554900
:104850006E46FBF7A1FE324601212069FCF7C8FC39
:104860009DF81C30002B4CD0069BBDF914204D49FF
:104870003046FBF791FE324600212069FCF7B8FC78
:1048800010214948BDF90890DDF80CA0FDF792FA17
:10489000B0FA80F694F84C307609B342804607D0DF
:1048A0002069FCF7D1FCB8F1000F4FD184F84C60BF
:1048B00094F8442094F845309A4207D02069FCF7D8
:1048C000C3FC94F84530BBB384F8443094F84720D7
:1048D00084F84620B8F1000F03D19DF81020002A7B
:1048E0003CD1FBB994F8473043B12846FCF764F952
:1048F0002846FCF793FA2846FCF7A0FA08B0BDE872
:10490000F0872A4B1B681A0CADF800308DF8022096
:10491000B1E7264B6E461B681A0CADF800308DF8D7
:10492000022098E73846FCF747F93846FCF776FA54
:104930003846FCF783FAD5E72046FFF729FF1C49E4
:104940002069FCF76FFC94F84530BDE72046FFF77F
:104950001FFF18492069FCF765FCA7E7504603F0E4
:10496000F1FA154903F0FAFB0646484603F0EEFA61
:104970000146304603F036FA01462046FFF730FD87
:1049800094F84530ADE7FCF749FA02A93846FCF740
:1049900027FB3DE7FCF742FA05A92846FCF720FB78
:1049A0004DE700BF74CD000800080140C8CD0008E5
:1049B0009CCD0008CCCD00080000204138B590F80F
:1049C0004F50044685F0010580F84F505DB14FF41B
:1049D00080518068012201F0B9F920690121BDE808
:1049E0003840FCF7C9BB80F8505080F8515080F82F
:1049F000545080F855502A464FF40061C068FEF7C5
:104A000003FC94F85120E0684FF48051FEF7FCFB62
:104A100094F85420E0684FF40041FEF7F5FB94F859
:104A20005520E0684FF48071FEF7EEFB94F85020BB
:104A3000A0684FF4807101F089F994F85120A068C2
:104A40004FF4007101F082F994F85420A0684FF4FB
:104A5000005101F07BF994F85520A0684FF4804193
:104A600001F074F9A0682A464FF4805101F06EF904
:104A700029462069BDE83840FCF77EBB38B54FF6C3
:104A8000FF6441F47E4343F0FF03A34262D04FF63C
:104A9000FF5441F47D4343F0FF03A3425ED04FF641
:104AA000FF3441F47B4343F0FF03A3425AD04FF25B
:104AB000FF7441F4774343F0FF03A34256D04DF611
:104AC000FF7441F45F4343F0FF03A34252D04BF61F
:104AD000FF7441F43F4343F0FF03A34252D04FF62B
:104AE0007F7241F47F4343F07F039342044610D02A
:104AF0004FF6BF7241F47F4343F0BF0393421CD093
:104B00004EF6FF7341F46F4141F0FF01994235D0F9
:104B100038BD856C1D49284603F01EFC0028F7D1DE
:104B200028464FF07C5103F05DF9A0640146022253
:104B30002046BDE83840FFF79DBC856C14492846E7
:104B400003F000FC0028E3D128464FF07C5103F02D
:104B500047F9EAE7BDE83840FFF77CBDBDE83840DB
:104B6000FFF796BDBDE83840FFF7B0BDBDE838405F
:104B7000FFF7C4BDBDE83840FFF7DEBDBDE83840F3
:104B8000FFF71CBFBDE83840FFF7ECBD0000344222
:104B90000000204108B5264B984218D0254B98427A
:104BA00021D0254B98422AD0244B984233D0244B15
:104BB000984200D008BD01214FF48010FDF7F4FAAF
:104BC000BDE8084000214FF48010FDF7EDBA012147
:104BD0004FF48040FDF7DAFABDE8084000214FF4B9
:104BE0008040FDF7D3BA01214FF40030FDF7DCFA25
:104BF000BDE8084000214FF40030FDF7D5BA01218F
:104C00004FF48020FDF7D0FABDE8084000214FF4B2
:104C10008020FDF7C9BA01214FF40020FDF7C4FA46
:104C2000BDE8084000214FF40020FDF7BDBA00BFE9
:104C3000003801400044004000480040004C004063
:104C40000050004030B504460D46038ACA889BB226
:104C500023F440531343038282890B89888892B2DC
:104C60004989034322F4B0520B4322F00C02134350
:104C70009BB2A381A38AAA899BB223F4407387B015
:104C80001343A38201A8FDF70BFA04991A48039B6A
:104C9000A289844208BF0B4612F4004F2A6803EB36
:104CA000830314BF5200920003EB8303B3FBF2F3C0
:104CB000124DA189A5FB03206422400900FB123399
:104CC0000A044FEA00100AD41A013232A5FB02236B
:104CD000C3F3431303439BB2238107B030BDD90014
:104CE0003231A5FB0131C1F3421242EA00039BB20B
:104CF000238107B030BD00BF003801401F85EB5154
:104D000000234FF416510C22016042818380C3803E
:104D100003818381704700BF30B44B880D888C8835
:104D2000028A2B43C988234392B20B4322F4706258
:104D300013439BB2038230BC704700BF0023038043
:104D400043808380C3807047838929B923F400534B
:104D50001B041B0C838170479BB243F40053838177
:104D6000704700BF10B401F01F04C1F342110123CA
:104D7000012903FA04F30FD002290CBF10301430BC
:104D80002AB9026810BC22EA030303607047026874
:104D900010BC1343036070470C30F1E7838A9BB269
:104DA0001AB923EA01018182704719438182704751
:104DB000038A23F00F031B041B0C0382038A9BB29C
:104DC00019430182704700BF838923F400631B04E9
:104DD0001B0C838183899BB219438181704700BF7B
:104DE000838929B923F002031B041B0C83817047BC
:104DF0009BB243F002038381704700BF038A23F014
:104E000020031B041B0C0382038A9BB219430182FB
:104E1000704700BF038A29B923F480431B041B0C8D
:104E2000038270479BB243F480430382704700BF04
:104E3000C1F30801818070478088C0F30800704783
:104E400083899BB243F0010383817047038BDBB2FC
:104E50000383038B9BB243EA01210183704700BFA8
:104E6000038B03F47F430383038B9BB219430183BA
:104E7000704700BF838A29B923F020031B041B0C51
:104E8000838270479BB243F020038382704700BF48
:104E9000838A29B923F010031B041B0C83827047FB
:104EA0009BB243F010038382704700BF838A29B905
:104EB00023F008031B041B0C838270479BB243F052
:104EC00008038382704700BF838919B9C3F30E03B7
:104ED000838170476FEA43436FEA53439BB28381F8
:104EE000704700BF838A29B923F400631B041B0C9D
:104EF000838270479BB243F400638382704700BF94
:104F0000838A23F004031B041B0C8382838A9BB2D5
:104F100019438182704700BF838A29B923F00203B5
:104F20001B041B0C838270479BB243F002038382F5
:104F3000704700BF0388194214BF0120002070474A
:104F4000C94389B201807047C1F3421210B40123F2
:104F500001F01F04012A03FA04F315D0022A0CBF42
:104F6000028A828A92B21340028892B24BB1012324
:104F7000090A03FA01F10A4214BF1846002010BCC6
:104F80007047184610BC7047828992B21340EBE715
:104F9000090A012303FA01F1C94389B2018070476C
:104FA00043185B78405C03EB002080B2704700BF81
:104FB0000020704790F82A00704700BF90F8290041
:104FC0000130C0B2704700BF90F82A2090F8293015
:104FD0009B1A5BB203EBD37302EB6300C0B2704762
:104FE00000787047704700BF08B5FFF7FBFF18B1A6
:104FF000022801D0032008BD062008BD00787047B4
:10500000407970470621CBE70821C9E7807A7047CD
:10501000C07A704790F90C00704700BF90F90D00FE
:10502000704700BF90F90E00704700BF90F90F0065
:10503000704700BF90F91000704700BF70B503784B
:1050400006461846FFF7CEFF02461846FFF7CCFF8C
:1050500005463046FFF7DAFF03463046FFF7D8FF34
:10506000012A14BFFF240F2406F1110109E08A78F8
:10507000834202EA04022A44114403F1010309D0E5
:10508000DBB20A78FF2AF2D1834201F1010103F178
:105090000103F5D1881B70BD83685878704700BF45
:1050A00083689878704700BF836893F9030070475E
:1050B000836893F90400704783685879704700BF8C
:1050C0002DE9F0478468814623780E461846FFF79D
:1050D00089FF80461846FFF787FFB8F1010F824627
:1050E000204614BFFF270F27FFF790FF02462046F8
:1050F000FFF78EFF05462046FFF786FF602E30D96A
:1051000040B304446122B54217D3AA420CD914E03B
:10511000B2422DD0A378AA4203EA070353441C44A9
:1051200002F1010209D0D2B22378FF2BF0D1AA42BA
:1051300004F1010402F10102F5D1002089F81C00FC
:1051400089F81F0089F8200089F81D0089F81E00E1
:10515000BDE8F0872046FFF755FF38B104444122EF
:10516000D1E72046FFF74EFF402EF6D81134CAE7AC
:10517000B8F1000F19D0B8F1020F16D003F00F02EA
:10518000023A1B0989F81E2089F81D3063782046F1
:1051900003F00F021B0989F8202089F81F30A3783B
:1051A0001B0989F81C30BDE8F08789F81F30637847
:1051B000204689F82030E37889F81C30237989F873
:1051C0001D30637989F81E30BDE8F08770B514464C
:1051D00005467F228023227063700E460978FFF710
:1051E0006FFF6B7F5B42DAB2227195F91D30A370BD
:1051F00095F91E30E37007E02B7F28461344237196
:105200003178FFF75DFF227995F91E3094F900108F
:105210009942C8BF237095F8200094F90110034407
:105220005BB29942B8BF637016F8013F002BE3D11F
:10523000EB7F1344DBB223716A7F1344237170BD8B
:1052400008B5FFF73DFF003018BF012008BD00BFC3
:1052500010B50446FFF734FF08B194F91C0010BDE7
:105260002DE9F04F884685B0194616460746FFF7E8
:1052700027FF044600284AD0BB681878FFF7B4FE21
:1052800097F81EA097F82050CAEB060697F81DB0B5
:105290005FFA86FAC344C5EB0A0697F81F80F6B298
:1052A0005FFA8BFB814600953246594643463846A5
:1052B00000F0E6FC30B308F10708C8F3C403194650
:1052C0000293FDB1013BDBB20BEBC1080133A144FA
:1052D00003935FFA88F8029B83B15C464D4615F84C
:1052E000012B214608340092002332463846E4B2AE
:1052F000FCF788FB4445F2D1039B99440136F6B292
:105300005645E8D197F91C0005B0BDE8F08F05B00F
:10531000BDE8F08F2DE9F041476A05460E46144678
:105320009846B8470219434631462846BDE8F04141
:10533000D2B2FFF795BF00BF2DE9F04F0C4685B004
:10534000194692460746FFF7BBFE054600284DD09A
:10535000BB681878FFF748FEBB7F7A7F01331C4497
:10536000924497F82080FE7FE4B25FFA8AFA814681
:105370002146524600964346384600F081FC80B3F1
:1053800008F1FF3306F1070B1C44CBF3C4031946A5
:105390000293E6B2B8F1000F23D05A1ED2B2C8EB86
:1053A00006035FFA83FB0AEBC108531CA94403936D
:1053B0005FFA88F8029B83B154464D4615F8012BDD
:1053C000012300922246083431463846E4B2FCF705
:1053D00019FB4445F2D1039B9944013EF6B25E4568
:1053E000E8D197F91C0005B0BDE8F08F05B0BDE825
:1053F000F08F00BF2DE9F041476A05460C4616467E
:105400009846B847211A434632462846BDE8F0413F
:10541000C9B2FFF791BF00BF2DE9F04F884685B0B4
:10542000194614460746FFF74BFE0546002853D0A1
:10543000BB681878FFF7D8FD97F81DB0BB7FFE7FDB
:10544000CBEB080801335FFA88FB1C44C6F101016D
:1054500097F820805944E4B28146C9B222463346C7
:10546000CDF80080384600F00BFC80B308F1FF3324
:1054700006F1070A1C44CAF3C40319460293E6B2B4
:10548000B8F1000F23D05A1ED2B2C8EB06035FFA60
:1054900083FAABEBC108531CA94403935FFA88F865
:1054A000029B83B15C464D4615F8012B2146083C12
:1054B0000092022332463846E4B2FCF7A3FA444590
:1054C000F2D1039B9944013EF6B25645E8D197F9D3
:1054D0001C0005B0BDE8F08F05B0BDE8F08F00BF3F
:1054E0002DE9F041476A05460E4614469846B847EE
:1054F000221A434631462846BDE8F041D2B2FFF7B2
:105500008BBF00BF2DE9F04F0E4685B0194692467D
:105510000746FFF7D5FD044600284DD0BB68187834
:10552000FFF762FD97F8205097F81DB0BB7F97F802
:105530001F802B44CBEB0A0AF61A5FFA8AFBC8F1EC
:105540000102F6B25A4481463146CDF80080D2B20B
:105550002B46384600F094FB48B308F10708C8F31F
:10556000C4031946029315B3013BDBB23544ABEBE0
:10557000C10801335FFA85FAA14403935FFA88F802
:10558000029B83B15C464D4615F8012B0323009224
:105590002246083C31463846E4B2FCF733FA44452B
:1055A000F2D1039B99440136F6B25645E8D197F9FA
:1055B0001C0005B0BDE8F08F05B0BDE8F08F00BF5E
:1055C0002DE9F041476A05460C4616469846B8470D
:1055D0000119434632462846BDE8F041C9B2FFF7FB
:1055E00091BF00BF2DE9F0411E46436A1746804631
:1055F0000C4698473378384493B1C7B2002521460A
:105600003A464046FFF72CFE16F8013FC0B204446C
:105610000544E4B2EDB2002BF1D12846BDE8F0819B
:105620001D46FAE72DE9F0411E46436A0F468046C3
:10563000144698473378381A93B1C7B200252246EA
:1056400039464046FFF778FE16F8013FC0B20444E1
:105650000544E4B2EDB2002BF1D12846BDE8F0815B
:105660001D46FAE72DE9F0411E46436A174680467B
:105670000C4698473378381A93B1C7B200252146B3
:105680003A464046FFF7C8FE16F8013FC0B2241A5A
:105690000544E4B2EDB2002BF1D12846BDE8F0811B
:1056A0001D46FAE72DE9F0411E46436A0F46804643
:1056B000144698473378384493B1C7B20025224640
:1056C00039464046FFF71EFF16F8013FC0B2241AC4
:1056D0000544E4B2EDB2002BF1D12846BDE8F081DB
:1056E0001D46FAE710B5029C032B17D8DFE803F03C
:1056F000110C07022346BDE81040FFF7D3BF234635
:10570000BDE81040FFF7AEBF2346BDE81040FFF7ED
:1057100089BF2346BDE81040FFF764BF002010BDDD
:105720002DE9F0411E46436A174680460C469847CD
:105730003378384493B1C7B2002521463A464046F3
:10574000FFF78EFD16F8013FC0B204440544E4B2F1
:10575000EDB2002BF1D12846BDE8F0811D46FAE7F5
:105760002DE9F8431F46436A894606461446984782
:105770003D78C0EB0900DDB15FFA80F94FF0000819
:10578000736A30469847C0EB09012B462246C9B2DE
:105790003046FFF7D1FD17F8015FC0B20444404422
:1057A000E4B25FFA80F8002DEAD14046BDE8F88304
:1057B000A846FAE72DE9F8431F46436A9146064694
:1057C0000C4698473D78C0EB0900DDB15FFA80F9DF
:1057D0004FF00008736A30469847C0EB09022B4629
:1057E0002146D2B23046FFF717FE17F8015FC0B26C
:1057F000241A4044E4B25FFA80F8002DEAD1404612
:10580000BDE8F883A846FAE72DE9F8431F46436A46
:1058100089460646144698473D784844DDB15FFA0C
:1058200080F94FF00008736A3046984709EB000191
:105830002B462246C9B23046FFF764FE17F8015FD7
:10584000C0B2241A4044E4B25FFA80F8002DEAD1D5
:105850004046BDE8F883A846FAE700BF70B51E468B
:105860000546FFF721FC091A2846C9B2FFF720FCBC
:10587000024433462846BDE87040D2B2FFF732BF3B
:1058800010B50446FFF710FC091A2046C9B2FFF70D
:105890000FFC02449DF80830D2B22046FFF7E0FC2E
:1058A000002010BD8368CBB190F82820BAB1012A3E
:1058B0001ED093F90D2080F8292093F90E3080F83E
:1058C0002A3090F82B10D31A40299BB204D0DBB2B7
:1058D00001FB03F3C3F38F1380F82C30704793F967
:1058E000052080F8292093F90C3080F82A30E8E769
:1058F00093F90F2080F8292093F9103080F82A308E
:10590000DFE700BF002280F82820FFF7CBBF00BFF1
:10591000012380F82830FFF7C5BF00BF022380F8BD
:105920002830FFF7BFBF00BF80F82B10FFF7BABFCA
:10593000014B4362704700BFB14F0008014B436207
:10594000704700BFB54F0008014B4362704700BF6E
:10595000BD4F0008014B4362704700BFC94F0008AC
:105960002DE9F041064608460C469046904705460C
:1059700008B9BDE8F08101463046FFF7A1FB707F12
:105980004042C7B209E0337F20463B44DFB2C04704
:10599000054601463046FFF793FB01342046C047D9
:1059A0000028F0D1202D1BBFF07F737F307FC018FF
:1059B0003844C0B2BDE8F081014AFFF7D1BF00BF53
:1059C000FD4F0008014AFFF7CBBF00BFE14F0008C1
:1059D00010B504460978FFF773FB94F91D0010BD5C
:1059E00010B504460978FFF76BFB94F91D0010BD54
:1059F00070B50D46097869B1064600243046FFF7B8
:105A00005FFB337F15F8011F1C44E4B20029F5D178
:105A1000204670BD0C46FBE770B50D46097869B1AC
:105A2000064600243046FFF74BFB337F15F8011F75
:105A30001C44E4B20029F5D1204670BD0C46FBE7BA
:105A400010B4002414710C782CB914705470947034
:105A5000D47010BC704710BCFFF7B8BB704700BFD4
:105A6000704700BF2DE9F0430F7883B00A9E0B9D6D
:105A70001FB381460C4690461F466A4600238DF8A8
:105A80000430FFF7A3FB21784846FFF719FB98F88D
:105A9000001099F81D309DF804200B4488F8003060
:105AA00032703A789DF801309DF80010D21A5B1AD6
:105AB0003A702B7003B0BDE8F08337702F7003B0DD
:105AC000BDE8F0832DE9F0470E7882B00A9F0B9D68
:105AD0006EB30446884691461E4683684FF0000E1A
