:020000040800F2
:1000000000500020452A0008912A0008912A000883
:10001000912A0008912A0008912A00080000000097
:10002000000000000000000000000000912A00080D
:10003000912A000800000000912A0008E53B000812
:10004000912A0008912A0008912A0008912A0008A4
:10005000912A0008912A0008912A0008912A000894
:10006000912A0008912A0008912A0008912A000884
:10007000912A0008912A0008912A0008912A000874
:10008000912A0008912A0008912A0008912A000864
:10009000912A0008912A0008912A0008912A000854
:1000A000912A0008912A0008912A0008912A000844
:1000B000912A0008912A0008912A0008912A000834
:1000C000912A0008912A0008912A0008912A000824
:1000D000912A0008B9440008912A0008912A0008D2
:1000E000912A0008912A0008912A000800000000C7
:1000F0000000000000000000000000000000000000
:1001000000000000000000005FF808F183684279F9
:1001100000211A4403F8011B9A42FBD1704700BF2B
:1001200010B4C478914294BF002301238C4234BFA1
:1001300000210121807843EA010490428CBF002015
:1001400004F001000B40184310BC704743798B4208
:1001500004D2934234BF0020012070470120704731
:1001600070B44D78CC78C2782C44013C04F0FF0484
:10017000A54294BF00260126AA4234BF00230123D2
:10018000857846EA0302A5428CBF002402F00104F0
:1001900024B9334002D170BC1846704740790B78BF
:1001A0008A78834209D970BC1A44013A02F0FF02EE
:1001B00082428CBF002001207047012070BC704734
:1001C00000230B7083784B704379013B8B70C378AD
:1001D000CB70704710B4CB784978012B1ED0032B1D
:1001E00012D00C460023C27880788A4234BF0022A5
:1001F000012243EA0201A0428CBF002001F001006D
:100200001340184310BC7047A1F10802D2B29142CA
:100210000C462CBF002301231146E4E701F108043A
:10022000E4B2A14294BF00230123DCE710B40446EA
:100230000846A3681146627910BC00F083BB00BF7A
:1002400001207047014B1870704700BF000000206C
:1002500008B50C4B01461B78012B09D00A4804F065
:10026000B9FE8021084804F037FF0128F9D108BD04
:10027000064804F0AFFE8021044804F02DFF00285A
:10028000F9D008BD000000200044004000380140C3
:1002900001700120704700BF0B7810B453B10246C3
:1002A00002F8013B11F8013F141A002BF8D1204647
:1002B00010BC70471C46FAE7092B70B51E4602F1C8
:1002C000FF35044613D8002D1BDD0B46411904F8F9
:1002D000013BA142FBD110460B4BA3FB0623DB08DD
:1002E00003EB8303A6EB430330330B7070BD064B67
:1002F0002A46A3FB0653DB08FFF7DEFF2118013077
:10030000EAE701460120E7E7CDCCCCCCF8B5002BDD
:1003100004460F4627DB092B1E4602F1FF3219DC8B
:10032000002A37DD11462546013905F8017BFBD14E
:10033000012AB8BF0122002B144426DB501C164BA7
:10034000A3FB0623DB0803EB8303A6EB4303303355
:100350002370F8BD104BA3FB0653DB08FFF7D6FF55
:1003600004440130EBE75E42092E02F1FF3508DD5F
:10037000094B2A46A3FB0653DB085B42FFF7C6FF87
:10038000EEE7023A002ACDDC00222D23901C04F86F
:10039000013BD4E70120D2E7CDCCCCCC2DE9F04114
:1003A00082B0089E551E5FEA161E044698461ED16E
:1003B000002D24DD0F46431904F8017BA342FBD135
:1003C000104606F00F06092E0CD9B8F1000F04D123
:1003D00057361E7002B0BDE8F08137361E7002B08D
:1003E000BDE8F08130361E7002B0BDE8F081CDF876
:1003F00000E02A46FFF7D2FF23180130E1E7034669
:100400000120DEE72DE9F0410F4682B09E46064608
:1004100008B100230370002513785BB1BD4280F062
:100420009780252B0ED033700132137801350136B9
:10043000002BF3D1AF4240F28B802846337002B0DC
:10044000BDE8F0815178252935D0302938D00B46C8
:10045000541CA3F13002092A4FF0200136D80022A3
:1004600002EB820203EB420214F8013F303AA3F19F
:100470003000092802F0FF02F2D9104628448742D2
:1004800038BF7A1BA3F1580338BFD2B2202B66D8ED
:10049000DFE803F059656565656565656565655106
:1004A0004765656565476565656565656565653865
:1004B000652E65651F003170023201350136ABE7EC
:1004C0009378941CA3F13002092AC8D9002002466F
:1004D000D4E7DEF80030009300230EF10408304624
:1004E000FFF75CFFC6460346621C1E44054493E7C3
:1004F000DEF8003030460EF10408FFF7DDFEC64698
:100500000346F1E7DEF800100EF1040E0B785BB342
:10051000324602F8013B11F8013F901B002BF8D145
:10052000E1E7DEF8003030460EF10408FFF7EEFE9A
:10053000C6460346D8E7DEF80020012332700EF1EC
:10054000040E1846D0E7DEF8003000930123C4E71C
:100550000023681E06F8013C02B0BDE8F0814FF0B0
:10056000FF3002B0BDE8F0811846BDE70CB410B50D
:1005700082B004AC54F8042B23460194FFF742FFE9
:1005800002B0BDE8104002B0704700BF13460A46F3
:100590006421FFF737BF00BF0EB410B583B005ACC0
:1005A00054F8042B642123460194FFF72BFF03B07A
:1005B000BDE8104003B07047084B10B55B689A68FF
:1005C0008A4202D0DB68994205D10446C0B2FFF7E7
:1005D0003FFE204610BD4FF0FF3010BD0000002050
:1005E000F8B50546007858B10E460A4F00247B68DE
:1005F0009A68964205D0DB689E4202D04FF0FF30E9
:10060000F8BDFFF725FE15F8010F01340028EED1E3
:100610002046F8BD00000020F0B5A3B06C46964619
:100620000F460E4D06460FCD0FC40FCD0FC42D68DB
:1006300073463A4609A864212560FFF7E3FE632864
:1006400006DD074B68465B68D968FFF7C9FFFEE720
:10065000314609A8FFF7C4FF23B0F0BDFC9B00089A
:1006600000000020034B0A465B6801469868FFF7CC
:10067000D3BF00BF000000200FB400B5074A83B00D
:1006800004AB53F8041B50681A4680680193FFF7C7
:10069000C3FF03B05DF804EB04B070470000002016
:1006A0000EB400B582B003AB53F8041B1A46019395
:1006B000FFF7B2FF02B05DF804EB03B0704700BF74
:1006C000024B5B689968FFF78BBF00BF00000020FA
:1006D000044A05491368002B08BF0B4618441060F4
:1006E00018467047240900200C1100204FF0FF30FD
:1006F000704700BF4FF0FF30704700BF4FF400530A
:100700004B600020704700BF0120704700207047F9
:100710001046704710467047FEE700BF0A2A2DE9D1
:10072000F04790469A4605460C4652D0152A48D1C5
:100730004E68002200F0F6F801222146284600F01B
:10074000D9F8B768B67807F1800918E0214628463D
:1007500000F0F0F880222146284600F0EBF8012254
:100760002146284600F0DEF810223B462146174479
:10077000284600F0E7F80136B945F6B21CD0002251
:100780002146284600F0CEF83E222146284600F0B9
:10079000D1F8A6F120021F2E62F07F0346F08002FE
:1007A000D4D9DAB22146284600F0C4F8882221467E
:1007B000284600F0BFF8D2E700222146284600F084
:1007C00099F85346424621462846BDE8F04703F0D3
:1007D00015BE032200F07EF82146064A284600F0A6
:1007E000BDF85346424621462846BDE8F04703F08F
:1007F00005BE00BF209C00080A2A2DE9F04791465B
:100800009A4606460D4652D0152A48D14C68002219
:1008100000F088F801222946304600F06BF8A768FE
:10082000A47807F5007818E02946304600F082F8F1
:1008300080222946304600F07DF8012229463046C4
:1008400000F070F810223B4629461744304600F06D
:1008500079F80134B845E4B21CD00022294630466C
:1008600000F060F83E222946304600F063F8A4F11B
:1008700020021F2C62F07F0344F08002D4D9DAB248
:100880002946304600F056F888222946304600F0C6
:1008900051F8D2E700222946304600F02BF85346A3
:1008A0004A4629463046BDE8F04703F0B1BC032272
:1008B00000F010F82946064A304600F04FF853463B
:1008C0004A4629463046BDE8F04703F0A1BC00BFC8
:1008D000209C000810B48C680023A446012110BCA1
:1008E000604700BF10B48C680023A4461A4619461E
:1008F00010BC604710B48C680023A446032110BCD0
:10090000604700BF10B48C680023A4461A46042137
:1009100010BC604710B48C680023A4460122042157
:1009200010BC604710B48C680023A446022110BCA0
:10093000604700BF10B48C680023A446052110BC9A
:10094000604700BF10B48C680621A44610BC604705
:1009500010B48C680721A44610BC60472DE9F04113
:1009600080460E46551E002315F8014F5BB9FF2C3B
:100970001CD022460521B4684046A0470028F2D189
:100980000020BDE8F081FF2C12D0FE2C43D0EF2CCC
:10099000E9D8DF2C15D8CF2C1CD8BF2C23D82306A0
:1009A000E1D4204603F09AF90023DDE70123DBE7D9
:1009B00022460023B46805214046A0470028D2D132
:1009C000DEE704F00F020023B46802214046A0478E
:1009D0000023C9E704F00F020023B4680321404656
:1009E000A0470023C0E72401002302341A46042153
:1009F000B76804F0FE044046B847204603F06EF99D
:100A0000002301220421B7684046B847204603F07E
:100A100065F90023A8E70120BDE8F08110B5044680
:100A200000F07AF9207650B1204600F075F92046A2
:100A300000F0AAFA2046002100F010FB207E10BD35
:100A400010B5044600F068F9207610BD38B50446AC
:100A500000F062F90546207670B1637E7BB12046D6
:100A600000F05AF9204600F08FFA204600F09CFA78
:100A7000237E2846637638BD6076284638BD2046FA
:100A8000FFF7CCFFEBE700BF10B5044600F08EF98E
:100A90002076607680B1204600F03EF9204600F0D6
:100AA0003BF9204600F070FA0021204600F0D6FA0B
:100AB0002046FFF7CBFF207E0023A383236284F828
:100AC000243010BD38B500238383036280F82430BE
:100AD000044600F021F9207618B1657E45B9284614
:100AE00038BD637E0546002BF9D06076284638BDB8
:100AF000204600F011F9204600F046FA204604F1A5
:100B00001C0100F023FB284638BD00BF90F82400EC
:100B1000704700BF10B590F8244034B9084B204608
:100B20001A889B780A808B7010BD02460846136AAB
:100B30000449B2F91C20FFF72FFD204610BD00BF6D
:100B4000409C0008389C000838B590F8243083B1E8
:100B50000446006A07F0C8FA074907F0D1FB0546CA
:100B6000B4F91C0007F0C4FA0146284607F00CFA55
:100B700038BD002038BD00BF000020410020704774
:100B8000704700BF4171704740797047817170476D
:100B900080797047C1717047C079704701727047A2
:100BA000007A704741727047407A7047012981721C
:100BB0000BD0022900D0704741F6B05142F63022E6
:100BC0000A23C18102824382704742F2FC11F5E799
:100BD00081817047704700BF807A70478089704775
:100BE000C0897047008A7047408A7047002070476C
:100BF00000230B60C1F80330C3794B71704700BF0D
:100C000000230B60437910B40B70047A427A837925
:100C10004C708A70CB7010BC704700BF03682DE920
:100C2000F041224F9E6B0546BE420C46904638D19D
:100C3000867A1B6C1E498B4230D1A88944B1B8F129
:100C40000A0F05D9013EF6B20023012E237001D907
:100C5000BDE8F081174E05232025013BDBB2042BB4
:100C600000D0C8B1A6FB0012D20802EB8201A0EBB3
:100C700041003030E05490B2002BEED10E4B217980
:100C800018681D79E2782E23C4F80600A5726171F8
:100C90002271E370BDE8F081E554EDE728469847FE
:100CA000CCE7B0472B680646C3E700BFD90B000866
:100CB000DD0B0008CDCCCCCCC09C000810B4064C99
:100CC00000220F210460017142718271C2710272AF
:100CD000427210BC704700BF4C9C000870B40D4EAF
:100CE00005232025013BDBB2042B00D06AB1A6FB13
:100CF0000240C00800EB8004A2EB44023032CA5428
:100D000082B2002BEED170BC7047CD54002BE9D1DC
:100D1000F9E700BFCDCCCCCC70B50546102300F16F
:100D20000C06C3733146406801F08EF82989686863
:100D3000012201F005F97D2405E0013C4FF001009E
:100D400031D002F079FF2989686801F0EBF80028BA
:100D5000F3D029890022686801F0F2F84FF4F070AE
:100D600002F06AFF01222989686801F0E9F846204B
:100D700002F062FF0423EB733146686801F064F807
:100D80002989686801F0C4F8044610233146EB73E2
:100D9000686801F059F84FF4CD7002F04DFFB4FAD5
:100DA00084F0400970BD204670BD00BF38B50446D0
:100DB0004260038101600846012101F0A7FA2289FF
:100DC00010230325E373A28104F10C016068A5736D
:100DD00001F03AF821896068012201F0B1F8A572AA
:100DE0002046FFF799FF2046FFF796FF2046BDE813
:100DF0003840FFF791BF00BF38B50446102300F11B
:100E00000C05C3732946406801F01EF800222189B1
:100E1000606801F095F8032002F00EFF0423E373ED
:100E20002946606801F010F80F2002F005FF2189C3
:100E3000606801F06DF804462D2002F0FDFE201CD4
:100E400018BF012038BD00BF70B506460824002534
:100E50003046FFF7D1FF6D08631E10B165F07F05C6
:100E6000EDB213F0FF04F3D1284670BD38B50D463E
:100E700010230446C37300F10C01406800F0E4FF46
:100E80008DB92A462189606801F05AF8412002F0A4
:100E9000D3FE60682189012201F052F8BDE8384094
:100EA000052002F0C9BE21890022606801F048F8DF
:100EB000052002F0C1FE60682189012201F040F89E
:100EC000BDE838403C2002F0B7BE00BF70B5064612
:100ED0000D46002445FA04F101F0010101343046C9
:100EE000FFF7C4FF082CF5D170BD00BF704700BFED
:100EF0002DE9F04106460024332545FA04F101F0BE
:100F0000010101343046FFF7B1FF082CF5D106F19D
:100F10000F0706F11708082400253046FFF76CFF7D
:100F20006D08631E10B165F07F05EDB213F0FF048C
:100F3000F3D107F8015F4745EDD1BDE8F08100BF6F
:100F40002DE9F04105460024552646FA04F101F04A
:100F5000010101342846FFF789FF082CF5D105F17E
:100F60000F0705F1170817F8016F002446FA04F17E
:100F700001F0010101342846FFF778FF082CF5D174
:100F8000B845F0D1BDE8F08170B506460024CC2507
:100F900045FA04F101F0010101343046FFF766FF24
:100FA000082CF5D170BD00BF70B50646002444255D
:100FB00045FA04F101F0010101343046FFF756FF14
:100FC000082CF5D170BD00BF70B506460024482539
:100FD00045FA04F101F0010101343046FFF746FF04
:100FE000082CF5D1BDE870400A2002F025BE00BFF4
:100FF0002DE9F8430546884617461E4600244FF063
:101000004E0949FA04F101F0010101342846FFF7C5
:101010002DFF082CF5D1002448FA04F101F001015C
:1010200001342846FFF722FF082CF5D1002447FAA7
:1010300004F101F0010101342846FFF717FF082CE5
:10104000F5D1002446FA04F101F0010101342846EB
:10105000FFF70CFF082CF5D1BDE8F88338B50C4636
:1010600005464B0143F01F03DBB246224B21FFF73D
:10107000BFFFAC7238BD00BF2DE9F84305460E46F0
:101080000024BE2747FA04F101F00101013428468B
:10109000FFF7ECFE082CF5D100272846FFF7ACFE41
:1010A0007F08013C10B167F07F07FFB214F0FF0426
:1010B000F3D14FF008082846FFF79EFE640808F1B8
:1010C000FF3310B164F07F04E4B213F0FF08F2D1F3
:1010D00040F6310347EA04249C4218D8C4F30610B2
:1010E00006F05CFC804604F00F00894606F056FCD2
:1010F0000022154B06F0B8FC02460B464046494616
:1011000006F000FB06F0EAFE3060BDE8F8836442BA
:10111000A4B2C4F3061006F041FC804604F00F00B0
:10112000894606F03BFC0022074B06F09DFC024678
:101130000B464046494606F0E5FA06F0CFFE00F1C0
:1011400000403060BDE8F8830000B03F2DE9F04179
:1011500005460E460024BE2747FA04F101F00101BE
:1011600001342846FFF782FE082CF5D100272846D7
:10117000FFF742FE7F08013C10B167F07F07FFB226
:1011800014F0FF04F3D14FF008082846FFF734FEAF
:10119000640808F1FF3310B164F07F04E4B213F087
:1011A000FF08F2D1AB7A47EA0420BBB1012B2BD068
:1011B000022B2BD040F631039842154D13D94442EF
:1011C000A4B2C4F3061006F0E9FB01F1004319468E
:1011D00006F05CFE308004F00F0009E00D4D40F693
:1011E00031039842EBD8C0F30613338000F00F00B0
:1011F00006F07EFF294606F0CFFF07F0B9F901237C
:1012000070603372BDE8F081034DE8E7034DE6E717
:1012100000401C440000203F0000C84000007A420B
:1012200070B505460024B82646FA04F101F0010124
:1012300001342846FFF71AFE082CF5D16868012210
:10124000298900F07DFE052002F0F6FC2846FFF714
:10125000D3FD0028FAD170BD70B505460024B42630
:1012600046FA04F101F0010101342846FFF7FEFDC2
:10127000082CF5D12846FFF7BFFD003018BF01202C
:1012800070BD00BF2DE9F041064688460024BE250A
:1012900045FA04F101F0010101343046FFF7E6FDA3
:1012A000082CF5D108F1FF3708F1070808240025BC
:1012B0003046FFF7A1FD6D08631E10B165F07F0594
:1012C000EDB213F0FF04F3D107F8015F4745EDD10C
:1012D000BDE8F081704700BF41630320084700BFAD
:1012E000704700BF0A4602484FF4804100F028BE14
:1012F000000C014070B5064600F1ED0400F1F10567
:1013000014F8013FEBB9237BABB9A542F8D11049E2
:10131000304604F0E3FC06F18A050C2422460C3426
:101320002B4600213046E4B204F02EFA482C05F199
:101330001405F3D170BD227D217C304601F00AFFF7
:10134000E3E7227A2179304601F004FFDBE700BFB2
:1013500084AF000880F83C10704700BF70B50646A7
:10136000104615460C4608F0E5FA062801D8022C6E
:1013700000D970BDC4EBC40430192A46BDE87040E2
:101380003D300721FFF7F2B880F85210704700BFD8
:1013900038B5054608460C4608F0CCFA092800D9AD
:1013A00038BD224605F153000A21BDE83840FFF759
:1013B000DDB800BF0023C0F85330C0F85730A0F8A4
:1013C0005B30704780F85D10704700BF80F85E109A
:1013D000704700BF38B5054608460C4608F0AAFA23
:1013E000132800D938BD224605F15F001421BDE85D
:1013F0003840FFF7BBB800BF0023C0F85F30C0F82B
:101400006330C0F86730C0F86B30C0F86F30704799
:1014100080F87F10704700BF38B5054608460C4677
:1014200008F088FA092800D938BD224605F1800065
:101430000A21BDE83840FFF799B800BF80F8731063
:10144000704700BF80F87410704700BF0B4B00B5A9
:10145000A3FB01E364225B0902FB1311084A89B272
:10146000A2FB011283B0D20800920921054A75300F
:10147000FFF77CF803B05DF804FB00BF1F85EB515C
:10148000CDCCCCCCC89C000880F87E10704700BF43
:1014900070B50646104615460C4608F04BFA132860
:1014A00001D8042C00D970BD04EB840406EB840041
:1014B0002A46BDE870408A301421FFF757B800BFB4
:1014C00010B403299DF8044006D8014481F8EE4089
:1014D00081F8F22081F8F63010BC704710B403296F
:1014E0009DF8044006D8014481F8FA4081F8FE20B6
:1014F00081F8023110BC704770B5064600F18A04CD
:1015000000F21A25204608F015FA0021024620466E
:10151000143408F06FF8AC42F4D1002386F8EE30B2
:1015200086F8FA3086F8EF3086F8FB3086F8F0302F
:1015300086F8FC3086F8F13086F8FD3070BD00BFCB
:10154000F0B504461E4D83B01E4A1F4900F0D2FA82
:10155000022610234FF48047284601A98DF8073052
:10156000ADF804708DF8066000F06EFC3946284630
:10157000002200F0E5FC01A92846ADF8046000F067
:1015800063FC31462846012200F0DAFC0023C4F84F
:1015900053302046C4F85730A4F85B3084F85D30EF
:1015A00084F85E30C4F85F30C4F86330C4F8673044
:1015B000C4F86B30C4F86F30FFF79EFF03B0F0BD86
:1015C000000C0140953D00088404002070B50646DB
:1015D00082B00C231722012101F0BCFD3046082304
:1015E0000F22002101F0CCFD304608230F220D21EF
:1015F00001F0C6FD02240025012D14BF1123102384
:1016000004F1FF310093234604F1020414BF1022B9
:101610001122C9B23046E4B202F008FC0E2C85F06B
:101620000105E9D102B070BD30B5044683B0062390
:101630000B22012101F08EFD204608230322002108
:1016400001F09EFD0725204608230322072101F013
:1016500097FD20462A460A23042101F07BFD2046FF
:1016600000950D2305220B2102F0E0FB09230093D6
:101670002A4620460B230D2102F0D8FB03B030BDD3
:1016800010B5044602230F22722101F063FD2046AB
:1016900002230F22752101F05DFD204602230F2257
:1016A000782101F057FD204602230F227B2101F013
:1016B00051FD022320460F227E2101F04BFD94F8BC
:1016C0007E300D2B00D810BD03230C227221204642
:1016D00001F056FD03230C227321204601F050FD3A
:1016E00094F87E30172BEED9062309227521204667
:1016F00001F046FD062309227621204601F040FD37
:1017000094F87E30212BDED9092306227821204649
:1017100001F036FD092306227921204601F030FD33
:1017200094F87E302B2BCED90C2303227B2120462C
:1017300001F026FD0C2303227C21204601F020FD30
:1017400094F87E30352BBED920460F2300227E210F
:1017500001F016FD2046BDE810400F2300227F2136
:1017600001F00EBD70B50446FFF75EFF2046FFF79F
:101770002DFF2046454904F0B1FA454B24220021B3
:10178000204604F001F82046424904F0A7FA04F18B
:101790003D060C252A460C35334614212046EDB271
:1017A00003F0F2FF302D06F10706F3D194F85D1037
:1017B000002941D194F85E30002B44D194F85310A5
:1017C000002946D194F85230002B59D104F15F031F
:1017D0003E220021204603F0D7FF3423002240217F
:1017E000204601F0CDFC402333220021204601F0A9
:1017F000B1FC94F8733063B194F874308BBB04F18E
:1018000075031A224921204603F0BEFF2046FFF748
:1018100037FF94F87F3003B970BD1F4B262251214A
:10182000204603F0B1FF04F180032046BDE870407C
:101830003222422103F0A8BF2A46184B002120463D
:1018400003F0A2FFC2E72A46154B204603F09CFF97
:10185000BCE719462A4604F15303204603F094FFDF
:10186000B4E72046094904F039FA0E4B08226C21EE
:10187000204603F089FF0749204604F02FFABEE70F
:101880002A46094B204603F07FFF9FE7D0C6000899
:10189000D49C000884AF0008FC9C0008D89C000879
:1018A000E49C0008F89C0008F09C000810B5044671
:1018B00000F04AF905E0FFF755FF204600F048F92F
:1018C00058B194F83C302046002BF4D0FFF712FDBD
:1018D000204600F03DF90028F3D110BD10B40C688B
:1018E000A44610BC604700BF70B504460D46436B6C
:1018F0000220984729460A222E6820460023B04736
:101900000546636B03209847636B00209847284681
:1019100070BD00BF70B504460D46436B022098476A
:10192000636B012098472E68294620460023142225
:10193000B04704F138032E68294620461722B047E5
:10194000636B0020BDE87040184700BFF8B504463F
:101950000D46436B02209847636B012098472E6821
:101960002946204600231522B047064630B12F688D
:10197000294604F1380317222046B847636B00203C
:1019800098473046F8BD00BF10B582B002AB03F8EF
:10199000012D0C680F22A04702B010BD10B480F8D2
:1019A0002D2080F82E300C6800F12D03A446322241
:1019B00010BC604770B49DF80C609DF8105080F822
:1019C0002D2080F82E3080F8306080F82F500C6881
:1019D00000F12D03A44670BC3B22604770B49DF813
:1019E0000C609DF8105080F82D2080F82E3080F883
:1019F000306080F82F500C6800F12D03A44670BCB5
:101A00002D22604710B582B00C680DF10703462205
:101A1000A0479DF8070002B010BD00BF10B582B00E
:101A20000C680DF107034722A0479DF8070002B09C
:101A300010BD00BF10B40C680023A446482210BC9F
:101A4000604700BF30B50446416883B00D680DF1B2
:101A500007034622A8479DF80730616823700D6888
:101A60000DF1070320464722A8479DF8073061681B
:101A700063700D68204600234822A8476168E0741F
:101A80000D6804F1380320461722A84703B030BD83
:101A900010B541680446FFF727FF18B12046FFF74D
:101AA000D1FF012010BD00BFF8B504460F46002548
:101AB0000126222383748560C560457485610674A0
:101AC00080F8316004F006F8094B402284F8286061
:101AD00084F8295084F82A5084F82C5084F82B205C
:101AE000676063632046BDE8F840FFF7D1BF00BFE1
:101AF000D51200082DE9F04104460F469046002516
:101B00000126222383748560C5604574856106744F
:101B100080F8316003F0DEFF0A4B402284F8286031
:101B200084F8295084F82A5084F82C5084F82B200B
:101B3000676063632046C7F80880BDE8F041FFF79F
:101B4000A7BF00BFD51200084168FFF7E3BE00BF82
:101B5000836910B5044603B1984761682046BDE823
:101B60001040FFF7F3BE00BF10B582B0426802AB71
:101B700003F8011D146811460F22A04702B010BDE2
:101B8000416810B40C680023A446102210BC6047C2
:101B9000416810B40C680023A446112210BC6047B1
:101BA000034630B4446880F82D1080F82E20256854
:101BB0002146AC4630BC2D333222604770B49DF8CC
:101BC0000C60456880F82D1080F82E2080F83030A9
:101BD00080F82F602C682946A44670BC00F12D03C4
:101BE0003B22604770B49DF80C60456880F82D106A
:101BF00080F82E2080F8303080F82F602C6829463D
:101C0000A44670BC00F12D032D226047F0B4456856
:101C10000027802680F82D1080F82E2080F83130A3
:101C200080F8307080F82F602C682946A446F0BCFC
:101C300000F12D033B22604730B583B09DF818506A
:101C400044688DF804108DF805208DF806308DF865
:101C500007502568214601AB3C22A84703B030BDA0
:101C600080F83110704700BF0B0A80F8311080F8FF
:101C700032307047920810B401F0F801540144EA80
:101C8000D30341EAD20180F8313080F8321010BC21
:101C9000704700BF10B4C47C282C09D0302C13D05E
:101CA00080F8311080F8322080F8333010BC704753
:101CB000D20802F01C0221F01F010A4342EA9313EA
:101CC00080F8313010BC70479208540121F00701B0
:101CD00044EAD30341EAD20280F8313080F832205E
:101CE00010BC704790F83100704700BFC37C282BB0
:101CF00004D0022B0CBF032001207047FF20704747
:101D0000C37C302B0CD0282B06D0022B0CBF032316
:101D1000012380F831307047FF2380F8313070475D
:101D2000FF2380F8313080F8323070470020704750
:101D3000002380F831307047C37C282B0CBF6D2006
:101D400001207047C37C282B0CBF6D23012380F832
:101D50003130704708B52F4B98421ED02E4B984219
:101D600025D02E4B98422CD02D4B984233D02D4B62
:101D700098423AD02C4B984241D02C4B984200D0FC
:101D800008BD01214FF4807000F0DCFABDE8084086
:101D900000214FF4807000F0D5BA0121042000F03A
:101DA000D1FABDE808400021042000F0CBBA01219F
:101DB000082000F0C7FABDE808400021082000F024
:101DC000C1BA0121102000F0BDFABDE80840002191
:101DD000102000F0B7BA0121202000F0B3FABDE8CE
:101DE00008400021202000F0ADBA0121402000F081
:101DF000A9FABDE808400021402000F0A3BA012163
:101E0000802000F09FFABDE808400021802000F00B
:101E100099BA00BF00080140000C014000100140C9
:101E20000014014000180140001C01400020014046
:101E300008B50121084600F085FABDE808400021F8
:101E4000012000F07FBA00BF2DE9F041CC78E30615
:101E500048BF8B78098804F00F0748BF1F4311F073
:101E6000FF0F21D0066800234FF0010E4FF00F083E
:101E700002E00133082B16D00EFA03F232EA010514
:101E8000F7D19D0008FA05FC26EA0C0607FA05F5CD
:101E9000282C46EA050631D0482C03F1010308BF7F
:101EA0000261082BE8D10660FF2923D94668002388
:101EB0004FF0010E4FF00F0802E00133082B18D04D
:101EC00003F108020EFA02F232EA0105F5D19D0093
:101ED00008FA05FC26EA0C0607FA05F5282C46EA5E
:101EE000050609D0482C03F1010308BF0261082B45
:101EF000E6D14660BDE8F0814261DEE74261B8E7C5
:101F00004FF6FF710222042301808270C370704774
:101F10008368194214BF012000207047806880B296
:101F2000704700BFC368194214BF012000207047EA
:101F3000C06880B2704700BF01617047416170475F
:101F40000AB9416170470161704700BFC1607047C5
:101F500041F4803383618161836183698369704760
:101F60004FF68073044A10B414682340194341EAC1
:101F70000010106010BC704700000140014B186059
:101F8000704700BF1C0020420028194B00F440128B
:101F9000B4BFDB695B68B2F5401F30B484B21ED0B9
:101FA000C20213D5C0F303450322AA4023EA020369
:101FB00043F0706319B1420D1201944023430C4A5F
:101FC0000028B4BFD361536030BC7047420D12018A
:101FD00004FA02F223EA020343F07063EAE7044DD5
:101FE00023F070636A6822F070626A60E2E700BF03
:101FF0000000014001F0FC0303F1804303F580334E
:1020000001F0030110B489009C680F228A4024EA81
:1020100002029A609A6888401043986010BC70472A
:10202000014B1860704700BFDC002042037800229B
:10203000013BC37082700271704700BF10B400246E
:1020400004710170427010BCFFF7F0BF30B48378A8
:10205000047841782344DBB28B42837010D2C2787B
:102060000579A318DBB2994298BF01F1FF3305F15E
:10207000010298BFDBB20271C37030BC012070470F
:10208000002030BC704700BF0D4B0E4A19684FF45A
:102090001F0041F00101196059680A405A601A682E
:1020A00022F0847222F480321A601A6822F48022AC
:1020B0001A605A6822F4FE025A609860704700BFA6
:1020C000001002400000FFF80C4BB0F5803F1A688A
:1020D00022F480321A601A6822F480221A6008D032
:1020E000B0F5802F04D11A6842F4A0221A6070471C
:1020F00070471A6842F480321A607047001002403C
:1021000082B000230A4A019302E0B3F5A06F08D021
:10211000136813F4003F019B03F101030193019B3A
:10212000F3D0034B1868C0F3404002B0704700BFC3
:1021300000100240034A136823F0F80343EAC0008A
:102140001060704700100240014B1860704700BFDC
:1021500000004242034A536823F47C1319430843A6
:102160005060704700100240014B1860704700BF7C
:1021700060004242034A536823F00303184350604F
:10218000704700BF00100240024B586800F00C007E
:10219000704700BF00100240034A536823F0F00369
:1021A00018435060704700BF00100240034A536854
:1021B00023F4E06318435060704700BF00100240F2
:1021C000034A536823F4605343EAC00050607047E9
:1021D0000010024029B9054A137823EA0000107064
:1021E0007047024B1A78104318707047091002406C
:1021F000014B1860704700BFD8004242034A536841
:1022000023F4404318435060704700BF0010024061
:10221000064B002201281A701A7005D0042802D13A
:1022200005221A70704770471870704720100240DE
:10223000014B1860704700BF80044242024A136A93
:1022400018431062704700BF00100240014B186035
:10225000704700BF3C044242214A10B4536803F067
:102260000C03042B06D0082B25D01BB11D4A1346A6
:10227000026001E01B4B0360194A1B495468C4F318
:1022800003140C5DE34043605468C4F302240C5D06
:1022900023FA04F484605468C4F3C2240C5DE34060
:1022A000C360526810BCC2F381320A44127CB3FB93
:1022B000F2F30361704753685168C3F38343C90362
:1022C00003F1020307D55268920304D4054A02FBC6
:1022D00003F30360D0E7054A02FB03F30360CBE797
:1022E0000010024000127A00CC04002000093D00DA
:1022F00029B9054A536923EA000050617047024B2F
:102300005A691043586170470010024029B9054AC4
:10231000936923EA000090617047024B9A69104369
:10232000986170470010024029B9054AD36923EA31
:102330000000D0617047024BDA691043D8617047E2
:102340000010024029B9054AD36823EA0000D06092
:102350007047024BDA681043D860704700100240A3
:1023600029B9054A136923EA000010617047024B3E
:102370001A6910431861704700100240014B186041
:10238000704700BF40044242014B1860704700BFD5
:102390004C004242014B1870704700BF07100240CA
:1023A0004309012B0BD0022B094B00F01F000CBF7F
:1023B0001B6A5B6A23FA00F000F001007047044BCF
:1023C00000F01F001B6823FA00F000F001007047C6
:1023D00000100240024A536A43F080735362704710
:1023E00000100240034B9B68184214BF01200020DC
:1023F000704700BF00100240014B1870704700BFCB
:102400000A10024070B580218AB000264224402282
:10241000082303940291019200934FF400122B4B76
:102420002B490496054600F01DFA04463146FF226A
:1024300028468DF81C4000F03FFAFF228DF81D0061
:102440000121284600F038FA31468DF81E00FF229F
:10245000284600F03FFAFF228DF81F000121284690
:1024600000F038FA01218DF82000284600F068FAC3
:1024700031468DF82100FF22284600F053FAFF2252
:102480008DF822000121284600F04CFA31468DF8E3
:1024900023000DF11B02284600F0C6FA0DF11B02C5
:1024A0008DF824000121284600F0BEFA01232B7785
:1024B0008DF8250007AB0DF1250204B92C77934266
:1024C00002D013F8014FF8E70AB070BD000C0140CC
:1024D0000054004010B50446FFF794FF4FF6FF711B
:1024E0000022012384F86220A4F8601084F863308D
:1024F00010BD00BF007F7047C36D052B10DC024686
:1025000003EB43039B00203330B4C41800250120A3
:10251000D1506560A060D36D30BC0344D365704773
:102520000020704710B5037F82B004463BB9FFF727
:1025300069FF237F1BB94FF6FF7002B010BD0DF18C
:1025400006020121204600F06FFA10B9002323771C
:10255000F1E70DF107020021204600F065FA00289E
:10256000F4D09DF807009DF8063043EA0020E4E728
:1025700080F86310704700BF2DE9F84390F863605E
:1025800016B93046BDE8F88304464FF6FF75FFF7ED
:10259000C9FFA842804629D001463748FEF76CF8AB
:1025A00094F862300133DBB2032B84F862303DD102
:1025B000E36D002B2DDD254600270EE05B10C15892
:1025C0006A6A184451F8029001224146C847E36DF7
:1025D0000137BB4205F10C051BDDAB6A286AD90740
:1025E000ECD4D5F8249000EB6300EDE7B4F860106C
:1025F0000027814284F862701FD14FF6FF76C6EB48
:102600000806B6FA86F67609A4F860803046BDE87A
:10261000F8834FF6FF752046FFF784FFA842FAD1F2
:10262000002384F862304FF6FF78EDE7B4F86030AD
:10263000AB4218BF0026E7D1DFE7E36D002BEFDDEB
:1026400025460FE05B10C25818446B6A52F80380AD
:102650000022C047E36D0137BB4205F10C05DFDD09
:10266000B4F86010AB6A286ADA07EBD4D5F8248096
:1026700000EB6300ECE700BF049D000870B5044662
:102680004BF6FF7686B001210069FFF73FFEE28A34
:10269000A38AE06813431C25032201A9ADF8043086
:1026A0008DF806208DF80750FFF7CEFBA0680121BA
:1026B000FFF73AFE01210846FFF728FE606804F0A4
:1026C0009FF8114B06A941F8103D606800230125D1
:1026D0004FF48042ADF80E60ADF80C30ADF812301A
:1026E000ADF81050ADF8142004F0A8F82946606841
:1026F00004F026F94FF40031606804F055FA002820
:10270000F8D106B070BD00BF801A0600F8B50646C5
:102710000D4601F075FA074604E001F071FAC01B9E
:10272000C82808D82946706804F028FA044600280A
:10273000F3D00120F8BD2046F8BD00BF70B50446B7
:102740000D46164601F090FA6068012104F022F966
:1027500020462049FFF7DAFF10B90025284670BD52
:10276000217E6068002204F075F91B492046FFF7BE
:10277000CDFF0028F1D02946606804F065F91749BB
:102780002046FFF7C3FF0028E7D00121606804F06E
:1027900001F910492046FFF7B9FF0028DDD0217E5E
:1027A0006068012204F056F90D492046FFF7AEFF9C
:1027B0000028D2D00B492046FFF7A8FF0546002885
:1027C000CBD0606804F042F930706068012104F0F9
:1027D000EFF8C3E701000300820007008400070050
:1027E000020003004000030070B504460D46164683
:1027F00001F03AFA6068012104F0CCF8204616494D
:10280000FFF784FF10B90025284670BD217E60685F
:10281000002204F01FF911492046FFF777FF002836
:10282000F1D02946606804F00FF90D492046FFF702
:102830006DFF0028E7D03146606804F005F90849CB
:102840002046FFF763FF05460028DCD060680121C1
:1028500004F0AEF8D8E700BF0100030082000700D3
:1028600084000700F8B5069DBDF81C70BDF8206017
:1028700041608260BDF824109DF82820C3600023C9
:102880000446037005618782C682018332B92046FF
:10289000BDE8F8400A212822FFF7A6BFFFF7EEFEA9
:1028A0002278044B204613F832102822BDE8F84065
:1028B000FFF79ABF189D000810B40478044B01EB91
:1028C000440103EB8103197C10BCFFF78DBF00BFEF
:1028D000189D000810B40478044B01EB440103EB8D
:1028E000810393F8201010BCFFF77EBF189D0008ED
:1028F00038B5044649B10A4B0178A82213F83110C3
:10290000FFF772FF0123237038BD0D46044B017899
:10291000282213F83110FFF767FF257038BD00BF7C
:10292000189D000810B40478044B01EB440103EB3C
:10293000810393F8301010BCFFF756BF189D0008B4
:1029400070B503780F4D82B00E460DF1070215F8F1
:1029500033100446FFF7F2FE60B19DF807205EB920
:1029600002F0BF028DF807202378204615F83310B7
:10297000FFF73AFF02B070BD42F040028DF8072029
:10298000F2E700BF189D000870B50378104D82B0C3
:102990000E460DF1070215F833100446FFF7CEFE80
:1029A00068B176B19DF8073043F002031A468DF8FE
:1029B00007302378204615F83310FFF715FF02B0D3
:1029C00070BD9DF8072002F0FD028DF80720F0E7AA
:1029D000189D000810B40478044B01EB440103EB8C
:1029E000810393F8401010BCFFF7FEBE189D00084D
:1029F00010B40478044B01EB440103EB810393F81A
:102A0000501010BCFFF7F0BE189D000810B40478F9
:102A1000044B01EB440103EB810393F8601010BCFD
:102A2000FFF7E2BE189D000810B40478044B01EBD8
:102A3000440103EB810393F8701010BCFFF77EBED6
:102A4000189D0008002103E00A4B5B5843500431F5
:102A500009480A4B42189A42F6D3094A02E0002379
:102A600042F8043B074B9A42F9D304F0CFF801F047
:102A70003BFD704700D7000800000020240900201B
:102A8000240900200C1100200000000000000000BC
:102A9000034B1A68D2B2FEE7AFF30080AFF30080B9
:102AA00004ED00E010B50446FEF708F9024A0F23D2
:102AB00023752260204610BDD09D000870B588B0F7
:102AC000064601F0D1F801F09BF8012104462E489A
:102AD00003F07CFF01212C4803F05CFF04E001F0CF
:102AE0008FF8001B642832D82849274804F046F89C
:102AF0000028F4D001222021234803F0ABFF04E09A
:102B000001F07EF8001B642821D821491E4804F0FA
:102B100035F80028F4D0142504E001F071F8001B0A
:102B2000642814D81B49184804F028F80028F4D069
:102B3000154803F08BFF08AA2A446B1C132D02F8DA
:102B4000200CDDB206D0202D08BF0025EAE70020CA
:102B500008B070BD00210C4803F038FF01210A487D
:102B600003F026FF1436002308AA02EB430111F8F4
:102B7000200C11F81F2C013342EA0022102B26F8FA
:102B8000022FF1D10120E3E70054004001000300CF
:102B9000020003004000030010B50446FFF78EFF5B
:102BA000A08D638AE289C0F3090000FB032080B294
:102BB000A08110BDF8B504460F4616461D46FFF726
:102BC0007DFF608D10F00F0009D0E38D069A3B80E9
:102BD000238E01203380638E2B80A38E1380F8BD5B
:102BE00038B5054601F040F801211E4803F0EEFE1D
:102BF00001211C4803F0CEFE1B491A4803F0BEFF1A
:102C00000028F9D000222021164803F023FF17499D
:102C1000144803F0B3FF0028F9D005F11804243557
:102C200034F8021F0F48090A03F00EFF10490D483F
:102C300003F0A4FF0028F9D021780A4803F004FF2C
:102C40000B49084803F09AFF0028F9D0AC42E7D1BD
:102C50000021044803F0BAFEBDE8384001210148D4
:102C600003F0A6BE005400400100030082000700EC
:102C700084000700F0B5044687B008200F46012104
:102C8000FFF744FB4FF420750223102201A94D48A1
:102C90008DF80630ADF804508DF80720FFF7D4F812
:102CA00000224FF400714748FFF74AF900228021C3
:102CB0004448FFF745F900F0D7FF01224FF40071B7
:102CC0004048FFF73DF900F0CFFF01210820FFF752
:102CD0001DFBC0251C22032301A93A488DF80720BB
:102CE0008DF80630ADF80450FFF7AEF801214FF42F
:102CF0000010FFF719FB01210846FFF707FB3248D8
:102D000003F07EFD4BF6FF70304B012206AD45F817
:102D1000103D11460023ADF80E004FF480462A48BE
:102D2000ADF81020ADF80C30ADF81230ADF81460ED
:102D300003F006FE2946244803F080FD4FF40031DD
:102D4000214803F031FF0028F8D12046FFF7B6FEF6
:102D500008B907B0F0BD4FF40143A3842046FFF744
:102D60003FFF4FF4FA7000F097FF2046FFF7A6FEF2
:102D70004FF480436383E7B9E18B238C628C23F0AB
:102D80008F0343F4805322F0FF0241F4006143F0CB
:102D9000110342F033020125E1832384628420463B
:102DA0006571FFF71DFF6E2000F076FF284607B023
:102DB000F0BD44F20103E18B638341F4805189B299
:102DC000DBE700BF000C014000540040801A060001
:102DD00038B50D460446FFF771FE65B9E28B638B8B
:102DE00022F4805243F04103E28363832046BDE82E
:102DF0003840FFF7F5BE638BE28B23F0400343F0CE
:102E0000010342F480526383E2832046BDE83840E8
:102E1000FFF7E6BE10B504462046FFF74FFE638D70
:102E20005A04F9D52046FFF749FE628BA38B22F4A2
:102E30008072C3F30E036283A3832046FFF7D0FEA4
:102E40002046FFF73BFE638D5B04F9D410BD00BF45
:102E5000C28938B5914238BF1146048A05468C4272
:102E600028BF0C46FFF72AFEE9896B8A641A94FB97
:102E7000F3F4AA8B284622F4FF7323F001032343C3
:102E80006FEA43436FEA5343AB83FFF7A9FE322057
:102E900000F002FF2846BDE83840FFF7BBBF00BF87
:102EA00038B504460D46FFF709FE638B23F4C06373
:102EB0009BB20DB143F4007343F4807320466383E7
:102EC000FFF78EFE2046BDE83840FFF7A3BF00BFE6
:102ED00069B9036810B504461B6C9847618A23687A
:102EE000014489B22046BDE81040DB6B1847012140
:102EF000FFF7D6BF69B9036810B504461B6C984745
:102F0000618A2368411A89B22046BDE81040DB6B14
:102F100018470021FFF7C4BF38B504460F2928BF62
:102F20000F210D46FFF7CAFD238C204623F00F0327
:102F30002B432384FFF754FE29462046BDE8384042
:102F4000FDF720BE38B504460D46FDF723FE2046AA
:102F5000FFF7B4FD638B3DB923F400536383204630
:102F6000BDE83840FFF73CBE43F40053638320467E
:102F7000BDE83840FFF734BE38B504460D46FDF7CE
:102F80000DFE638B3DB943F4804363832046BDE867
:102F90003840FFF725BE23F4804363832046BDE815
:102FA0003840FFF71DBE00BF38B504460D46FDF79B
:102FB000F9FD638B4DB96FEA43436FEA53432046F3
:102FC0006383BDE83840FFF70BBEC3F30E03638392
:102FD0002046BDE83840FFF703BE00BF012900D0FE
:102FE000704710B50446FDF7E1FD42F22E220A2398
:102FF000E281638210BD00BF38B505460C46FDF77F
:10300000F7FD2846FFF75AFD6B8D01226370190703
:103010006B8D48BFA27113F00B0F22701CBF0122F1
:10302000E27013F00E0F1CBF012323716B8B9B0406
:1030300044BF0123637138BD38B505460C46FDF722
:10304000DFFD2846FFF73AFD6B8B5A045CBF012277
:1030500062701B045CBF0123A37095F8203000222E
:1030600003F00F032370E27038BD00BF2DE9F04775
:10307000072B82B0994606468A4617461CD91D463C
:103080000C464FF0FF08083D2146CDF80080002394
:103090003A463046EDB2FEF791FD0834072DE4B212
:1030A000F1D8A9F1080303F0F8030AF1080A9A44D9
:1030B0000AF0FF0A09F007037BB183F0070301332D
:1030C000FF2203F0070302FA03F3DBB200933A4650
:1030D000514630460023FEF771FD02B0BDE8F0878F
:1030E0002DE9F047072B82B0994606460F469246D7
:1030F0001CD91D4614464FF0FF08083D2246CDF866
:103100000080012339463046EDB2FEF757FD083402
:10311000072DE4B2F1D8A9F1080303F0F8030AF18E
:10312000080A9A440AF0FF0A09F007037BB183F00A
:1031300007030133FF2203F0070302FA03F3DBB2B4
:1031400000935246394630460123FEF737FD02B060
:10315000BDE8F087F0B5012483B000940D46044625
:1031600016461F4602F05EFE08B903B0F0BD3B46AE
:1031700032462946204603B0BDE8F040FFF776BF4F
:10318000F0B51C4683B00123009405460E46174651
:1031900002F048FE08B903B0F0BD23463A46314676
:1031A000284603B0BDE8F040FFF79ABF2DE9F04193
:1031B00082B09DF82040054600940E46174698467A
:1031C00002F030FE10B902B0BDE8F08143463A4645
:1031D00031462846FFF74AFF23463A4631462846FD
:1031E000FFF77EFF08F1FF31314423463A46284677
:1031F000C9B2FFF775FF434631462846621E3A447E
:10320000D2B202B0BDE8F041FFF730BF2DE9F04186
:1032100080460F4615461E469DF8184033462A46FE
:1032200039464046FFF722FF631E013513F0FF04C5
:10323000EDB2F3D1BDE8F0812DE9F04182B09DF807
:103240002040054600940E461746984602F0EAFDD7
:1032500010B902B0BDE8F08143463A4631462846EF
:10326000089402B0BDE8F041FFF7D0BF2DE9F04F60
:1032700087B09DF8405006460095894692460393D4
:103280009DF8444002F0CEFD10B907B0BDE8F08FC4
:103290002B1BDBB21A460AEB0403D9B2E7430846FC
:1032A000059202F1FF38039A09EB040B5FFA8BFBDE
:1032B00017440223594604900246009330462346A1
:1032C0004F4403F009FEFFB201233946049A0093EC
:1032D00030462346D04403F0FFFD5FFA88F804230C
:1032E0004246594600933046234603F0F5FD082335
:1032F00042463946009330462346C4F1FE0703F0A8
:10330000EBFDFFB2039B3C1B0498059A0BF10108EF
:103310001C445FFA88F8E4B22346414600F1010BF1
:10332000174430465246FFF7A1FE6A1E52445FFA28
:103330008BFBFFB2234641463046D2B2FFF796FEE2
:103340003B465A4649463046FFF7CAFE039B5A465B
:10335000591E30463B464944C9B207B0BDE8F04F5C
:10336000FFF7BEBE2DE9F04F85B09DF838500646F8
:1033700000958846924699469DF83C4002F052FDE1
:1033800010B905B0BDE8F08F6FEA040B2D1BEBB24E
:1033900008EB04050AEB04020393EDB25F1ECB4475
:1033A0000223D2B22946009330462346C3440292F8
:1033B0005FFA8BFB03F0EAFD01235946029A009362
:1033C00030462346574403F0E1FDFFB204233A465A
:1033D000294600933046234603F0D8FD082359467A
:1033E0003A4600933046234603F0D0FDC4F1FE0375
:1033F000DBB2C4EB030B0399CB4401350134EDB2CE
:103400005FFA8BFBE4B25246304601EB030A0094AC
:103410005B462946FFF7FAFE5B463A4629463046A8
:103420000094FFF7F3FE4B4641463046029A5FFA9E
:103430008AFA0132D2B2CDF838A005B0BDE8F04F1B
:10344000FFF7E4BE70B5044688B0284D2848FDF764
:1034500037F901210420FEF759FF4FF4807603234A
:103460002846102207A98DF81E308DF81F20ADF8D0
:103470001C60FEF7E9FC314628460022FEF760FD9D
:10348000C82000F0CBFB314628460122FEF758FD4C
:10349000012000F0C3FB0125402380210822039373
:1034A00001930291134B0092204604954FF40012B1
:1034B0001149FFF7D7F9002211462046FFF7FCF922
:1034C000294620460022FFF7F7F900221146204640
:1034D000FFF79CFA294600222046FFF797FA0023BF
:1034E000A3830648FDF7ECF808B070BD0008014062
:1034F000489E0008000C014000540040689E0008EF
:1035000038B50D460446818B42B1124B2A4612480B
:10351000FDF7B2F8A38B1D4208D038BD0F4B2A46E9
:103520000D48FDF7A9F8A38B1D4211D00C48FDF7FB
:10353000C7F8A28B00216A40A2832046120AFFF737
:1035400065FA227F2046BDE838400121FFF75EBAC8
:1035500038BD00BFEC9E0008B09E0008A89E000881
:10356000889E000810B50446828B002122F4F05298
:1035700092B28283120AFFF749FA227F2046BDE801
:1035800010400121FFF742BA10B50446828B00219A
:1035900022F0FA0292B28283120AFFF737FA227FF0
:1035A0002046BDE810400121FFF730BA01207047E6
:1035B000704700BFA0F10400FAE700BF0148FDF723
:1035C0005BB800BFFCCD0008A0F10400F6E700BF27
:1035D00038B5044607480D46FDF74EF8B4F8FC3000
:1035E000402B00D038BD29466069BDE83840FDF762
:1035F000F1BE00BF0CCE0008A0F10400E8E700BF58
:10360000B0F8FC3010B5202B04461ED00DD8C3B145
:10361000102B02D18023A0F8FC3000F0F1FA012336
:10362000C4F8000184F8FE3010BD402B05D0802B7B
:10363000F3D14023A0F8FC30EFE72023A0F8FC30C2
:10364000EBE71023A0F8FC30E7E70023A0F8FC30FC
:10365000E3E700BF38B5194D194B2A6803F118018B
:103660000360D307044641601FD51649164A174B1D
:103670001748E16022616361A06004F11800FFF760
:1036800011FA04F1500002F001FF42F21070022220
:1036900003234FF47A7184F80B2184F80C31C4F8B9
:1036A000F800C4F80411204638BD284604F012F88A
:1036B0000028DAD0284604F019F8D6E7700E00206A
:1036C000A8CD0008500E0020300E0020280D00204C
:1036D000740E002090F8083103B191E7704700BFE5
:1036E00038B590F8F43004460D46B3B9002D14BF38
:1036F0004FF480414FF4005101222069FFF700FF91
:103700002A460421E06802F0F3FB00F079FA012375
:10371000C4F8F00084F8F43038BD00224FF40051B2
:103720000069FFF7EDFE206900224FF48041FFF7AA
:10373000E7FE4FF4FA7000F0AFFAD7E7F8B50446A9
:10374000002500F1180601272946304684F8EC5080
:1037500084F8F450A4F8FC5084F8FE5084F80A5120
:1037600084F80871FFF786FA394684F80901304673
:10377000FFF734FC04F1E006211D04F1500002F0D3
:10378000B5FE30464FF400530821064A02F0E2FB32
:10379000304602F05FFE29463046BDE8F84002F0B0
:1037A00011BC00BF000C0140B0F8FC30402B06D02B
:1037B000802B00D07047E03091B902F03FBC90F808
:1037C0000931002BF6D00B4610B5114604461830CF
:1037D00043B1FFF77DFB6069BDE81040FDF70CBE0B
:1037E00002F03CBCFFF786FBF5E700BF70B50D4665
:1037F00004460069FFF7C8FE402D50D094F80A3106
:103800006BB194F80931002B6BD100216069FDF791
:1038100015FE6069FDF7F0FD002384F80A31802D64
:1038200025D104F1E00630460121A4F8FC5002F055
:10383000C9FB304694F80C1102F040FC3549606930
:10384000FDF7EAFD294620690122FFF759FE2069AC
:1038500001220421FFF754FEE0682021012202F03A
:1038600047FB60690121BDE87040FDF7D1BD002133
:1038700004F1E00002F0A6FBA4F8FC50BDBB2A4610
:1038800020690421FFF73CFE29466069FDF7C0FD71
:103890002A46E0682021BDE8704002F029BB0021E3
:1038A00004F1E00002F08EFB94F80931A4F8FC501A
:1038B0005BB919496069FDF78DFD18496069FDF72D
:1038C000ABFD012384F80A31BCE704F11806304649
:1038D0000121FFF77DFA304694F80B11FFF71CFB2E
:1038E000EBE7002104F11800FFF772FA8DE7102DC5
:1038F00006D0202DA6D10A496069FDF78DFDA1E70C
:10390000206901220821FFF7FBFD06496069FDF7E8
:1039100083FD97E748CE00082CCE00083CCE000877
:1039200024CE00081CCE000830B590F8F43087B0E3
:103930000446002B48D194F8FE30002B32D1B4F865
:10394000FC30402B01D007B030BD94F80931002B7A
:10395000F9D00DF10E0304F118050093284603ABCE
:103960000DF10A0202A9FFF725F9002845D12846E2
:10397000FFF712F901466069FDF768FD60690121F2
:10398000FDF75CFD284604A9FFF736FB9DF81610ED
:103990006069FDF757FD60699DF81110FDF774FD32
:1039A00007B030BD00F02CF9D4F80031D4F8042170
:1039B000C01A9042C3D3B4F8FC102046FFF716FF9C
:1039C000002384F8FE30BAE700F01AF9D4F8F0309A
:1039D000D4F8F820C01A9042ADD300224FF4005121
:1039E0002069FFF78DFD00224FF480412069FFF729
:1039F00087FD002384F8F4309DE7BDF80E00BDF884
:103A00000C300090BDF80A20BDF8081004F15000F9
:103A100002F07EFDABE700BF10B5044690F8EC1055
:103A200081F0010180F8EC10FFF75AFE94F8EC10D9
:103A3000204619B9BDE81040FFF7D8BE1021BDE8F7
:103A40001040FFF7D3BE00BF90F8083110B5044610
:103A500033B190F8EC201AB1FFF7DEFF94F808318B
:103A600083F0010384F8083110BD00BF90F80831DD
:103A700003B97047D0E700BF38B5B0F8FC30402B31
:103A800008D0802B00D038BDE030B9B9BDE838404F
:103A900002F004BB90F80931002BF4D000F11804B7
:103AA00020460D46FDF770F801465DB908B1411E8C
:103AB000C9B22046BDE83840FFF72EBABDE838400D
:103AC00002F0DCBA0131C9B2F3E700BF30B44FF6FF
:103AD000DF7441F47F4343F0DF03A34231D04FF65C
:103AE000EF7441F47F4343F0EF03A34238D04FF625
:103AF000F77441F47F4343F0F703A34234D04FF609
:103B0000FB7241F47F4343F0FB0393421FD04FF617
:103B1000FD7241F47F4343F0FD03934228D04FF6FA
:103B2000FE7241F47F4343F0FE03934224D04EF6ED
:103B3000FF7341F46F4141F0FF0199420DD030BC59
:103B4000704790F80831002BF9D030BC58E590F858
:103B50000831002BF3D030BC5EE730BCFFF774BFF8
:103B6000012130BCFFF720BE002130BCFFF71CBE96
:103B7000012130BCFFF780BF002130BCFFF77CBFC4
:103B8000124B134A1B68A2FB03239B09013BB3F1B1
:103B9000807FFCD270B40F4A0F4DF026002407201E
:103BA0000E49536085F8236094601060CB6813F071
:103BB000807309D1C8680A4A40F08070C8605360B9
:103BC000136843F00103136070BC704710050020B8
:103BD000D34D621010E000E000ED00E0F0ED00E0F9
:103BE000001000E0024A136801331360704700BF01
:103BF000D80E0020014B1860704700BFD80E00207F
:103C0000014B1868704700BFD80E0020024A1168A7
:103C100013689942FCD07047D80E002010F1FF3095
:103C2000044A06D3116813689942FCD010F1FF30A2
:103C3000F8D27047D80E0020084B10B41B68084C0F
:103C40000849A4FB03430A4649689B0C00FB031088
:103C500053681B1A002BFBDB10BC704710050020BB
:103C600083DE1B43001000E0084B094A1B6809482B
:103C7000A2FB0323014640684FF47A729B0C02FBBF
:103C800003024B689B1A002BFBDB704710050020DA
:103C900083DE1B43001000E00D4B10B41A680D4C7E
:103CA0004FF47A73A4FB022410F1FF304FEA9444DE
:103CB00003FB04F4084908D34A6822444B689B1A62
:103CC000002BFBDB10F1FF30F6D210BC704700BFB9
:103CD0001005002083DE1B43001000E0FFF7DCBF6F
:103CE0000120FFF7A9BF00BF0A20FFF7A5BF00BF53
:103CF00070B5012186B01E4D0820FEF707FB01219B
:103D00004FF48020FEF710FB1A4C284601A94FF40F
:103D1000806203231826ADF804208DF806308DF854
:103D20000760FEF791F801A9284604224FF40063CA
:103D30008DF80720ADF804304FF4E135FEF784F834
:103D400000230C22204602A9ADF81430ADF8103043
:103D5000ADF80E30ADF80C30ADF81220029501F040
:103D600043F82046012101F0C1F806B070BD00BF44
:103D7000000C014000480040014608B5044801F02D
:103D800029F98021024801F0A7F90028F9D008BDDF
:103D90000048004070B5013982B01C4606290BD896
:103DA000DFE801F0041F0A0A0D2525004FF4FA7020
:103DB000FFF772FFFFF79CFF012002B070BD1A4BA6
:103DC00001921878400000F0FE00FFF7D5FF019A3D
:103DD0001046FFF7D1FF6E20FFF72EFF012002B043
:103DE00070BD114BE2B91A70012002B070BD002AFB
:103DF000E2D0551EEDB201350B4E2544307840001F
:103E000000F0FE00FFF7B8FF14F8010BFFF7B4FF56
:103E10006E20FFF711FFA542F0D1012002B070BD66
:103E200001221A70E0E700BFDC0E00202DE9F04F00
:103E300083B09DF830B099428CBFCF1A5F1A5A45B3
:103E40000C461E4681469246FFB23DD9CBEB02039B
:103E5000DBB29F42019345D211462246B2465C46F0
:103E60000E4693464FF00108DA4534BF4FF0010B80
:103E70004FF0FF3B019B43F34705FF2E08BFFE2693
:103E8000B44210D8B8F1000F10D15246214648462E
:103E9000FDF786FEED1BEAB255B20134002DE4B207
:103EA0000ADBA642EED203B0BDE8F08F22465146AF
:103EB0004846FDF775FEEDE701990AEB0B0355182F
:103EC0005FFA83FA6DB2ECE7C2EB0B03DBB29F4201
:103ED000019325D3B14215D8019A4FF000080197FC
:103EE0001746C1E7B142F7D921463A463446DA4689
:103EF00047F347050E46019F4FF000084FF0010BB6
:103F00000192BAE721463A463446DA4647F3470576
:103F10000E46019F4FF000084FF0FF3B0192ACE7C7
:103F2000314622465E4654468B4692464FF0010883
:103F30009AE700BFF0B5074687B0294C012104205D
:103F4000FEF7E4F901214FF48040FEF7DFF9182570
:103F5000204669464FF4007203238DF80350ADF8F4
:103F600000208DF80230FDF76FFF042269464FF400
:103F7000806320468DF80320ADF80030194DFDF721
:103F800063FF4FF4E06002F0D9FB002401262523F3
:103F900001A88DF804308DF805408DF806408DF8A5
:103FA000076002F0D5FB0C23284602A9ADF81230B9
:103FB0000297ADF81440ADF81040ADF80E40ADF8E2
:103FC0000C4000F011FF3246284640F2255100F027
:103FD0009BFF3146284600F089FF07B0F0BD00BFC7
:103FE0000008014000380140F0B5074687B01D4E7B
:103FF00001210420FEF78AF9042501214FF4003045
:10400000FEF792F9184C182230460DEB05010323F8
:104010008DF807208DF80630ADF80450FDF714FF39
:104020000DEB050130460823ADF804308DF807503C
:10403000FDF70AFF00230C22204602A9ADF8143038
:10404000ADF81030ADF80E30ADF80C30ADF81220F0
:10405000029700F0C9FE2046012100F047FF07B09B
:10406000F0BD00BF000801400044004010B5012829
:1040700082B04FF004020CBF1824042403230DEB7C
:10408000020105488DF80740ADF804208DF8063090
:10409000FDF7DAFE02B010BD00080140044A0549F0
:1040A000136810B45C1C1460C85410BC704700BF87
:1040B000E40E0020140F0020014B00221A6070470C
:1040C000E40E002000487047140F0020014B1868D0
:1040D000C0B27047E40E002083684279002103EBF0
:1040E000820203F8011B9A42FBD170474271816042
:1040F00001EB8202002301F8013B8A42FBD17047A9
:10410000F0B485784479521B01F007078025CE086A
:10411000D2B2E40845FA07F1806802FB0462C9B232
:104120002BB9835C23EA01018154F0BC7047835CA6
:1041300019438154F0BC704710B484784A78944293
:1041400006D8C478944203D343790C78A34201D8AB
:1041500010BC70470B79214610BCFFF7D1BF00BFE0
:1041600070B50D4606468C7823061AD4EB78032BDF
:1041700006D8DFE803F0120A0E026B78013B6B7081
:10418000640014F0FF04EFD170BD6B7801336B70E5
:10419000F6E72B78013B2B70F2E72B7801332B707D
:1041A000EEE729463046FFF7C7FFDFE72DE9F0418C
:1041B000CB780D4606468C78032B26D8DFE803F033
:1041C0001F1B1702FF274FF0000809E02A786B78C1
:1041D000640042443B4414F0FF042A706B7012D018
:1041E0002306F3D529463046FFF7A6FFEEE7002762
:1041F0004FF0FF08F4E701274FF00008F0E7002731
:104200004FF00108ECE7BDE8F0810027B846E7E78A
:1042100010B5143A82B04C68332A23D8DFE802F094
:104220002A39224822222222222222222222222229
:1042300022222222222222222222222222224F2231
:10424000222222222222221A222222222222222256
:1042500022225625194620460193FBF7BBFF019BFE
:10426000002838D1012002B010BD627801201A70F8
:1042700002B010BDA3686279002103EB820203F84B
:10428000011B9A42FBD12046FDF7D0FE012002B06F
:1042900010BD2046FDF7DAFE0028E4D0A36862795D
:1042A000002103EB820203F8011B9A42FBD1D9E7FC
:1042B00020461946FBF784FF012002B010BD2046BE
:1042C0001946FFF739FF012002B010BD62790120C5
:1042D0001A7002B010BD20461946FFF767FF012093
:1042E000C1E700BF81604271FBF710BF30B4847832
:1042F0004579121BED0802FB05F2802401F0070549
:10430000D2B22C4102EBD1018068E2B22BB9435CFE
:1043100023EA0202425430BC7047435C1A434254C1
:1043200030BC704710B484784A78944206D8C47878
:10433000944203D343790C78A34201D810BC704750
:104340000B79214610BCFFF7D1BF00BF70B50D46F9
:1043500006468C7823061AD4EB78032B06D8DFE8C0
:1043600003F0120A0E026B78013B6B70640014F0CC
:10437000FF04EFD170BD6B7801336B70F6E72B78DB
:10438000013B2B70F2E72B7801332B70EEE72946C7
:104390003046FFF7C7FFDFE72DE9F041CB780D4648
:1043A00006468C78032B26D8DFE803F01F1B170284
:1043B000FF274FF0000809E02A786B786400424438
:1043C0003B4414F0FF042A706B7012D02306F3D51F
:1043D00029463046FFF7A6FFEEE700274FF0FF081B
:1043E000F4E701274FF00008F0E700274FF001083D
:1043F000ECE7BDE8F0810027B846E7E710B5143ACE
:1044000082B04C68332A22D8DFE802F02932213CFE
:10441000212121212121212121212121212121218C
:10442000212121212121212121214321212121215A
:104430002121211A212121212121212121214A2447
:10444000194620460193FBF7C5FE019B68BB01207E
:1044500002B010BD627801201A7002B010BD204673
:10446000FBF754FE2046FDF7E1FD012002B010BD30
:104470002046FDF7EBFD0028EAD02046FBF746FE7C
:104480000120E5E720461946FBF79AFE012002B01D
:1044900010BD20461946FFF745FF012002B010BDB0
:1044A000627901201A7002B010BD20461946FFF74C
:1044B00073FF0120CCE700BF08B540F22551084842
:1044C00000F014FE00B908BD054800F087FDC0B239
:1044D0007428F8D1BDE808400248FCF7F1B800BFE5
:1044E00000380140A8CE0008F0B54FF4E130E5B047
:1044F000FFF720FDFFF744FB3548FCF7E1F83548AE
:10450000FEF7A0FF344801F0B9FC3448FDF718F875
:1045100001213248FCF71EFF314A00212F48FCF7E9
:10452000B7FF304E2D48FDF7C1F901212B48FCF7AC
:10453000D9FE3368DA0741D52B48FDF7CBFF20A819
:10454000FFF788F820A8FFF7F9F820A92648FDF71B
:10455000D3FF01A800F052F801A800F015F901A955
:104560002148FDF7C9FF00211C48FCF7F3FE1F4856
:10457000FCF7A6F81E4F14E01B48FDF7FDFF01A84D
:1045800000F060FA20A8FFF7CFF914486568FDF73E
:104590008DF963681748591BA7FB0131090CFCF71B
:1045A0006BF83368144CDB07E6D40E4803F092F83E
:1045B0000028E1D00B4803F099F8DDE7304603F01E
:1045C00089F80028B8D0304603F090F8B4E700BF6F
:1045D00054CE0008300E0020500E0020280D002080
:1045E00078CE0008700E0020740E002084CE0008E3
:1045F000D55204E998CE0008001000E038B50E4D01
:104600000E4A2B680446DB0702600CD50C4D0D48A2
:104610000D490E4A4FF47A73A0606560E160226133
:10462000A366204638BD284603F054F80028EDD094
:10463000284603F05BF8E9E7700E0020BCCE0008C6
:10464000740E0020500E0020300E0020280D002097
:1046500010B50446F9B990F875300BB180F87510B3
:1046600094F87120A2B984F87620E0684FF4806154
:10467000FEF746FFE06894F875204FF40071FEF7EE
:104680003FFF94F875102069BDE81040FCF77CBE30
:1046900094F87620E9E7012280F8762080F87520EA
:1046A000E3E700BF70B590F870401CB990F8753022
:1046B00023BB70BDC66E044630460D4603F028FF8E
:1046C00088B194F87530F3B12946304603F002FF03
:1046D0000028EED01048FBF7F3FF2046BDE87040FD
:1046E0000021FFF7B5BF2946304603F0F3FE00284E
:1046F000DFD094F87530002BECD170BD2146BDE8B9
:104700007040FFF7A5BF0548FBF7DAFF2046BDE87C
:1047100070400121FFF79CBFF4CE0008DCCE0008FA
:1047200008B510210348FDF7F3FBB0FA80F040090B
:1047300008BD00BF00080140F0B5054683B008463B
:1047400016460C4603F0EEFE03F0D2FC014620466E
:1047500003F018FC0A4903F01FFD03F009FF0746A8
:10476000204603F0DFFE3B4602B206496846FBF7EF
:1047700013FF6A4631462869FCF7F0FD03B0F0BD2F
:1047800000002041389C000870B5044682B02948DA
:10479000FBF796FF284900230122E16684F8722086
:1047A00084F8713084F8703084F8733084F8743091
:1047B00084F8753084F8763084F8773084F878306F
:1047C0006068FDF797FE84F8790018B91B492069E5
:1047D000FCF700FE04250222E16E2046FFF7ACFF45
:1047E000022610230DEB05011548ADF804308DF8B5
:1047F00007508DF80660FDF727FB29460123104A74
:1048000004F11400FCF740F9334629460C4A04F140
:104810003C00FCF739F9FFF7F3F9012260664FF429
:104820008051A06801F064FB0648FBF749FF02B025
:1048300070BD00BF0CCF000800000C422CCF000858
:104840000008014040CF000838B5C56E044609494C
:10485000284603F053FE00B138BD28464FF07C5186
:1048600003F092FB0222E06601462046BDE8384094
:10487000FFF762BF0000344238B5C56E04460949EF
:10488000284603F031FE00B138BD28464FF07C5178
:1048900003F078FB0222E06601462046BDE838407E
:1048A000FFF74ABF0000204110B5102104460C4814
:1048B000FDF72EFB00B110BD94F87320E06882F084
:1048C000010284F873204FF40061FEF719FE94F89A
:1048D0007320A0684FF48071BDE8104001F008BB60
:1048E0000008014010B5102104460C48FDF710FBEC
:1048F00000B110BD94F87420E06882F0010284F8E1
:1049000074204FF48051FEF7FBFD94F87420A068EA
:104910004FF40071BDE8104001F0EABA0008014010
:1049200010B5102104460948FDF7F2FA00B110BD98
:1049300094F87020A06882F0010284F870204FF48F
:104940008061BDE8104001F0D3BA00BF000801400B
:1049500010B5102104460C48FDF7DAFA00B110BD7D
:1049600094F87120E06882F0010284F871204FF41D
:104970008061FEF7C5FD94F87120A0684FF40061D6
:10498000BDE8104001F0B4BA0008014010B504467B
:1049900090F877204FF4004182F00102C06884F85B
:1049A0007720FEF7ADFD94F87720A0684FF4005112
:1049B000BDE8104001F09CBA10B5044690F878208C
:1049C0004FF4807182F00102C06884F87820FEF70D
:1049D00097FD94F87820A0684FF48041BDE810401E
:1049E00001F086BA90F8703010B513B990F87130B4
:1049F000BBB10446002380F8703080F8713080F835
:104A0000733080F8743080F8753080F87630C06884
:104A1000FEF7A8FD94F875102069BDE81040FCF77A
:104A2000B3BC90F87330002BE3D190F87430002BB6
:104A3000DFD190F87530002BDBD190F87630002B69
:104A4000D7D110BD2DE9F0431021044683B0414871
:104A5000FDF75EFA0546FFF7D3F8636EA26EC01A43
:104A6000904225D2291C18BF01212069FCF7AAFC1D
:104A7000D5B96068FDF73EFD94F8793083420BD0DC
:104A80006068FDF737FD50B12069FCF7B5FC606840
:104A9000FDF730FD84F8790003B0BDE8F0832E49BE
:104AA0002069FCF797FCF2E72046FFF79BFFE0E761
:104AB00004F114062948FBF703FE3046FCF702F820
:104AC00004F13C0780463846FBF7FCFF6946814607
:104AD0003046FCF71FF840BBB8F1000F25D06946FF
:104AE0003846FCF717F8D0B9B9F1000F17D088F0A5
:104AF0000101C9B22069FCF769FCB8F1000F24D0AC
:104B00003046FCF721F88046ADB13046FBF79EFFFA
:104B10003846FBF79BFFFFF773F86066A2E76A462B
:104B200000212069FCF71AFCE1E76A4601212069AF
:104B3000FCF714FCD3E73046FBF7E8FF0028E4D08D
:104B400041462046FFF7AEFDDFE72046FFF74AFF6C
:104B5000D6E700BF000801402CCF000860CF000856
:104B600038B590F87250044685F0010580F872500F
:104B70005DB14FF480518068012201F0B9F92069DC
:104B80000121BDE83840FCF7ADBB80F8735080F8D8
:104B9000745080F8775080F878502A464FF40061BE
:104BA000C068FEF7ADFC94F87420E0684FF48051C3
:104BB000FEF7A6FC94F87720E0684FF40041FEF77A
:104BC0009FFC94F87820E0684FF48071FEF798FC21
:104BD00094F87320A0684FF4807101F089F994F87B
:104BE0007420A0684FF4007101F082F994F87720E6
:104BF000A0684FF4005101F07BF994F87820A06888
:104C00004FF4804101F074F9A0682A464FF48051B6
:104C100001F06EF929462069BDE83840FCF762BB17
:104C200038B54FF6FF6441F47E4343F0FF03A342DF
:104C300062D04FF6FF5441F47D4343F0FF03A3429B
:104C40005ED04FF6FF3441F47B4343F0FF03A342B1
:104C50005AD04FF2FF7441F4774343F0FF03A3426D
:104C600056D04DF6FF7441F45F4343F0FF03A34277
:104C700052D04BF6FF7441F43F4343F0FF03A3428D
:104C800052D04FF67F7241F47F4343F07F0393424B
:104C9000044610D04FF6BF7241F47F4343F0BF0388
:104CA00093421CD04EF6FF7341F46F4141F0FF0177
:104CB000994235D038BDC56E1D49284603F01EFC0B
:104CC0000028F7D128464FF07C5103F05DF9E066EB
:104CD000014602222046BDE83840FFF72DBDC56ED3
:104CE0001449284603F000FC0028E3D128464FF081
:104CF0007C5103F047F9EAE7BDE83840FFF7D4BD3F
:104D0000BDE83840FFF7EEBDBDE83840FFF708BE0C
:104D1000BDE83840FFF71CBEBDE83840FFF736BE9F
:104D2000BDE83840FFF71CBFBDE83840FFF744BE80
:104D3000000034420000204108B5264B984218D0AC
:104D4000254B984221D0254B98422AD0244B98429B
:104D500033D0244B984200D008BD01214FF480107D
:104D6000FDF7FEFABDE8084000214FF48010FDF782
:104D7000F7BA01214FF48040FDF7E4FABDE808409E
:104D800000214FF48040FDF7DDBA01214FF40030DF
:104D9000FDF7E6FABDE8084000214FF40030FDF7CA
:104DA000DFBA01214FF48020FDF7DAFABDE80840B0
:104DB00000214FF48020FDF7D3BA01214FF40020E9
:104DC000FDF7CEFABDE8084000214FF40020FDF7C2
:104DD000C7BA00BF0038014000440040004800400E
:104DE000004C00400050004030B504460D46038A98
:104DF000CA889BB223F440531343038282890B89F0
:104E0000888892B24989034322F4B0520B4322F0BE
:104E10000C0213439BB2A381A38AAA899BB223F4F9
:104E2000407387B01343A38201A8FDF715FA0499D4
:104E30001A48039BA289844208BF0B4612F4004F14
:104E40002A6803EB830314BF5200920003EB830331
:104E5000B3FBF2F3124DA189A5FB032064224009A4
:104E600000FB12330A044FEA00100AD41A0132324E
:104E7000A5FB0223C3F3431303439BB2238107B073
:104E800030BDD9003231A5FB0131C1F3421242EAF3
:104E900000039BB2238107B030BD00BF0038014042
:104EA0001F85EB5100234FF416510C220160428103
:104EB0008380C38003818381704700BF30B44B88F7
:104EC0000D888C88028A2B43C988234392B20B43F6
:104ED00022F4706213439BB2038230BC704700BF60
:104EE0000023038043808380C3807047838929B96E
:104EF00023F400531B041B0C838170479BB243F4C3
:104F000000538381704700BF10B401F01F04C1F348
:104F100042110123012903FA04F30FD002290CBF27
:104F2000103014302AB9026810BC22EA030303606F
:104F30007047026810BC1343036070470C30F1E700
:104F4000838A9BB21AB923EA01018182704719430F
:104F500081827047038A23F00F031B041B0C03821A
:104F6000038A9BB219430182704700BF838923F4EF
:104F700000631B041B0C838183899BB219438181CD
:104F8000704700BF838929B923F002031B041B0C5F
:104F9000838170479BB243F002038381704700BF57
:104FA000038A23F020031B041B0C0382038A9BB299
:104FB00019430182704700BF038A29B923F4804353
:104FC0001B041B0C038270479BB243F48043038293
:104FD000704700BFC1F30801818070478088C0F32B
:104FE0000800704783899BB243F0010383817047B7
:104FF000038BDBB20383038B9BB243EA0121018362
:10500000704700BF038B03F47F430383038B9BB282
:1050100019430183704700BF838A29B923F0200315
:105020001B041B0C838270479BB243F020038382D6
:10503000704700BF838A29B923F010031B041B0C9F
:10504000838270479BB243F010038382704700BF96
:10505000838A29B923F008031B041B0C8382704741
:105060009BB243F008038382704700BF838919B95C
:10507000C3F30E03838170476FEA43436FEA5343E0
:105080009BB28381704700BF838A29B923F40063F0
:105090001B041B0C838270479BB243F40063838222
:1050A000704700BF838A23F004031B041B0C838218
:1050B000838A9BB219438182704700BF838A29B9D2
:1050C00023F002031B041B0C838270479BB243F046
:1050D00002038382704700BF0388194214BF012076
:1050E00000207047C94389B201807047C1F3421262
:1050F00010B4012301F01F04012A03FA04F315D0B0
:10510000022A0CBF028A828A92B21340028892B2AB
:105110004BB10123090A03FA01F10A4214BF1846F0
:10512000002010BC7047184610BC7047828992B2AC
:105130001340EBE7090A012303FA01F1C94389B2DD
:105140000180704743185B78405C03EB002080B21D
:10515000704700BF0020704790F82A00704700BFDA
:1051600090F829000130C0B2704700BF90F82A20A3
:1051700090F829309B1A5BB203EBD37302EB630008
:10518000C0B2704700787047704700BF08B5FFF79E
:10519000FBFF18B1022801D0032008BD062008BD7E
:1051A00000787047407970470621CBE70821C9E7AE
:1051B000807A7047C07A704790F90C00704700BF42
:1051C00090F90D00704700BF90F90E00704700BFC6
:1051D00090F90F00704700BF90F91000704700BFB2
:1051E00070B5037806461846FFF7CEFF024618460C
:1051F000FFF7CCFF05463046FFF7DAFF034630469F
:10520000FFF7D8FF012A14BFFF240F2406F1110174
:1052100009E08A78834202EA04022A44114403F135
:10522000010309D0DBB20A78FF2AF2D1834201F1EF
:10523000010103F10103F5D1881B70BD8368587823
:10524000704700BF83689878704700BF836893F900
:1052500003007047836893F90400704783685879A6
:10526000704700BF2DE9F0478468814623780E46D9
:105270001846FFF789FF80461846FFF787FFB8F109
:10528000010F8246204614BFFF270F27FFF790FF2C
:1052900002462046FFF78EFF05462046FFF786FFB1
:1052A000602E30D940B304446122B54217D3AA42DC
:1052B0000CD914E0B2422DD0A378AA4203EA070326
:1052C00053441C4402F1010209D0D2B22378FF2BCF
:1052D000F0D1AA4204F1010402F10102F5D100204B
:1052E00089F81C0089F81F0089F8200089F81D0042
:1052F00089F81E00BDE8F0872046FFF755FF38B15A
:1053000004444122D1E72046FFF74EFF402EF6D855
:105310001134CAE7B8F1000F19D0B8F1020F16D056
:1053200003F00F02023A1B0989F81E2089F81D308C
:105330006378204603F00F021B0989F8202089F8C2
:105340001F30A3781B0989F81C30BDE8F08789F865
:105350001F306378204689F82030E37889F81C30C4
:10536000237989F81D30637989F81E30BDE8F0870C
:1053700070B5144605467F228023227063700E4666
:105380000978FFF76FFF6B7F5B42DAB2227195F904
:105390001D30A37095F91E30E37007E02B7F28467F
:1053A000134423713178FFF75DFF227995F91E30A0
:1053B00094F900109942C8BF237095F8200094F921
:1053C000011003445BB29942B8BF637016F8013F05
:1053D000002BE3D1EB7F1344DBB223716A7F1344CC
:1053E000237170BD08B5FFF73DFF003018BF0120E5
:1053F00008BD00BF10B50446FFF734FF08B194F9AB
:105400001C0010BD2DE9F04F884685B019461646A0
:105410000746FFF727FF044600284AD0BB681878E4
:10542000FFF7B4FE97F81EA097F82050CAEB0606C7
:1054300097F81DB05FFA86FAC344C5EB0A0697F8E1
:105440001F80F6B25FFA8BFB8146009532465946C3
:105450004346384600F0E6FC30B308F10708C8F3CD
:10546000C40319460293FDB1013BDBB20BEBC1084B
:105470000133A14403935FFA88F8029B83B15C4631
:105480004D4615F8012B2146083400920023324680
:105490003846E4B2FCF792FB4445F2D1039B9944B1
:1054A0000136F6B25645E8D197F91C0005B0BDE8C3
:1054B000F08F05B0BDE8F08F2DE9F041476A054651
:1054C0000E4614469846B8470219434631462846C8
:1054D000BDE8F041D2B2FFF795BF00BF2DE9F04F14
:1054E0000C4685B0194692460746FFF7BBFE0546B7
:1054F00000284DD0BB681878FFF748FEBB7F7A7F45
:1055000001331C44924497F82080FE7FE4B25FFA96
:105510008AFA81462146524600964346384600F0B4
:1055200081FC80B308F1FF3306F1070B1C44CBF379
:10553000C40319460293E6B2B8F1000F23D05A1EF5
:10554000D2B2C8EB06035FFA83FB0AEBC108531C17
:10555000A94403935FFA88F8029B83B154464D46F1
:1055600015F8012B012300922246083431463846B3
:10557000E4B2FCF723FB4445F2D1039B9944013E7E
:10558000F6B25E45E8D197F91C0005B0BDE8F08F92
:1055900005B0BDE8F08F00BF2DE9F041476A054630
:1055A0000C4616469846B847211A434632462846C6
:1055B000BDE8F041C9B2FFF791BF00BF2DE9F04F40
:1055C000884685B0194614460746FFF74BFE054648
:1055D000002853D0BB681878FFF7D8FD97F81DB0A6
:1055E000BB7FFE7FCBEB080801335FFA88FB1C44CE
:1055F000C6F1010197F820805944E4B28146C9B24E
:1056000022463346CDF80080384600F00BFC80B3CC
:1056100008F1FF3306F1070A1C44CAF3C403194614
:105620000293E6B2B8F1000F23D05A1ED2B2C8EBF3
:1056300006035FFA83FAABEBC108531CA94403933A
:105640005FFA88F8029B83B15C464D4615F8012B42
:105650002146083C0092022332463846E4B2FCF769
:10566000ADFA4445F2D1039B9944013EF6B256454A
:10567000E8D197F91C0005B0BDE8F08F05B0BDE892
:10568000F08F00BF2DE9F041476A05460E461446EB
:105690009846B847221A434631462846BDE8F041AD
:1056A000D2B2FFF78BBF00BF2DE9F04F0E4685B099
:1056B000194692460746FFF7D5FD044600284DD00F
:1056C000BB681878FFF762FD97F8205097F81DB077
:1056D000BB7F97F81F802B44CBEB0A0AF61A5FFAC0
:1056E0008AFBC8F10102F6B25A4481463146CDF830
:1056F0000080D2B22B46384600F094FB48B308F144
:105700000708C8F3C4031946029315B3013BDBB283
:105710003544ABEBC10801335FFA85FAA14403932A
:105720005FFA88F8029B83B15C464D4615F8012B61
:10573000032300922246083C31463846E4B2FCF787
:105740003DFA4445F2D1039B99440136F6B25645E1
:10575000E8D197F91C0005B0BDE8F08F05B0BDE8B1
:10576000F08F00BF2DE9F041476A05460C4616460A
:105770009846B8470119434632462846BDE8F041ED
:10578000C9B2FFF791BF00BF2DE9F0411E46436A41
:10579000174680460C4698473378384493B1C7B2D1
:1057A000002521463A464046FFF72CFE16F8013FF9
:1057B000C0B204440544E4B2EDB2002BF1D1284656
:1057C000BDE8F0811D46FAE72DE9F0411E46436A27
:1057D0000F468046144698473378381A93B1C7B2BB
:1057E0000025224639464046FFF778FE16F8013F6D
:1057F000C0B204440544E4B2EDB2002BF1D1284616
:10580000BDE8F0811D46FAE72DE9F0411E46436AE6
:10581000174680460C4698473378381A93B1C7B27A
:10582000002521463A464046FFF7C8FE16F8013FDC
:10583000C0B2241A0544E4B2EDB2002BF1D12846DF
:10584000BDE8F0811D46FAE72DE9F0411E46436AA6
:105850000F468046144698473378384493B1C7B210
:105860000025224639464046FFF71EFF16F8013F45
:10587000C0B2241A0544E4B2EDB2002BF1D128469F
:10588000BDE8F0811D46FAE710B5029C032B17D83E
:10589000DFE803F0110C07022346BDE81040FFF7D4
:1058A000D3BF2346BDE81040FFF7AEBF2346BDE897
:1058B0001040FFF789BF2346BDE81040FFF764BFE3
:1058C000002010BD2DE9F0411E46436A1746804670
:1058D0000C4698473378384493B1C7B20025214627
:1058E0003A464046FFF78EFD16F8013FC0B2044429
:1058F0000544E4B2EDB2002BF1D12846BDE8F081B9
:105900001D46FAE72DE9F8431F46436A89460646D5
:10591000144698473D78C0EB0900DDB15FFA80F985
:105920004FF00008736A30469847C0EB09012B46D8
:105930002246C9B23046FFF7D1FD17F8015FC0B269
:1059400004444044E4B25FFA80F8002DEAD14046B6
:10595000BDE8F883A846FAE72DE9F8431F46436AF5
:10596000914606460C4698473D78C0EB0900DDB1EC
:105970005FFA80F94FF00008736A30469847C0EB31
:1059800009022B462146D2B23046FFF717FE17F820
:10599000015FC0B2241A4044E4B25FFA80F8002DDF
:1059A000EAD14046BDE8F883A846FAE72DE9F84376
:1059B0001F46436A89460646144698473D78484440
:1059C000DDB15FFA80F94FF00008736A30469847FE
:1059D00009EB00012B462246C9B23046FFF764FEB0
:1059E00017F8015FC0B2241A4044E4B25FFA80F8AD
:1059F000002DEAD14046BDE8F883A846FAE700BF8B
:105A000070B51E460546FFF721FC091A2846C9B2A3
:105A1000FFF720FC024433462846BDE87040D2B26E
:105A2000FFF732BF10B50446FFF710FC091A2046F5
:105A3000C9B2FFF70FFC02449DF80830D2B22046ED
:105A4000FFF7E0FC002010BD8368CBB190F8282060
:105A5000BAB1012A1ED093F90D2080F8292093F9BC
:105A60000E3080F82A3090F82B10D31A40299BB2C0
:105A700004D0DBB201FB03F3C3F38F1380F82C30A7
:105A8000704793F9052080F8292093F90C3080F8AD
:105A90002A30E8E793F90F2080F8292093F9103095
:105AA00080F82A30DFE700BF002280F82820FFF7C7
:105AB000CBBF00BF012380F82830FFF7C5BF00BF70
:105AC000022380F82830FFF7BFBF00BF80F82B10FB
:105AD000FFF7BABF014B4362704700BF5551000842
