:020000040800F2
:1000000000500020E12C0008312D0008312D00089F
:10001000312D0008312D0008312D000800000000AE
:10002000000000000000000000000000312D00086A
:10003000312D000800000000312D00084D3D000862
:10004000312D0008312D0008312D0008312D000818
:10005000312D0008312D0008312D0008312D000808
:10006000312D0008312D0008312D0008312D0008F8
:10007000312D0008312D0008312D0008312D0008E8
:10008000312D0008312D0008312D0008312D0008D8
:10009000312D0008312D0008312D0008312D0008C8
:1000A000312D0008312D0008312D0008312D0008B8
:1000B000312D0008312D0008312D0008312D0008A8
:1000C000312D0008312D0008312D0008312D000898
:1000D000312D0008513D0008312D0008312D000858
:1000E000312D0008312D0008312D000800000000DE
:1000F0000000000000000000000000000000000000
:1001000000000000000000005FF808F183684279F9
:1001100000211A4403F8011B9342FBD1704700BF32
:1001200010B4C378914294BF002401248B4234BFA1
:1001300000210121807844EA010390428CBF002015
:1001400003F00100214008435DF8044B704700BFF5
:1001500043798B4204D2934234BF00200120704780
:100160000120704770B4CA784D78C4782A44013AA7
:1001700002F0FF02954294BF00230123AC4234BF3A
:1001800000240124867844EA030596428CBF0022AD
:1001900005F0010222B9234002D170BC1846704715
:1001A00040790B788A78834209D970BC1A44013AA5
:1001B00002F0FF0282428CBF002001207047012024
:1001C00070BC704700230B7083784B704379013B00
:1001D0008B70C378CB70704710B4CB784978012B03
:1001E0001FD0032B13D00C460023C27880788A429C
:1001F00034BF0022012242EA0301A0428CBF00204A
:1002000001F00100134018435DF8044B7047A1F161
:100210000802D2B291420C462CBF002301231146A2
:10022000E3E701F10804E4B2A14294BF00230123F3
:10023000DBE700BF10B404460846A36811466279A4
:100240005DF8044B00F08CBB01207047014B187027
:10025000704700BF00000020014608B5044804F0C4
:10026000BDFB0348802104F03BFC0028F9D008BD09
:100270000038014001700120704700BF0B7810B4B6
:100280005BB1024602F8013B11F8013F141A002B42
:10029000F8D120465DF8044B70471C46F9E700BFD3
:1002A000092B70B51E4602F1FF35044613D8002D08
:1002B0001BDD0B46411904F8013B8C42FBD1104673
:1002C0000B4BA3FB0623DB0803EB8303A6EB4303E3
:1002D00030330B7070BD064B2A46A3FB0653DB0878
:1002E000FFF7DEFF21180130EAE701460120E7E7CA
:1002F000CDCCCCCCF8B5002B05460F4627DB092B1F
:100300001E4602F1FF3219DC002A3CDD11462C4664
:10031000013904F8017BFBD1012AB8BF0122002B6F
:1003200015442BDB501C194BA3FB0623DB0803EB06
:100330008303A6EB430330332B70F8BD134BA3FBB1
:100340000643DB08FFF7D6FF05440130EBE75E42CA
:10035000092E02F1FF3408DD0C4B2246A3FB0643B5
:10036000DB085B42FFF7C6FFEEE7023A002AD8BF80
:100370000220CBDC2D2305F8013BD4E72D23901C74
:1003800005F8013BCFE70120CDE700BFCDCCCCCCB9
:100390002DE9F04182B0089E551E5FEA161E044604
:1003A00098461ED1002D24DD0F46431904F8017B29
:1003B0009C42FBD1104606F00F06092E0CD9B8F16D
:1003C000000F04D157361E7002B0BDE8F0813736F9
:1003D0001E7002B0BDE8F08130361E7002B0BDE87C
:1003E000F081CDF800E02A46FFF7D2FF2318013054
:1003F000E1E703460120DEE72DE9F0410F4682B038
:100400009E46064608B100230370002513785BB1B1
:10041000BD4280F09F80252B0ED0337001321378BF
:1004200001350136002BF3D1AF4240F293802846CC
:10043000337002B0BDE8F0815178252935D03029DC
:1004400038D00B46541CA3F13002092A4FF020018A
:1004500036D8002202EB820203EB420214F8013F7D
:10046000303AA3F13000092802F0FF02F2D9104619
:100470002844874238BF7A1BA3F1580338BFD2B251
:10048000202B6ED8DFE803F05A6D6D6D6D6D6D6DCC
:100490006D6D6D52486D6D6D6D486D6D6D6D6D6DF1
:1004A0006D6D6D386D2E6D6D1F003170023201352E
:1004B0000136ABE79378941CA3F13002092AC8D91E
:1004C00000200246D4E7DEF80030304600930023D7
:1004D0000EF10408FFF75CFFC6460346621C1E448B
:1004E000054493E7DEF8003030460EF10408FFF7CC
:1004F000D7FEC6460346F1E7DEF800100EF1040E03
:100500000B789BB3324602F8013B11F8013F901B78
:10051000002BF8D10346E1E7DEF8003030460EF15B
:100520000408FFF7E7FEC6460346D7E7DEF80020DB
:10053000012318460EF1040E3270CFE7DEF80030CA
:100540003046009301230EF10408FFF721FFC64651
:100550000346C3E70023681E06F8013C02B0BDE86D
:10056000F0814FF0FF3002B0BDE8F0811846B5E7EA
:100570000CB410B582B004AC54F8042B234601949B
:10058000FFF73AFF02B0BDE8104002B0704700BF6D
:1005900010B40C461346642122465DF8044BFFF765
:1005A0002BBF00BF0EB410B583B005AC54F8042BBC
:1005B000642123460194FFF71FFF03B0BDE81040FC
:1005C00003B07047084B10B55B6804469A688A42CE
:1005D00002D0DB688B4204D1E0B2FFF73DFE20463B
:1005E00010BD4FF0FF3010BD00000020F8B50746E9
:1005F0000078A8B10D460B4E002473689A689542A6
:1006000005D0DB689D4202D04FF0FF30F8BDFFF708
:1006100023FE17F8010F01340028EED12046F8BD63
:100620000446FBE700000020F0B5A3B06C468E4600
:1006300017460E4D06460FCD0FC40FCD0FC42D68C3
:1006400072463B4609A864212560FFF7D5FE632862
:1006500006DD074B68465B68D968FFF7C7FFFEE712
:1006600009A83146FFF7C2FF23B0F0BD708700082C
:1006700000000020034B0A465B6801469868FFF7BC
:10068000D3BF00BF000000200FB400B5074A83B0FD
:1006900004AB53F8041B50681A4680680193FFF7B7
:1006A000C3FF03B05DF804EB04B070470000002006
:1006B0000EB400B582B003AB53F8041B1A46019385
:1006C000FFF7B2FF02B05DF804EB03B0704700BF64
:1006D000024B5B689968FFF789BF00BF00000020EC
:1006E000044A05491368002B08BF0B4618441060E4
:1006F000184670471C0900205C1100204FF0FF30A5
:10070000704700BF4FF0FF30704700BF4FF40053F9
:100710004B600020704700BF0120704700207047E9
:100720001046704710467047FEE700BF0A2A2DE9C1
:10073000F04790469A4605460C4652D0152A48D1B5
:100740004E68002200F0FCF828462146012200F005
:10075000DBF8B768B67807F1800918E0214628462B
:1007600000F0F6F828462146802200F0F1F82846ED
:100770002146012200F0E4F83B462846214610229B
:10078000103700F0EDF801364F45F6B21CD0284680
:100790002146002200F0D4F83E222846214600F0EF
:1007A000D7F8A6F120021F2E62F07F0346F08002E8
:1007B000D4D9DAB22146284600F0CAF828462146A4
:1007C000882200F0C5F8D2E728462146002200F032
:1007D0009BF82846214642465346BDE8F04703F0C1
:1007E00057BA032200F07EF821462846054A00F059
:1007F000C7F82846214642465346BDE8F04703F075
:1008000047BA00BF948700080A2A2DE9F0479146AD
:100810009A4606460D4652D0152A48D14C68002209
:1008200000F08EF830462946012200F06DF8A768E6
:10083000A47807F5007818E02946304600F088F8DB
:1008400030462946802200F083F8304629460122AE
:1008500000F076F83B46304629461022103700F06B
:100860007FF801344745E4B21CD0304629460022C7
:1008700000F066F83E223046294600F069F8A4F1FF
:1008800020021F2C62F07F0344F08002D4D9DAB238
:100890002946304600F05CF830462946882200F0B0
:1008A00057F8D2E730462946002200F02DF83046AE
:1008B00029464A465346BDE8F04703F0F1B8032203
:1008C00000F010F829463046054A00F059F8304645
:1008D00029464A465346BDE8F04703F0E1B800BF59
:1008E0009487000810B48C680023A44601215DF8A9
:1008F000044B604710B48C680021A4460A460B469E
:100900005DF8044B604700BF10B48C680023A44618
:1009100003215DF8044B604710B48C680022A446A4
:10092000134604215DF8044B604700BF10B48C6887
:100930000122A446042100235DF8044B604700BF58
:1009400010B48C680023A44602215DF8044B604774
:1009500010B48C680023A44605215DF8044B604761
:1009600010B48C680621A4465DF8044B604700BFB4
:1009700010B48C680721A4465DF8044B604700BFA3
:100980002DE9F04106460D4602F1FF38002318F824
:10099000014F5BB9FF2C1CD022463046AC680521C4
:1009A000A0470028F2D10020BDE8F081FF2C12D032
:1009B000FE2C45D0EF2CE9D8DF2C15D8CF2C1CD835
:1009C000BF2C23D82306E1D4204602F0A9FD002342
:1009D000DDE70123DBE722463046AC680521002332
:1009E000A0470028D2D1DEE704F00F020023AC6854
:1009F00030460221A0470023C9E704F00F0200237C
:100A0000AC6830460321A0470023C0E704F00F0480
:100A100024010022023413460421AF6804F0FE04CE
:100A20003046B847204602F07BFD00230421012216
:100A3000AF683046B847204602F072FD0023A6E7B3
:100A40000120BDE8F08100BF30B589B002F0E2FCC2
:100A50002448012105F0CCF82248012105F0ACF82A
:100A60002048214905F0AAF90028F9D01D48202185
:100A7000012205F001F91B481C4905F09FF90028E7
:100A8000F9D01424202C08BF002425461548184905
:100A900005F094F90028F9D0124805F0E9F808AB00
:100AA0002B44132C03F8200C02D00134E4B2E9E704
:100AB0000C48002105F09CF80A48012105F08AF84D
:100AC0000C48002308AA02EB430111F8204C11F84E
:100AD0001F2C013342EA0422102B20F8022FF1D1FF
:100AE00009B030BD005400400100030002000300C3
:100AF00040000300DA0D002038B502F08BFC1F48DF
:100B0000012105F075F81D48012105F055F81B4835
:100B10001B4905F053F90028F9D01848202100227C
:100B200005F0AAF81548174905F048F90028F9D04A
:100B3000154C04F10C0534F8021F1048090A05F0A1
:100B400095F80E48114905F039F90028F9D00B48FD
:100B5000217805F08BF809480C4905F02FF9002899
:100B6000F9D0AC42E7D10548002105F041F8BDE8D5
:100B700038400248012105F02DB800BF0054004064
:100B80000100030082000700DE0D00208400070042
:100B900070B54BF6FF7686B00820012101F080FD8C
:100BA0004FF420740223102201A947488DF8063023
:100BB000ADF804408DF8072001F00AFB42484FF4DD
:100BC0000071002201F082FB3F488021002201F0E9
:100BD0007DFB02F01FFC01223B484FF4007101F045
:100BE00075FB02F017FC0820012101F059FDC0241B
:100BF0001C22032301A934488DF807208DF8063004
:100C0000ADF8044001F0E4FA4FF40010012101F0C6
:100C100053FD0120014601F043FD2C4804F000FF84
:100C20002B4B012206AC44F8103D11460023274807
:100C30004FF48045ADF80E60ADF81020ADF80C30E3
:100C4000ADF81230ADF8145004F08CFF21461F4867
:100C500004F004FF1D484FF4003105F0C5F80446C8
:100C60000028F7D11B4DFFF7EFFE4FF40143EB8156
:100C7000FFF742FF4FF4FA7002F0D8FBFFF7E4FEF3
:100C800044F201016B892A8923F08F0342F4C05298
:100C900043F01103A9802A816B81FFF72DFF0E4DD0
:100CA0000E4B0F480F4922462C7003F10A0403F83B
:100CB000012BA34200F8012B01F8012BF7D16E2084
:100CC00002F0B4FB06B070BD000C014000540040BF
:100CD000801A0600DC0D0020C80D0020080E002040
:100CE000FC0D0020CC0D002070B5064642F22E25EA
:100CF000FFF7AAFE41F6B0501A4C06EB8606628951
:100D0000194B02F0C002002A0CBF29460146C1EB74
:100D1000460083FB0023E288C01722F4FF72C0EB79
:100D2000A30322F0010213436FEA43436FEA5343E4
:100D3000E380FFF7E1FE322002F078FBFFF784FE4C
:100D4000A38A084D5A04F9D5FFF77EFEEB88C3F35A
:100D50000E03EB80FFF7D0FEFFF776FEA38A5B045D
:100D6000FAD470BDDC0D00206766666608B5FFF733
:100D70006BFE40F26B30064B5A89DB8A02F0C002F0
:100D8000002A18BF4FF43E70C3F30903184408BD8E
:100D9000DC0D002008B5FFF757FE024B988AC0F320
:100DA000002008BDDC0D002008B5FFF74DFE024B0A
:100DB000988A00F07F0008BDDC0D002070B50C465D
:100DC0000546FFF741FE002C34D01E4CA38843F4A7
:100DD00080639BB2A38055B323F400739BB243F4AA
:100DE0008073A380FFF788FE01E002F01FFBFFF78E
:100DF0002BFEA38A134D13F4804F4FF03200F4D032
:100E0000FFF722FEAB88AE8A23F4807306F4005607
:100E1000AB80B6B2FFF770FE02F0FCFAFFF714FEEB
:100E2000A38A5B04FAD4301C18BF012070BD43F4C0
:100E30000073D4E7034CA38823F480639BB2A380A0
:100E4000C9E700BFDC0D002010B50446FFF7FCFD2C
:100E5000002C0CDB0F2C0CDD0F20074ABDE81040E6
:100E6000538923F00F0318435081FFF745BE00203C
:100E7000F3E7A0B2F1E700BFDC0D002030B4094B6E
:100E8000094D002409480A4922462C7003F10A043E
:100E900003F8012BA34200F8012B01F8012BF7D135
:100EA00030BC7047080E0020C80D0020FC0D00204B
:100EB000CC0D002003788BB10A78934204D00AE06D
:100EC00011F8012F934206D110F8013F002BF7D102
:100ED0004878181A70471046181A70470878F8E7CB
:100EE0000B7803702BB111F8013F00F8013F002B84
:100EF000F9D17047F8B5FFF7A7FD464BB3F91420B9
:100F0000002A00DBF8BD1C8BE4B1598B01F4704062
:100F1000C1F3C02242EA102242F00A020A3A012A30
:100F2000F0D801F003013C4A4900DB8B555C180AFC
:100F30008542DBB201F1010415D000255054135550
:100F40001572F8BD354D344B3548364922462C7064
:100F500003F10A0403F8012BA34200F8012B01F866
:100F6000012BF7D1F8BD165D9E42E6D12C4B002037
:100F700006295D541E551872C4D1117800293ED03F
:100F80001878884204D0BDE713F8010F884235D1A4
:100F900012F8011F0029F7D15B78002BB2D1204B4A
:100FA0000122184619461C1D11F8015B002D08BFCF
:100FB0000022A142F8D1012AA4D1027822B3194813
:100FC000017891421DD1164E451C02E027788F42D0
:100FD00005D116F8011F2C4601350029F6D12478D9
:100FE0008C428FD002700F4A13F8011F02F8011FC4
:100FF0000029F9D1094B01221A70F8BDF8BD1B7800
:10100000CBE711460446EAE7064B197809B11A7096
:10101000F0E7F8BDDC0D0020080E0020C80D002010
:10102000FC0D0020CC0D0020F0B5002483B0064656
:10103000084602F0B9F91E4D8DF804408DF80540C0
:101040008DF806408DF8074003E002F0EFF9032C1D
:1010500023DC02F0AFF900B3FFF7F6FCB5F914306A
:101060001E20002BF1DA6B8B02AA03F003031A4453
:1010700012F8041C282006EB43070029E5D1E98B70
:1010800001344FEA112E06F813E00123797002F8BB
:10109000043C02F0CBF9032CDBDD02F08BF918B134
:1010A0000023337203B0F0BD307003B0F0BD00BF59
:1010B000DC0D0020034B186800FB01F0800802F0F3
:1010C0009BB900BF200D0020F8B5102300F10C07DC
:1010D000C37305463946406801F07AF87D24234EF3
:1010E00005E0013C3FD03068800802F085F968686F
:1010F000298901F0DDF80028F3D01C4E29896868A1
:10110000002201F0E3F83068C0EB001040018008D5
:1011100002F072F901222989686801F0D7F8306875
:10112000462303FB00F0800802F066F90423EB730A
:101130006868394601F04CF82989686801F0AEF812
:10114000044610233946EB73686801F041F83068B3
:101150004FF4CD7303FB00F0800802F04DF9B4FAB0
:1011600084F04009F8BD2046F8BD00BF200D0020E6
:1011700070B50446154D16482D68164EA0FB0505A2
:1011800084E8060023810846AD0C0121356001F09A
:1011900087FA228910230325E373A281606804F192
:1011A0000C01A57301F014F821896068012201F097
:1011B0008DF8A5722046FFF787FF2046FFF784FFD2
:1011C0002046BDE87040FFF77FBF00BF0805002044
:1011D00083DE1B43200D002070B50446102300F170
:1011E0000C06C373174D3146406800F0F1FF2189AA
:1011F0006068002201F06AF82868800802F0FCF8B4
:1012000001222189606801F061F8286800EB400044
:10121000800802F0F1F80423E3733146606800F0BF
:10122000D7FF2189606801F039F804462868C0EBCF
:10123000001020F0404002F0DFF8201C18BF012011
:1012400070BD00BF200D002070B5064608240025A3
:101250003046FFF7C1FF6D08631E10B165F07F05D2
:10126000EDB213F0FF04F3D1284670BD70B504460B
:101270000D461023C37304F10C01406800F0A8FF71
:10128000C5B9194E2A462189606801F01FF83068F7
:1012900000EB8010800802F0AFF86068218901221D
:1012A00001F014F83068BDE8704000EB8000800861
:1012B00002F0A2B80C4D21896068002201F006F806
:1012C000286800EB8000800802F096F860682189A9
:1012D000012200F0FBFF2868BDE87040C0EB001061
:1012E00020F0404002F088B8200D002070B506467E
:1012F0000D46002445FA04F101F0010101343046A5
:10130000FFF7B4FF082CF5D170BD00BF704700BFD8
:1013100070B505460024332646FA04F101F00101B8
:1013200001342846FFF7A2FF082CF5D105F10F0480
:1013300005F117062846FFF787FF04F8010FB442AE
:10134000F8D170BD2DE9F04105460024552646FA36
:1013500004F101F0010101342846FFF787FF082C52
:10136000F5D105F10F0705F1170817F8016F0024F3
:1013700046FA04F101F0010101342846FFF776FF37
:10138000082CF5D14745F0D1BDE8F08170B506468F
:101390000024CC2545FA04F101F001010134304666
:1013A000FFF764FF082CF5D170BD00BF70B506468D
:1013B0000024442545FA04F101F0010101343046CE
:1013C000FFF754FF082CF5D170BD00BF70B506467D
:1013D0000024482545FA04F101F0010101343046AA
:1013E000FFF744FF082CF5D1BDE87040034B1868A7
:1013F00000EB8000C0F35D0001F0FEBF200D002077
:101400002DE9F8430546884617461E4600244FF04E
:101410004E0949FA04F101F0010101342846FFF7B1
:1014200025FF082CF5D1002448FA04F101F0010150
:1014300001342846FFF71AFF082CF5D1002447FA9B
:1014400004F101F0010101342846FFF70FFF082CD9
:10145000F5D1002446FA04F101F0010101342846D7
:10146000FFF704FF082CF5D1BDE8F88338B50C462A
:1014700005464B0143F01F03DBB24B214622FFF729
:10148000BFFFAC7238BD00BF2DE9F84305460E46DC
:101490000024BE2747FA04F101F001010134284677
:1014A000FFF7E4FE082CF5D12846FFF7CDFE0446F1
:1014B0002846FFF7C9FE40F6310344EA002084B213
:1014C0009C4218D8C4F3061005F054F9804604F085
:1014D0000F00894605F04EF90022154B05F0B0F9D2
:1014E00002460B464046494604F0F8FF05F0E2FB91
:1014F0003060BDE8F8836442A4B2C4F3061005F07E
:1015000039F9804604F00F00894605F033F90022CE
:10151000074B05F095F902460B464046494604F054
:10152000DDFF05F0C7FB00F100403060BDE8F88347
:101530000000B03FF8B505460E460024BE2747FA26
:1015400004F101F0010101342846FFF78FFE082C59
:10155000F5D12846FFF778FE04462846FFF774FECB
:10156000AB7A44EA002080B2BBB1012B2AD0022B17
:101570002AD040F631039842144D13D9404284B228
:10158000C4F3061005F0F6F801F10043194605F022
:1015900069FB308004F00F0009E00D4D40F6310387
:1015A0009842EBD8C0F30613338000F00F0005F02B
:1015B0008BFC294605F0DCFC05F0C6FE01237060BB
:1015C0003372F8BD034DE9E7034DE7E700401C44E3
:1015D0000000203F0000C84000007A4270B5054678
:1015E0000024B82646FA04F101F00101013428462E
:1015F000FFF73CFE082CF5D168682989012200F02C
:1016000065FE064B186800EB8000800801F0F4FED0
:101610002846FFF7E1FD0028FAD170BD200D00201B
:1016200070B505460024B42646FA04F101F0010124
:1016300001342846FFF71AFE082CF5D12846FFF79B
:10164000CBFD003018BF012070BD00BFF8B50646C5
:101650000D460024BE2747FA04F101F001010134D0
:101660003046FFF703FE082CF5D105F1080430469B
:10167000FFF7EAFD05F8010BA542F8D1F8BD00BF60
:10168000704700BF41630320084700BF704700BF99
:101690000A4602484FF4804100F018BE000C014099
:1016A00070B5064600F1EB0400F1EF0514F8013FB8
:1016B000EBB9237BABB9AC42F8D130460F4904F00B
:1016C0000DF806F188050C2422460C342B463046D2
:1016D0000021E4B203F05EFD482C05F11405F3D1BE
:1016E00070BD3046217C227D01F0A0FBE3E730464F
:1016F0002179227A01F09AFBDBE700BFC499000848
:1017000080F83C10704700BF70B50646104615467D
:101710000C4606F0D9FE062801D8022C00D970BD6F
:10172000C4EBC40430192A46BDE870403D3007219F
:10173000FEF71EBF80F85210704700BF38B505464F
:1017400008460C4606F0C0FE092800D938BD05F150
:1017500053002246BDE838400A21FEF709BF00BF0A
:10176000002380F8533080F8543080F8553080F8EA
:10177000563080F8573080F8583080F8593080F86B
:101780005A3080F85B3080F85C30704738B50546D9
:1017900008460C4606F098FE132800D938BD05F11E
:1017A0005D002246BDE838401421FEF7E1BE00BFCF
:1017B0005D300021142206F023BE00BF80F87D10AA
:1017C000704700BF38B5054608460C4606F07CFE5B
:1017D000092800D938BD05F17E002246BDE8384011
:1017E0000A21FEF7C5BE00BF80F87110704700BF28
:1017F00080F87210704700BF38B5054608460C46A1
:1018000006F062FE082800D938BD05F173002246B3
:10181000BDE838400921FEF7ABBE00BF80F87C1060
:10182000704700BF70B50646104615460C4606F0D8
:101830004BFE132801D8042C00D970BD04EB84049E
:1018400006EB84002A46BDE8704088301421FEF77C
:101850008FBE00BF10B403299DF8044006D8014490
:1018600081F8EC4081F8F02081F8F4305DF8044B09
:10187000704700BF10B403299DF8044006D8014406
:1018800081F8F84081F8FC2081F800315DF8044BC4
:10189000704700BF70B5064600F1880400F5067574
:1018A000204606F011FE002102462046143406F0C0
:1018B000A7FDAC42F4D1002386F8EC3086F8F8306E
:1018C00086F8ED3086F8F93086F8EE3086F8FA3092
:1018D00086F8EF3086F8FB3070BD00BFF0B50446E7
:1018E000214D83B0214A224900F0C2FA022610237A
:1018F0004FF48047284601A98DF80730ADF80470F1
:101900008DF8066000F064FC28463946002200F09D
:10191000DDFC01A92846ADF8046000F059FC28461A
:101920003146012200F0D2FC002184F8531084F8E3
:10193000541084F8551084F8561084F8571084F821
:10194000581084F8591084F85A1084F85B1084F801
:101950005C10142204F15D0006F052FD2046FFF7F2
:1019600099FF03B0F0BD00BF000C014039360008FC
:101970008404002070B5064682B0012117220C2392
:1019800001F054FA304600210F22082301F064FAD6
:1019900030460D210F22082301F05EFA02240025B3
:1019A000012D0CBF1023112304F1FF3100932346B6
:1019B00004F102040CBF11221022C9B23046E4B275
:1019C00001F094FE0E2C85F00105E9D102B070BD46
:1019D00030B5044683B001210B22062301F026FA1C
:1019E000204600210322082301F036FA2046072171
:1019F0000322082301F030FA07221546204604216D
:101A00000A2301F013FA204600950B2105220D232D
:101A100001F06CFE0923009320462A460D210B237A
:101A200001F064FE03B030BD10B5044672210F22F0
:101A3000022301F0FBF9204675210F22022301F059
:101A4000F5F9204678210F22022301F0EFF9204614
:101A50007B210F22022301F0E9F9022320467E2197
:101A60000F2201F0E3F994F87C300D2B00D810BD63
:101A7000204672210C22032301F0EEF903232046B5
:101A800073210C2201F0E8F994F87C30172BEED981
:101A9000204675210922062301F0DEF9062320469F
:101AA0007621092201F0D8F994F87C30212BDED977
:101AB000204678210622092301F0CEF90923204689
:101AC0007921062201F0C8F994F87C302B2BCED96D
:101AD00020467B2103220C2301F0BEF90C23204673
:101AE0007C21032201F0B8F994F87C30352BBED963
:101AF00020467E2100220F2301F0AEF92046BDE8EA
:101B000010407F2100220F2301F0A6B92DE9F041FA
:101B10000446FFF75DFF2046FFF72CFF20463B49B8
:101B200003F0DCFD00212422394B204603F032FB78
:101B30002046384903F0D2FD04F13D0604F1520776
:101B40000C252A46334620461421073603F022FB93
:101B50000C35BE42EDB2F4D194F85310C9BB94F8E1
:101B60005230F3BB0021402204F15D03204603F014
:101B700011FB204640210022342301F06DF940235F
:101B800020460021332201F051F994F8713063B1FD
:101B900094F872305BBB204649211A2204F173038A
:101BA00003F0F8FA2046FFF73FFF94F87D300BB9B9
:101BB000BDE8F081204651212622174B03F0EAFAB6
:101BC000204604F17E0342213222BDE8F04103F0B9
:101BD000E1BA20460021302204F1530303F0DAFA7F
:101BE000C0E7204630220D4B03F0D4FABAE7204676
:101BF000064903F073FD20466C210822084B03F0D0
:101C0000C9FA2046034903F069FDC4E710B1000892
:101C1000AC870008C4990008BC870008B08700089A
:101C2000B887000810B5044600F04CF905E0FFF74E
:101C30006DFF204600F04AF958B194F83C30204638
:101C4000002BF4D0FFF72CFD204600F03FF90028D0
:101C5000F3D110BD10B40C68A4465DF8044B604786
:101C600070B504460D46436B0220984729460A2268
:101C70002E6820460023B0470546636B0320984733
:101C8000636B00209847284670BD00BF70B50446BE
:101C90000D46436B02209847636B012098472E68DE
:101CA0002946204614220023B04704F138032E6849
:101CB000294620461722B047636B0020BDE87040DC
:101CC000184700BFF8B504460D46436B02209847FD
:101CD000636B012098472E68204629461522002371
:101CE000B047064630B12F6829462046172204F136
:101CF0003803B847636B002098473046F8BD00BFF3
:101D000010B582B002AB03F8012D0C680F22A0477A
:101D100002B010BD10B480F82D2080F82E300C6871
:101D200000F12D03A44632225DF8044B604700BF4A
:101D300070B49DF80C609DF8105080F82D2080F84C
:101D40002E3080F8306080F82F500C6800F12D03A1
:101D5000A44670BC3B22604770B49DF80C609DF8AF
:101D6000105080F82D2080F82E3080F8306080F8F8
:101D70002F500C6800F12D03A44670BC2D22604743
:101D800010B582B00C6846220DF10703A0479DF8FC
:101D9000070002B010BD00BF10B582B00C6847222A
:101DA0000DF10703A0479DF8070002B010BD00BF6A
:101DB00010B40C684822A44600235DF8044B604729
:101DC00030B50446416883B00D680DF10703462223
:101DD000A8479DF80730616823700D680DF107036F
:101DE00020464722A8479DF80730616863700D6858
:101DF000204648220023A8476168E0740D68204609
:101E000004F138031722A84703B030BD10B541686C
:101E10000446FFF725FF18B12046FFF7D1FF012048
:101E200010BD00BFF8B504460F4600250126222349
:101E300083748560C56045748561067480F831607F
:101E400003F044FB094B402284F8286084F82950B1
:101E500084F82A5084F82C5084F82B206760636340
:101E60002046BDE8F840FFF7D1BF00BF811600084B
:101E70002DE9F04104460F46904600250126222315
:101E800083748560C56045748561067480F831602F
:101E900003F01CFB0A4B402284F8286084F8295088
:101EA00084F82A5084F82C5084F82B2067606363F0
:101EB0002046C7F80880BDE8F041FFF7A7BF00BF84
:101EC000811600084168FFF7E1BE00BF836910B5C5
:101ED000044603B1984720466168BDE81040FFF70B
:101EE000F1BE00BF10B582B0426802AB03F8011D1D
:101EF000146811460F22A04702B010BD416810B40B
:101F00000C681022A44600235DF8044B604700BF14
:101F1000416810B40C681122A44600235DF8044BFC
:101F2000604700BF034630B4446880F82D1080F845
:101F30002E2025682146AC4630BC2D333222604726
:101F400070B49DF80C60456880F82D1080F82E2044
:101F500080F8303080F82F602C682946A44670BC89
:101F600000F12D033B22604770B49DF80C6045687A
:101F700080F82D1080F82E2080F8303080F82F6007
:101F80002C682946A44670BC00F12D032D22604721
:101F9000F0B445680027802680F82D1080F82E20A8
:101FA00080F8313080F8307080F82F602C68294636
:101FB000A446F0BC00F12D033B22604730B583B04E
:101FC0009DF8185044688DF804108DF805208DF8A0
:101FD00006308DF80750256821463C2201ABA84702
:101FE00003B030BD80F83110704700BF0B0A80F895
:101FF000311080F8323070479208DB0801F0F801A8
:1020000043EA421341EAD20180F8313080F83210BD
:10201000704700BF10B4C47C282C0AD0302C15D0D7
:1020200080F8311080F8322080F833305DF8044BAE
:10203000704702F0E00221F01F0141EAD20141EABB
:10204000931380F831305DF8044B70479208DB0839
:1020500021F0070143EA421341EAD20180F831300E
:1020600080F832105DF8044B704700BF90F83100E3
:10207000704700BFC37C282B04D0022B0CBF032069
:1020800001207047FF207047C37C302B0CD0282BD9
:1020900006D0022B0CBF0323012380F83130704798
:1020A000FF2380F831307047FF2380F8313080F80B
:1020B0003230704700207047002380F8313070477D
:1020C000C37C282B0CBF6D2001207047C37C282BBC
:1020D0000CBF6D23012380F83130704708B52F4BBA
:1020E00098421ED02E4B984225D02E4B98422CD091
:1020F0002D4B984233D02D4B98423AD02C4B9842DE
:1021000041D02C4B984200D008BD4FF48070012183
:1021100000F0DEFABDE808404FF48070002100F0C6
:10212000D7BA0420012100F0D3FABDE8084004200A
:10213000002100F0CDBA0820012100F0C9FABDE865
:1021400008400820002100F0C3BA1020012100F04F
:10215000BFFABDE808401020002100F0B9BA2020E5
:10216000012100F0B5FABDE808402020002100F070
:10217000AFBA4020012100F0ABFABDE80840402092
:10218000002100F0A5BA8020012100F0A1FABDE8ED
:1021900008408020002100F09BBA00BF00080140E9
:1021A000000C0140001001400014014000180140E3
:1021B000001C01400020014008B50120014600F04C
:1021C00087FABDE808400120002100F081BA00BF75
:1021D0002DE9F041CD78EB0648BF8B78098805F0F2
:1021E0000F0E48BF4EEA030E11F0FF0F21D0066814
:1021F000002301274FF00F0802E00133082B17D00E
:1022000007FA03F202EA01049442F6D19A0008FAAE
:1022100002FC26EA0C060EFA02F2282D46EA020615
:1022200031D0482D03F1010308BF0461082BE7D129
:102230000660FF2923D94668002301274FF00F0CC1
:1022400002E00133082B19D003F1080207FA02F269
:1022500002EA01049442F4D19A000CFA02F826EA48
:1022600008060EFA02F2282D46EA020609D0482D89
:1022700003F1010308BF0461082BE5D14660BDE806
:10228000F0814461DDE74461B7E700BF4FF6FF71BD
:102290000222042301808270C37070478368194250
:1022A00014BF012000207047806880B2704700BFD3
:1022B000C368194214BF012000207047C06880B273
:1022C000704700BF01617047416170470AB94161C1
:1022D00070470161704700BFC160704741F48033AF
:1022E0008361816183618369836970474FF680737D
:1022F000054A10B414682340194341EA00101060E5
:102300005DF8044B704700BF00000140014B1860AE
:10231000704700BF1C0020420028194B00F44012F7
:10232000B4BFDB695B68B2F5401F30B484B21ED025
:10233000C20213D5C0F303450322AA4023EA0203D5
:1023400043F0706319B1420D1201944023430C4ACB
:102350000028B4BFD361536030BC7047420D1201F6
:1023600004FA02F223EA020343F07063EAE7044D41
:1023700023F070636A6822F070626A60E2E700BF6F
:102380000000014001F0FC0303F1804303F58033BA
:1023900001F0030110B489009C680F228A4024EAEE
:1023A00002029A609A68884002439A605DF8044B82
:1023B000704700BF014B1860704700BFDC0020422F
:1023C00003780022013BC37082700271704700BF26
:1023D00010B400240471017042705DF8044BFFF7E3
:1023E000EFBF00BF8378027841781344DBB28B42A1
:1023F000837012D210B4C47803792244D2B29142CD
:1024000098BF01F1FF3203F1010398BFD2B203710B
:10241000C2705DF8044B012070470020704700BF78
:102420000D4B0E4A19684FF41F0041F0010119606D
:1024300059680A405A601A6822F0847222F4803285
:102440001A601A6822F480221A605A6822F4FE0286
:102450005A609860704700BF001002400000FFF80B
:102460000C4BB0F5803F1A6822F480321A601A686B
:1024700022F480221A6008D0B0F5802F04D11A68A7
:1024800042F4A0221A60704770471A6842F4803202
:102490001A6070470010024082B000230A4A01937C
:1024A00002E0B3F5A06F08D0136813F4003F019B5E
:1024B00003F101030193019BF3D0034B1868C0F3B0
:1024C000404002B0704700BF00100240034A13684A
:1024D00023F0F80343EAC000106070470010024088
:1024E000014B1860704700BF00004242034A536826
:1024F00023F47C13194308435060704700100240D6
:10250000014B1860704700BF60004242034A5368A5
:1025100023F0030318435060704700BF00100240CF
:10252000024B586800F00C00704700BF00100240DA
:10253000034A536823F0F00318435060704700BF0C
:1025400000100240034A536823F4E06318435060CC
:10255000704700BF00100240034A536823F46053E1
:1025600043EAC0005060704700100240044A1378EC
:1025700019B923EA000010707047184310707047B3
:1025800009100240014B1860704700BFD80042425A
:10259000034A536823F4404318435060704700BF18
:1025A00000100240064B002201281A701A7005D054
:1025B000042802D105221A707047704718707047BE
:1025C00020100240014B1860704700BF8004424257
:1025D000024A136A18431062704700BF001002409D
:1025E000014B1860704700BF3C044242224A10B4BD
:1025F000536803F00C03042B06D0082B26D01BB124
:102600001E4A1346026001E01C4B03601A4A1C4933
:102610005468C4F303140C5DE34043605468C4F38E
:1026200002240C5D23FA04F484605468C4F3C224C9
:102630000C5DE340C36052685DF8044BC2F3813225
:102640000A44127CB3FBF2F303617047536851688C
:10265000C3F38343C90303F1020307D5526892030E
:1026600004D4064A02FB03F30360CFE7054A02FBEA
:1026700003F30360CAE700BF0010024000127A00B3
:10268000CC04002000093D00044A536919B923EA2B
:1026900000005061704718435061704700100240BD
:1026A000044A936919B923EA0000906170471843FE
:1026B0009061704700100240044AD36919B923EAB7
:1026C0000000D06170471843D0617047001002408D
:1026D000044AD36819B923EA0000D0607047184350
:1026E000D060704700100240044A136919B923EA08
:1026F00000001061704718431061704700100240DD
:10270000014B1860704700BF40044242014B186003
:10271000704700BF4C004242014B1870704700BF29
:10272000071002404309012B0BD0022B094B0CBFB1
:102730001A6A5A6A00F01F0322FA03F000F001003F
:102740007047044B1A6800F01F0322FA03F000F0F0
:102750000100704700100240024A536A43F0807340
:102760005362704700100240034B9B68184214BF2D
:1027700001200020704700BF00100240014B18707C
:10278000704700BF0A10024030B5082487B000949B
:1027900004460025402180224223019102920393A6
:1027A00004951D4B1D494FF4001200F0BBF9204663
:1027B0002946FF2200F0DEF920460121FF2200F029
:1027C000D9F920462946FF2200F0E2F92046FF22EF
:1027D000012100F0DDF92046012100F011FA204628
:1027E0002946FF2200F0FCF9FF222046012100F0DB
:1027F000F7F92946204600F067FA2046012100F04B
:1028000063FA4FF6FF72012384F85E50A4F85C204F
:1028100084F85F3007B030BD000C01400054004028
:10282000836D30B4052B04460EDC03EB430300EB51
:10283000830301220025D9611D625A62A36D1046EF
:102840001344A36530BC7047002030BC704700BF04
:1028500038B50121054600F037FA00210446284624
:1028600000F032FA44EA002080B238BD80F85F10F0
:10287000704700BF2DE9F04190F85F60044616B93B
:102880003046BDE8F081FFF7E3FF80463848414617
:10289000FDF7FAFE4FF6FF7290453CD094F85E309B
:1028A0000133DBB2032B84F85E3009D0B4F85C301E
:1028B000934255D00026A4F85C803046BDE8F081F4
:1028C000A36D002B1ADD254600270EE05B10C158D2
:1028D0002A6A184451F802C001224146E047A36D1C
:1028E0000137BB4205F10C0508DD6B6AE869D907C1
:1028F000ECD4D5F820C000EB6300EDE74FF6FF7590
:102900002046FFF7A5FFA842FAD1002384F85E30E5
:102910004FF6FF78CFE7B4F85C100027414584F804
:102920005E701DD0A36D002BEFDD25460FE05B1020
:10293000C25818442B6A52F803C00022E047A36D26
:102940000137BB4205F10C05DFDDB4F85C106B6AA2
:10295000E869DA07EBD4D5F820C000EB6300ECE7B8
:102960004FF6FF76C6EB0806B6FA86F67609A2E7BA
:10297000C487000870B504464BF6FF7686B0012187
:102980000069FFF78DFEA28AE38AE06813431C25E5
:10299000032201A9ADF804308DF806208DF8075008
:1029A000FFF716FCA0680121FFF786FE0120014613
:1029B000FFF776FE606803F033F8114B06A941F883
:1029C000103D6068002301254FF48042ADF80E6091
:1029D000ADF80C30ADF81230ADF81050ADF8142051
:1029E00003F03CF82946606803F0BCF860684FF4D7
:1029F000003103F0F9F90028F8D106B070BD00BF2E
:102A0000801A060038B504460D4600F003FD6068E4
:102A1000012103F0D1F860681F4903F0CFF90028C5
:102A2000F9D06068217E002203F026F960681B4916
:102A300003F0C4F90028F9D02946606803F016F9BC
:102A40006068174903F0BAF90028F9D060680121DD
:102A500003F0B2F86068104903F0B0F90028F9D02B
:102A60006068217E012203F007F960680D4903F0D8
:102A7000A5F90028F9D060680B4903F09FF90028F8
:102A8000F9D0606803F0F4F805460121606803F0AE
:102A9000A1F8284638BD00BF0100030082000700EE
:102AA00084000700020003004000030070B50446E4
:102AB0000E46154600F0AEFC6068012103F07CF87C
:102AC0006068154903F07AF90028F9D06068217E22
:102AD000002203F0D1F86068104903F06FF9002874
:102AE000F9D03146606803F0C1F860680C4903F022
:102AF00065F90028F9D02946606803F0B7F86068E6
:102B0000074903F05BF90028F9D060680121BDE8AE
:102B1000704003F05FB800BF0100030082000700AF
:102B2000840007002DE9F041069FBDF81CC0BDF8E8
:102B300020E0BDF824609DF828504FF000080446BE
:102B400041608260C36080F800800761A0F814C013
:102B5000A0F816E0068315B1FFF70CFF2578044BAB
:102B6000204613F835102822BDE8F041FFF79EBF3C
:102B7000D887000810B40478044B01EB440103EB40
:102B80008103197C5DF8044BFFF790BFD8870008DC
:102B900010B40478054B01EB440103EB810393F877
:102BA00020105DF8044BFFF781BF00BFD8870008F5
:102BB00038B50D460446094B01783DB113F8311084
:102BC000A822FFF773FF0123237038BD282213F8D2
:102BD0003110FFF76BFF257038BD00BFD8870008A4
:102BE00010B40478054B01EB440103EB810393F827
:102BF00030105DF8044BFFF759BF00BFD8870008BD
:102C000070B50E4603780A4D044615F83310FFF7E9
:102C1000F9FE4EB900F0BF022378204615F83310B4
:102C2000BDE87040FFF742BF40F04002D2B2F3E788
:102C3000D887000870B50E4603780A4D044615F88B
:102C40003310FFF7DFFE56B140F00202D2B2237814
:102C5000204615F83310BDE87040FFF727BF00F09D
:102C6000FD02F4E7D887000810B40478054B01EBA7
:102C7000440103EB810393F840105DF8044BFFF728
:102C800015BF00BFD887000810B40478054B01EBCE
:102C9000440103EB810393F850105DF8044BFFF7F8
:102CA00005BF00BFD887000810B40478054B01EBBE
:102CB000440103EB810393F860105DF8044BFFF7C8
:102CC000F5BE00BFD88700080278044B01EB420133
:102CD00003EB810393F87010FFF794BED8870008C8
:102CE000002103E00A4B5B584350043109480A4B6A
:102CF00042189A42F6D3094A02E0002342F8043B04
:102D0000074B9A42F9D303F0A1F801F039F8704764
:102D1000ECBD0008000000201C0900201C09002058
:102D20005C11002000000000000000000000000016
:102D3000034B1A68D2B2FEE7AFF30080AFF3008016
:102D400004ED00E02DE9F047072B82B099460746D5
:102D50008A4616461CD91D460C464FF0FF08083D12
:102D60002146CDF80080384632460023EDB2FFF709
:102D7000E7F80834072DE4B2F1D8A9F1080303F00D
:102D8000F8030AF1080A9A440AF0FF0A09F0070357
:102D90007BB183F007030133FF2203F0070302FA3C
:102DA00003F3DBB200933846514632460023FFF767
:102DB000C7F802B0BDE8F0872DE9F047072B82B0D5
:102DC000994607460E4692461CD91D4614464FF0BA
:102DD000FF08083D2246CDF80080384631460123E1
:102DE000EDB2FFF7ADF80834072DE4B2F1D8A9F140
:102DF000080303F0F8030AF1080A9A440AF0FF0AEC
:102E000009F007037BB183F007030133FF2203F0CE
:102E1000070302FA03F3DBB2009338463146524609
:102E20000123FFF78DF802B0BDE8F087F0B501246B
:102E300083B0009407460E4615461C4602F0F4FC8B
:102E400008B903B0F0BD384631462A46234603B0E0
:102E5000BDE8F040FFF776BFF0B51C4683B0012314
:102E6000009407460E46154602F0DEFC08B903B092
:102E7000F0BD384631462A46234603B0BDE8F0404F
:102E8000FFF79ABF2DE9F04182B09DF82040064639
:102E900000940D461746984602F0C6FC10B902B0E1
:102EA000BDE8F081304629463A464346FFF74AFFDF
:102EB000304629463A462346FFF77EFF08F1FF31A8
:102EC000294430463A462346C9B2FFF775FF3046DB
:102ED00029464346621E3A44D2B202B0BDE8F041F0
:102EE000FFF730BF2DE9F04180460F4615461E46DC
:102EF0009DF818402A46334640463946FFF722FFE0
:102F0000631E013513F0FF04EDB2F3D1BDE8F0818B
:102F10002DE9F04182B09DF82040804600940F4694
:102F200016461D4602F080FC10B902B0BDE8F081E3
:102F30004046394632462B46089402B0BDE8F0417F
:102F4000FFF7D0BF2DE9F04F87B09DF840500646FF
:102F50000095894692461F469DF8444002F064FC65
:102F600010B907B0BDE8F08F2B1BDBB21A460AEB95
:102F70000403D9B26FEA0408084609EB040C5FFAAF
:102F80008CFCB8440223614604920390009302F142
:102F9000FF3B23460246C8443046CDF814C05FFAD2
:102FA00088F803F0B9F801234146039A00933046AC
:102FB000234603F0B1F8D344DDF814C05FFA8BFB6D
:102FC000042361465A4600933046234603F0A4F892
:102FD00008235A464146009330462346C4F1FE0872
:102FE00003F09AF85FFA88F8DDF814C0C4EB08041F
:102FF0000398049A3C440CF1010C5FFA8CFCE4B297
:103000002346614600F1010B904430465246CDF80C
:103010000CC0FFF797FEDDF80CC06A1E52446146F3
:103020005FFA8BFB5FFA88F823463046D2B2FFF78F
:1030300089FE304649465A464346FFF7BDFE5A468A
:1030400043463046791E4944C9B207B0BDE8F04F47
:10305000FFF7B2BE2DE9F04F85B09DF83850064617
:1030600000958B4617469A469DF83C4002F0DCFBE3
:1030700010B905B0BDE8F08F6FEA04092D1BEBB263
:1030800007EB040C0BEB04055FFA8CFC0293EDB22A
:1030900003F1FF3802232946624600933046234657
:1030A000D144CDF80CC0D94403F094F8DDF80CC03D
:1030B0005FFA89F901236246494600933046234668
:1030C000B84403F087F85FFA88F80423424629469B
:1030D00000933046234603F07DF8082349464246D4
:1030E00000933046234603F075F8C4F1FE03DBB2CB
:1030F000C4EB03090299D14401350134EDB25FFA02
:1031000089F9E4B23A463046CF1800944B46294636
:10311000FFF7E8FE42464B46294630460094FFF74B
:10312000E1FE304659465346DDF80CC0FFB20CF1C3
:103130000102D2B20E9705B0BDE8F04FFFF7D2BE44
:1031400030B5054687B01748FDF7C2FA0024402382
:10315000082180228DE80A00284603930292124B30
:10316000049412494FF40012FFF7DCFC2846214674
:103170002246FFF7FFFC284622460121FFF7FAFC12
:10318000284621462246FFF78FFD28462246012188
:10319000FFF78AFD0648AC8307B0BDE83040FDF775
:1031A00097BA00BF88880008000C01400054004016
:1031B000A888000838B50D460446818B42B1124BF1
:1031C00012482A46FDF760FAA38B1D4208D038BD8D
:1031D0000F4B0E482A46FDF757FAA38B1D4211D01C
:1031E0000C48FDF775FAA28B20466A40A2830021A5
:1031F000120AFFF759FD2046227F0121BDE8384021
:10320000FFF752BD38BD00BF2C890008E8880008D0
:1032100024890008C888000810B50446828B002164
:1032200022F4F05292B28283120AFFF73DFD20464B
:10323000227F0121BDE81040FFF736BD0120704715
:103240004FF6DF7241F47F4343F0DF03934233D004
:103250004FF6EF7241F47F4343F0EF0393422ED0D9
:103260004FF6F77241F47F4343F0F703934229D0BE
:103270004FF6FB7241F47F4343F0FB03934224D0AB
:103280004FF6FD7241F47F4343F0FD0393421FD09C
:103290004FF6FE7241F47F4343F0FE0393421AD08F
:1032A0004EF6FF7341F46F4141F0FF01994200D0A7
:1032B00070470A48FDF70CBA0948FDF709BA0948F2
:1032C000FDF706BA0848FDF703BA0848FDF700BA4B
:1032D0000748FDF7FDB90748FDF7FAB924B800081B
:1032E000F8B7000800B8000808B8000810B80008CF
:1032F00014B800081CB8000838B50B4D0B4A2B68F1
:103300000446DB07026005D5094A0A4B6260A360E8
:10331000204638BD284603F0C9F80028F4D02846D6
:1033200003F0D0F8F0E700BFA40D0020D8B70008E4
:10333000440D0020240D002001464068FFF770BABC
:103340000E4B0F491B680F4AA2FB0302A1FB03139C
:103350000D49920C9B090A60013BB3F1807FFCD2BE
:1033600030B40A4A0A4CF0255360002084F82350F8
:103370000721906030BC1160704700BF0805002035
:10338000D34D621083DE1B43A80D002010E000E047
:1033900000ED00E0034B5A6812B15A68013A5A60D6
:1033A000704700BFA80D0020014B5860704700BF58
:1033B000A80D0020014B5868704700BFA80D0020E1
:1033C000704700BF034A012353605368002BFCD1B0
:1033D000704700BFA80D002010F1FF30054A4FF0E4
:1033E000010106D351605368002BFCD110F1FF306E
:1033F000F8D27047A80D002001387FF4FDAF704768
:10340000034B1B6803FB00F08008FFF7F5BF00BF0C
:10341000A80D0020044A4FF47A73106803FB00F0F3
:103420008008FFF7E9BF00BFA80D002080B170B58C
:103430000646084A4FF47A731568002403FB05F525
:10344000AD0801342846FFF7D7FFB442F9D170BD6B
:10345000704700BFA80D00204FF4E13000F022BA01
:1034600008B50220FCF7F2FE044B1868FDF70CF9D2
:10347000BDE808400120FCF7E9BE00BFE0040020E1
:1034800008B50220FCF7E2FE044B5868FDF7FCF893
:10349000BDE808400120FCF7D9BE00BFE0040020D1
:1034A00008B50220FCF7D2FE044B9868FDF7ECF853
:1034B000BDE808400120FCF7C9BE00BFE0040020C1
:1034C00008B50220FCF7C2FE044BD868FDF7DCF813
:1034D000BDE808400120FCF7B9BE00BFE0040020B1
:1034E00008B50220FCF7B2FE044B1869FDF7CCF8D2
:1034F000BDE808400120FCF7A9BE00BFE0040020A1
:1035000008B50220FCF7A2FE044B5869FDF7BCF891
:10351000BDE808400120FCF799BE00BFE004002090
:10352000B0B12DE9F0410546DFF82C80094F0024A9
:103530004FF47A76D8F80030013406FB03F3A7FB8A
:1035400003304008FFF758FFAC42F3D1BDE8F081EB
:10355000704700BFABAAAAAAB00D0020034B0448D5
:103560001B68A0FB03304008FFF746BFB00D0020EA
:10357000ABAAAAAA054B06481B6803EB83035B00B2
:10358000A0FB03304008FFF737BF00BFB00D00209D
:10359000ABAAAAAA70B5082086B01E4D0121FFF77C
:1035A0007FF84FF480200121FFF786F81A4C284657
:1035B00001A94FF4806203231826ADF804208DF88A
:1035C00006308DF80760FEF703FE284601A90422A5
:1035D0004FF400638DF80720ADF804304FF4164522
:1035E000FEF7F6FD00230C22204602A9ADF81430A8
:1035F000ADF81030ADF80E30ADF80C30ADF812204B
:10360000029501F0F3F82046012101F071F906B0AE
:1036100070BD00BF000C014000480040014608B5E5
:10362000044801F0DBF90348802101F059FA002831
:10363000F9D008BD0048004070B5013982B01C4681
:10364000062913D8DFE801F0042B121215313100DE
:10365000224B23491B68234AA1FB03134FF4FA7042
:103660009B0C1360FFF75CFFFFF794FF012002B093
:1036700070BD1C4C01922079400000F0FE00FFF765
:10368000CDFF019A1046FFF7C9FF23681648A0FB3B
:1036900003304008FFF7B0FE012002B070BD114BAF
:1036A000CAB91A71012002B070BD002ADED0551EC1
:1036B000EDB201350B4E25443079400000F0FE009C
:1036C000FFF7ACFF14F8010BFFF7A8FFAC42F3D1F2
:1036D000012002B070BD01221A71E3E70805002045
:1036E00083DE1B43B00D0020ABAAAAAA2DE9F04F40
:1036F00083B09DF8309099428CBFCE1A5E1A4A452D
:103700000C461D4607469346F6B20CD9C9EB020A91
:103710005FFA8AFA564549D2AB464C461546894669
:103720004FF001080CE0C2EB090A5FFA8AFA56452D
:103730002CD21A464D465C4691468B464FF0010806
:10374000CB4534BF0123FF23CAF347090193FF2D63
:1037500008BFFE25AC4210D947E021465A46FEF785
:10376000E1FBC6EB0903DBB25FFA83F9013419F020
:10377000800FE4B230D1A54237D33846B8F1000FFC
:10378000EBD059462246FEF7CDFBEAE799421DD918
:10379000224633462C461546FF22CB464FF0000802
:1037A000C6F34709019256469A46D0E799420DD989
:1037B000224633462C4615460122CB464FF00008E0
:1037C000C6F34709019256469A46C0E753464FF062
:1037D0000008B2461E46B3E7019A53449344A542FB
:1037E0005FFA8BFB5FFA83F9C7D203B0BDE8F08FB5
:1037F000F0B5074687B0294C01210420FEF750FFA1
:103800004FF480400121FEF74BFF18252046694602
:103810004FF4007203238DF80350ADF800208DF8AB
:103820000230FEF7D5FC042269464FF4806320463F
:103830008DF80320ADF80030194EFEF7C9FC4FF4A7
:10384000E06002F089F800240125252301A88DF805
:1038500004308DF805408DF806408DF8075002F0D1
:1038600085F80C23304602A9ADF812300297ADF866
:103870001440ADF81040ADF80E40ADF80C4000F02B
:10388000B5FF30462A4640F2255101F03FF8304658
:10389000294601F02DF807B0F0BD00BF0008014037
:1038A00000380140F0B5074687B01D4E01210420C5
:1038B000FEF7F6FE04254FF400300121FEF7FCFE72
:1038C000184C182230460DEB050103238DF8072014
:1038D0008DF80630ADF80450FEF77AFC30460DEB5B
:1038E00005010823ADF804308DF80750FEF770FC91
:1038F00000230C22204602A9ADF81430ADF8103098
:10390000ADF80E30ADF80C30ADF81220029700F093
:103910006DFF2046012100F0EBFF07B0F0BD00BFB6
:103920000008014000440040044A0549136810B4EF
:103930005C1C1460C8545DF8044B7047B80D00203F
:10394000640F0020014B00221A607047B80D002060
:1039500000487047640F0020014B1868C0B27047E0
:10396000B80D002083684279002103EB820203F83E
:10397000011B9342FBD170474271816001EB8202CF
:10398000002301F8013B9142FBD17047F0B40E4691
:1039900085784479521B01F007078021D5B2E408ED
:1039A000F2083941806805FB0422C9B22BB9835C57
:1039B00023EA01018154F0BC7047835C19438154B0
:1039C000F0BC704710B40C464A788178914206D812
:1039D000C178914203D3437921788B4202D85DF8B4
:1039E000044B704723795DF8044BFFF7CFBF00BF4E
:1039F00070B50D4606468C7823061AD4EB78032B57
:103A000006D8DFE803F0120A0E026B78013B6B70F8
:103A1000640014F0FF04EFD170BD6B7801336B705C
:103A2000F6E72B78013B2B70F2E72B7801332B70F4
:103A3000EEE730462946FFF7C5FFDFE72DE9F04105
:103A4000CB780D4606468C78032B26D8DFE803F0AA
:103A50001F1B1702FF274FF0000809E02A786B7838
:103A6000640042443B4414F0FF042A706B7012D08F
:103A70002306F3D530462946FFF7A4FFEEE70027DB
:103A80004FF0FF08F4E701274FF00008F0E70027A8
:103A90004FF00108ECE7BDE8F0810027B846E7E702
:103AA00010B5143A82B04C68332A23D8DFE802F00C
:103AB0002A392248222222222222222222222222A1
:103AC00022222222222222222222222222224F22A9
:103AD000222222222222221A2222222222222222CE
:103AE00022225625194620460193FCF775FB019BBF
:103AF000002838D1012002B010BD627801201A7070
:103B000002B010BDA3686279002103EB820203F8C2
:103B1000011B9342FBD12046FEF752FC012002B06C
:103B200010BD2046FEF75EFC0028E4D0A368627951
:103B3000002103EB820203F8011B9342FBD1D9E77A
:103B400020461946FCF73EFB012002B010BD20467E
:103B50001946FFF737FF012002B010BD627901203E
:103B60001A7002B010BD20461946FFF767FF01200A
:103B7000C1E700BF81604271FCF7C8BA30B48478F5
:103B80004579121BED0802FB05F2802401F00705C0
:103B9000D2B22C4102EBD1018068E2B22BB9435C76
:103BA00023EA0202425430BC7047435C1A43425439
:103BB00030BC704710B40C464A788178914206D8E0
:103BC000C178914203D3437921788B4202D85DF8C2
:103BD000044B704723795DF8044BFFF7CFBF00BF5C
:103BE00070B50D4606468C7823061AD4EB78032B65
:103BF00006D8DFE803F0120A0E026B78013B6B7007
:103C0000640014F0FF04EFD170BD6B7801336B706A
:103C1000F6E72B78013B2B70F2E72B7801332B7002
:103C2000EEE730462946FFF7C5FFDFE72DE9F04113
:103C3000CB780D4606468C78032B26D8DFE803F0B8
:103C40001F1B1702FF274FF0000809E02A786B7846
:103C5000640042443B4414F0FF042A706B7012D09D
:103C60002306F3D530462946FFF7A4FFEEE70027E9
:103C70004FF0FF08F4E701274FF00008F0E70027B6
:103C80004FF00108ECE7BDE8F0810027B846E7E710
:103C900010B5143A82B04C68332A22D8DFE802F01B
:103CA0002932213C212121212121212121212121D0
:103CB00021212121212121212121212121214321D2
:103CC000212121212121211A2121212121212121EB
:103CD00021214A24194620460193FCF77DFA019BD5
:103CE00068BB012002B010BD627801201A7002B0DA
:103CF00010BD2046FCF70AFA2046FEF761FB0120C2
:103D000002B010BD2046FEF76DFB0028EAD0204629
:103D1000FCF7FCF90120E5E720461946FCF752FACA
:103D2000012002B010BD20461946FFF743FF0120D5
:103D300002B010BD627901201A7002B010BD204699
:103D40001946FFF773FF0120CCE700BFFFF722BB46
:103D500008B5094840F2255100F0CCFE00B908BD75
:103D6000054800F03FFEC0B27428F8D1BDE8084015
:103D70000248FCF7ADBC00BF003801401CB9000888
:103D8000F0B54FF4E1309BB0FFF732FDFFF764FB75
:103D9000FFF7D6FA6848FCF79BFCFCF7F9FE40F207
:103DA000F230FCF7A1FF4FF44870FFF73FFBFCF740
:103DB000DDFF0346614D014661482B60FCF764FC62
:103DC00000200146FCF7FAFF0A20FDF73DF85D48A8
:103DD000FCF77EFC5C48FCF77BFC4FF400540223AC
:103DE00010225A4869468DF802308DF80320ADF84C
:103DF0000040FEF7EDF9012221465448FEF766FA2D
:103E00005348FCF765FCFFF72BFB5248FCF760FCBE
:103E10005148FDF763FD50480121FDF771FC4F4A01
:103E200000214D48FDF7FEFC4B48FDF7FBFE4C4ED4
:103E300049480121FDF72CFC4A48FFF781F9336816
:103E4000DA076FD54848FEF79FFC484801F018FD97
:103E500001A8FFF751FA01A8FFF76EFA04A800F0D5
:103E600097F804A800F056F93B480021FDF748FCFC
:103E70003F48FCF72DFC3F4F0DE03B48FEF7FAFCB6
:103E800004A800F0C7FA3448FDF7CCFEFDF732F87D
:103E90002B7B002B38D130480121FDF78FFC2E48B9
:103EA0003549FDF78FFC01212B48FDF79DFCFCF700
:103EB0005DFF044687FB0032C317C3EBA20202EB8F
:103EC0008203A0EB43032D492D482C60FCF76AFBCD
:103ED0002B492148FDF790FCFCF75CFF01461E488A
:103EE000FDF786FCFCF760FFC1B21B48FDF796FCAE
:103EF0003368DB07C1D41A4802F0D8FA0028BCD0D6
:103F0000174802F0DFFAB8E71E491348FDF73EFCF8
:103F10001D48FCF7B9FB1B48FCF7B6FB1B48FCF738
:103F2000D7FBB8E7304602F0C1FA00288AD0304605
:103F300002F0C8FA86E700BF5CB80008BC0D00209C
:103F400070B800087CB8000890B80008000C014068
:103F5000A4B80008B4B80008140E0020D8B80008AF
:103F6000A40D0020240D0020440D0020180F002077
:103F7000E4B8000867666666F8B8000804B9000887
:103F8000C00D0020CC0D002010B9000818B90008A1
:103F900038B50D4D0D4A2B680446DB07026009D584
:103FA0000B480C490C4A0D4B6060A160E260236134
:103FB000204638BD284602F079FA0028F0D028467D
:103FC00002F080FAECE700BFA40D002030B9000831
:103FD000440D0020180F0020240D0020140E002096
:103FE00010B50446F9B990F852300BB180F8521070
:103FF00094F84E20A2B984F85320E0684FF4806111
:10400000FFF7D8F8E0684FF4007194F85220FFF7FA
:10401000D1F8206994F85210BDE81040FDF78ABB32
:1040200094F85320E9E7012280F8532080F85220C9
:10403000E3E700BF70B590F84D401CB990F85230DE
:104040001BBB70BD866C044630460D4603F04CF930
:1040500048B93046294603F029F90028F1D094F8F0
:1040600052304BB970BD94F852309BB1304629465E
:1040700003F01CF90028E4D00B48FCF729FB20468C
:10408000BDE870400021FFF7ABBF2146BDE870409E
:10409000FFF7A6BF0548FCF71BFB2046BDE87040B4
:1040A0000121FFF79DBF00BF68B9000850B90008A3
:1040B00008B510210348FEF7F1F8B0FA80F0400986
:1040C00008BD00BF00080140F0B5074683B00846B0
:1040D0000D46164603F012F9024614B202F0F4FE41
:1040E0000146284602F03AFE084902F041FF03F07B
:1040F0002BF92246034606496846FCF753FA38690D
:1041000031466A46FDF700FB03B0F0BD00002041D8
:1041100080B900082DE9F041044682B04348FCF71D
:10412000D7FA21466068FEF77BFB4149002501274D
:104130004FF00408A1642046022284F84C7084F8F1
:104140004F7084F84E5084F84D5084F8505084F8E5
:10415000515084F8525084F8535084F8545084F8E5
:104160005550FFF7B1FF04F1140610220223314825
:104170000DEB0801ADF804208DF806308DF80780AE
:10418000FEF726F841463B4630462A4AFCF7F0FF48
:1041900084F84400D8B904F12C0528460421254AA6
:1041A0000223FCF7E5FF84F8450038BB94F844305F
:1041B0001BB920692049FDF7C1FA20691F49FDF7A5
:1041C000E5FA1F48FCF784FA02B0BDE8F0813046FA
:1041D000FCF77AFF3046FCF777FF3046FDF7D6F85C
:1041E00029463046FDF742F93046FCF76DFF304670
:1041F000FDF7CCF83046FDF7D9F8CCE72846FCF7B8
:1042000063FF2846FCF760FF2846FDF7BFF8002152
:104210002846FDF72BF92846FCF756FF2846FDF700
:10422000B5F82846FDF7C2F8C0E700BF88B9000816
:1042300000000C4200080140A8B90008B4B9000809
:10424000D4B9000838B5856C04460949284603F0FE
:1042500041F800B138BD28464FF07C5102F080FD96
:104260000222A06401462046BDE83840FFF72CBF7B
:104270000000344238B5856C04460949284603F0ED
:104280001FF800B138BD28464FF07C5102F066FDA2
:104290000222A06401462046BDE83840FFF714BF63
:1042A0000000204110B5102104460C48FDF7F6FF30
:1042B00000B110BD94F85020E06882F0010284F84B
:1042C00050204FF40061FEF775FFA06894F850206D
:1042D0004FF48071BDE8104001F00CBB00080140B4
:1042E00010B5102104460C48FDF7D8FF00B110BDF1
:1042F00094F85120E06882F0010284F851204FF4D4
:104300008051FEF757FFA06894F851204FF40071D8
:10431000BDE8104001F0EEBA0008014010B51021D0
:1043200004460948FDF7BAFF00B110BD94F84D20CE
:10433000A06882F0010284F84D204FF48061BDE84E
:10434000104001F0D7BA00BF0008014010B510219D
:1043500004460C48FDF7A2FF00B110BD94F84E20B2
:10436000E06882F0010284F84E204FF48061FEF78D
:1043700021FFA06894F84E204FF40061BDE8104082
:1043800001F0B8BA0008014010B5044690F8542076
:104390004FF4004182F00102C06884F85420FEF717
:1043A00009FFA06894F854204FF40051BDE8104074
:1043B00001F0A0BA10B5044690F855204FF4807172
:1043C00082F00102C06884F85520FEF7F3FEA06871
:1043D00094F855204FF48041BDE8104001F08ABAAE
:1043E00010B50446002380F84D3080F84E3080F838
:1043F000503080F8513080F8523080F85330C06827
:10440000FEF70AFF206994F85210BDE81040FDF74E
:1044100091B900BF2DE9F04700F1140888B00023DE
:1044200004464046ADF8083003938DF81030ADF8DF
:10443000143006938DF81C30FCF746FE0646002823
:1044400040F0858004F12C073846FCF73DFE84F8E7
:104450004500002873D19DF81030002B5CD06846D1
:104460005249BDF90820039B6D46FCF79BF8206973
:1044700001212A46FDF748F99DF81C30002B43D056
:1044800028464A49BDF91420069BFCF78BF82A46BA
:1044900020690021FDF738F945481021BDF808A032
:1044A000DDF80C90FDF7FAFEB0FA80F594F84C3088
:1044B0006D09AB4206D02069FDF752F9002D58D0A6
:1044C00084F84C5094F84430B34206D02069FDF78C
:1044D00047F9002E43D084F844601DB19DF8103098
:1044E000002B4ED194F84430FBB994F8453043B1D9
:1044F0003846FCF7E9FD3846FCF748FF3846FCF73C
:1045000055FF08B0BDE8F0872A4B1B681A0CADF8C0
:1045100000308DF80220BAE7264B6D461B681A0C56
:10452000ADF800308DF80220A1E74046FCF7CCFD45
:104530004046FCF72BFF4046FCF738FFD5E73846EE
:10454000FCF724FF384605A9FCF7F4FF83E7404653
:10455000FCF71CFF404602A9FCF7ECFF72E720467F
:10456000FFF73EFF20691449FDF7E8F884F844603E
:10457000B3E72046FFF734FF20691049FDF7DEF866
:104580009EE70FFA8AF002F09FFC0546484602F0CB
:1045900097FC0B4902F0A0FD0146284602F0E0FB23
:1045A00001462046FFF746FD9CE700BF80B90008A2
:1045B00000080140F4B90008A8B90008F8B90008DB
:1045C0000000204138B590F84F50044685F00105B1
:1045D00080F84F505DB180684FF48051012201F0A6
:1045E00089F920690121BDE83840FDF751B880F80C
:1045F000505080F8515080F8545080F855502A4659
:10460000C0684FF40061FEF7D5FDE06894F85120D2
:104610004FF48051FEF7CEFDE06894F854204FF43B
:104620000041FEF7C7FDE06894F855204FF4807113
:10463000FEF7C0FDA06894F850204FF4807101F09F
:1046400059F9A06894F851204FF4007101F052F923
:10465000A06894F854204FF4005101F04BF9A06881
:1046600094F855204FF4804101F044F9A0684FF4CC
:1046700080512A4601F03EF920692946BDE83840BC
:10468000FDF706B84FF6FF6241F47E4343F0FF03A7
:10469000934240D04FF6FF5241F47D4343F0FF0375
:1046A00093423CD04FF6FF3241F47B4343F0FF038B
:1046B000934236D04FF2FF7241F4774343F0FF0349
:1046C000934230D04DF6FF7241F45F4343F0FF0355
:1046D00093422AD04BF6FF7241F43F4343F0FF036D
:1046E000934224D04FF67F7241F47F4343F07F031F
:1046F00093421ED04FF6BF7241F47F4343F0BF0395
:10470000934218D04EF6FF7341F46F4141F0FF0120
:10471000994202D07047FFF7C5BDFFF753BFFFF7BF
:10472000DFBDFFF7FBBDFFF711BEFFF72DBEFFF7A3
:1047300041BEFFF787BDFFF79DBD00BF08B5264B03
:10474000984218D0254B984221D0254B98422AD028
:10475000244B984233D0244B984200D008BD4FF4EC
:1047600080100121FDF7C0FFBDE808404FF4801024
:104770000021FDF7B9BF4FF480400121FDF7A8FFEC
:10478000BDE808404FF480400021FDF7A1BF4FF481
:1047900000300121FDF7A8FFBDE808404FF40030CC
:1047A0000021FDF7A1BF4FF480200121FDF79CFF00
:1047B000BDE808404FF480200021FDF795BF4FF47D
:1047C00000200121FDF790FFBDE808404FF40020D4
:1047D0000021FDF789BF00BF0038014000440040C0
:1047E00000480040004C00400050004070B50446B6
:1047F0000D46038ACA889BB223F4405313430382B5
:1048000082898B88088992B24989034322F4B05285
:104810000B4322F00C0213439BB2A381A38AAA8903
:104820009BB223F4407386B01343A38201A8FDF723
:10483000DDFE1B48039B0499A289844208BF0B46F6
:1048400012B2002A2A6803EB8303B4BF520092001D
:1048500003EB8303B3FBF2F3124EA589A6FB0320FF
:104860002DB240096422002D00FB12334FEA0010E4
:104870000ADB1A013232A6FB0223C3F343130343BC
:104880009BB2238106B070BDD9003231A6FB013145
:10489000C1F3421242EA00039BB2238106B070BD0D
:1048A000003801401F85EB5100234FF416510C22B4
:1048B000016042818380C38003818381704700BF90
:1048C00030B40B884D888C88028A2B43C9882343D7
:1048D00092B20B4322F4706213439BB2038230BC4A
:1048E000704700BF0023038043808380C3807047EC
:1048F000838929B923F400531B041B0C838170475F
:104900009BB243F400538381704700BF10B401F0A1
:104910001F04C1F342110123012903FA04F311D04A
:1049200002290CBF1030143032B902685DF8044B14
:1049300022EA03030360704702685DF8044B1343E7
:10494000036070470C30EFE7838A9BB21AB923EA01
:10495000010181827047194381827047038A23F0E5
:104960000F031B041B0C0382038A9BB219430182B1
:10497000704700BF838923F400631B041B0C8381F1
:1049800083899BB219438181704700BF838929B90C
:1049900023F002031B041B0C838170479BB243F07E
:1049A00002038381704700BF038A23F020031B04A6
:1049B0001B0C0382038A9BB219430182704700BF1C
:1049C000038A29B923F480431B041B0C038270471C
:1049D0009BB243F480430382704700BFC1F30801D8
:1049E000818070478088C0F30800704783899BB23C
:1049F00043F0010383817047038BDBB20383038B96
:104A00009BB243EA01210183704700BF038B03F48B
:104A10007F430383038B9BB219430183704700BF1D
:104A2000838A29B923F020031B041B0C838270475F
:104A30009BB243F020038382704700BF838A29B969
:104A400023F010031B041B0C838270479BB243F0BE
:104A500010038382704700BF838A29B923F00803BB
:104A60001B041B0C838270479BB243F008038382B4
:104A7000704700BF838919B9C3F30E038381704760
:104A80006FEA43436FEA53439BB28381704700BF91
:104A9000838A29B923F400631B041B0C83827047AB
:104AA0009BB243F400638382704700BF838A23F084
:104AB00004031B041B0C8382838A9BB219438182EB
:104AC000704700BF838A29B923F002031B041B0C23
:104AD000838270479BB243F002038382704700BF1A
:104AE0000388194214BF012000207047C94389B2CE
:104AF00001807047C1F3421210B4012301F01F047A
:104B0000012A03FA04F316D0022A0CBF028A828A11
:104B100092B21340028892B24BB1090A01238B4032
:104B2000134214BF012000205DF8044B7047184663
:104B30005DF8044B7047828992B21340EAE700BFE8
:104B4000090A01238B40DB439BB20380704700BFFF
:104B500043185B78405C03EB002080B2704700BFD5
:104B60000020704790F82A00704700BF90F8290095
:104B70000130C0B2704700BF90F82A2090F8293069
:104B80009B1A5BB203EBD37302EB6300C0B27047B6
:104B90000078704700787047704700BF08B5FFF78E
:104BA000FBFF18B1022801D0032008BD062008BD74
:104BB000407970470621CBE70821C9E7807A704722
:104BC000C07A704790F90C00704700BF90F90D0053
:104BD000704700BF90F90E00704700BF90F90F00BA
:104BE000704700BF90F91000704700BFF8B5047817
:104BF00006462046FFF7D0FF07462046FFF7CEFFC8
:104C000005463046FFF7DAFF04463046FFF7D8FF87
:104C1000012F14BFFF210F2106F1110209E0937843
:104C2000844203EA01032B441A4404F1010409D02D
:104C3000E4B21378FF2BF2D1844202F1010204F1B5
:104C40000104F5D1901BF8BD83685878704700BF08
:104C500083689878704700BF836893F903007047B2
:104C6000836893F90400704783685879704700BFE0
:104C70002DE9F84FD0F808A081469AF800400E467A
:104C80002046FFF789FF07462046FFF787FF012FE1
:104C90008346504614BF4FF0FF084FF00F08FFF750
:104CA0008DFF04465046FFF78BFF05465046FFF741
:104CB00083FF602E30D940B350446124B54217D3EE
:104CC000AC420CD914E0B4422ED08378AC4208EA4E
:104CD00003035B44184404F1010409D0E4B20378EF
:104CE000FF2BF0D1AC4200F1010004F10104F5D139
:104CF000002089F81C0089F81F0089F8200089F835
:104D00001D0089F81E00BDE8F88F5046FFF752FFDE
:104D100038B150444124D1E75046FFF74BFF402EB5
:104D2000F6D80AF11100C9E7BFB1022F15D003F080
:104D30000F02023A1B0989F81E2089F81D304378BA
:104D400003F00F021B0989F8202089F81F308378AF
:104D50001B0989F81C30BDE8F88F89F81F304378AB
:104D600089F82030C37889F81C30037989F81D3020
:104D7000437989F81E30BDE8F88F00BF70B514463E
:104D8000054680237F22637022700E460978FFF764
:104D90006FFF6B7F5B42D9B221716B7FA370AB7FDA
:104DA000E37007E02B7F28460B4423713178FFF72F
:104DB0005FFF2179AA7F94F9000053B29842C8BFDF
:104DC000227095F8203094F901001344DBB25AB2F6
:104DD0009042B8BF637016F8013F002BE2D1EB7F21
:104DE0000B44DBB22371697F0B44237170BD00BF9C
:104DF00008B5FFF73DFF003018BF012008BD00BF18
:104E000010B50446FFF734FF00B1207F40B210BD5B
:104E10002DE9F04F8A4685B0194615460646FFF73C
:104E200027FF0446002848D0B3681878FFF7B6FE7D
:104E300096F81E90737F96F82070C9EB05055FFA0F
:104E400085F99A4496F81FB0C7EB0905EDB25FFAF1
:104E50008AFA804600972A4651465B46304600F063
:104E6000E3FC28B30BF1070BCBF3C4031946029301
:104E7000F7B1013BDBB20AEBC1070133A044039356
:104E8000FFB2029B83B15446C3461BF8013B214647
:104E90000834009330462A460023E4B2FDF750F868
:104EA000BC42F2D1039B98440135EDB24D45E8D1A7
:104EB000307F40B205B0BDE8F08F40B205B0BDE82C
:104EC000F08F00BF2DE9F041476A05468846144639
:104ED0001E46B8470219414628463346BDE8F04110
:104EE000D2B2FFF795BF00BF2DE9F04F0C4685B059
:104EF000194691460646FFF7BBFE074600284CD0F0
:104F0000B3681878FFF74AFEB37F727F01331C4401
:104F1000914496F820A0F57FE4B25FFA89F98046C3
:104F200021464A4600955346304600F07DFC78B352
:104F30000AF1FF3305F1070B1C44CBF3C4031946F8
:104F40000293E5B2BAF1000F22D0013BDBB2CAEB0B
:104F5000050A09EBC1020133B8445FFA8AFA0393E8
:104F6000D7B2029B83B14C46C3461BF8013B224695
:104F700008340093304629460123E4B2FCF7E0FFF1
:104F8000BC42F2D1039B9844013DEDB25545E8D1B6
:104F9000307F40B205B0BDE8F08F40B205B0BDE84B
:104FA000F08F00BF2DE9F041476A05460C46904658
:104FB0001E46B847211A424628463346BDE8F0410E
:104FC000C9B2FFF791BF00BF2DE9F04F894685B008
:104FD000194614460646FFF74BFE0746002852D0F6
:104FE000B3681878FFF7DAFD96F81DA0B37FF57F58
:104FF0000133CAEB09091C445FFA89FAC5F10101C2
:1050000096F820B05144E4B28046C9B222462B46FD
:10501000CDF800B0304600F007FC78B30BF1FF3359
:1050200005F107091C44C9F3C40319460293E5B20C
:10503000BBF1000F22D0013BDBB2CBEB050BAAEB9F
:10504000C1020133B8445FFA8BFB0393D7B2029BD2
:1050500083B15446C14619F8013B2146083C0093F0
:1050600030462A460223E4B2FCF76AFFBC42F2D182
:10507000039B9844013DEDB25D45E8D1307F40B2DD
:1050800005B0BDE8F08F40B205B0BDE8F08F00BFBD
:105090002DE9F041476A0546884614461E46B84742
:1050A000221A414628463346BDE8F041D2B2FFF706
:1050B0008BBF00BF2DE9F04F0D4685B019469246D3
:1050C0000646FFF7D5FD044600284CD0B368187893
:1050D000FFF764FD96F82070727FB37F96F81F90FB
:1050E0003B44C2EB0A0AED1A5FFA8AFAC9F10102DF
:1050F000EDB2524480462946CDF80090D2B23B46EC
:10510000304600F091FB48B309F10709C9F3C40325
:105110001946029317B3013BDBB205EB070B0133D2
:10512000AAEBC1075FFA8BFBA0440393FFB2029B7B
:1051300083B15446C14619F8013B2246083C00930E
:10514000304629460323E4B2FCF7FAFEBC42F2D112
:10515000039B98440135EDB25D45E8D1307F40B204
:1051600005B0BDE8F08F40B205B0BDE8F08F00BFDC
:105170002DE9F041476A05460C4690461E46B84761
:105180000119424628463346BDE8F041C9B2FFF74F
:1051900091BF00BF2DE9F0419846436A1646074685
:1051A0000C46984798F800303044C6B28BB10025C1
:1051B000214638463246FFF72BFE18F8013FC0B2B1
:1051C00004440544E4B2EDB2002BF1D12846BDE819
:1051D000F0811D46FAE700BF2DE9F0419846436A89
:1051E0000E4607461446984798F80030301AC6B263
:1051F0008BB10025224638463146FFF775FE18F878
:10520000013FC0B204440544E4B2EDB2002BF1D139
:105210002846BDE8F0811D46FAE700BF2DE9F041C0
:105220009846436A164607460C46984798F8003059
:10523000301AC6B28BB10025214638463246FFF7F8
:10524000C3FE18F8013FC0B2241A0544E4B2EDB21F
:10525000002BF1D12846BDE8F0811D46FAE700BFDA
:105260002DE9F0419846436A0E4607461446984792
:1052700098F800303044C6B28BB10025224638463B
:105280003146FFF717FF18F8013FC0B2241A054452
:10529000E4B2EDB2002BF1D12846BDE8F0811D4605
:1052A000FAE700BF10B5029C032B17D8DFE803F024
:1052B000110C07022346BDE81040FFF7D1BF23467B
:1052C000BDE81040FFF7AABF2346BDE81040FFF736
:1052D00083BF2346BDE81040FFF75CBF002010BD30
:1052E0002DE9F0419846436A164607460C46984712
:1052F00098F800303044C6B28BB1002521463846BC
:105300003246FFF785FD18F8013FC0B2044405445A
:10531000E4B2EDB2002BF1D12846BDE8F0811D4684
:10532000FAE700BF2DE9F0419846436A0E4607466A
:105330001446984798F80030301AC6B28BB1002551
:10534000224638463146FFF72DFE18F8013FC0B21D
:1053500004440544E4B2EDB2002BF1D12846BDE887
:10536000F0811D46FAE700BF2DE9F0419846436AF7
:10537000164607460C46984798F80030301AC6B2D1
:105380008BB10025214638463246FFF781FE18F8DA
:10539000013FC0B2241A0544E4B2EDB2002BF1D1B2
:1053A0002846BDE8F0811D46FAE700BF2DE9F0412F
:1053B0009846436A0E4607461446984798F80030C8
:1053C0003044C6B28BB10025224638463146FFF73D
:1053D000CFFE18F8013FC0B2241A0544E4B2EDB282
:1053E000002BF1D12846BDE8F0811D46FAE700BF49
:1053F0002DE9F0410C46154698460746FFF72CFC70
:10540000241A3846FFF72CFCE4B22A182146384605
:105410004346BDE8F041D2B2FFF744BF70B50C4639
:1054200015460646FFF718FC241A3046FFF718FC0D
:10543000E4B22A189DF81030D2B221463046FFF768
:10544000E7FC002070BD00BF8268CAB190F8283028
:10545000BBB1012B1CD0537B80F82930927B80F8A4
:105460002A2090F82B105BB252B29B1A40299BB2B3
:1054700004D0DBB201FB03F3C3F38F1380F82C30AD
:105480007047537980F82930127B80F82A20E8E7AA
:10549000D37B80F82930127C80F82A20E1E700BF16
:1054A000002280F82820FFF7CFBF00BF012380F83B
:1054B0002830FFF7C9BF00BF022380F82830FFF76C
:1054C000C3BF00BF80F82B10FFF7BEBF014B436284
:1054D000704700BF614B0008014B4362704700BF3B
:1054E000654B0008014B4362704700BF6D4B0008DD
:1054F000014B4362704700BF794B00082DE9F04132
:10550000064608460C4690469047054608B9BDE851
:10551000F08130462946FFF7ABFB707F4042C7B2AF
:1055200009E0337F20463B44DFB2C04705463046A2
:105530002946FFF79DFB01342046C0470028F0D1E3
:10554000202D1BBF707FF37F307FC0183844C0B25E
:10555000BDE8F081014AFFF7D1BF00BF914B0008C1
:10556000014AFFF7CBBF00BF954B000810B50446BA
:105570000978FFF77DFB94F91D0010BD10B50446B6
:105580000978FFF775FB94F91D0010BD70B50D4645
:10559000097869B1064600243046FFF769FB337F7E
:1055A00015F8011F1C44E4B20029F5D1204670BD56
:1055B0000C46FBE770B50D46097869B10646002434
:1055C0003046FFF755FB337F15F8011F1C44E4B24A
:1055D0000029F5D1204670BD0C46FBE710B400242D
:1055E00014710C7834B9147054709470D4705DF8E0
:1055F000044B70475DF8044BFFF7C0BB704700BF1A
:10560000704700BF2DE9F0430F7883B00C460A9E27
:105610000B9D17B3814690461F466A4600238DF8BE
:105620000430FFF7ABFB21784846FFF721FB98F8E1
:10563000001099F81D309DF804200B4488F80030C4
:1056400032703A789DF801309DF80010D21A5B1A3A
:105650003A702B7003B0BDE8F08337702F7003B041
:10566000BDE8F0832DE9F0470C7882B00D460A9F23
:105670000B9E6CB304469146984683684FF0000E2B
:105680006A4693F805A08DF804E0FFF777FB9DF9D3
:105690000130297853452046B8BF8DF801A0FFF7A7
:1056A000E7FA99F80010637F9DF804200B4489F80D
:1056B00000303A7098F800209DF801309DF80010F5
:1056C000D21A5B1A88F80020337002B0BDE8F08768
:1056D0003C70347002B0BDE8F08700BF82688A4237
:1056E00007D010B504468160FFF7AEFE014B636240
:1056F00010BD7047614B00082DE9F04F8A4685B018
:10570000194615460646FFF7B3FA0446002848D066
:10571000B3681878FFF742FA96F81E90737F96F8F0
:105720002070C9EB05055FFA85F99A4496F81FB019
:10573000C7EB0905EDB25FFA8AFA804600972A4660
:1057400051465B46304600F06FF828B30BF1030B6F
:10575000CBF3850319460293F7B1013BDBB20AEBA9
:1057600081070133A0440393FFB2029B83B15446E7
:10577000C3461BF8013B21460434009330462A46B9
:105780000023E4B2FCF7F0FBBC42F2D1039B984447
:105790000135EDB24D45E8D1307F40B205B0BDE8EE
:1057A000F08F40B205B0BDE8F08F00BF2DE9F041A9
:1057B000476A0546884614461E46B84702194146C0
:1057C00028463346BDE8F041D2B2FFF795BF00BF8F
:1057D0002DE9F041074680680C46007890461E4649
:1057E000FFF7DAF9022802D00020BDE8F0817B6AD9
:1057F00038469847337840445FFA80F88BB10025EB
:10580000214638464246FFF777FF16F8013FC0B2FF
:1058100004440544E4B2EDB2002BF1D12846BDE8C2
:10582000F0811D46FAE700BF70B49DF80C4090F877
:105830003B60013C14449642E4B290F839500FD3D7
:10584000AC420FD390F83A40013B0B448C42DBB2A0
:1058500090F838200BD393420BD370BC01207047D3
:10586000AC4201D3A242EDD870BC002070479342F5
:10587000FAD370BC994294BF00200120704700BF4A
:1058800070B5054686B01748FAF722FF00240826AF
:1058900040218022442328460191029203930096DE
:1058A000114B049411494FF40012FDF73BF92846BF
:1058B00021462246FDF75EF9284622460121FDF7E2
:1058C00059F9284621462246FDF7EEF92846224698
:1058D0000121FDF7E9F90648AC8306B0BDE8704048
:1058E000FAF7F6BE04BA0008000C0140005400406C
:1058F0001CBA000838B50D460446818B42B1124BE4
:1059000012482A46FAF7C0FEA38B1D4208D038BDC4
:105910000F4B0E482A46FAF7B7FEA38B1D4211D053
:105920000C48FAF7D5FEA28B20466A40A2830021DC
:10593000120AFDF7B9F92046227F0121BDE838405F
:10594000FDF7B2B938BD00BF2C89000834BA000891
:1059500024890008C888000840F0BF60024B40F46A
:105960000030D860704700BF00ED00E0C3785BB93D
:10597000037801215A09174803F01F03203201FA66
:1059800003F340F822307047134A30B4D2684378AA
:10599000D2438178C2F302220F24D440C2F104051D
:1059A00003FA05F204EA0103017813431B0101F134
:1059B0006042DBB202F5614282F8003303780122D3
:1059C00003F01F0003495B09824041F8232030BCEB
:1059D000704700BF00E100E000ED00E021F0604111
:1059E00021F07F01014B08439860704700ED00E013
:1059F000044A136919B923EA00001061704718437B
:105A00001061704700ED00E0044A042813680CBFE1
:105A100043F0040323F004031360704710E000E038
:105A200008B50D4B98420BD04FF480000121FCF7D4
:105A30005BFEBDE808404FF480000021FCF754BE37
:105A40004FF400100121FCF74FFEBDE808404FF471
:105A500000100021FCF748BE00540040F0B5044699
:105A60000D4687B0868801A8FCF7C0FD314F039B27
:105A700026F03F06A7FB03273604BF0C360CB8B24E
:105A80000643A68021882A6821F001012A4E0904D4
:105A9000090CB242218024D85200B3FBF2F39BB22E
:105AA000032B00F1010098BF04232084A3832188E5
:105AB0006E8989B241F0010121802388AA8823F4EC
:105AC000816323F002032889A9891B0432431B0C3C
:105AD000134340EA01029BB292B22380228107B0B5
